{
	"data": {
		"bytecode": {
			"linkReferences": {},
			"object": "610484610053600b82828239805160001a607314610046577f4e487b7100000000000000000000000000000000000000000000000000000000600052600060045260246000fd5b30600052607381538281f3fe73000000000000000000000000000000000000000030146080604052600436106100355760003560e01c8063535849391461003a575b600080fd5b610054600480360381019061004f91906102a2565b61006a565b6040516100619190610317565b60405180910390f35b6000806000602085511161007f578451610082565b60205b905060005b818110156101065760088161009c9190610361565b60ff60f81b8783886100ae91906103a3565b815181106100bf576100be6103d7565b5b602001015160f81c60f81b167effffffffffffffffffffffffffffffffffffffffffffffffffffffffffffff1916901c8317925080806100fe90610406565b915050610087565b50819250505092915050565b6000604051905090565b600080fd5b600080fd5b600080fd5b600080fd5b6000601f19601f8301169050919050565b7f4e487b7100000000000000000000000000000000000000000000000000000000600052604160045260246000fd5b61017982610130565b810181811067ffffffffffffffff8211171561019857610197610141565b5b80604052505050565b60006101ab610112565b90506101b78282610170565b919050565b600067ffffffffffffffff8211156101d7576101d6610141565b5b6101e082610130565b9050602081019050919050565b82818337600083830152505050565b600061020f61020a846101bc565b6101a1565b90508281526020810184848401111561022b5761022a61012b565b5b6102368482856101ed565b509392505050565b600082601f83011261025357610252610126565b5b81356102638482602086016101fc565b91505092915050565b6000819050919050565b61027f8161026c565b811461028a57600080fd5b50565b60008135905061029c81610276565b92915050565b600080604083850312156102b9576102b861011c565b5b600083013567ffffffffffffffff8111156102d7576102d6610121565b5b6102e38582860161023e565b92505060206102f48582860161028d565b9150509250929050565b6000819050919050565b610311816102fe565b82525050565b600060208201905061032c6000830184610308565b92915050565b7f4e487b7100000000000000000000000000000000000000000000000000000000600052601160045260246000fd5b600061036c8261026c565b91506103778361026c565b92508282026103858161026c565b9150828204841483151761039c5761039b610332565b5b5092915050565b60006103ae8261026c565b91506103b98361026c565b92508282019050808211156103d1576103d0610332565b5b92915050565b7f4e487b7100000000000000000000000000000000000000000000000000000000600052603260045260246000fd5b60006104118261026c565b91507fffffffffffffffffffffffffffffffffffffffffffffffffffffffffffffffff820361044357610442610332565b5b60018201905091905056fea26469706673582212208bdb8ee956f182eb11ac6b7d8e74fce8e4e3b62ba8cd644f4131e79b7042f17764736f6c63430008120033",
			"opcodes": "PUSH2 0x484 PUSH2 0x53 PUSH1 0xB DUP3 DUP3 DUP3 CODECOPY DUP1 MLOAD PUSH1 0x0 BYTE PUSH1 0x73 EQ PUSH2 0x46 JUMPI PUSH32 0x4E487B7100000000000000000000000000000000000000000000000000000000 PUSH1 0x0 MSTORE PUSH1 0x0 PUSH1 0x4 MSTORE PUSH1 0x24 PUSH1 0x0 REVERT JUMPDEST ADDRESS PUSH1 0x0 MSTORE PUSH1 0x73 DUP2 MSTORE8 DUP3 DUP2 RETURN INVALID PUSH20 0x0 ADDRESS EQ PUSH1 0x80 PUSH1 0x40 MSTORE PUSH1 0x4 CALLDATASIZE LT PUSH2 0x35 JUMPI PUSH1 0x0 CALLDATALOAD PUSH1 0xE0 SHR DUP1 PUSH4 0x53584939 EQ PUSH2 0x3A JUMPI JUMPDEST PUSH1 0x0 DUP1 REVERT JUMPDEST PUSH2 0x54 PUSH1 0x4 DUP1 CALLDATASIZE SUB DUP2 ADD SWAP1 PUSH2 0x4F SWAP2 SWAP1 PUSH2 0x2A2 JUMP JUMPDEST PUSH2 0x6A JUMP JUMPDEST PUSH1 0x40 MLOAD PUSH2 0x61 SWAP2 SWAP1 PUSH2 0x317 JUMP JUMPDEST PUSH1 0x40 MLOAD DUP1 SWAP2 SUB SWAP1 RETURN JUMPDEST PUSH1 0x0 DUP1 PUSH1 0x0 PUSH1 0x20 DUP6 MLOAD GT PUSH2 0x7F JUMPI DUP5 MLOAD PUSH2 0x82 JUMP JUMPDEST PUSH1 0x20 JUMPDEST SWAP1 POP PUSH1 0x0 JUMPDEST DUP2 DUP2 LT ISZERO PUSH2 0x106 JUMPI PUSH1 0x8 DUP2 PUSH2 0x9C SWAP2 SWAP1 PUSH2 0x361 JUMP JUMPDEST PUSH1 0xFF PUSH1 0xF8 SHL DUP8 DUP4 DUP9 PUSH2 0xAE SWAP2 SWAP1 PUSH2 0x3A3 JUMP JUMPDEST DUP2 MLOAD DUP2 LT PUSH2 0xBF JUMPI PUSH2 0xBE PUSH2 0x3D7 JUMP JUMPDEST JUMPDEST PUSH1 0x20 ADD ADD MLOAD PUSH1 0xF8 SHR PUSH1 0xF8 SHL AND PUSH31 0xFFFFFFFFFFFFFFFFFFFFFFFFFFFFFFFFFFFFFFFFFFFFFFFFFFFFFFFFFFFFFF NOT AND SWAP1 SHR DUP4 OR SWAP3 POP DUP1 DUP1 PUSH2 0xFE SWAP1 PUSH2 0x406 JUMP JUMPDEST SWAP2 POP POP PUSH2 0x87 JUMP JUMPDEST POP DUP2 SWAP3 POP POP POP SWAP3 SWAP2 POP POP JUMP JUMPDEST PUSH1 0x0 PUSH1 0x40 MLOAD SWAP1 POP SWAP1 JUMP JUMPDEST PUSH1 0x0 DUP1 REVERT JUMPDEST PUSH1 0x0 DUP1 REVERT JUMPDEST PUSH1 0x0 DUP1 REVERT JUMPDEST PUSH1 0x0 DUP1 REVERT JUMPDEST PUSH1 0x0 PUSH1 0x1F NOT PUSH1 0x1F DUP4 ADD AND SWAP1 POP SWAP2 SWAP1 POP JUMP JUMPDEST PUSH32 0x4E487B7100000000000000000000000000000000000000000000000000000000 PUSH1 0x0 MSTORE PUSH1 0x41 PUSH1 0x4 MSTORE PUSH1 0x24 PUSH1 0x0 REVERT JUMPDEST PUSH2 0x179 DUP3 PUSH2 0x130 JUMP JUMPDEST DUP2 ADD DUP2 DUP2 LT PUSH8 0xFFFFFFFFFFFFFFFF DUP3 GT OR ISZERO PUSH2 0x198 JUMPI PUSH2 0x197 PUSH2 0x141 JUMP JUMPDEST JUMPDEST DUP1 PUSH1 0x40 MSTORE POP POP POP JUMP JUMPDEST PUSH1 0x0 PUSH2 0x1AB PUSH2 0x112 JUMP JUMPDEST SWAP1 POP PUSH2 0x1B7 DUP3 DUP3 PUSH2 0x170 JUMP JUMPDEST SWAP2 SWAP1 POP JUMP JUMPDEST PUSH1 0x0 PUSH8 0xFFFFFFFFFFFFFFFF DUP3 GT ISZERO PUSH2 0x1D7 JUMPI PUSH2 0x1D6 PUSH2 0x141 JUMP JUMPDEST JUMPDEST PUSH2 0x1E0 DUP3 PUSH2 0x130 JUMP JUMPDEST SWAP1 POP PUSH1 0x20 DUP2 ADD SWAP1 POP SWAP2 SWAP1 POP JUMP JUMPDEST DUP3 DUP2 DUP4 CALLDATACOPY PUSH1 0x0 DUP4 DUP4 ADD MSTORE POP POP POP JUMP JUMPDEST PUSH1 0x0 PUSH2 0x20F PUSH2 0x20A DUP5 PUSH2 0x1BC JUMP JUMPDEST PUSH2 0x1A1 JUMP JUMPDEST SWAP1 POP DUP3 DUP2 MSTORE PUSH1 0x20 DUP2 ADD DUP5 DUP5 DUP5 ADD GT ISZERO PUSH2 0x22B JUMPI PUSH2 0x22A PUSH2 0x12B JUMP JUMPDEST JUMPDEST PUSH2 0x236 DUP5 DUP3 DUP6 PUSH2 0x1ED JUMP JUMPDEST POP SWAP4 SWAP3 POP POP POP JUMP JUMPDEST PUSH1 0x0 DUP3 PUSH1 0x1F DUP4 ADD SLT PUSH2 0x253 JUMPI PUSH2 0x252 PUSH2 0x126 JUMP JUMPDEST JUMPDEST DUP2 CALLDATALOAD PUSH2 0x263 DUP5 DUP3 PUSH1 0x20 DUP7 ADD PUSH2 0x1FC JUMP JUMPDEST SWAP2 POP POP SWAP3 SWAP2 POP POP JUMP JUMPDEST PUSH1 0x0 DUP2 SWAP1 POP SWAP2 SWAP1 POP JUMP JUMPDEST PUSH2 0x27F DUP2 PUSH2 0x26C JUMP JUMPDEST DUP2 EQ PUSH2 0x28A JUMPI PUSH1 0x0 DUP1 REVERT JUMPDEST POP JUMP JUMPDEST PUSH1 0x0 DUP2 CALLDATALOAD SWAP1 POP PUSH2 0x29C DUP2 PUSH2 0x276 JUMP JUMPDEST SWAP3 SWAP2 POP POP JUMP JUMPDEST PUSH1 0x0 DUP1 PUSH1 0x40 DUP4 DUP6 SUB SLT ISZERO PUSH2 0x2B9 JUMPI PUSH2 0x2B8 PUSH2 0x11C JUMP JUMPDEST JUMPDEST PUSH1 0x0 DUP4 ADD CALLDATALOAD PUSH8 0xFFFFFFFFFFFFFFFF DUP2 GT ISZERO PUSH2 0x2D7 JUMPI PUSH2 0x2D6 PUSH2 0x121 JUMP JUMPDEST JUMPDEST PUSH2 0x2E3 DUP6 DUP3 DUP7 ADD PUSH2 0x23E JUMP JUMPDEST SWAP3 POP POP PUSH1 0x20 PUSH2 0x2F4 DUP6 DUP3 DUP7 ADD PUSH2 0x28D JUMP JUMPDEST SWAP2 POP POP SWAP3 POP SWAP3 SWAP1 POP JUMP JUMPDEST PUSH1 0x0 DUP2 SWAP1 POP SWAP2 SWAP1 POP JUMP JUMPDEST PUSH2 0x311 DUP2 PUSH2 0x2FE JUMP JUMPDEST DUP3 MSTORE POP POP JUMP JUMPDEST PUSH1 0x0 PUSH1 0x20 DUP3 ADD SWAP1 POP PUSH2 0x32C PUSH1 0x0 DUP4 ADD DUP5 PUSH2 0x308 JUMP JUMPDEST SWAP3 SWAP2 POP POP JUMP JUMPDEST PUSH32 0x4E487B7100000000000000000000000000000000000000000000000000000000 PUSH1 0x0 MSTORE PUSH1 0x11 PUSH1 0x4 MSTORE PUSH1 0x24 PUSH1 0x0 REVERT JUMPDEST PUSH1 0x0 PUSH2 0x36C DUP3 PUSH2 0x26C JUMP JUMPDEST SWAP2 POP PUSH2 0x377 DUP4 PUSH2 0x26C JUMP JUMPDEST SWAP3 POP DUP3 DUP3 MUL PUSH2 0x385 DUP2 PUSH2 0x26C JUMP JUMPDEST SWAP2 POP DUP3 DUP3 DIV DUP5 EQ DUP4 ISZERO OR PUSH2 0x39C JUMPI PUSH2 0x39B PUSH2 0x332 JUMP JUMPDEST JUMPDEST POP SWAP3 SWAP2 POP POP JUMP JUMPDEST PUSH1 0x0 PUSH2 0x3AE DUP3 PUSH2 0x26C JUMP JUMPDEST SWAP2 POP PUSH2 0x3B9 DUP4 PUSH2 0x26C JUMP JUMPDEST SWAP3 POP DUP3 DUP3 ADD SWAP1 POP DUP1 DUP3 GT ISZERO PUSH2 0x3D1 JUMPI PUSH2 0x3D0 PUSH2 0x332 JUMP JUMPDEST JUMPDEST SWAP3 SWAP2 POP POP JUMP JUMPDEST PUSH32 0x4E487B7100000000000000000000000000000000000000000000000000000000 PUSH1 0x0 MSTORE PUSH1 0x32 PUSH1 0x4 MSTORE PUSH1 0x24 PUSH1 0x0 REVERT JUMPDEST PUSH1 0x0 PUSH2 0x411 DUP3 PUSH2 0x26C JUMP JUMPDEST SWAP2 POP PUSH32 0xFFFFFFFFFFFFFFFFFFFFFFFFFFFFFFFFFFFFFFFFFFFFFFFFFFFFFFFFFFFFFFFF DUP3 SUB PUSH2 0x443 JUMPI PUSH2 0x442 PUSH2 0x332 JUMP JUMPDEST JUMPDEST PUSH1 0x1 DUP3 ADD SWAP1 POP SWAP2 SWAP1 POP JUMP INVALID LOG2 PUSH5 0x6970667358 0x22 SLT KECCAK256 DUP12 0xDB DUP15 0xE9 JUMP CALL DUP3 0xEB GT 0xAC PUSH12 0x7D8E74FCE8E4E3B62BA8CD64 0x4F COINBASE BALANCE 0xE7 SWAP12 PUSH17 0x42F17764736F6C63430008120033000000 "
		},
		"gasEstimates": {
			"creation": {
				"codeDepositCost": "231200",
				"executionCost": "300",
				"totalCost": "231500"
			},
			"external": {
				"bytesToBytes32(bytes,uint256)": "infinite"
			},
			"internal": {
				"checked_write(struct StdStorage storage pointer,address)": "infinite",
				"checked_write(struct StdStorage storage pointer,bool)": "infinite",
				"checked_write(struct StdStorage storage pointer,bytes32)": "infinite",
				"checked_write(struct StdStorage storage pointer,uint256)": "infinite",
				"depth(struct StdStorage storage pointer,uint256)": "infinite",
				"find(struct StdStorage storage pointer)": "infinite",
				"flatten(bytes32[] memory)": "infinite",
				"read(struct StdStorage storage pointer)": "infinite",
				"read_address(struct StdStorage storage pointer)": "infinite",
				"read_bool(struct StdStorage storage pointer)": "infinite",
				"read_bytes32(struct StdStorage storage pointer)": "infinite",
				"read_int(struct StdStorage storage pointer)": "infinite",
				"read_uint(struct StdStorage storage pointer)": "infinite",
				"sig(struct StdStorage storage pointer,bytes4)": "infinite",
				"sig(struct StdStorage storage pointer,string memory)": "infinite",
				"sigs(string memory)": "infinite",
				"target(struct StdStorage storage pointer,address)": "infinite",
				"with_key(struct StdStorage storage pointer,address)": "infinite",
				"with_key(struct StdStorage storage pointer,bytes32)": "infinite",
				"with_key(struct StdStorage storage pointer,uint256)": "infinite"
			}
		},
		"methodIdentifiers": {
			"bytesToBytes32(bytes,uint256)": "53584939"
		}
	},
	"abi": [
		{
			"anonymous": false,
			"inputs": [
				{
					"indexed": false,
					"internalType": "address",
					"name": "who",
					"type": "address"
				},
				{
					"indexed": false,
					"internalType": "bytes4",
					"name": "fsig",
					"type": "bytes4"
				},
				{
					"indexed": false,
					"internalType": "bytes32",
					"name": "keysHash",
					"type": "bytes32"
				},
				{
					"indexed": false,
					"internalType": "uint256",
					"name": "slot",
					"type": "uint256"
				}
			],
			"name": "SlotFound",
			"type": "event"
		},
		{
			"anonymous": false,
			"inputs": [
				{
					"indexed": false,
					"internalType": "address",
					"name": "who",
					"type": "address"
				},
				{
					"indexed": false,
					"internalType": "uint256",
					"name": "slot",
					"type": "uint256"
				}
			],
			"name": "WARNING_UninitedSlot",
			"type": "event"
		},
		{
			"inputs": [
				{
					"internalType": "bytes",
					"name": "b",
					"type": "bytes"
				},
				{
					"internalType": "uint256",
					"name": "offset",
					"type": "uint256"
				}
			],
			"name": "bytesToBytes32",
			"outputs": [
				{
					"internalType": "bytes32",
					"name": "",
					"type": "bytes32"
				}
			],
			"stateMutability": "pure",
			"type": "function"
		}
	]
}