{
	"data": {
		"bytecode": {
			"linkReferences": {},
			"object": "60a06040523480156200001157600080fd5b506040516200dc813803806200dc8183398181016040528101906200003791906200016e565b6040518060400160405280601781526020017f556e69737761705633204e465420506f736974696f6e730000000000000000008152506040518060400160405280600581526020017f554e4956330000000000000000000000000000000000000000000000000000008152508160009081620000b491906200041a565b508060019081620000c691906200041a565b5050508073ffffffffffffffffffffffffffffffffffffffff1660808173ffffffffffffffffffffffffffffffffffffffff16815250505062000501565b600080fd5b600073ffffffffffffffffffffffffffffffffffffffff82169050919050565b6000620001368262000109565b9050919050565b620001488162000129565b81146200015457600080fd5b50565b60008151905062000168816200013d565b92915050565b60006020828403121562000187576200018662000104565b5b6000620001978482850162000157565b91505092915050565b600081519050919050565b7f4e487b7100000000000000000000000000000000000000000000000000000000600052604160045260246000fd5b7f4e487b7100000000000000000000000000000000000000000000000000000000600052602260045260246000fd5b600060028204905060018216806200022257607f821691505b602082108103620002385762000237620001da565b5b50919050565b60008190508160005260206000209050919050565b60006020601f8301049050919050565b600082821b905092915050565b600060088302620002a27fffffffffffffffffffffffffffffffffffffffffffffffffffffffffffffffff8262000263565b620002ae868362000263565b95508019841693508086168417925050509392505050565b6000819050919050565b6000819050919050565b6000620002fb620002f5620002ef84620002c6565b620002d0565b620002c6565b9050919050565b6000819050919050565b6200031783620002da565b6200032f620003268262000302565b84845462000270565b825550505050565b600090565b6200034662000337565b620003538184846200030c565b505050565b5b818110156200037b576200036f6000826200033c565b60018101905062000359565b5050565b601f821115620003ca5762000394816200023e565b6200039f8462000253565b81016020851015620003af578190505b620003c7620003be8562000253565b83018262000358565b50505b505050565b600082821c905092915050565b6000620003ef60001984600802620003cf565b1980831691505092915050565b60006200040a8383620003dc565b9150826002028217905092915050565b6200042582620001a0565b67ffffffffffffffff811115620004415762000440620001ab565b5b6200044d825462000209565b6200045a8282856200037f565b600060209050601f8311600181146200049257600084156200047d578287015190505b620004898582620003fc565b865550620004f9565b601f198416620004a2866200023e565b60005b82811015620004cc57848901518255600182019150602085019450602081019050620004a5565b86831015620004ec5784890151620004e8601f891682620003dc565b8355505b6001600288020188555050505b505050505050565b60805161d75d620005246000396000818161208b0152612eee015261d75d6000f3fe60806040523480156200001157600080fd5b5060043610620001605760003560e01c80636352211e11620000c9578063b88d4fde1162000087578063b88d4fde1462000421578063c45a01551462000441578063c87b56dd1462000463578063d34879971462000499578063e7dd4c5a14620004b9578063e985e9c514620004ef5762000160565b80636352211e146200033b57806370a08231146200037157806395d89b4114620003a757806399fbab8814620003c9578063a22cb46514620004015762000160565b806318160ddd116200012357806318160ddd146200024a57806323b872dd146200026c57806342842e0e146200028c57806342966c6814620002ac5780634caad39614620002cc5780635f032ef414620003045762000160565b806301ffc9a7146200016557806306fdde03146200019b578063081812fc14620001bd578063095ea7b314620001f357806312ba95ee1462000213575b600080fd5b6200018360048036038101906200017d9190620040ef565b62000525565b6040516200019291906200413e565b60405180910390f35b620001a5620005b9565b604051620001b49190620041f5565b60405180910390f35b620001db6004803603810190620001d5919062004254565b6200064f565b604051620001ea9190620042cb565b60405180910390f35b6200021160048036038101906200020b919062004319565b62000682565b005b6200023160048036038101906200022b91906200448f565b6200086f565b60405162000241929190620044d2565b60405180910390f35b6200025462000cf4565b604051620002639190620044ff565b60405180910390f35b6200028a60048036038101906200028491906200451c565b62000cfa565b005b620002aa6004803603810190620002a491906200451c565b62001104565b005b620002ca6004803603810190620002c4919062004254565b62001247565b005b620002ea6004803603810190620002e491906200459f565b6200169d565b604051620002fb93929190620045e2565b60405180910390f35b6200032260048036038101906200031c91906200468e565b6200188d565b60405162000332929190620046c0565b60405180910390f35b62000359600480360381019062000353919062004254565b62001bdf565b604051620003689190620042cb565b60405180910390f35b6200038f6004803603810190620003899190620046ed565b62001c8d565b6040516200039e9190620044ff565b60405180910390f35b620003b162001d47565b604051620003c09190620041f5565b60405180910390f35b620003e76004803603810190620003e1919062004254565b62001ddd565b604051620003f8939291906200473d565b60405180910390f35b6200041f6004803603810190620004199190620047ab565b62001e41565b005b6200043f600480360381019062000439919062004860565b62001f40565b005b6200044b62002089565b6040516200045a9190620042cb565b60405180910390f35b6200048160048036038101906200047b919062004254565b620020ad565b604051620004909190620041f5565b60405180910390f35b620004b76004803603810190620004b19190620048f6565b620022c3565b005b620004d76004803603810190620004d1919062004999565b620023d5565b604051620004e69190620044ff565b60405180910390f35b6200050d6004803603810190620005079190620049cc565b6200266f565b6040516200051c91906200413e565b60405180910390f35b60006301ffc9a760e01b827bffffffffffffffffffffffffffffffffffffffffffffffffffffffff191614806200058157506380ac58cd60e01b827bffffffffffffffffffffffffffffffffffffffffffffffffffffffff1916145b80620005b25750635b5e139f60e01b827bffffffffffffffffffffffffffffffffffffffffffffffffffffffff1916145b9050919050565b60008054620005c89062004a42565b80601f0160208091040260200160405190810160405280929190818152602001828054620005f69062004a42565b8015620006475780601f106200061b5761010080835404028352916020019162000647565b820191906000526020600020905b8154815290600101906020018083116200062957829003601f168201915b505050505081565b60046020528060005260406000206000915054906101000a900473ffffffffffffffffffffffffffffffffffffffff1681565b60006002600083815260200190815260200160002060009054906101000a900473ffffffffffffffffffffffffffffffffffffffff1690508073ffffffffffffffffffffffffffffffffffffffff163373ffffffffffffffffffffffffffffffffffffffff1614806200077b5750600560008273ffffffffffffffffffffffffffffffffffffffff1673ffffffffffffffffffffffffffffffffffffffff16815260200190815260200160002060003373ffffffffffffffffffffffffffffffffffffffff1673ffffffffffffffffffffffffffffffffffffffff16815260200190815260200160002060009054906101000a900460ff165b620007bd576040517f08c379a0000000000000000000000000000000000000000000000000000000008152600401620007b49062004ac7565b60405180910390fd5b826004600084815260200190815260200160002060006101000a81548173ffffffffffffffffffffffffffffffffffffffff021916908373ffffffffffffffffffffffffffffffffffffffff160217905550818373ffffffffffffffffffffffffffffffffffffffff168273ffffffffffffffffffffffffffffffffffffffff167f8c5be1e5ebec7d5bd14f71427d1e84f3dd0314c0f7b2291e5b200ac8c7c3b92560405160405180910390a4505050565b60008082600001516000620008848262001bdf565b90508073ffffffffffffffffffffffffffffffffffffffff163373ffffffffffffffffffffffffffffffffffffffff16141580156200094a5750600560008273ffffffffffffffffffffffffffffffffffffffff1673ffffffffffffffffffffffffffffffffffffffff16815260200190815260200160002060003373ffffffffffffffffffffffffffffffffffffffff1673ffffffffffffffffffffffffffffffffffffffff16815260200190815260200160002060009054906101000a900460ff16155b8015620009b657503373ffffffffffffffffffffffffffffffffffffffff166004600084815260200190815260200160002060009054906101000a900473ffffffffffffffffffffffffffffffffffffffff1673ffffffffffffffffffffffffffffffffffffffff1614155b15620009ee576040517fea8e4eb500000000000000000000000000000000000000000000000000000000815260040160405180910390fd5b600060086000876000015181526020019081526020016000206040518060600160405290816000820160009054906101000a900473ffffffffffffffffffffffffffffffffffffffff1673ffffffffffffffffffffffffffffffffffffffff1673ffffffffffffffffffffffffffffffffffffffff1681526020016000820160149054906101000a900460020b60020b60020b81526020016000820160179054906101000a900460020b60020b60020b815250509050600073ffffffffffffffffffffffffffffffffffffffff16816000015173ffffffffffffffffffffffffffffffffffffffff160362000b0f576040517fa0f3feea00000000000000000000000000000000000000000000000000000000815260040160405180910390fd5b60008160000151905060008173ffffffffffffffffffffffffffffffffffffffff1663514ea4bf62000b41856200269e565b6040518263ffffffff1660e01b815260040162000b5f919062004b04565b60a060405180830381865afa15801562000b7d573d6000803e3d6000fd5b505050506040513d601f19601f8201168201806040525081019062000ba3919062004b4f565b505050509050806fffffffffffffffffffffffffffffffff1688602001516fffffffffffffffffffffffffffffffff16111562000c0c576040517f4323a55500000000000000000000000000000000000000000000000000000000815260040160405180910390fd5b8173ffffffffffffffffffffffffffffffffffffffff1663a34123a7846020015185604001518b602001516040518463ffffffff1660e01b815260040162000c579392919062004bd7565b60408051808303816000875af115801562000c76573d6000803e3d6000fd5b505050506040513d601f19601f8201168201806040525081019062000c9c919062004c14565b809750819850505087600001517f1832d0be987b5f3cbc73b42f7ee61f47d509f9a14f8d3770969dfdabef841c3e8960200151898960405162000ce293929190620045e2565b60405180910390a25050505050915091565b60065481565b6002600082815260200190815260200160002060009054906101000a900473ffffffffffffffffffffffffffffffffffffffff1673ffffffffffffffffffffffffffffffffffffffff168373ffffffffffffffffffffffffffffffffffffffff161462000d9e576040517f08c379a000000000000000000000000000000000000000000000000000000000815260040162000d959062004cab565b60405180910390fd5b600073ffffffffffffffffffffffffffffffffffffffff168273ffffffffffffffffffffffffffffffffffffffff160362000e10576040517f08c379a000000000000000000000000000000000000000000000000000000000815260040162000e079062004d1d565b60405180910390fd5b8273ffffffffffffffffffffffffffffffffffffffff163373ffffffffffffffffffffffffffffffffffffffff16148062000ed15750600560008473ffffffffffffffffffffffffffffffffffffffff1673ffffffffffffffffffffffffffffffffffffffff16815260200190815260200160002060003373ffffffffffffffffffffffffffffffffffffffff1673ffffffffffffffffffffffffffffffffffffffff16815260200190815260200160002060009054906101000a900460ff165b8062000f3b57506004600082815260200190815260200160002060009054906101000a900473ffffffffffffffffffffffffffffffffffffffff1673ffffffffffffffffffffffffffffffffffffffff163373ffffffffffffffffffffffffffffffffffffffff16145b62000f7d576040517f08c379a000000000000000000000000000000000000000000000000000000000815260040162000f749062004ac7565b60405180910390fd5b600360008473ffffffffffffffffffffffffffffffffffffffff1673ffffffffffffffffffffffffffffffffffffffff1681526020019081526020016000206000815480929190600190039190505550600360008373ffffffffffffffffffffffffffffffffffffffff1673ffffffffffffffffffffffffffffffffffffffff16815260200190815260200160002060008154809291906001019190505550816002600083815260200190815260200160002060006101000a81548173ffffffffffffffffffffffffffffffffffffffff021916908373ffffffffffffffffffffffffffffffffffffffff1602179055506004600082815260200190815260200160002060006101000a81549073ffffffffffffffffffffffffffffffffffffffff0219169055808273ffffffffffffffffffffffffffffffffffffffff168473ffffffffffffffffffffffffffffffffffffffff167fddf252ad1be2c89b69c2b068fc378daa952ba7f163c4a11628f55a4df523b3ef60405160405180910390a4505050565b6200111183838362000cfa565b60008273ffffffffffffffffffffffffffffffffffffffff163b148062001200575063150b7a0260e01b7bffffffffffffffffffffffffffffffffffffffffffffffffffffffff19168273ffffffffffffffffffffffffffffffffffffffff1663150b7a023386856040518463ffffffff1660e01b8152600401620011999392919062004d7a565b6020604051808303816000875af1158015620011b9573d6000803e3d6000fd5b505050506040513d601f19601f82011682018060405250810190620011df919062004de3565b7bffffffffffffffffffffffffffffffffffffffffffffffffffffffff1916145b62001242576040517f08c379a0000000000000000000000000000000000000000000000000000000008152600401620012399062004e65565b60405180910390fd5b505050565b806000620012558262001bdf565b90508073ffffffffffffffffffffffffffffffffffffffff163373ffffffffffffffffffffffffffffffffffffffff16141580156200131b5750600560008273ffffffffffffffffffffffffffffffffffffffff1673ffffffffffffffffffffffffffffffffffffffff16815260200190815260200160002060003373ffffffffffffffffffffffffffffffffffffffff1673ffffffffffffffffffffffffffffffffffffffff16815260200190815260200160002060009054906101000a900460ff16155b80156200138757503373ffffffffffffffffffffffffffffffffffffffff166004600084815260200190815260200160002060009054906101000a900473ffffffffffffffffffffffffffffffffffffffff1673ffffffffffffffffffffffffffffffffffffffff1614155b15620013bf576040517fea8e4eb500000000000000000000000000000000000000000000000000000000815260040160405180910390fd5b6000600860008581526020019081526020016000206040518060600160405290816000820160009054906101000a900473ffffffffffffffffffffffffffffffffffffffff1673ffffffffffffffffffffffffffffffffffffffff1673ffffffffffffffffffffffffffffffffffffffff1681526020016000820160149054906101000a900460020b60020b60020b81526020016000820160179054906101000a900460020b60020b60020b815250509050600073ffffffffffffffffffffffffffffffffffffffff16816000015173ffffffffffffffffffffffffffffffffffffffff1603620014dc576040517fa0f3feea00000000000000000000000000000000000000000000000000000000815260040160405180910390fd5b60008160000151905060008060008373ffffffffffffffffffffffffffffffffffffffff1663514ea4bf62001511876200269e565b6040518263ffffffff1660e01b81526004016200152f919062004b04565b60a060405180830381865afa1580156200154d573d6000803e3d6000fd5b505050506040513d601f19601f8201168201806040525081019062001573919062004b4f565b94509450505092506000836fffffffffffffffffffffffffffffffff161180620015af57506000826fffffffffffffffffffffffffffffffff16115b80620015cd57506000816fffffffffffffffffffffffffffffffff16115b1562001605576040517fd89cc67600000000000000000000000000000000000000000000000000000000815260040160405180910390fd5b60086000898152602001908152602001600020600080820160006101000a81549073ffffffffffffffffffffffffffffffffffffffff02191690556000820160146101000a81549062ffffff02191690556000820160176101000a81549062ffffff021916905550506200167988620026dc565b600660008154809291906200168e9062004eb6565b91905055505050505050505050565b60008060008060086000866000013581526020019081526020016000206040518060600160405290816000820160009054906101000a900473ffffffffffffffffffffffffffffffffffffffff1673ffffffffffffffffffffffffffffffffffffffff1673ffffffffffffffffffffffffffffffffffffffff1681526020016000820160149054906101000a900460020b60020b60020b81526020016000820160179054906101000a900460020b60020b60020b815250509050600073ffffffffffffffffffffffffffffffffffffffff16816000015173ffffffffffffffffffffffffffffffffffffffff1603620017c2576040517fa0f3feea00000000000000000000000000000000000000000000000000000000815260040160405180910390fd5b620018376040518060e00160405280836000015173ffffffffffffffffffffffffffffffffffffffff168152602001836020015160020b8152602001836040015160020b81526020018760200135815260200187604001358152602001876060013581526020018760800135815250620028a2565b80945081955082965050505084600001357f22fb3c4728e7cc5dd64003f4267d8fb1eb2580f5598050868300738a823d70478585856040516200187d93929190620045e2565b60405180910390a2509193909250565b60008082600001516000620018a28262001bdf565b90508073ffffffffffffffffffffffffffffffffffffffff163373ffffffffffffffffffffffffffffffffffffffff1614158015620019685750600560008273ffffffffffffffffffffffffffffffffffffffff1673ffffffffffffffffffffffffffffffffffffffff16815260200190815260200160002060003373ffffffffffffffffffffffffffffffffffffffff1673ffffffffffffffffffffffffffffffffffffffff16815260200190815260200160002060009054906101000a900460ff16155b8015620019d457503373ffffffffffffffffffffffffffffffffffffffff166004600084815260200190815260200160002060009054906101000a900473ffffffffffffffffffffffffffffffffffffffff1673ffffffffffffffffffffffffffffffffffffffff1614155b1562001a0c576040517fea8e4eb500000000000000000000000000000000000000000000000000000000815260040160405180910390fd5b600060086000876000015181526020019081526020016000206040518060600160405290816000820160009054906101000a900473ffffffffffffffffffffffffffffffffffffffff1673ffffffffffffffffffffffffffffffffffffffff1673ffffffffffffffffffffffffffffffffffffffff1681526020016000820160149054906101000a900460020b60020b60020b81526020016000820160179054906101000a900460020b60020b60020b815250509050600073ffffffffffffffffffffffffffffffffffffffff16816000015173ffffffffffffffffffffffffffffffffffffffff160362001b2d576040517fa0f3feea00000000000000000000000000000000000000000000000000000000815260040160405180910390fd5b6000816000015190508073ffffffffffffffffffffffffffffffffffffffff16634f1eb3d833846020015185604001518b602001518c604001516040518663ffffffff1660e01b815260040162001b8995949392919062004ee4565b60408051808303816000875af115801562001ba8573d6000803e3d6000fd5b505050506040513d601f19601f8201168201806040525081019062001bce919062004f41565b809650819750505050505050915091565b60008073ffffffffffffffffffffffffffffffffffffffff166002600084815260200190815260200160002060009054906101000a900473ffffffffffffffffffffffffffffffffffffffff1691508173ffffffffffffffffffffffffffffffffffffffff160362001c88576040517f08c379a000000000000000000000000000000000000000000000000000000000815260040162001c7f9062004fd8565b60405180910390fd5b919050565b60008073ffffffffffffffffffffffffffffffffffffffff168273ffffffffffffffffffffffffffffffffffffffff160362001d00576040517f08c379a000000000000000000000000000000000000000000000000000000000815260040162001cf7906200504a565b60405180910390fd5b600360008373ffffffffffffffffffffffffffffffffffffffff1673ffffffffffffffffffffffffffffffffffffffff168152602001908152602001600020549050919050565b6001805462001d569062004a42565b80601f016020809104026020016040519081016040528092919081815260200182805462001d849062004a42565b801562001dd55780601f1062001da95761010080835404028352916020019162001dd5565b820191906000526020600020905b81548152906001019060200180831162001db757829003601f168201915b505050505081565b60086020528060005260406000206000915090508060000160009054906101000a900473ffffffffffffffffffffffffffffffffffffffff16908060000160149054906101000a900460020b908060000160179054906101000a900460020b905083565b80600560003373ffffffffffffffffffffffffffffffffffffffff1673ffffffffffffffffffffffffffffffffffffffff16815260200190815260200160002060008473ffffffffffffffffffffffffffffffffffffffff1673ffffffffffffffffffffffffffffffffffffffff16815260200190815260200160002060006101000a81548160ff0219169083151502179055508173ffffffffffffffffffffffffffffffffffffffff163373ffffffffffffffffffffffffffffffffffffffff167f17307eab39ab6107e8899845ad3d59bd9653f200f220920489ca2b5937696c318360405162001f3491906200413e565b60405180910390a35050565b62001f4d85858562000cfa565b60008473ffffffffffffffffffffffffffffffffffffffff163b148062002040575063150b7a0260e01b7bffffffffffffffffffffffffffffffffffffffffffffffffffffffff19168473ffffffffffffffffffffffffffffffffffffffff1663150b7a0233888787876040518663ffffffff1660e01b815260040162001fd9959493929190620050ae565b6020604051808303816000875af115801562001ff9573d6000803e3d6000fd5b505050506040513d601f19601f820116820180604052508101906200201f919062004de3565b7bffffffffffffffffffffffffffffffffffffffffffffffffffffffff1916145b62002082576040517f08c379a0000000000000000000000000000000000000000000000000000000008152600401620020799062004e65565b60405180910390fd5b5050505050565b7f000000000000000000000000000000000000000000000000000000000000000081565b60606000600860008481526020019081526020016000206040518060600160405290816000820160009054906101000a900473ffffffffffffffffffffffffffffffffffffffff1673ffffffffffffffffffffffffffffffffffffffff1673ffffffffffffffffffffffffffffffffffffffff1681526020016000820160149054906101000a900460020b60020b60020b81526020016000820160179054906101000a900460020b60020b60020b815250509050600073ffffffffffffffffffffffffffffffffffffffff16816000015173ffffffffffffffffffffffffffffffffffffffff1603620021cc576040517fa0f3feea00000000000000000000000000000000000000000000000000000000815260040160405180910390fd5b600081600001519050620022ba6040518060a00160405280846000015173ffffffffffffffffffffffffffffffffffffffff1681526020013073ffffffffffffffffffffffffffffffffffffffff168152602001846020015160020b8152602001846040015160020b81526020018373ffffffffffffffffffffffffffffffffffffffff1663ddca3f436040518163ffffffff1660e01b8152600401602060405180830381865afa15801562002286573d6000803e3d6000fd5b505050506040513d601f19601f82011682018060405250810190620022ac919062005144565b62ffffff1681525062002bc1565b92505050919050565b60008282810190620022d69190620051e5565b9050806000015173ffffffffffffffffffffffffffffffffffffffff166323b872dd826040015133886040518463ffffffff1660e01b81526004016200231f9392919062005217565b600060405180830381600087803b1580156200233a57600080fd5b505af11580156200234f573d6000803e3d6000fd5b50505050806020015173ffffffffffffffffffffffffffffffffffffffff166323b872dd826040015133876040518463ffffffff1660e01b81526004016200239a9392919062005217565b600060405180830381600087803b158015620023b557600080fd5b505af1158015620023ca573d6000803e3d6000fd5b505050505050505050565b60008062002421836020016020810190620023f19190620046ed565b846040016020810190620024069190620046ed565b8560600160208101906200241b91906200526b565b62002e9f565b90506000806000620024bb6040518060e001604052808673ffffffffffffffffffffffffffffffffffffffff168152602001886080016020810190620024689190620052ce565b60020b81526020018860a0016020810190620024859190620052ce565b60020b81526020018860c0013581526020018860e0013581526020018861010001358152602001886101200135815250620028a2565b92509250925060076000815480929190620024d69062005300565b919050559450620024fc866000016020810190620024f59190620046ed565b8662002f1f565b60066000815480929190620025119062005300565b9190505550600060405180606001604052808673ffffffffffffffffffffffffffffffffffffffff168152602001886080016020810190620025549190620052ce565b60020b81526020018860a0016020810190620025719190620052ce565b60020b8152509050806008600088815260200190815260200160002060008201518160000160006101000a81548173ffffffffffffffffffffffffffffffffffffffff021916908373ffffffffffffffffffffffffffffffffffffffff16021790555060208201518160000160146101000a81548162ffffff021916908360020b62ffffff16021790555060408201518160000160176101000a81548162ffffff021916908360020b62ffffff160217905550905050857f22fb3c4728e7cc5dd64003f4267d8fb1eb2580f5598050868300738a823d70478585856040516200265d93929190620045e2565b60405180910390a25050505050919050565b60056020528160005260406000206020528060005260406000206000915091509054906101000a900460ff1681565b60003082602001518360400151604051602001620026bf93929190620053d9565b604051602081830303815290604052805190602001209050919050565b60006002600083815260200190815260200160002060009054906101000a900473ffffffffffffffffffffffffffffffffffffffff169050600073ffffffffffffffffffffffffffffffffffffffff168173ffffffffffffffffffffffffffffffffffffffff160362002786576040517f08c379a00000000000000000000000000000000000000000000000000000000081526004016200277d9062004fd8565b60405180910390fd5b600360008273ffffffffffffffffffffffffffffffffffffffff1673ffffffffffffffffffffffffffffffffffffffff16815260200190815260200160002060008154809291906001900391905055506002600083815260200190815260200160002060006101000a81549073ffffffffffffffffffffffffffffffffffffffff02191690556004600083815260200190815260200160002060006101000a81549073ffffffffffffffffffffffffffffffffffffffff021916905581600073ffffffffffffffffffffffffffffffffffffffff168273ffffffffffffffffffffffffffffffffffffffff167fddf252ad1be2c89b69c2b068fc378daa952ba7f163c4a11628f55a4df523b3ef60405160405180910390a45050565b600080600080846000015173ffffffffffffffffffffffffffffffffffffffff16633850c7bd6040518163ffffffff1660e01b815260040160a060405180830381865afa158015620028f8573d6000803e3d6000fd5b505050506040513d601f19601f820116820180604052508101906200291e9190620054a3565b505050509050620029578162002938876020015162003137565b62002947886040015162003137565b8860600151896080015162003651565b9350846000015173ffffffffffffffffffffffffffffffffffffffff16633c8a7d8d30876020015188604001518860405180606001604052808c6000015173ffffffffffffffffffffffffffffffffffffffff16630dfe16816040518163ffffffff1660e01b8152600401602060405180830381865afa158015620029e0573d6000803e3d6000fd5b505050506040513d601f19601f8201168201806040525081019062002a06919062005542565b73ffffffffffffffffffffffffffffffffffffffff1681526020018c6000015173ffffffffffffffffffffffffffffffffffffffff1663d21220a76040518163ffffffff1660e01b8152600401602060405180830381865afa15801562002a71573d6000803e3d6000fd5b505050506040513d601f19601f8201168201806040525081019062002a97919062005542565b73ffffffffffffffffffffffffffffffffffffffff1681526020013373ffffffffffffffffffffffffffffffffffffffff1681525060405160200162002ade9190620055cd565b6040516020818303038152906040526040518663ffffffff1660e01b815260040162002b0f95949392919062005636565b60408051808303816000875af115801562002b2e573d6000803e3d6000fd5b505050506040513d601f19601f8201168201806040525081019062002b54919062004c14565b80935081945050508460a0015183108062002b7257508460c0015182105b1562002bb95782826040517fa8f6c8d000000000000000000000000000000000000000000000000000000000815260040162002bb0929190620044d2565b60405180910390fd5b509193909250565b606060008260000151905060008173ffffffffffffffffffffffffffffffffffffffff16630dfe16816040518163ffffffff1660e01b8152600401602060405180830381865afa15801562002c1a573d6000803e3d6000fd5b505050506040513d601f19601f8201168201806040525081019062002c40919062005542565b905060008273ffffffffffffffffffffffffffffffffffffffff1663d21220a76040518163ffffffff1660e01b8152600401602060405180830381865afa15801562002c90573d6000803e3d6000fd5b505050506040513d601f19601f8201168201806040525081019062002cb6919062005542565b905060008273ffffffffffffffffffffffffffffffffffffffff166395d89b416040518163ffffffff1660e01b8152600401600060405180830381865afa15801562002d06573d6000803e3d6000fd5b505050506040513d6000823e3d601f19601f8201168201806040525081019062002d31919062005753565b905060008273ffffffffffffffffffffffffffffffffffffffff166395d89b416040518163ffffffff1660e01b8152600401600060405180830381865afa15801562002d81573d6000803e3d6000fd5b505050506040513d6000823e3d601f19601f8201168201806040525081019062002dac919062005753565b9050600062002dc9886020015189604001518a606001516200378b565b62002dda84848b6080015162003818565b62002dee8a604001518b6060015162003858565b60405160200162002e0293929190620059e4565b6040516020818303038152906040529050600062002e3084848b608001518c604001518d606001516200389a565b905060008162002e4084620038f4565b60405160200162002e5392919062005b6e565b604051602081830303815290604052905062002e6f81620038f4565b60405160200162002e81919062005c0d565b60405160208183030381529060405298505050505050505050919050565b60008273ffffffffffffffffffffffffffffffffffffffff168473ffffffffffffffffffffffffffffffffffffffff161062002edd57828462002ee0565b83835b809450819550505062002f167f000000000000000000000000000000000000000000000000000000000000000085858562003a6a565b90509392505050565b600073ffffffffffffffffffffffffffffffffffffffff168273ffffffffffffffffffffffffffffffffffffffff160362002f91576040517f08c379a000000000000000000000000000000000000000000000000000000000815260040162002f889062004d1d565b60405180910390fd5b600073ffffffffffffffffffffffffffffffffffffffff166002600083815260200190815260200160002060009054906101000a900473ffffffffffffffffffffffffffffffffffffffff1673ffffffffffffffffffffffffffffffffffffffff161462003036576040517f08c379a00000000000000000000000000000000000000000000000000000000081526004016200302d9062005c87565b60405180910390fd5b600360008373ffffffffffffffffffffffffffffffffffffffff1673ffffffffffffffffffffffffffffffffffffffff16815260200190815260200160002060008154809291906001019190505550816002600083815260200190815260200160002060006101000a81548173ffffffffffffffffffffffffffffffffffffffff021916908373ffffffffffffffffffffffffffffffffffffffff160217905550808273ffffffffffffffffffffffffffffffffffffffff16600073ffffffffffffffffffffffffffffffffffffffff167fddf252ad1be2c89b69c2b068fc378daa952ba7f163c4a11628f55a4df523b3ef60405160405180910390a45050565b60008060008360020b1262003150578260020b62003160565b8260020b6200315f9062005cb3565b5b90507ffffffffffffffffffffffffffffffffffffffffffffffffffffffffffff276186200318e9062005d00565b62ffffff16811115620031d8576040517f08c379a0000000000000000000000000000000000000000000000000000000008152600401620031cf9062005d9d565b60405180910390fd5b6000806001831603620031fd577001000000000000000000000000000000006200320f565b6ffffcb933bd6fad37aa2d162d1a5940015b70ffffffffffffffffffffffffffffffffff16905060006002831614620032555760806ffff97272373d413259a46990580e213a8262003250919062005dbf565b901c90505b60006004831614620032865760806ffff2e50f5f656932ef12357cf3c7fdcc8262003281919062005dbf565b901c90505b60006008831614620032b75760806fffe5caca7e10e4e61c3624eaa0941cd082620032b2919062005dbf565b901c90505b60006010831614620032e85760806fffcb9843d60f6159c9db58835c92664482620032e3919062005dbf565b901c90505b60006020831614620033195760806fff973b41fa98c081472e6896dfb254c08262003314919062005dbf565b901c90505b600060408316146200334a5760806fff2ea16466c96a3843ec78b326b528618262003345919062005dbf565b901c90505b600060808316146200337b5760806ffe5dee046a99a2a811c461f1969c30538262003376919062005dbf565b901c90505b6000610100831614620033ad5760806ffcbe86c7900a88aedcffc83b479aa3a482620033a8919062005dbf565b901c90505b6000610200831614620033df5760806ff987a7253ac413176f2b074cf7815e5482620033da919062005dbf565b901c90505b6000610400831614620034115760806ff3392b0822b70005940c7a398e4b70f3826200340c919062005dbf565b901c90505b6000610800831614620034435760806fe7159475a2c29b7443b29c7fa6e889d9826200343e919062005dbf565b901c90505b6000611000831614620034755760806fd097f3bdfd2022b8845ad8f792aa58258262003470919062005dbf565b901c90505b6000612000831614620034a75760806fa9f746462d870fdf8a65dc1f90e061e582620034a2919062005dbf565b901c90505b6000614000831614620034d95760806f70d869a156d2a1b890bb3df62baf32f782620034d4919062005dbf565b901c90505b60006180008316146200350b5760806f31be135f97d08fd981231505542fcfa68262003506919062005dbf565b901c90505b6000620100008316146200353e5760806f09aa508b5b7a84e1c677de54f3e99bc98262003539919062005dbf565b901c90505b600062020000831614620035705760806e5d6af8dedb81196699c329225ee604826200356b919062005dbf565b901c90505b600062040000831614620035a15760806d2216e584f5fa1ea926041bedfe98826200359c919062005dbf565b901c90505b600062080000831614620035d05760806b048a170391f7dc42444e8fa282620035cb919062005dbf565b901c90505b60008460020b13156200360e57807fffffffffffffffffffffffffffffffffffffffffffffffffffffffffffffffff6200360b919062005e39565b90505b60006401000000008262003623919062005e71565b146200363157600162003634565b60005b60ff16602082901c62003648919062005ea9565b92505050919050565b60008373ffffffffffffffffffffffffffffffffffffffff168573ffffffffffffffffffffffffffffffffffffffff1611156200369357838580955081965050505b8473ffffffffffffffffffffffffffffffffffffffff168673ffffffffffffffffffffffffffffffffffffffff1611620036dc57620036d485858562003b37565b905062003782565b8373ffffffffffffffffffffffffffffffffffffffff168673ffffffffffffffffffffffffffffffffffffffff1611620037715760006200371f87868662003b37565b905060006200373087898662003bfd565b9050806fffffffffffffffffffffffffffffffff16826fffffffffffffffffffffffffffffffff161062003765578062003767565b815b9250505062003781565b6200377e85858462003bfd565b90505b5b95945050505050565b60606000848484604051602001620037a693929190620053d9565b60405160208183030381529060405280519060200120905060006101688260001c620037d3919062005e71565b9050620037e08162003c85565b620037eb8262003c85565b604051602001620037fe92919062006042565b604051602081830303815290604052925050509392505050565b606083836200382c8462ffffff1662003dfe565b6040516020016200384093929190620062ca565b60405160208183030381529060405290509392505050565b6060620038658362003e91565b620038708362003e91565b6040516020016200388392919062006555565b604051602081830303815290604052905092915050565b60608585620038ae8662ffffff1662003dfe565b620038b98662003e91565b620038c48662003e91565b604051602001620038da95949392919062006645565b604051602081830303815290604052905095945050505050565b60606000825103620039185760405180602001604052806000815250905062003a65565b60006040518060600160405280604081526020016200d6e860409139905060006003600285516200394a919062005ea9565b62003956919062005e39565b600462003964919062005dbf565b67ffffffffffffffff81111562003980576200397f62004365565b5b6040519080825280601f01601f191660200182016040528015620039b35781602001600182028036833780820191505090505b509050600182016020820185865187015b8082101562003a21576003820191508151603f8160121c168501518453600184019350603f81600c1c168501518453600184019350603f8160061c168501518453600184019350603f8116850151845360018401935050620039c4565b505060038651066001811462003a40576002811462003a545762003a5c565b603d6001830353603d600283035362003a5c565b603d60018303535b50505080925050505b919050565b60008273ffffffffffffffffffffffffffffffffffffffff168473ffffffffffffffffffffffffffffffffffffffff161062003aa557600080fd5b8484848460405160200162003abd939291906200670d565b604051602081830303815290604052805190602001206040518060200162003ae59062004070565b6020820181038252601f19601f820116604052508051906020012060405160200162003b1493929190620067c5565b6040516020818303038152906040528051906020012060001c9050949350505050565b60008273ffffffffffffffffffffffffffffffffffffffff168473ffffffffffffffffffffffffffffffffffffffff16111562003b7957828480945081955050505b600062003bc18573ffffffffffffffffffffffffffffffffffffffff168573ffffffffffffffffffffffffffffffffffffffff166c0100000000000000000000000062003f53565b905062003bf38382878762003bd7919062006815565b73ffffffffffffffffffffffffffffffffffffffff1662003f53565b9150509392505050565b60008273ffffffffffffffffffffffffffffffffffffffff168473ffffffffffffffffffffffffffffffffffffffff16111562003c3f57828480945081955050505b62003c7c826c01000000000000000000000000868662003c60919062006815565b73ffffffffffffffffffffffffffffffffffffffff1662003f53565b90509392505050565b60606000820362003cce576040518060400160405280600181526020017f3000000000000000000000000000000000000000000000000000000000000000815250905062003df9565b600082905060005b6000821462003d0657808062003cec9062005300565b915050600a8262003cfe919062005e39565b915062003cd6565b60008167ffffffffffffffff81111562003d255762003d2462004365565b5b6040519080825280601f01601f19166020018201604052801562003d585781602001600182028036833780820191505090505b5090505b6000851462003df25760018262003d74919062006864565b9150600a8562003d85919062005e71565b603062003d93919062005ea9565b60f81b81838151811062003dac5762003dab6200689f565b5b60200101907effffffffffffffffffffffffffffffffffffffffffffffffffffffffffffff1916908160001a905350600a8562003dea919062005e39565b945062003d5c565b8093505050505b919050565b60606101f4820362003e48576040518060400160405280600581526020017f302e303525000000000000000000000000000000000000000000000000000000815250905062003e8c565b610bb8820362003e8b576040518060400160405280600481526020017f302e33250000000000000000000000000000000000000000000000000000000081525090505b5b919050565b606060008260020b1262003eb5576040518060200160405280600081525062003eec565b6040518060400160405280600181526020017f2d000000000000000000000000000000000000000000000000000000000000008152505b60008360020b1262003f0e5762003f088362ffffff1662003c85565b62003f2a565b62003f298362003f1e9062005d00565b62ffffff1662003c85565b5b60405160200162003f3d929190620068ce565b6040516020818303038152906040529050919050565b600080600080198587098587029250828110838203039150506000810362003f935783828162003f885762003f8762005e0a565b5b049250505062004069565b83811062003fdc5780846040517f773cc18c00000000000000000000000000000000000000000000000000000000815260040162003fd3929190620044d2565b60405180910390fd5b60008486880990508281118203915080830392506000600186190186169050808604955080840493506001818260000304019050808302841793506000600287600302189050808702600203810290508087026002038102905080870260020381029050808702600203810290508087026002038102905080870260020381029050808502955050505050505b9392505050565b616df180620068f783390190565b6000604051905090565b600080fd5b600080fd5b60007fffffffff0000000000000000000000000000000000000000000000000000000082169050919050565b620040c98162004092565b8114620040d557600080fd5b50565b600081359050620040e981620040be565b92915050565b60006020828403121562004108576200410762004088565b5b60006200411884828501620040d8565b91505092915050565b60008115159050919050565b620041388162004121565b82525050565b60006020820190506200415560008301846200412d565b92915050565b600081519050919050565b600082825260208201905092915050565b60005b83811015620041975780820151818401526020810190506200417a565b60008484015250505050565b6000601f19601f8301169050919050565b6000620041c1826200415b565b620041cd818562004166565b9350620041df81856020860162004177565b620041ea81620041a3565b840191505092915050565b60006020820190508181036000830152620042118184620041b4565b905092915050565b6000819050919050565b6200422e8162004219565b81146200423a57600080fd5b50565b6000813590506200424e8162004223565b92915050565b6000602082840312156200426d576200426c62004088565b5b60006200427d848285016200423d565b91505092915050565b600073ffffffffffffffffffffffffffffffffffffffff82169050919050565b6000620042b38262004286565b9050919050565b620042c581620042a6565b82525050565b6000602082019050620042e26000830184620042ba565b92915050565b620042f381620042a6565b8114620042ff57600080fd5b50565b6000813590506200431381620042e8565b92915050565b6000806040838503121562004333576200433262004088565b5b6000620043438582860162004302565b925050602062004356858286016200423d565b9150509250929050565b600080fd5b7f4e487b7100000000000000000000000000000000000000000000000000000000600052604160045260246000fd5b6200439f82620041a3565b810181811067ffffffffffffffff82111715620043c157620043c062004365565b5b80604052505050565b6000620043d66200407e565b9050620043e4828262004394565b919050565b60006fffffffffffffffffffffffffffffffff82169050919050565b6200441081620043e9565b81146200441c57600080fd5b50565b600081359050620044308162004405565b92915050565b6000604082840312156200444f576200444e62004360565b5b6200445b6040620043ca565b905060006200446d848285016200423d565b600083015250602062004483848285016200441f565b60208301525092915050565b600060408284031215620044a857620044a762004088565b5b6000620044b88482850162004436565b91505092915050565b620044cc8162004219565b82525050565b6000604082019050620044e96000830185620044c1565b620044f86020830184620044c1565b9392505050565b6000602082019050620045166000830184620044c1565b92915050565b60008060006060848603121562004538576200453762004088565b5b6000620045488682870162004302565b93505060206200455b8682870162004302565b92505060406200456e868287016200423d565b9150509250925092565b600080fd5b600060a0828403121562004596576200459562004578565b5b81905092915050565b600060a08284031215620045b857620045b762004088565b5b6000620045c8848285016200457d565b91505092915050565b620045dc81620043e9565b82525050565b6000606082019050620045f96000830186620045d1565b620046086020830185620044c1565b620046176040830184620044c1565b949350505050565b60006060828403121562004638576200463762004360565b5b620046446060620043ca565b9050600062004656848285016200423d565b60008301525060206200466c848285016200441f565b602083015250604062004682848285016200441f565b60408301525092915050565b600060608284031215620046a757620046a662004088565b5b6000620046b7848285016200461f565b91505092915050565b6000604082019050620046d76000830185620045d1565b620046e66020830184620045d1565b9392505050565b60006020828403121562004706576200470562004088565b5b6000620047168482850162004302565b91505092915050565b60008160020b9050919050565b62004737816200471f565b82525050565b6000606082019050620047546000830186620042ba565b6200476360208301856200472c565b6200477260408301846200472c565b949350505050565b620047858162004121565b81146200479157600080fd5b50565b600081359050620047a5816200477a565b92915050565b60008060408385031215620047c557620047c462004088565b5b6000620047d58582860162004302565b9250506020620047e88582860162004794565b9150509250929050565b600080fd5b600080fd5b600080fd5b60008083601f8401126200481a5762004819620047f2565b5b8235905067ffffffffffffffff8111156200483a5762004839620047f7565b5b602083019150836001820283011115620048595762004858620047fc565b5b9250929050565b6000806000806000608086880312156200487f576200487e62004088565b5b60006200488f8882890162004302565b9550506020620048a28882890162004302565b9450506040620048b5888289016200423d565b935050606086013567ffffffffffffffff811115620048d957620048d86200408d565b5b620048e78882890162004801565b92509250509295509295909350565b6000806000806060858703121562004913576200491262004088565b5b600062004923878288016200423d565b945050602062004936878288016200423d565b935050604085013567ffffffffffffffff8111156200495a57620049596200408d565b5b620049688782880162004801565b925092505092959194509250565b6000610140828403121562004990576200498f62004578565b5b81905092915050565b60006101408284031215620049b357620049b262004088565b5b6000620049c38482850162004976565b91505092915050565b60008060408385031215620049e657620049e562004088565b5b6000620049f68582860162004302565b925050602062004a098582860162004302565b9150509250929050565b7f4e487b7100000000000000000000000000000000000000000000000000000000600052602260045260246000fd5b6000600282049050600182168062004a5b57607f821691505b60208210810362004a715762004a7062004a13565b5b50919050565b7f4e4f545f415554484f52495a4544000000000000000000000000000000000000600082015250565b600062004aaf600e8362004166565b915062004abc8262004a77565b602082019050919050565b6000602082019050818103600083015262004ae28162004aa0565b9050919050565b6000819050919050565b62004afe8162004ae9565b82525050565b600060208201905062004b1b600083018462004af3565b92915050565b60008151905062004b328162004405565b92915050565b60008151905062004b498162004223565b92915050565b600080600080600060a0868803121562004b6e5762004b6d62004088565b5b600062004b7e8882890162004b21565b955050602062004b918882890162004b38565b945050604062004ba48882890162004b38565b935050606062004bb78882890162004b21565b925050608062004bca8882890162004b21565b9150509295509295909350565b600060608201905062004bee60008301866200472c565b62004bfd60208301856200472c565b62004c0c6040830184620045d1565b949350505050565b6000806040838503121562004c2e5762004c2d62004088565b5b600062004c3e8582860162004b38565b925050602062004c518582860162004b38565b9150509250929050565b7f57524f4e475f46524f4d00000000000000000000000000000000000000000000600082015250565b600062004c93600a8362004166565b915062004ca08262004c5b565b602082019050919050565b6000602082019050818103600083015262004cc68162004c84565b9050919050565b7f494e56414c49445f524543495049454e54000000000000000000000000000000600082015250565b600062004d0560118362004166565b915062004d128262004ccd565b602082019050919050565b6000602082019050818103600083015262004d388162004cf6565b9050919050565b600082825260208201905092915050565b50565b600062004d6260008362004d3f565b915062004d6f8262004d50565b600082019050919050565b600060808201905062004d916000830186620042ba565b62004da06020830185620042ba565b62004daf6040830184620044c1565b818103606083015262004dc28162004d53565b9050949350505050565b60008151905062004ddd81620040be565b92915050565b60006020828403121562004dfc5762004dfb62004088565b5b600062004e0c8482850162004dcc565b91505092915050565b7f554e534146455f524543495049454e5400000000000000000000000000000000600082015250565b600062004e4d60108362004166565b915062004e5a8262004e15565b602082019050919050565b6000602082019050818103600083015262004e808162004e3e565b9050919050565b7f4e487b7100000000000000000000000000000000000000000000000000000000600052601160045260246000fd5b600062004ec38262004219565b91506000820362004ed95762004ed862004e87565b5b600182039050919050565b600060a08201905062004efb6000830188620042ba565b62004f0a60208301876200472c565b62004f1960408301866200472c565b62004f286060830185620045d1565b62004f376080830184620045d1565b9695505050505050565b6000806040838503121562004f5b5762004f5a62004088565b5b600062004f6b8582860162004b21565b925050602062004f7e8582860162004b21565b9150509250929050565b7f4e4f545f4d494e54454400000000000000000000000000000000000000000000600082015250565b600062004fc0600a8362004166565b915062004fcd8262004f88565b602082019050919050565b6000602082019050818103600083015262004ff38162004fb1565b9050919050565b7f5a45524f5f414444524553530000000000000000000000000000000000000000600082015250565b600062005032600c8362004166565b91506200503f8262004ffa565b602082019050919050565b60006020820190508181036000830152620050658162005023565b9050919050565b82818337600083830152505050565b600062005089838562004d3f565b9350620050988385846200506c565b620050a383620041a3565b840190509392505050565b6000608082019050620050c56000830188620042ba565b620050d46020830187620042ba565b620050e36040830186620044c1565b8181036060830152620050f88184866200507b565b90509695505050505050565b600062ffffff82169050919050565b6200511e8162005104565b81146200512a57600080fd5b50565b6000815190506200513e8162005113565b92915050565b6000602082840312156200515d576200515c62004088565b5b60006200516d848285016200512d565b91505092915050565b6000606082840312156200518f576200518e62004360565b5b6200519b6060620043ca565b90506000620051ad8482850162004302565b6000830152506020620051c38482850162004302565b6020830152506040620051d98482850162004302565b60408301525092915050565b600060608284031215620051fe57620051fd62004088565b5b60006200520e8482850162005176565b91505092915050565b60006060820190506200522e6000830186620042ba565b6200523d6020830185620042ba565b6200524c6040830184620044c1565b949350505050565b600081359050620052658162005113565b92915050565b60006020828403121562005284576200528362004088565b5b6000620052948482850162005254565b91505092915050565b620052a8816200471f565b8114620052b457600080fd5b50565b600081359050620052c8816200529d565b92915050565b600060208284031215620052e757620052e662004088565b5b6000620052f784828501620052b7565b91505092915050565b60006200530d8262004219565b91507fffffffffffffffffffffffffffffffffffffffffffffffffffffffffffffffff820362005342576200534162004e87565b5b600182019050919050565b60008160601b9050919050565b600062005367826200534d565b9050919050565b60006200537b826200535a565b9050919050565b620053976200539182620042a6565b6200536e565b82525050565b60008160e81b9050919050565b6000620053b7826200539d565b9050919050565b620053d3620053cd826200471f565b620053aa565b82525050565b6000620053e7828662005382565b601482019150620053f98285620053be565b6003820191506200540b8284620053be565b600382019150819050949350505050565b620054278162004286565b81146200543357600080fd5b50565b60008151905062005447816200541c565b92915050565b6000815190506200545e816200529d565b92915050565b600061ffff82169050919050565b6200547d8162005464565b81146200548957600080fd5b50565b6000815190506200549d8162005472565b92915050565b600080600080600060a08688031215620054c257620054c162004088565b5b6000620054d28882890162005436565b9550506020620054e5888289016200544d565b9450506040620054f8888289016200548c565b93505060606200550b888289016200548c565b92505060806200551e888289016200548c565b9150509295509295909350565b6000815190506200553c81620042e8565b92915050565b6000602082840312156200555b576200555a62004088565b5b60006200556b848285016200552b565b91505092915050565b6200557f81620042a6565b82525050565b6060820160008201516200559d600085018262005574565b506020820151620055b2602085018262005574565b506040820151620055c7604085018262005574565b50505050565b6000606082019050620055e4600083018462005585565b92915050565b600081519050919050565b60006200560282620055ea565b6200560e818562004d3f565b93506200562081856020860162004177565b6200562b81620041a3565b840191505092915050565b600060a0820190506200564d6000830188620042ba565b6200565c60208301876200472c565b6200566b60408301866200472c565b6200567a6060830185620045d1565b81810360808301526200568e8184620055f5565b90509695505050505050565b600080fd5b600067ffffffffffffffff821115620056bd57620056bc62004365565b5b620056c882620041a3565b9050602081019050919050565b6000620056ec620056e6846200569f565b620043ca565b9050828152602081018484840111156200570b576200570a6200569a565b5b6200571884828562004177565b509392505050565b600082601f830112620057385762005737620047f2565b5b81516200574a848260208601620056d5565b91505092915050565b6000602082840312156200576c576200576b62004088565b5b600082015167ffffffffffffffff8111156200578d576200578c6200408d565b5b6200579b8482850162005720565b91505092915050565b600081905092915050565b7f3c73766720786d6c6e733d27687474703a2f2f7777772e77332e6f72672f323060008201527f30302f737667272076696577426f783d273020302033303020343830273e0000602082015250565b60006200580d603e83620057a4565b91506200581a82620057af565b603e82019050919050565b7f3c7374796c653e2e746f6b656e73207b20666f6e743a20626f6c64203330707860008201527f2073616e732d73657269663b207d000000000000000000000000000000000000602082015250565b600062005883602e83620057a4565b9150620058908262005825565b602e82019050919050565b7f2e666565207b20666f6e743a206e6f726d616c20323670782073616e732d736560008201527f7269663b207d0000000000000000000000000000000000000000000000000000602082015250565b6000620058f9602683620057a4565b915062005906826200589b565b602682019050919050565b7f2e7469636b207b20666f6e743a206e6f726d616c20313870782073616e732d7360008201527f657269663b207d3c2f7374796c653e0000000000000000000000000000000000602082015250565b60006200596f602f83620057a4565b91506200597c8262005911565b602f82019050919050565b600062005994826200415b565b620059a08185620057a4565b9350620059b281856020860162004177565b80840191505092915050565b7f3c2f7376673e0000000000000000000000000000000000000000000000000000815250565b6000620059f182620057fe565b9150620059fe8262005874565b915062005a0b82620058ea565b915062005a188262005960565b915062005a26828662005987565b915062005a34828562005987565b915062005a42828462005987565b915062005a4f82620059be565b600682019150819050949350505050565b7f7b226e616d65223a22556e697377617020563320506f736974696f6e222c0000815250565b7f226465736372697074696f6e223a220000000000000000000000000000000000815250565b7f222c000000000000000000000000000000000000000000000000000000000000815250565b7f22696d616765223a22646174613a696d6167652f7376672b786d6c3b6261736560008201527f36342c0000000000000000000000000000000000000000000000000000000000602082015250565b600062005b30602383620057a4565b915062005b3d8262005ad2565b602382019050919050565b7f227d000000000000000000000000000000000000000000000000000000000000815250565b600062005b7b8262005a60565b601e8201915062005b8c8262005a86565b600f8201915062005b9e828562005987565b915062005bab8262005aac565b60028201915062005bbc8262005b21565b915062005bca828462005987565b915062005bd78262005b48565b6002820191508190509392505050565b7f646174613a6170706c69636174696f6e2f6a736f6e3b6261736536342c000000815250565b600062005c1a8262005be7565b601d8201915062005c2c828462005987565b915081905092915050565b7f414c52454144595f4d494e544544000000000000000000000000000000000000600082015250565b600062005c6f600e8362004166565b915062005c7c8262005c37565b602082019050919050565b6000602082019050818103600083015262005ca28162005c60565b9050919050565b6000819050919050565b600062005cc08262005ca9565b91507f8000000000000000000000000000000000000000000000000000000000000000820362005cf55762005cf462004e87565b5b816000039050919050565b600062005d0d826200471f565b91507fffffffffffffffffffffffffffffffffffffffffffffffffffffffffff800000820362005d425762005d4162004e87565b5b816000039050919050565b7f5400000000000000000000000000000000000000000000000000000000000000600082015250565b600062005d8560018362004166565b915062005d928262005d4d565b602082019050919050565b6000602082019050818103600083015262005db88162005d76565b9050919050565b600062005dcc8262004219565b915062005dd98362004219565b925082820262005de98162004219565b9150828204841483151762005e035762005e0262004e87565b5b5092915050565b7f4e487b7100000000000000000000000000000000000000000000000000000000600052601260045260246000fd5b600062005e468262004219565b915062005e538362004219565b92508262005e665762005e6562005e0a565b5b828204905092915050565b600062005e7e8262004219565b915062005e8b8362004219565b92508262005e9e5762005e9d62005e0a565b5b828206905092915050565b600062005eb68262004219565b915062005ec38362004219565b925082820190508082111562005ede5762005edd62004e87565b5b92915050565b7f3c726563742077696474683d2233303022206865696768743d2234383022206660008201527f696c6c3d2268736c280000000000000000000000000000000000000000000000602082015250565b600062005f42602983620057a4565b915062005f4f8262005ee4565b602982019050919050565b7f2c3430252c34302529222f3e0000000000000000000000000000000000000000815250565b7f3c7265637420783d2233302220793d223330222077696474683d22323430222060008201527f6865696768743d22343230222072783d223135222072793d223135222066696c60208201527f6c3d2268736c2800000000000000000000000000000000000000000000000000604082015250565b600062006004604783620057a4565b9150620060118262005f80565b604782019050919050565b7f2c313030252c3530252922207374726f6b653d2223303030222f3e0000000000815250565b60006200604f8262005f33565b91506200605d828562005987565b91506200606a8262005f5a565b600c820191506200607b8262005ff5565b915062006089828462005987565b915062006096826200601c565b601b820191508190509392505050565b7f3c7265637420783d2233302220793d223837222077696474683d22323430222060008201527f6865696768743d223432222f3e00000000000000000000000000000000000000602082015250565b600062006104602d83620057a4565b91506200611182620060a6565b602d82019050919050565b7f3c7465787420783d2233392220793d223132302220636c6173733d22746f6b6560008201527f6e73222066696c6c3d2223666666223e00000000000000000000000000000000602082015250565b60006200617a603083620057a4565b915062006187826200611c565b603082019050919050565b7f2f00000000000000000000000000000000000000000000000000000000000000815250565b7f3c2f746578743e3c7265637420783d2233302220793d2231333222207769647460008201527f683d2232343022206865696768743d223330222f3e0000000000000000000000602082015250565b600062006216603583620057a4565b91506200622382620061b8565b603582019050919050565b7f3c7465787420783d2233392220793d22313230222064793d2233362220636c6160008201527f73733d22666565222066696c6c3d2223666666223e0000000000000000000000602082015250565b60006200628c603583620057a4565b915062006299826200622e565b603582019050919050565b7f3c2f746578743e00000000000000000000000000000000000000000000000000815250565b6000620062d782620060f5565b9150620062e4826200616b565b9150620062f2828662005987565b9150620062ff8262006192565b60018201915062006311828562005987565b91506200631e8262006207565b91506200632b826200627d565b915062006339828462005987565b91506200634682620062a4565b600782019150819050949350505050565b7f3c7265637420783d2233302220793d22333432222077696474683d223234302260008201527f206865696768743d223234222f3e000000000000000000000000000000000000602082015250565b6000620063b5602e83620057a4565b9150620063c28262006357565b602e82019050919050565b7f3c7465787420783d2233392220793d223336302220636c6173733d227469636b60008201527f222066696c6c3d2223666666223e4c6f776572207469636b3a20000000000000602082015250565b60006200642b603a83620057a4565b91506200643882620063cd565b603a82019050919050565b7f3c7265637420783d2233302220793d22333732222077696474683d223234302260008201527f206865696768743d223234222f3e000000000000000000000000000000000000602082015250565b6000620064a1602e83620057a4565b9150620064ae8262006443565b602e82019050919050565b7f3c7465787420783d2233392220793d22333630222064793d2233302220636c6160008201527f73733d227469636b222066696c6c3d2223666666223e5570706572207469636b60208201527f3a20000000000000000000000000000000000000000000000000000000000000604082015250565b60006200653d604283620057a4565b91506200654a82620064b9565b604282019050919050565b60006200656282620063a6565b91506200656f826200641c565b91506200657d828562005987565b91506200658a82620062a4565b6007820191506200659b8262006492565b9150620065a8826200652e565b9150620065b6828462005987565b9150620065c382620062a4565b6007820191508190509392505050565b7f2000000000000000000000000000000000000000000000000000000000000000815250565b7f2c204c6f776572207469636b3a20000000000000000000000000000000000000815250565b7f2c20557070657220746578743a20000000000000000000000000000000000000815250565b600062006653828862005987565b9150620066608262006192565b60018201915062006672828762005987565b91506200667f82620065d3565b60018201915062006691828662005987565b91506200669e82620065f9565b600e82019150620066b0828562005987565b9150620066bd826200661f565b600e82019150620066cf828462005987565b91508190509695505050505050565b6000620066eb826200539d565b9050919050565b62006707620067018262005104565b620066de565b82525050565b60006200671b828662005382565b6014820191506200672d828562005382565b6014820191506200673f8284620066f2565b600382019150819050949350505050565b7fff00000000000000000000000000000000000000000000000000000000000000600082015250565b600062006788600183620057a4565b9150620067958262006750565b600182019050919050565b6000819050919050565b620067bf620067b98262004ae9565b620067a0565b82525050565b6000620067d28262006779565b9150620067e0828662005382565b601482019150620067f28285620067aa565b602082019150620068048284620067aa565b602082019150819050949350505050565b6000620068228262004286565b91506200682f8362004286565b9250828203905073ffffffffffffffffffffffffffffffffffffffff8111156200685e576200685d62004e87565b5b92915050565b6000620068718262004219565b91506200687e8362004219565b925082820390508181111562006899576200689862004e87565b5b92915050565b7f4e487b7100000000000000000000000000000000000000000000000000000000600052603260045260246000fd5b6000620068dc828562005987565b9150620068ea828462005987565b9150819050939250505056fe6101206040523480156200001257600080fd5b503373ffffffffffffffffffffffffffffffffffffffff1663890357306040518163ffffffff1660e01b815260040160a0604051808303816000875af115801562000061573d6000803e3d6000fd5b505050506040513d601f19601f82011682018060405250810190620000879190620001f8565b8062ffffff166101009062ffffff168152508162ffffff1660e09062ffffff168152508273ffffffffffffffffffffffffffffffffffffffff1660c09073ffffffffffffffffffffffffffffffffffffffff168152508373ffffffffffffffffffffffffffffffffffffffff1660a09073ffffffffffffffffffffffffffffffffffffffff168152508473ffffffffffffffffffffffffffffffffffffffff1660809073ffffffffffffffffffffffffffffffffffffffff16815250505050505062000280565b600080fd5b600073ffffffffffffffffffffffffffffffffffffffff82169050919050565b6000620001808262000153565b9050919050565b620001928162000173565b81146200019e57600080fd5b50565b600081519050620001b28162000187565b92915050565b600062ffffff82169050919050565b620001d281620001b8565b8114620001de57600080fd5b50565b600081519050620001f281620001c7565b92915050565b600080600080600060a086880312156200021757620002166200014e565b5b60006200022788828901620001a1565b95505060206200023a88828901620001a1565b94505060406200024d88828901620001a1565b93505060606200026088828901620001e1565b92505060806200027388828901620001e1565b9150509295509295909350565b60805160a05160c05160e05161010051616aae620003436000396000818161092d01528181610964015281816119fa01526122aa015260008181611549015281816118d3015281816127250152612766015260008181610a3701528181610b7501528181610d60015281816111250152818161156d01528181611f2e01526129c60152600081816104620152818161099701528181610ade01528181610c8001528181611017015281816120930152612923015260006115250152616aae6000f3fe608060405234801561001057600080fd5b50600436106101375760003560e01c80635339c296116100b8578063d21220a71161007c578063d21220a714610385578063dd5a12d8146103a3578063ddca3f43146103d4578063f3058399146103f2578063f30dba9314610410578063f637731d1461044457610137565b80635339c296146102b8578063883bdbfd146102e8578063a34123a714610318578063c45a015514610349578063d0c93a7c1461036757610137565b80633c8a7d8d116100ff5780633c8a7d8d146101e857806346141319146102195780634a182392146102375780634f1eb3d814610253578063514ea4bf1461028457610137565b80630dfe16811461013c5780631a6865021461015a578063252c09d71461017857806332148f67146101aa5780633850c7bd146101c6575b600080fd5b610144610460565b604051610151919061513e565b60405180910390f35b610162610484565b60405161016f9190615184565b60405180910390f35b610192600480360381019061018d91906151df565b6104a6565b6040516101a193929190615262565b60405180910390f35b6101c460048036038101906101bf91906152d3565b6104fe565b005b6101ce61059e565b6040516101df95949392919061533a565b60405180910390f35b61020260048036038101906101fd9190615476565b610619565b60405161021092919061551f565b60405180910390f35b61022161091f565b60405161022e9190615548565b60405180910390f35b610251600480360381019061024c9190615563565b610925565b005b61026d600480360381019061026891906155d7565b610e8c565b60405161027b929190615652565b60405180910390f35b61029e600480360381019061029991906156b1565b611216565b6040516102af9594939291906156de565b60405180910390f35b6102d260048036038101906102cd919061576a565b6112a0565b6040516102df9190615548565b60405180910390f35b61030260048036038101906102fd91906157ed565b6112b8565b60405161030f91906158f8565b60405180910390f35b610332600480360381019061032d919061591a565b61135e565b60405161034092919061551f565b60405180910390f35b610351611523565b60405161035e919061513e565b60405180910390f35b61036f611547565b60405161037c919061598b565b60405180910390f35b61038d61156b565b60405161039a919061513e565b60405180910390f35b6103bd60048036038101906103b891906159fe565b61158f565b6040516103cb929190615ab1565b60405180910390f35b6103dc6122a8565b6040516103e9919061598b565b60405180910390f35b6103fa6122cc565b6040516104079190615548565b60405180910390f35b61042a60048036038101906104259190615ada565b6122d2565b60405161043b959493929190615b23565b60405180910390f35b61045e60048036038101906104599190615b76565b61233e565b005b7f000000000000000000000000000000000000000000000000000000000000000081565b600360009054906101000a90046fffffffffffffffffffffffffffffffff1681565b60078161ffff81106104b757600080fd5b016000915090508060000160009054906101000a900463ffffffff16908060000160049054906101000a900460060b9080600001600b9054906101000a900460ff16905083565b60006002600001601b9054906101000a900461ffff169050600061052e828460076125129092919063ffffffff16565b90508161ffff168161ffff161461059957806002600001601b6101000a81548161ffff021916908361ffff1602179055507fac49e518f90a358f652e4400164f05a5d8f7e35e7747279bc3a93dbf584e125a8282604051610590929190615ba3565b60405180910390a15b505050565b60028060000160009054906101000a900473ffffffffffffffffffffffffffffffffffffffff16908060000160149054906101000a900460020b908060000160179054906101000a900461ffff16908060000160199054906101000a900461ffff169080600001601b9054906101000a900461ffff16905085565b6000808560020b8760020b12158061065657507ffffffffffffffffffffffffffffffffffffffffffffffffffffffffffff2761860020b8760020b125b8061068f57507ffffffffffffffffffffffffffffffffffffffffffffffffffffffffffff2761861068690615bfb565b60020b8660020b135b156106c6576040517f064847d000000000000000000000000000000000000000000000000000000000815260040160405180910390fd5b6000856fffffffffffffffffffffffffffffffff1603610712576040517f1007454800000000000000000000000000000000000000000000000000000000815260040160405180910390fd5b60008061075d60405180608001604052808c73ffffffffffffffffffffffffffffffffffffffff1681526020018b60020b81526020018a60020b815260200189600f0b81525061259c565b9250925050819350809250600080600086111561077f5761077c61291f565b91505b6000851115610793576107906129c2565b90505b3373ffffffffffffffffffffffffffffffffffffffff1663d348799787878b8b6040518563ffffffff1660e01b81526004016107d29493929190615ca1565b600060405180830381600087803b1580156107ec57600080fd5b505af1158015610800573d6000803e3d6000fd5b50505050600086118015610825575061081761291f565b86836108239190615ce1565b115b1561085c576040517f098fb56100000000000000000000000000000000000000000000000000000000815260040160405180910390fd5b60008511801561087d575061086f6129c2565b858261087b9190615ce1565b115b156108b4576040517f098fb56100000000000000000000000000000000000000000000000000000000815260040160405180910390fd5b8960020b8b60020b8d73ffffffffffffffffffffffffffffffffffffffff167f7a53080ba414158be7ec69b987b5fb7d07dee101fe85488f0853ae16239d0bde338d8b8b6040516109089493929190615d15565b60405180910390a450505050965096945050505050565b60015481565b600061095a857f000000000000000000000000000000000000000000000000000000000000000062ffffff16620f4240612a65565b90506000610991857f000000000000000000000000000000000000000000000000000000000000000062ffffff16620f4240612a65565b905060007f000000000000000000000000000000000000000000000000000000000000000073ffffffffffffffffffffffffffffffffffffffff166370a08231306040518263ffffffff1660e01b81526004016109ee919061513e565b6020604051808303816000875af1158015610a0d573d6000803e3d6000fd5b505050506040513d601f19601f82011682018060405250810190610a319190615d6f565b905060007f000000000000000000000000000000000000000000000000000000000000000073ffffffffffffffffffffffffffffffffffffffff166370a08231306040518263ffffffff1660e01b8152600401610a8e919061513e565b6020604051808303816000875af1158015610aad573d6000803e3d6000fd5b505050506040513d601f19601f82011682018060405250810190610ad19190615d6f565b90506000881115610b6a577f000000000000000000000000000000000000000000000000000000000000000073ffffffffffffffffffffffffffffffffffffffff1663a9059cbb338a6040518363ffffffff1660e01b8152600401610b37929190615d9c565b600060405180830381600087803b158015610b5157600080fd5b505af1158015610b65573d6000803e3d6000fd5b505050505b6000871115610c01577f000000000000000000000000000000000000000000000000000000000000000073ffffffffffffffffffffffffffffffffffffffff1663a9059cbb33896040518363ffffffff1660e01b8152600401610bce929190615d9c565b600060405180830381600087803b158015610be857600080fd5b505af1158015610bfc573d6000803e3d6000fd5b505050505b3373ffffffffffffffffffffffffffffffffffffffff1663e9cbafb0858589896040518563ffffffff1660e01b8152600401610c409493929190615ca1565b600060405180830381600087803b158015610c5a57600080fd5b505af1158015610c6e573d6000803e3d6000fd5b505050508382610c7e9190615ce1565b7f000000000000000000000000000000000000000000000000000000000000000073ffffffffffffffffffffffffffffffffffffffff166370a08231306040518263ffffffff1660e01b8152600401610cd7919061513e565b6020604051808303816000875af1158015610cf6573d6000803e3d6000fd5b505050506040513d601f19601f82011682018060405250810190610d1a9190615d6f565b1015610d52576040517f7bc35e0500000000000000000000000000000000000000000000000000000000815260040160405180910390fd5b8281610d5e9190615ce1565b7f000000000000000000000000000000000000000000000000000000000000000073ffffffffffffffffffffffffffffffffffffffff166370a08231306040518263ffffffff1660e01b8152600401610db7919061513e565b6020604051808303816000875af1158015610dd6573d6000803e3d6000fd5b505050506040513d601f19601f82011682018060405250810190610dfa9190615d6f565b1015610e32576040517f7bc35e0500000000000000000000000000000000000000000000000000000000815260040160405180910390fd5b3373ffffffffffffffffffffffffffffffffffffffff167f1c1db1f1d6a01e51fec24bb54087b65fe5430f692280e70d92f718eb72ae76b78989604051610e7a92919061551f565b60405180910390a25050505050505050565b6000806000610ea93388886006612ad0909392919063ffffffff16565b90508060030160009054906101000a90046fffffffffffffffffffffffffffffffff166fffffffffffffffffffffffffffffffff16856fffffffffffffffffffffffffffffffff1611610efc5784610f1e565b8060030160009054906101000a90046fffffffffffffffffffffffffffffffff165b92508060030160109054906101000a90046fffffffffffffffffffffffffffffffff166fffffffffffffffffffffffffffffffff16846fffffffffffffffffffffffffffffffff1611610f715783610f93565b8060030160109054906101000a90046fffffffffffffffffffffffffffffffff165b91506000836fffffffffffffffffffffffffffffffff1611156110a357828160030160008282829054906101000a90046fffffffffffffffffffffffffffffffff16610fdf9190615dc5565b92506101000a8154816fffffffffffffffffffffffffffffffff02191690836fffffffffffffffffffffffffffffffff1602179055507f000000000000000000000000000000000000000000000000000000000000000073ffffffffffffffffffffffffffffffffffffffff1663a9059cbb89856040518363ffffffff1660e01b8152600401611070929190615e44565b600060405180830381600087803b15801561108a57600080fd5b505af115801561109e573d6000803e3d6000fd5b505050505b6000826fffffffffffffffffffffffffffffffff1611156111b157818160030160108282829054906101000a90046fffffffffffffffffffffffffffffffff166110ed9190615dc5565b92506101000a8154816fffffffffffffffffffffffffffffffff02191690836fffffffffffffffffffffffffffffffff1602179055507f000000000000000000000000000000000000000000000000000000000000000073ffffffffffffffffffffffffffffffffffffffff1663a9059cbb89846040518363ffffffff1660e01b815260040161117e929190615e44565b600060405180830381600087803b15801561119857600080fd5b505af11580156111ac573d6000803e3d6000fd5b505050505b8560020b8760020b3373ffffffffffffffffffffffffffffffffffffffff167fa89c1c8a741251492622c95237828c75d1dbb03ea956f09e3792ff2a14f4fe628b878760405161120393929190615e6d565b60405180910390a4509550959350505050565b60066020528060005260406000206000915090508060000160009054906101000a90046fffffffffffffffffffffffffffffffff16908060010154908060020154908060030160009054906101000a90046fffffffffffffffffffffffffffffffff16908060030160109054906101000a90046fffffffffffffffffffffffffffffffff16905085565b60056020528060005260406000206000915090505481565b60606113566112c5612b18565b848480806020026020016040519081016040528093929190818152602001838360200280828437600081840152601f19601f82011690508083019250505050505050600260000160149054906101000a900460020b600260000160179054906101000a900461ffff16600260000160199054906101000a900461ffff166007612b209095949392919063ffffffff16565b905092915050565b60008060008060006113b760405180608001604052803373ffffffffffffffffffffffffffffffffffffffff1681526020018a60020b81526020018960020b8152602001886113ac90615ea4565b600f0b81525061259c565b925092509250816113c790615eec565b9450806113d390615eec565b935060008511806113e45750600084115b156114be57848360030160009054906101000a90046fffffffffffffffffffffffffffffffff166114159190615f34565b848460030160109054906101000a90046fffffffffffffffffffffffffffffffff166114419190615f34565b8460030160008660030160108491906101000a8154816fffffffffffffffffffffffffffffffff02191690836fffffffffffffffffffffffffffffffff1602179055508391906101000a8154816fffffffffffffffffffffffffffffffff02191690836fffffffffffffffffffffffffffffffff16021790555050505b8660020b8860020b3373ffffffffffffffffffffffffffffffffffffffff167f0c396cd989a39f4459b5fa1aed6a9a8dcdbc45908acfd67e028cd568da98982c89898960405161151093929190615f78565b60405180910390a4505050935093915050565b7f000000000000000000000000000000000000000000000000000000000000000081565b7f000000000000000000000000000000000000000000000000000000000000000081565b7f000000000000000000000000000000000000000000000000000000000000000081565b600080600060026040518060a00160405290816000820160009054906101000a900473ffffffffffffffffffffffffffffffffffffffff1673ffffffffffffffffffffffffffffffffffffffff1673ffffffffffffffffffffffffffffffffffffffff1681526020016000820160149054906101000a900460020b60020b60020b81526020016000820160179054906101000a900461ffff1661ffff1661ffff1681526020016000820160199054906101000a900461ffff1661ffff1661ffff16815260200160008201601b9054906101000a900461ffff1661ffff1661ffff168152505090506000600360009054906101000a90046fffffffffffffffffffffffffffffffff1690508861172057816000015173ffffffffffffffffffffffffffffffffffffffff168773ffffffffffffffffffffffffffffffffffffffff16108061171b575073fffd8963efd1fc6a506488495d951d5263988d2673ffffffffffffffffffffffffffffffffffffffff168773ffffffffffffffffffffffffffffffffffffffff16115b61178f565b816000015173ffffffffffffffffffffffffffffffffffffffff168773ffffffffffffffffffffffffffffffffffffffff16118061178e57506401000276a373ffffffffffffffffffffffffffffffffffffffff168773ffffffffffffffffffffffffffffffffffffffff16105b5b156117c6576040517fb53bbacc00000000000000000000000000000000000000000000000000000000815260040160405180910390fd5b60006040518060c001604052808a815260200160008152602001846000015173ffffffffffffffffffffffffffffffffffffffff168152602001846020015160020b81526020018b61181a5760015461181e565b6000545b8152602001836fffffffffffffffffffffffffffffffff1681525090505b6000816000015111801561188057508773ffffffffffffffffffffffffffffffffffffffff16816040015173ffffffffffffffffffffffffffffffffffffffff1614155b15611ce85761188d615063565b8160400151816000019073ffffffffffffffffffffffffffffffffffffffff16908173ffffffffffffffffffffffffffffffffffffffff168152505061190582606001517f00000000000000000000000000000000000000000000000000000000000000008d6005612be7909392919063ffffffff16565b826020018360400182151515158152508260020b60020b815250505061192e8160200151612dd5565b816060019073ffffffffffffffffffffffffffffffffffffffff16908173ffffffffffffffffffffffffffffffffffffffff1681525050611a1e82604001518c6119aa578a73ffffffffffffffffffffffffffffffffffffffff16836060015173ffffffffffffffffffffffffffffffffffffffff16116119de565b8a73ffffffffffffffffffffffffffffffffffffffff16836060015173ffffffffffffffffffffffffffffffffffffffff16105b6119ec5782606001516119ee565b8a5b8460a0015185600001517f00000000000000000000000000000000000000000000000000000000000000006132a2565b85604001856080018660a0018760c0018481525084815250848152508473ffffffffffffffffffffffffffffffffffffffff1673ffffffffffffffffffffffffffffffffffffffff16815250505050508060c001518160800151611a829190615ce1565b82600001818151611a939190615faf565b915081815250508060a0015182602001818151611ab09190615ce1565b9150818152505060008260a001516fffffffffffffffffffffffffffffffff161115611b2557611b0c8160c001517001000000000000000000000000000000008460a001516fffffffffffffffffffffffffffffffff16613426565b82608001818151611b1d9190615ce1565b915081815250505b806060015173ffffffffffffffffffffffffffffffffffffffff16826040015173ffffffffffffffffffffffffffffffffffffffff1603611c8757806040015115611c50576000611bac82602001518d611b8157600054611b87565b84608001515b8e611b96578560800151611b9a565b6001545b600461353b909392919063ffffffff16565b90508b15611bc15780611bbe90615ea4565b90505b611bcf8360a00151826135a5565b8360a001906fffffffffffffffffffffffffffffffff1690816fffffffffffffffffffffffffffffffff168152505060008360a001516fffffffffffffffffffffffffffffffff1603611c4e576040517f4323a55500000000000000000000000000000000000000000000000000000000815260040160405180910390fd5b505b8a611c5f578060200151611c71565b60018160200151611c709190615fe3565b5b826060019060020b908160020b81525050611ce2565b806000015173ffffffffffffffffffffffffffffffffffffffff16826040015173ffffffffffffffffffffffffffffffffffffffff1614611ce157611ccf82604001516135e3565b826060019060020b908160020b815250505b5b5061183c565b826020015160020b816060015160020b14611dff57600080611d338560400151611d10612b18565b87602001518860600151896080015160076139e29095949392919063ffffffff16565b91509150826040015183606001518383600260000160006002600001601460026000016017600260000160198891906101000a81548161ffff021916908361ffff1602179055508791906101000a81548161ffff021916908361ffff1602179055508691906101000a81548162ffffff021916908360020b62ffffff1602179055508591906101000a81548173ffffffffffffffffffffffffffffffffffffffff021916908373ffffffffffffffffffffffffffffffffffffffff160217905550505050505050611e48565b8060400151600260000160006101000a81548173ffffffffffffffffffffffffffffffffffffffff021916908373ffffffffffffffffffffffffffffffffffffffff1602179055505b8060a001516fffffffffffffffffffffffffffffffff16826fffffffffffffffffffffffffffffffff1614611eb5578060a00151600360006101000a8154816fffffffffffffffffffffffffffffffff02191690836fffffffffffffffffffffffffffffffff1602179055505b8915611ecb578060800151600081905550611ed7565b80608001516001819055505b89611eff578060200151611eea90615eec565b81600001518a611efa9190615faf565b611f1e565b806000015189611f0f9190615faf565b8160200151611f1d90615eec565b5b80955081965050508915612091577f000000000000000000000000000000000000000000000000000000000000000073ffffffffffffffffffffffffffffffffffffffff1663a9059cbb8c86611f7390615eec565b6040518363ffffffff1660e01b8152600401611f90929190615d9c565b600060405180830381600087803b158015611faa57600080fd5b505af1158015611fbe573d6000803e3d6000fd5b505050506000611fcc61291f565b90503373ffffffffffffffffffffffffffffffffffffffff1663fa461e3387878b8b6040518563ffffffff1660e01b815260040161200d949392919061603e565b600060405180830381600087803b15801561202757600080fd5b505af115801561203b573d6000803e3d6000fd5b5050505061204761291f565b86826120539190615ce1565b111561208b576040517f098fb56100000000000000000000000000000000000000000000000000000000815260040160405180910390fd5b506121f2565b7f000000000000000000000000000000000000000000000000000000000000000073ffffffffffffffffffffffffffffffffffffffff1663a9059cbb8c876120d890615eec565b6040518363ffffffff1660e01b81526004016120f5929190615d9c565b600060405180830381600087803b15801561210f57600080fd5b505af1158015612123573d6000803e3d6000fd5b5050505060006121316129c2565b90503373ffffffffffffffffffffffffffffffffffffffff1663fa461e3387878b8b6040518563ffffffff1660e01b8152600401612172949392919061603e565b600060405180830381600087803b15801561218c57600080fd5b505af11580156121a0573d6000803e3d6000fd5b505050506121ac6129c2565b85826121b89190615ce1565b11156121f0576040517f098fb56100000000000000000000000000000000000000000000000000000000815260040160405180910390fd5b505b8a73ffffffffffffffffffffffffffffffffffffffff163373ffffffffffffffffffffffffffffffffffffffff167fc42079f94a6350d7e6235f29174924f928cc2ac818eb64fed8004e115fbcca678787600260000160009054906101000a900473ffffffffffffffffffffffffffffffffffffffff168660a00151600260000160149054906101000a900460020b60405161229295949392919061607e565b60405180910390a3505050965096945050505050565b7f000000000000000000000000000000000000000000000000000000000000000081565b60005481565b60046020528060005260406000206000915090508060000160009054906101000a900460ff16908060000160019054906101000a90046fffffffffffffffffffffffffffffffff16908060010160009054906101000a9004600f0b908060020154908060030154905085565b6000600260000160009054906101000a900473ffffffffffffffffffffffffffffffffffffffff1673ffffffffffffffffffffffffffffffffffffffff16146123b3576040517f0dc149f000000000000000000000000000000000000000000000000000000000815260040160405180910390fd5b60006123be826135e3565b90506000806123de6123ce612b18565b6007613b8e90919063ffffffff16565b915091506040518060a001604052808573ffffffffffffffffffffffffffffffffffffffff1681526020018460020b8152602001600061ffff1681526020018361ffff1681526020018261ffff16815250600260008201518160000160006101000a81548173ffffffffffffffffffffffffffffffffffffffff021916908373ffffffffffffffffffffffffffffffffffffffff16021790555060208201518160000160146101000a81548162ffffff021916908360020b62ffffff16021790555060408201518160000160176101000a81548161ffff021916908361ffff16021790555060608201518160000160196101000a81548161ffff021916908361ffff160217905550608082015181600001601b6101000a81548161ffff021916908361ffff16021790555090505050505050565b60008261ffff168261ffff161161252b57829050612595565b60008390505b8261ffff168161ffff161015612590576001858261ffff1661ffff811061255b5761255a6160d1565b5b0160000160006101000a81548163ffffffff021916908363ffffffff160217905550808061258890616100565b915050612531565b508190505b9392505050565b60008060008060026040518060a00160405290816000820160009054906101000a900473ffffffffffffffffffffffffffffffffffffffff1673ffffffffffffffffffffffffffffffffffffffff1673ffffffffffffffffffffffffffffffffffffffff1681526020016000820160149054906101000a900460020b60020b60020b81526020016000820160179054906101000a900461ffff1661ffff1661ffff1681526020016000820160199054906101000a900461ffff1661ffff1661ffff16815260200160008201601b9054906101000a900461ffff1661ffff1661ffff16815250509050600080549050600060015490506126b58760000151886020015189604001516006612ad0909392919063ffffffff16565b955060006126e4886020015185602001518a60600151868660006004613c58909695949392919063ffffffff16565b90506000612713896040015186602001518b60600151878760016004613c58909695949392919063ffffffff16565b905081156127565761275589602001517f00000000000000000000000000000000000000000000000000000000000000006005613e0b9092919063ffffffff16565b5b80156127975761279689604001517f00000000000000000000000000000000000000000000000000000000000000006005613e0b9092919063ffffffff16565b5b6000806127c28b602001518c60400151896020015189896004613e7b9095949392919063ffffffff16565b915091506127e18b6060015183838d613f8a909392919063ffffffff16565b8a6020015160020b876020015160020b12156128255761281e6128078c60200151612dd5565b6128148d60400151612dd5565b8d606001516141cd565b9850612911565b8a6040015160020b876020015160020b12156128e65761285a87600001516128508d60400151612dd5565b8d606001516141cd565b985061287b61286c8c60200151612dd5565b88600001518d60600151614214565b97506128a9600360009054906101000a90046fffffffffffffffffffffffffffffffff168c606001516135a5565b600360006101000a8154816fffffffffffffffffffffffffffffffff02191690836fffffffffffffffffffffffffffffffff160217905550612910565b61290d6128f68c60200151612dd5565b6129038d60400151612dd5565b8d60600151614214565b97505b5b505050505050509193909250565b60007f000000000000000000000000000000000000000000000000000000000000000073ffffffffffffffffffffffffffffffffffffffff166370a08231306040518263ffffffff1660e01b815260040161297a919061513e565b6020604051808303816000875af1158015612999573d6000803e3d6000fd5b505050506040513d601f19601f820116820180604052508101906129bd9190615d6f565b905090565b60007f000000000000000000000000000000000000000000000000000000000000000073ffffffffffffffffffffffffffffffffffffffff166370a08231306040518263ffffffff1660e01b8152600401612a1d919061513e565b6020604051808303816000875af1158015612a3c573d6000803e3d6000fd5b505050506040513d601f19601f82011682018060405250810190612a609190615d6f565b905090565b6000612a72848484613426565b905060008280612a8557612a8461612a565b5b8486091115612ac9577fffffffffffffffffffffffffffffffffffffffffffffffffffffffffffffffff8110612aba57600080fd5b8080612ac590616159565b9150505b9392505050565b6000846000858585604051602001612aea9392919061621f565b6040516020818303038152906040528051906020012081526020019081526020016000209050949350505050565b600042905090565b6060845167ffffffffffffffff811115612b3d57612b3c61625c565b5b604051908082528060200260200182016040528015612b6b5781602001602082028036833780820191505090505b50905060005b8551811015612bdc57612ba28888888481518110612b9257612b916160d1565b5b602002602001015188888861425b565b828281518110612bb557612bb46160d1565b5b602002602001019060060b908160060b815250508080612bd490616159565b915050612b71565b509695505050505050565b60008060008486612bf8919061628b565b905060008660020b128015612c1c575060008587612c1691906162f5565b60020b14155b15612c30578080612c2c90616326565b9150505b8315612cf357600080612c4283614416565b9150915060008160ff166001901b60018360ff166001901b612c649190615faf565b612c6e9190615ce1565b90506000818b60008660010b60010b8152602001908152602001600020541690506000811415955085612cba57888360ff1686612cab9190615fe3565b612cb5919061636e565b612ce8565b88612cc482614438565b84612ccf91906163b8565b60ff1686612cdd9190615fe3565b612ce7919061636e565b5b965050505050612dcb565b600080612d0b600184612d0691906163ed565b614416565b91509150600060018260ff166001901b612d259190615faf565b1990506000818b60008660010b60010b8152602001908152602001600020541690506000811415955085612d8a57888360ff612d6191906163b8565b60ff16600187612d7191906163ed565b612d7b91906163ed565b612d85919061636e565b612dc4565b8883612d958361455b565b612d9f91906163b8565b60ff16600187612daf91906163ed565b612db991906163ed565b612dc3919061636e565b5b9650505050505b5094509492505050565b60008060008360020b12612dec578260020b612dfa565b8260020b612df990615eec565b5b90507ffffffffffffffffffffffffffffffffffffffffffffffffffffffffffff27618612e2690615bfb565b62ffffff16811115612e6d576040517f08c379a0000000000000000000000000000000000000000000000000000000008152600401612e64906164a5565b60405180910390fd5b6000806001831603612e9057700100000000000000000000000000000000612ea2565b6ffffcb933bd6fad37aa2d162d1a5940015b70ffffffffffffffffffffffffffffffffff16905060006002831614612ee55760806ffff97272373d413259a46990580e213a82612ee091906164c5565b901c90505b60006004831614612f135760806ffff2e50f5f656932ef12357cf3c7fdcc82612f0e91906164c5565b901c90505b60006008831614612f415760806fffe5caca7e10e4e61c3624eaa0941cd082612f3c91906164c5565b901c90505b60006010831614612f6f5760806fffcb9843d60f6159c9db58835c92664482612f6a91906164c5565b901c90505b60006020831614612f9d5760806fff973b41fa98c081472e6896dfb254c082612f9891906164c5565b901c90505b60006040831614612fcb5760806fff2ea16466c96a3843ec78b326b5286182612fc691906164c5565b901c90505b60006080831614612ff95760806ffe5dee046a99a2a811c461f1969c305382612ff491906164c5565b901c90505b60006101008316146130285760806ffcbe86c7900a88aedcffc83b479aa3a48261302391906164c5565b901c90505b60006102008316146130575760806ff987a7253ac413176f2b074cf7815e548261305291906164c5565b901c90505b60006104008316146130865760806ff3392b0822b70005940c7a398e4b70f38261308191906164c5565b901c90505b60006108008316146130b55760806fe7159475a2c29b7443b29c7fa6e889d9826130b091906164c5565b901c90505b60006110008316146130e45760806fd097f3bdfd2022b8845ad8f792aa5825826130df91906164c5565b901c90505b60006120008316146131135760806fa9f746462d870fdf8a65dc1f90e061e58261310e91906164c5565b901c90505b60006140008316146131425760806f70d869a156d2a1b890bb3df62baf32f78261313d91906164c5565b901c90505b60006180008316146131715760806f31be135f97d08fd981231505542fcfa68261316c91906164c5565b901c90505b6000620100008316146131a15760806f09aa508b5b7a84e1c677de54f3e99bc98261319c91906164c5565b901c90505b6000620200008316146131d05760806e5d6af8dedb81196699c329225ee604826131cb91906164c5565b901c90505b6000620400008316146131fe5760806d2216e584f5fa1ea926041bedfe98826131f991906164c5565b901c90505b60006208000083161461322a5760806b048a170391f7dc42444e8fa28261322591906164c5565b901c90505b60008460020b131561326557807fffffffffffffffffffffffffffffffffffffffffffffffffffffffffffffffff6132629190616507565b90505b6000640100000000826132789190616538565b14613284576001613287565b60005b60ff16602082901c6132999190615ce1565b92505050919050565b60008060008060008873ffffffffffffffffffffffffffffffffffffffff168a73ffffffffffffffffffffffffffffffffffffffff161015905060006132ff8888620f42406132f19190616569565b62ffffff16620f4240613426565b905081613318576133138b8b8b60016146ca565b613326565b6133258b8b8b60016147b9565b5b945084811061333757899550613346565b6133438b8a83856148fd565b95505b60008a73ffffffffffffffffffffffffffffffffffffffff168773ffffffffffffffffffffffffffffffffffffffff1614905082156133ae5780613396576133918c888c60016147b9565b613398565b855b95506133a78c888c60006146ca565b94506133d9565b806133c5576133c08c888c60016146ca565b6133c7565b855b95506133d68c888c60006147b9565b94505b806133f15785896133ea9190615faf565b9350613417565b613414868962ffffff168a620f424061340a9190616569565b62ffffff16612a65565b93505b50505095509550955095915050565b6000806000801985870985870292508281108382030391505060008103613461578382816134575761345661612a565b5b0492505050613534565b8381106134a75780846040517f773cc18c00000000000000000000000000000000000000000000000000000000815260040161349e92919061551f565b60405180910390fd5b60008486880990508281118203915080830392506000600186190186169050808604955080840493506001818260000304019050808302841793506000600287600302189050808702600203810290508087026002038102905080870260020381029050808702600203810290508087026002038102905080870260020381029050808502955050505050505b9392505050565b6000808560008660020b60020b815260200190815260200160002090508060020154846135689190615faf565b81600201819055508060030154836135809190615faf565b81600301819055508060010160009054906101000a9004600f0b915050949350505050565b60008082600f0b12156135ce57816135bc90615ea4565b836135c79190615dc5565b90506135dd565b81836135da9190615f34565b90505b92915050565b60006401000276a373ffffffffffffffffffffffffffffffffffffffff168273ffffffffffffffffffffffffffffffffffffffff1610158015613665575073fffd8963efd1fc6a506488495d951d5263988d2673ffffffffffffffffffffffffffffffffffffffff168273ffffffffffffffffffffffffffffffffffffffff16105b6136a4576040517f08c379a000000000000000000000000000000000000000000000000000000000815260040161369b906165ec565b60405180910390fd5b600060208373ffffffffffffffffffffffffffffffffffffffff16901b9050600081905060006fffffffffffffffffffffffffffffffff821160071b808217915082811c92505067ffffffffffffffff821160061b808217915082811c92505063ffffffff821160051b808217915082811c92505061ffff821160041b808217915082811c92505060ff821160031b808217915082811c925050600f821160021b808217915082811c9250506003821160011b808217915082811c925050600182118082179150506080811061378b57607f816137819190615faf565b83901c915061379e565b80607f6137989190615faf565b83901b91505b600060406080836137af919061660c565b901b9050828302607f1c92508260801c80603f1b8217915083811c935050828302607f1c92508260801c80603e1b8217915083811c935050828302607f1c92508260801c80603d1b8217915083811c935050828302607f1c92508260801c80603c1b8217915083811c935050828302607f1c92508260801c80603b1b8217915083811c935050828302607f1c92508260801c80603a1b8217915083811c935050828302607f1c92508260801c8060391b8217915083811c935050828302607f1c92508260801c8060381b8217915083811c935050828302607f1c92508260801c8060371b8217915083811c935050828302607f1c92508260801c8060361b8217915083811c935050828302607f1c92508260801c8060351b8217915083811c935050828302607f1c92508260801c8060341b8217915083811c935050828302607f1c92508260801c8060331b8217915083811c935050828302607f1c92508260801c8060321b82179150506000693627a301d71055774c8582613932919061664f565b9050600060806f028f6481ab7f045a5af012a19d003aaa83613954919061660c565b901d9050600060806fdb2df09e81959a81455e260799a0632f8461397891906166c7565b901d90508060020b8260020b146139d2578873ffffffffffffffffffffffffffffffffffffffff166139a982612dd5565b73ffffffffffffffffffffffffffffffffffffffff1611156139cb57816139cd565b805b6139d4565b815b975050505050505050919050565b6000806000888861ffff1661ffff81106139ff576139fe6160d1565b5b016040518060600160405290816000820160009054906101000a900463ffffffff1663ffffffff1663ffffffff1681526020016000820160049054906101000a900460060b60060b60060b815260200160008201600b9054906101000a900460ff16151515158152505090508663ffffffff16816000015163ffffffff1603613a8e5787859250925050613b83565b8461ffff168461ffff16118015613ab85750600185613aad919061670b565b61ffff168861ffff16145b15613ac557839150613ac9565b8491505b81600189613ad79190616741565b613ae19190616777565b9250613aee81888861492a565b898461ffff1661ffff8110613b0657613b056160d1565b5b0160008201518160000160006101000a81548163ffffffff021916908363ffffffff16021790555060208201518160000160046101000a81548166ffffffffffffff021916908360060b66ffffffffffffff160217905550604082015181600001600b6101000a81548160ff021916908315150217905550905050505b965096945050505050565b60008060405180606001604052808463ffffffff168152602001600060060b81526020016001151581525084600061ffff8110613bce57613bcd6160d1565b5b0160008201518160000160006101000a81548163ffffffff021916908363ffffffff16021790555060208201518160000160046101000a81548166ffffffffffffff021916908360060b66ffffffffffffff160217905550604082015181600001600b6101000a81548160ff02191690831515021790555090505060019150600190509250929050565b6000808860008960020b60020b8152602001908152602001600020905060008160000160019054906101000a90046fffffffffffffffffffffffffffffffff1690506000613ca682896135a5565b90506000826fffffffffffffffffffffffffffffffff161415156000826fffffffffffffffffffffffffffffffff16141515141593506000826fffffffffffffffffffffffffffffffff1603613d34578860020b8a60020b13613d16578683600201819055508583600301819055505b60018360000160006101000a81548160ff0219169083151502179055505b808360000160016101000a8154816fffffffffffffffffffffffffffffffff02191690836fffffffffffffffffffffffffffffffff16021790555084613d9c5787600f0b8360010160009054906101000a9004600f0b600f0b613d9791906166c7565b613dc0565b87600f0b8360010160009054906101000a9004600f0b600f0b613dbf919061660c565b5b8360010160006101000a8154816fffffffffffffffffffffffffffffffff0219169083600f0b6fffffffffffffffffffffffffffffffff160217905550505050979650505050505050565b60008183613e1991906162f5565b60020b14613e2657600080fd5b600080613e3d8385613e38919061628b565b614416565b9150915060008160ff166001901b9050808660008560010b60010b815260200190815260200160002060008282541892505081905550505050505050565b60008060008860008960020b60020b8152602001908152602001600020905060008960008960020b60020b815260200190815260200160002090506000808a60020b8960020b12613ed9578360020154915083600301549050613efe565b836002015488613ee99190615faf565b9150836003015487613efb9190615faf565b90505b6000808b60020b8b60020b1215613f22578460020154915084600301549050613f47565b84600201548a613f329190615faf565b9150846003015489613f449190615faf565b90505b81848b613f549190615faf565b613f5e9190615faf565b975080838a613f6d9190615faf565b613f779190615faf565b9650505050505050965096945050505050565b6000613fe9856001015484613f9f9190615faf565b8660000160009054906101000a90046fffffffffffffffffffffffffffffffff166fffffffffffffffffffffffffffffffff16700100000000000000000000000000000000613426565b9050600061404a8660020154846140009190615faf565b8760000160009054906101000a90046fffffffffffffffffffffffffffffffff166fffffffffffffffffffffffffffffffff16700100000000000000000000000000000000613426565b90506140768660000160009054906101000a90046fffffffffffffffffffffffffffffffff16866135a5565b8660000160006101000a8154816fffffffffffffffffffffffffffffffff02191690836fffffffffffffffffffffffffffffffff1602179055508386600101819055508286600201819055506000826fffffffffffffffffffffffffffffffff1611806140f557506000816fffffffffffffffffffffffffffffffff16115b156141c557818660030160008282829054906101000a90046fffffffffffffffffffffffffffffffff166141299190615f34565b92506101000a8154816fffffffffffffffffffffffffffffffff02191690836fffffffffffffffffffffffffffffffff160217905550808660030160108282829054906101000a90046fffffffffffffffffffffffffffffffff1661418e9190615f34565b92506101000a8154816fffffffffffffffffffffffffffffffff02191690836fffffffffffffffffffffffffffffffff1602179055505b505050505050565b60008082600f0b126141eb576141e684848460016147b9565b61420b565b6142018484846141fa90615ea4565b60006147b9565b61420a90615eec565b5b90509392505050565b60008082600f0b126142325761422d84848460016146ca565b614252565b61424884848461424190615ea4565b60006146ca565b61425190615eec565b5b90509392505050565b6000808563ffffffff1603614322576000878461ffff1661ffff8110614284576142836160d1565b5b016040518060600160405290816000820160009054906101000a900463ffffffff1663ffffffff1663ffffffff1681526020016000820160049054906101000a900460060b60060b60060b815260200160008201600b9054906101000a900460ff16151515158152505090508663ffffffff16816000015163ffffffff16146143155761431281888761492a565b90505b806020015191505061440c565b6000858761433091906167a8565b90506000806143438a8a858a8a8a61499a565b91509150816000015163ffffffff168363ffffffff160361436d578160200151935050505061440c565b806000015163ffffffff168363ffffffff1603614393578060200151935050505061440c565b6000826000015182600001516143a991906167a8565b63ffffffff16905060008360000151856143c391906167a8565b63ffffffff1690508082856020015185602001516143e191906167e0565b6143eb919061683f565b6143f591906168a9565b846020015161440491906168e6565b955050505050505b9695505050505050565b60008060088360020b901d91506101008361443191906162f5565b9050915091565b600080821161444657600080fd5b700100000000000000000000000000000000821061447557608082901c91506080816144729190616945565b90505b68010000000000000000821061449c57604082901c91506040816144999190616945565b90505b64010000000082106144bf57602082901c91506020816144bc9190616945565b90505b6201000082106144e057601082901c91506010816144dd9190616945565b90505b610100821061450057600882901c91506008816144fd9190616945565b90505b6010821061451f57600482901c915060048161451c9190616945565b90505b6004821061453e57600282901c915060028161453b9190616945565b90505b60028210614556576001816145539190616945565b90505b919050565b600080821161456957600080fd5b60ff905060006fffffffffffffffffffffffffffffffff80168316111561459e5760808161459791906163b8565b90506145a6565b608082901c91505b600067ffffffffffffffff8016831611156145cf576040816145c891906163b8565b90506145d7565b604082901c91505b600063ffffffff8016831611156145fc576020816145f591906163b8565b9050614604565b602082901c91505b600061ffff8016831611156146275760108161462091906163b8565b905061462f565b601082901c91505b600060ff8016831611156146515760088161464a91906163b8565b9050614659565b600882901c91505b6000600f831611156146795760048161467291906163b8565b9050614681565b600482901c91505b60006003831611156146a15760028161469a91906163b8565b90506146a9565b600282901c91505b60006001831611156146c5576001816146c291906163b8565b90505b919050565b60008373ffffffffffffffffffffffffffffffffffffffff168573ffffffffffffffffffffffffffffffffffffffff16111561470b57838580955081965050505b81156147635761475c836fffffffffffffffffffffffffffffffff168686614733919061697a565b73ffffffffffffffffffffffffffffffffffffffff166c01000000000000000000000000612a65565b90506147b1565b6147ae836fffffffffffffffffffffffffffffffff168686614785919061697a565b73ffffffffffffffffffffffffffffffffffffffff166c01000000000000000000000000613426565b90505b949350505050565b60008373ffffffffffffffffffffffffffffffffffffffff168573ffffffffffffffffffffffffffffffffffffffff1611156147fa57838580955081965050505b60008573ffffffffffffffffffffffffffffffffffffffff161161481d57600080fd5b6000606060ff16846fffffffffffffffffffffffffffffffff16901b905060008686614849919061697a565b73ffffffffffffffffffffffffffffffffffffffff16905083156148ae576148a761488b83838973ffffffffffffffffffffffffffffffffffffffff16612a65565b8873ffffffffffffffffffffffffffffffffffffffff16614c00565b92506148f3565b8673ffffffffffffffffffffffffffffffffffffffff166148e683838973ffffffffffffffffffffffffffffffffffffffff16613426565b6148f09190616507565b92505b5050949350505050565b6000816149145761490f858585614c13565b614920565b61491f858585614c69565b5b9050949350505050565b6149326150d1565b600084600001518461494491906167a8565b63ffffffff16905060405180606001604052808563ffffffff168152602001828560020b61497291906168a9565b876020015161498191906168e6565b60060b8152602001600115158152509150509392505050565b6149a26150d1565b6149aa6150d1565b878461ffff1661ffff81106149c2576149c16160d1565b5b016040518060600160405290816000820160009054906101000a900463ffffffff1663ffffffff1663ffffffff1681526020016000820160049054906101000a900460060b60060b60060b815260200160008201600b9054906101000a900460ff1615151515815250509150614a3d87836000015188614d5c565b15614a6f578563ffffffff16826000015163ffffffff160315614bf55781614a6683888861492a565b91509150614bf5565b8783600186614a7e9190616741565b614a889190616777565b61ffff1661ffff8110614a9e57614a9d6160d1565b5b016040518060600160405290816000820160009054906101000a900463ffffffff1663ffffffff1663ffffffff1681526020016000820160049054906101000a900460060b60060b60060b815260200160008201600b9054906101000a900460ff16151515158152505091508160400151614b955787600061ffff8110614b2857614b276160d1565b5b016040518060600160405290816000820160009054906101000a900463ffffffff1663ffffffff1663ffffffff1681526020016000820160049054906101000a900460060b60060b60060b815260200160008201600b9054906101000a900460ff16151515158152505091505b614ba487836000015188614d5c565b614be3576040517f08c379a0000000000000000000000000000000000000000000000000000000008152600401614bda90616a0e565b60405180910390fd5b614bf08888888787614e36565b915091505b965096945050505050565b6000808284061182840401905092915050565b6000614c3f826c01000000000000000000000000856fffffffffffffffffffffffffffffffff16613426565b8473ffffffffffffffffffffffffffffffffffffffff16614c609190615ce1565b90509392505050565b600080606060ff16846fffffffffffffffffffffffffffffffff16901b905060008573ffffffffffffffffffffffffffffffffffffffff1684614cac91906164c5565b90508573ffffffffffffffffffffffffffffffffffffffff168482614cd19190616507565b03614d1a5760008183614ce49190615ce1565b9050828110614d1857614d0e838873ffffffffffffffffffffffffffffffffffffffff1683612a65565b9350505050614d55565b505b614d5082858873ffffffffffffffffffffffffffffffffffffffff1685614d419190616507565b614d4b9190615ce1565b614c00565b925050505b9392505050565b60008363ffffffff168363ffffffff1611158015614d8657508363ffffffff168263ffffffff1611155b15614da2578163ffffffff168363ffffffff1611159050614e2f565b60008463ffffffff168463ffffffff1611614dd3576401000000008463ffffffff16614dce9190616a3f565b614ddb565b8363ffffffff165b64ffffffffff16905060008563ffffffff168463ffffffff1611614e15576401000000008463ffffffff16614e109190616a3f565b614e1d565b8363ffffffff165b64ffffffffff16905080821115925050505b9392505050565b614e3e6150d1565b614e466150d1565b600083600186614e569190616741565b614e609190616777565b61ffff169050600060018561ffff1683614e7a9190615ce1565b614e849190615faf565b905060005b6001156150565760028284614e9e9190615ce1565b614ea89190616507565b9050898661ffff1682614ebb9190616538565b61ffff8110614ecd57614ecc6160d1565b5b016040518060600160405290816000820160009054906101000a900463ffffffff1663ffffffff1663ffffffff1681526020016000820160049054906101000a900460060b60060b60060b815260200160008201600b9054906101000a900460ff16151515158152505094508460400151614f5657600181614f4f9190615ce1565b9250614e89565b898661ffff16600183614f699190615ce1565b614f739190616538565b61ffff8110614f8557614f846160d1565b5b016040518060600160405290816000820160009054906101000a900463ffffffff1663ffffffff1663ffffffff1681526020016000820160049054906101000a900460060b60060b60060b815260200160008201600b9054906101000a900460ff161515151581525050935060006150028a87600001518b614d5c565b905080801561501c575061501b8a8a8760000151614d5c565b5b156150275750615056565b80615040576001826150399190615faf565b9250615050565b60018261504d9190615ce1565b93505b50614e89565b5050509550959350505050565b6040518060e00160405280600073ffffffffffffffffffffffffffffffffffffffff168152602001600060020b8152602001600015158152602001600073ffffffffffffffffffffffffffffffffffffffff1681526020016000815260200160008152602001600081525090565b6040518060600160405280600063ffffffff168152602001600060060b81526020016000151581525090565b600073ffffffffffffffffffffffffffffffffffffffff82169050919050565b6000615128826150fd565b9050919050565b6151388161511d565b82525050565b6000602082019050615153600083018461512f565b92915050565b60006fffffffffffffffffffffffffffffffff82169050919050565b61517e81615159565b82525050565b60006020820190506151996000830184615175565b92915050565b600080fd5b600080fd5b6000819050919050565b6151bc816151a9565b81146151c757600080fd5b50565b6000813590506151d9816151b3565b92915050565b6000602082840312156151f5576151f461519f565b5b6000615203848285016151ca565b91505092915050565b600063ffffffff82169050919050565b6152258161520c565b82525050565b60008160060b9050919050565b6152418161522b565b82525050565b60008115159050919050565b61525c81615247565b82525050565b6000606082019050615277600083018661521c565b6152846020830185615238565b6152916040830184615253565b949350505050565b600061ffff82169050919050565b6152b081615299565b81146152bb57600080fd5b50565b6000813590506152cd816152a7565b92915050565b6000602082840312156152e9576152e861519f565b5b60006152f7848285016152be565b91505092915050565b615309816150fd565b82525050565b60008160020b9050919050565b6153258161530f565b82525050565b61533481615299565b82525050565b600060a08201905061534f6000830188615300565b61535c602083018761531c565b615369604083018661532b565b615376606083018561532b565b615383608083018461532b565b9695505050505050565b6153968161511d565b81146153a157600080fd5b50565b6000813590506153b38161538d565b92915050565b6153c28161530f565b81146153cd57600080fd5b50565b6000813590506153df816153b9565b92915050565b6153ee81615159565b81146153f957600080fd5b50565b60008135905061540b816153e5565b92915050565b600080fd5b600080fd5b600080fd5b60008083601f84011261543657615435615411565b5b8235905067ffffffffffffffff81111561545357615452615416565b5b60208301915083600182028301111561546f5761546e61541b565b5b9250929050565b60008060008060008060a087890312156154935761549261519f565b5b60006154a189828a016153a4565b96505060206154b289828a016153d0565b95505060406154c389828a016153d0565b94505060606154d489828a016153fc565b935050608087013567ffffffffffffffff8111156154f5576154f46151a4565b5b61550189828a01615420565b92509250509295509295509295565b615519816151a9565b82525050565b60006040820190506155346000830185615510565b6155416020830184615510565b9392505050565b600060208201905061555d6000830184615510565b92915050565b6000806000806060858703121561557d5761557c61519f565b5b600061558b878288016151ca565b945050602061559c878288016151ca565b935050604085013567ffffffffffffffff8111156155bd576155bc6151a4565b5b6155c987828801615420565b925092505092959194509250565b600080600080600060a086880312156155f3576155f261519f565b5b6000615601888289016153a4565b9550506020615612888289016153d0565b9450506040615623888289016153d0565b9350506060615634888289016153fc565b9250506080615645888289016153fc565b9150509295509295909350565b60006040820190506156676000830185615175565b6156746020830184615175565b9392505050565b6000819050919050565b61568e8161567b565b811461569957600080fd5b50565b6000813590506156ab81615685565b92915050565b6000602082840312156156c7576156c661519f565b5b60006156d58482850161569c565b91505092915050565b600060a0820190506156f36000830188615175565b6157006020830187615510565b61570d6040830186615510565b61571a6060830185615175565b6157276080830184615175565b9695505050505050565b60008160010b9050919050565b61574781615731565b811461575257600080fd5b50565b6000813590506157648161573e565b92915050565b6000602082840312156157805761577f61519f565b5b600061578e84828501615755565b91505092915050565b60008083601f8401126157ad576157ac615411565b5b8235905067ffffffffffffffff8111156157ca576157c9615416565b5b6020830191508360208202830111156157e6576157e561541b565b5b9250929050565b600080602083850312156158045761580361519f565b5b600083013567ffffffffffffffff811115615822576158216151a4565b5b61582e85828601615797565b92509250509250929050565b600081519050919050565b600082825260208201905092915050565b6000819050602082019050919050565b61586f8161522b565b82525050565b60006158818383615866565b60208301905092915050565b6000602082019050919050565b60006158a58261583a565b6158af8185615845565b93506158ba83615856565b8060005b838110156158eb5781516158d28882615875565b97506158dd8361588d565b9250506001810190506158be565b5085935050505092915050565b60006020820190508181036000830152615912818461589a565b905092915050565b6000806000606084860312156159335761593261519f565b5b6000615941868287016153d0565b9350506020615952868287016153d0565b9250506040615963868287016153fc565b9150509250925092565b600062ffffff82169050919050565b6159858161596d565b82525050565b60006020820190506159a0600083018461597c565b92915050565b6159af81615247565b81146159ba57600080fd5b50565b6000813590506159cc816159a6565b92915050565b6159db816150fd565b81146159e657600080fd5b50565b6000813590506159f8816159d2565b92915050565b60008060008060008060a08789031215615a1b57615a1a61519f565b5b6000615a2989828a016153a4565b9650506020615a3a89828a016159bd565b9550506040615a4b89828a016151ca565b9450506060615a5c89828a016159e9565b935050608087013567ffffffffffffffff811115615a7d57615a7c6151a4565b5b615a8989828a01615420565b92509250509295509295509295565b6000819050919050565b615aab81615a98565b82525050565b6000604082019050615ac66000830185615aa2565b615ad36020830184615aa2565b9392505050565b600060208284031215615af057615aef61519f565b5b6000615afe848285016153d0565b91505092915050565b600081600f0b9050919050565b615b1d81615b07565b82525050565b600060a082019050615b386000830188615253565b615b456020830187615175565b615b526040830186615b14565b615b5f6060830185615510565b615b6c6080830184615510565b9695505050505050565b600060208284031215615b8c57615b8b61519f565b5b6000615b9a848285016159e9565b91505092915050565b6000604082019050615bb8600083018561532b565b615bc5602083018461532b565b9392505050565b7f4e487b7100000000000000000000000000000000000000000000000000000000600052601160045260246000fd5b6000615c068261530f565b91507fffffffffffffffffffffffffffffffffffffffffffffffffffffffffff8000008203615c3857615c37615bcc565b5b816000039050919050565b600082825260208201905092915050565b82818337600083830152505050565b6000601f19601f8301169050919050565b6000615c808385615c43565b9350615c8d838584615c54565b615c9683615c63565b840190509392505050565b6000606082019050615cb66000830187615510565b615cc36020830186615510565b8181036040830152615cd6818486615c74565b905095945050505050565b6000615cec826151a9565b9150615cf7836151a9565b9250828201905080821115615d0f57615d0e615bcc565b5b92915050565b6000608082019050615d2a600083018761512f565b615d376020830186615175565b615d446040830185615510565b615d516060830184615510565b95945050505050565b600081519050615d69816151b3565b92915050565b600060208284031215615d8557615d8461519f565b5b6000615d9384828501615d5a565b91505092915050565b6000604082019050615db1600083018561512f565b615dbe6020830184615510565b9392505050565b6000615dd082615159565b9150615ddb83615159565b925082820390506fffffffffffffffffffffffffffffffff811115615e0357615e02615bcc565b5b92915050565b6000819050919050565b6000615e2e615e29615e2484615159565b615e09565b6151a9565b9050919050565b615e3e81615e13565b82525050565b6000604082019050615e59600083018561512f565b615e666020830184615e35565b9392505050565b6000606082019050615e82600083018661512f565b615e8f6020830185615e35565b615e9c6040830184615e35565b949350505050565b6000615eaf82615b07565b91507fffffffffffffffffffffffffffffffff800000000000000000000000000000008203615ee157615ee0615bcc565b5b816000039050919050565b6000615ef782615a98565b91507f80000000000000000000000000000000000000000000000000000000000000008203615f2957615f28615bcc565b5b816000039050919050565b6000615f3f82615159565b9150615f4a83615159565b925082820190506fffffffffffffffffffffffffffffffff811115615f7257615f71615bcc565b5b92915050565b6000606082019050615f8d6000830186615175565b615f9a6020830185615510565b615fa76040830184615510565b949350505050565b6000615fba826151a9565b9150615fc5836151a9565b9250828203905081811115615fdd57615fdc615bcc565b5b92915050565b6000615fee8261530f565b9150615ff98361530f565b92508282039050627fffff81137fffffffffffffffffffffffffffffffffffffffffffffffffffffffffff8000008212171561603857616037615bcc565b5b92915050565b60006060820190506160536000830187615aa2565b6160606020830186615aa2565b8181036040830152616073818486615c74565b905095945050505050565b600060a0820190506160936000830188615aa2565b6160a06020830187615aa2565b6160ad6040830186615300565b6160ba6060830185615175565b6160c7608083018461531c565b9695505050505050565b7f4e487b7100000000000000000000000000000000000000000000000000000000600052603260045260246000fd5b600061610b82615299565b915061ffff820361611f5761611e615bcc565b5b600182019050919050565b7f4e487b7100000000000000000000000000000000000000000000000000000000600052601260045260246000fd5b6000616164826151a9565b91507fffffffffffffffffffffffffffffffffffffffffffffffffffffffffffffffff820361619657616195615bcc565b5b600182019050919050565b60008160601b9050919050565b60006161b9826161a1565b9050919050565b60006161cb826161ae565b9050919050565b6161e36161de8261511d565b6161c0565b82525050565b60008160e81b9050919050565b6000616201826161e9565b9050919050565b6162196162148261530f565b6161f6565b82525050565b600061622b82866161d2565b60148201915061623b8285616208565b60038201915061624b8284616208565b600382019150819050949350505050565b7f4e487b7100000000000000000000000000000000000000000000000000000000600052604160045260246000fd5b60006162968261530f565b91506162a18361530f565b9250826162b1576162b061612a565b5b600160000383147fffffffffffffffffffffffffffffffffffffffffffffffffffffffffff800000831416156162ea576162e9615bcc565b5b828205905092915050565b60006163008261530f565b915061630b8361530f565b92508261631b5761631a61612a565b5b828207905092915050565b60006163318261530f565b91507fffffffffffffffffffffffffffffffffffffffffffffffffffffffffff800000820361636357616362615bcc565b5b600182039050919050565b60006163798261530f565b91506163848361530f565b92508282026163928161530f565b91508082146163a4576163a3615bcc565b5b5092915050565b600060ff82169050919050565b60006163c3826163ab565b91506163ce836163ab565b9250828203905060ff8111156163e7576163e6615bcc565b5b92915050565b60006163f88261530f565b91506164038361530f565b925082820190507fffffffffffffffffffffffffffffffffffffffffffffffffffffffffff8000008112627fffff8213171561644257616441615bcc565b5b92915050565b600082825260208201905092915050565b7f5400000000000000000000000000000000000000000000000000000000000000600082015250565b600061648f600183616448565b915061649a82616459565b602082019050919050565b600060208201905081810360008301526164be81616482565b9050919050565b60006164d0826151a9565b91506164db836151a9565b92508282026164e9816151a9565b91508282048414831517616500576164ff615bcc565b5b5092915050565b6000616512826151a9565b915061651d836151a9565b92508261652d5761652c61612a565b5b828204905092915050565b6000616543826151a9565b915061654e836151a9565b92508261655e5761655d61612a565b5b828206905092915050565b60006165748261596d565b915061657f8361596d565b9250828203905062ffffff81111561659a57616599615bcc565b5b92915050565b7f5200000000000000000000000000000000000000000000000000000000000000600082015250565b60006165d6600183616448565b91506165e1826165a0565b602082019050919050565b60006020820190508181036000830152616605816165c9565b9050919050565b600061661782615a98565b915061662283615a98565b925082820390508181126000841216828213600085121516171561664957616648615bcc565b5b92915050565b600061665a82615a98565b915061666583615a98565b925082820261667381615a98565b91507f800000000000000000000000000000000000000000000000000000000000000084146000841216156166ab576166aa615bcc565b5b82820584148315176166c0576166bf615bcc565b5b5092915050565b60006166d282615a98565b91506166dd83615a98565b92508282019050828112156000831216838212600084121516171561670557616704615bcc565b5b92915050565b600061671682615299565b915061672183615299565b9250828203905061ffff81111561673b5761673a615bcc565b5b92915050565b600061674c82615299565b915061675783615299565b9250828201905061ffff81111561677157616770615bcc565b5b92915050565b600061678282615299565b915061678d83615299565b92508261679d5761679c61612a565b5b828206905092915050565b60006167b38261520c565b91506167be8361520c565b9250828203905063ffffffff8111156167da576167d9615bcc565b5b92915050565b60006167eb8261522b565b91506167f68361522b565b92508282039050667fffffffffffff81137fffffffffffffffffffffffffffffffffffffffffffffffffff800000000000008212171561683957616838615bcc565b5b92915050565b600061684a8261522b565b91506168558361522b565b9250826168655761686461612a565b5b600160000383147fffffffffffffffffffffffffffffffffffffffffffffffffff800000000000008314161561689e5761689d615bcc565b5b828205905092915050565b60006168b48261522b565b91506168bf8361522b565b92508282026168cd8161522b565b91508082146168df576168de615bcc565b5b5092915050565b60006168f18261522b565b91506168fc8361522b565b925082820190507fffffffffffffffffffffffffffffffffffffffffffffffffff800000000000008112667fffffffffffff8213171561693f5761693e615bcc565b5b92915050565b6000616950826163ab565b915061695b836163ab565b9250828201905060ff81111561697457616973615bcc565b5b92915050565b6000616985826150fd565b9150616990836150fd565b9250828203905073ffffffffffffffffffffffffffffffffffffffff8111156169bc576169bb615bcc565b5b92915050565b7f4f4c440000000000000000000000000000000000000000000000000000000000600082015250565b60006169f8600383616448565b9150616a03826169c2565b602082019050919050565b60006020820190508181036000830152616a27816169eb565b9050919050565b600064ffffffffff82169050919050565b6000616a4a82616a2e565b9150616a5583616a2e565b9250828201905064ffffffffff811115616a7257616a71615bcc565b5b9291505056fea26469706673582212207031c2947c08dcb666a9ae6fd6a22e8c7e1971876f690eaafcf6379ccb533b7964736f6c634300081200334142434445464748494a4b4c4d4e4f505152535455565758595a6162636465666768696a6b6c6d6e6f707172737475767778797a303132333435363738392b2fa264697066735822122042a690bc6708718bc7be2351fc5fb4dc7b0dc3123d11afa8357061042ff3e8b664736f6c63430008120033",
			"opcodes": "PUSH1 0xA0 PUSH1 0x40 MSTORE CALLVALUE DUP1 ISZERO PUSH3 0x11 JUMPI PUSH1 0x0 DUP1 REVERT JUMPDEST POP PUSH1 0x40 MLOAD PUSH3 0xDC81 CODESIZE SUB DUP1 PUSH3 0xDC81 DUP4 CODECOPY DUP2 DUP2 ADD PUSH1 0x40 MSTORE DUP2 ADD SWAP1 PUSH3 0x37 SWAP2 SWAP1 PUSH3 0x16E JUMP JUMPDEST PUSH1 0x40 MLOAD DUP1 PUSH1 0x40 ADD PUSH1 0x40 MSTORE DUP1 PUSH1 0x17 DUP2 MSTORE PUSH1 0x20 ADD PUSH32 0x556E69737761705633204E465420506F736974696F6E73000000000000000000 DUP2 MSTORE POP PUSH1 0x40 MLOAD DUP1 PUSH1 0x40 ADD PUSH1 0x40 MSTORE DUP1 PUSH1 0x5 DUP2 MSTORE PUSH1 0x20 ADD PUSH32 0x554E495633000000000000000000000000000000000000000000000000000000 DUP2 MSTORE POP DUP2 PUSH1 0x0 SWAP1 DUP2 PUSH3 0xB4 SWAP2 SWAP1 PUSH3 0x41A JUMP JUMPDEST POP DUP1 PUSH1 0x1 SWAP1 DUP2 PUSH3 0xC6 SWAP2 SWAP1 PUSH3 0x41A JUMP JUMPDEST POP POP POP DUP1 PUSH20 0xFFFFFFFFFFFFFFFFFFFFFFFFFFFFFFFFFFFFFFFF AND PUSH1 0x80 DUP2 PUSH20 0xFFFFFFFFFFFFFFFFFFFFFFFFFFFFFFFFFFFFFFFF AND DUP2 MSTORE POP POP POP PUSH3 0x501 JUMP JUMPDEST PUSH1 0x0 DUP1 REVERT JUMPDEST PUSH1 0x0 PUSH20 0xFFFFFFFFFFFFFFFFFFFFFFFFFFFFFFFFFFFFFFFF DUP3 AND SWAP1 POP SWAP2 SWAP1 POP JUMP JUMPDEST PUSH1 0x0 PUSH3 0x136 DUP3 PUSH3 0x109 JUMP JUMPDEST SWAP1 POP SWAP2 SWAP1 POP JUMP JUMPDEST PUSH3 0x148 DUP2 PUSH3 0x129 JUMP JUMPDEST DUP2 EQ PUSH3 0x154 JUMPI PUSH1 0x0 DUP1 REVERT JUMPDEST POP JUMP JUMPDEST PUSH1 0x0 DUP2 MLOAD SWAP1 POP PUSH3 0x168 DUP2 PUSH3 0x13D JUMP JUMPDEST SWAP3 SWAP2 POP POP JUMP JUMPDEST PUSH1 0x0 PUSH1 0x20 DUP3 DUP5 SUB SLT ISZERO PUSH3 0x187 JUMPI PUSH3 0x186 PUSH3 0x104 JUMP JUMPDEST JUMPDEST PUSH1 0x0 PUSH3 0x197 DUP5 DUP3 DUP6 ADD PUSH3 0x157 JUMP JUMPDEST SWAP2 POP POP SWAP3 SWAP2 POP POP JUMP JUMPDEST PUSH1 0x0 DUP2 MLOAD SWAP1 POP SWAP2 SWAP1 POP JUMP JUMPDEST PUSH32 0x4E487B7100000000000000000000000000000000000000000000000000000000 PUSH1 0x0 MSTORE PUSH1 0x41 PUSH1 0x4 MSTORE PUSH1 0x24 PUSH1 0x0 REVERT JUMPDEST PUSH32 0x4E487B7100000000000000000000000000000000000000000000000000000000 PUSH1 0x0 MSTORE PUSH1 0x22 PUSH1 0x4 MSTORE PUSH1 0x24 PUSH1 0x0 REVERT JUMPDEST PUSH1 0x0 PUSH1 0x2 DUP3 DIV SWAP1 POP PUSH1 0x1 DUP3 AND DUP1 PUSH3 0x222 JUMPI PUSH1 0x7F DUP3 AND SWAP2 POP JUMPDEST PUSH1 0x20 DUP3 LT DUP2 SUB PUSH3 0x238 JUMPI PUSH3 0x237 PUSH3 0x1DA JUMP JUMPDEST JUMPDEST POP SWAP2 SWAP1 POP JUMP JUMPDEST PUSH1 0x0 DUP2 SWAP1 POP DUP2 PUSH1 0x0 MSTORE PUSH1 0x20 PUSH1 0x0 KECCAK256 SWAP1 POP SWAP2 SWAP1 POP JUMP JUMPDEST PUSH1 0x0 PUSH1 0x20 PUSH1 0x1F DUP4 ADD DIV SWAP1 POP SWAP2 SWAP1 POP JUMP JUMPDEST PUSH1 0x0 DUP3 DUP3 SHL SWAP1 POP SWAP3 SWAP2 POP POP JUMP JUMPDEST PUSH1 0x0 PUSH1 0x8 DUP4 MUL PUSH3 0x2A2 PUSH32 0xFFFFFFFFFFFFFFFFFFFFFFFFFFFFFFFFFFFFFFFFFFFFFFFFFFFFFFFFFFFFFFFF DUP3 PUSH3 0x263 JUMP JUMPDEST PUSH3 0x2AE DUP7 DUP4 PUSH3 0x263 JUMP JUMPDEST SWAP6 POP DUP1 NOT DUP5 AND SWAP4 POP DUP1 DUP7 AND DUP5 OR SWAP3 POP POP POP SWAP4 SWAP3 POP POP POP JUMP JUMPDEST PUSH1 0x0 DUP2 SWAP1 POP SWAP2 SWAP1 POP JUMP JUMPDEST PUSH1 0x0 DUP2 SWAP1 POP SWAP2 SWAP1 POP JUMP JUMPDEST PUSH1 0x0 PUSH3 0x2FB PUSH3 0x2F5 PUSH3 0x2EF DUP5 PUSH3 0x2C6 JUMP JUMPDEST PUSH3 0x2D0 JUMP JUMPDEST PUSH3 0x2C6 JUMP JUMPDEST SWAP1 POP SWAP2 SWAP1 POP JUMP JUMPDEST PUSH1 0x0 DUP2 SWAP1 POP SWAP2 SWAP1 POP JUMP JUMPDEST PUSH3 0x317 DUP4 PUSH3 0x2DA JUMP JUMPDEST PUSH3 0x32F PUSH3 0x326 DUP3 PUSH3 0x302 JUMP JUMPDEST DUP5 DUP5 SLOAD PUSH3 0x270 JUMP JUMPDEST DUP3 SSTORE POP POP POP POP JUMP JUMPDEST PUSH1 0x0 SWAP1 JUMP JUMPDEST PUSH3 0x346 PUSH3 0x337 JUMP JUMPDEST PUSH3 0x353 DUP2 DUP5 DUP5 PUSH3 0x30C JUMP JUMPDEST POP POP POP JUMP JUMPDEST JUMPDEST DUP2 DUP2 LT ISZERO PUSH3 0x37B JUMPI PUSH3 0x36F PUSH1 0x0 DUP3 PUSH3 0x33C JUMP JUMPDEST PUSH1 0x1 DUP2 ADD SWAP1 POP PUSH3 0x359 JUMP JUMPDEST POP POP JUMP JUMPDEST PUSH1 0x1F DUP3 GT ISZERO PUSH3 0x3CA JUMPI PUSH3 0x394 DUP2 PUSH3 0x23E JUMP JUMPDEST PUSH3 0x39F DUP5 PUSH3 0x253 JUMP JUMPDEST DUP2 ADD PUSH1 0x20 DUP6 LT ISZERO PUSH3 0x3AF JUMPI DUP2 SWAP1 POP JUMPDEST PUSH3 0x3C7 PUSH3 0x3BE DUP6 PUSH3 0x253 JUMP JUMPDEST DUP4 ADD DUP3 PUSH3 0x358 JUMP JUMPDEST POP POP JUMPDEST POP POP POP JUMP JUMPDEST PUSH1 0x0 DUP3 DUP3 SHR SWAP1 POP SWAP3 SWAP2 POP POP JUMP JUMPDEST PUSH1 0x0 PUSH3 0x3EF PUSH1 0x0 NOT DUP5 PUSH1 0x8 MUL PUSH3 0x3CF JUMP JUMPDEST NOT DUP1 DUP4 AND SWAP2 POP POP SWAP3 SWAP2 POP POP JUMP JUMPDEST PUSH1 0x0 PUSH3 0x40A DUP4 DUP4 PUSH3 0x3DC JUMP JUMPDEST SWAP2 POP DUP3 PUSH1 0x2 MUL DUP3 OR SWAP1 POP SWAP3 SWAP2 POP POP JUMP JUMPDEST PUSH3 0x425 DUP3 PUSH3 0x1A0 JUMP JUMPDEST PUSH8 0xFFFFFFFFFFFFFFFF DUP2 GT ISZERO PUSH3 0x441 JUMPI PUSH3 0x440 PUSH3 0x1AB JUMP JUMPDEST JUMPDEST PUSH3 0x44D DUP3 SLOAD PUSH3 0x209 JUMP JUMPDEST PUSH3 0x45A DUP3 DUP3 DUP6 PUSH3 0x37F JUMP JUMPDEST PUSH1 0x0 PUSH1 0x20 SWAP1 POP PUSH1 0x1F DUP4 GT PUSH1 0x1 DUP2 EQ PUSH3 0x492 JUMPI PUSH1 0x0 DUP5 ISZERO PUSH3 0x47D JUMPI DUP3 DUP8 ADD MLOAD SWAP1 POP JUMPDEST PUSH3 0x489 DUP6 DUP3 PUSH3 0x3FC JUMP JUMPDEST DUP7 SSTORE POP PUSH3 0x4F9 JUMP JUMPDEST PUSH1 0x1F NOT DUP5 AND PUSH3 0x4A2 DUP7 PUSH3 0x23E JUMP JUMPDEST PUSH1 0x0 JUMPDEST DUP3 DUP2 LT ISZERO PUSH3 0x4CC JUMPI DUP5 DUP10 ADD MLOAD DUP3 SSTORE PUSH1 0x1 DUP3 ADD SWAP2 POP PUSH1 0x20 DUP6 ADD SWAP5 POP PUSH1 0x20 DUP2 ADD SWAP1 POP PUSH3 0x4A5 JUMP JUMPDEST DUP7 DUP4 LT ISZERO PUSH3 0x4EC JUMPI DUP5 DUP10 ADD MLOAD PUSH3 0x4E8 PUSH1 0x1F DUP10 AND DUP3 PUSH3 0x3DC JUMP JUMPDEST DUP4 SSTORE POP JUMPDEST PUSH1 0x1 PUSH1 0x2 DUP9 MUL ADD DUP9 SSTORE POP POP POP JUMPDEST POP POP POP POP POP POP JUMP JUMPDEST PUSH1 0x80 MLOAD PUSH2 0xD75D PUSH3 0x524 PUSH1 0x0 CODECOPY PUSH1 0x0 DUP2 DUP2 PUSH2 0x208B ADD MSTORE PUSH2 0x2EEE ADD MSTORE PUSH2 0xD75D PUSH1 0x0 RETURN INVALID PUSH1 0x80 PUSH1 0x40 MSTORE CALLVALUE DUP1 ISZERO PUSH3 0x11 JUMPI PUSH1 0x0 DUP1 REVERT JUMPDEST POP PUSH1 0x4 CALLDATASIZE LT PUSH3 0x160 JUMPI PUSH1 0x0 CALLDATALOAD PUSH1 0xE0 SHR DUP1 PUSH4 0x6352211E GT PUSH3 0xC9 JUMPI DUP1 PUSH4 0xB88D4FDE GT PUSH3 0x87 JUMPI DUP1 PUSH4 0xB88D4FDE EQ PUSH3 0x421 JUMPI DUP1 PUSH4 0xC45A0155 EQ PUSH3 0x441 JUMPI DUP1 PUSH4 0xC87B56DD EQ PUSH3 0x463 JUMPI DUP1 PUSH4 0xD3487997 EQ PUSH3 0x499 JUMPI DUP1 PUSH4 0xE7DD4C5A EQ PUSH3 0x4B9 JUMPI DUP1 PUSH4 0xE985E9C5 EQ PUSH3 0x4EF JUMPI PUSH3 0x160 JUMP JUMPDEST DUP1 PUSH4 0x6352211E EQ PUSH3 0x33B JUMPI DUP1 PUSH4 0x70A08231 EQ PUSH3 0x371 JUMPI DUP1 PUSH4 0x95D89B41 EQ PUSH3 0x3A7 JUMPI DUP1 PUSH4 0x99FBAB88 EQ PUSH3 0x3C9 JUMPI DUP1 PUSH4 0xA22CB465 EQ PUSH3 0x401 JUMPI PUSH3 0x160 JUMP JUMPDEST DUP1 PUSH4 0x18160DDD GT PUSH3 0x123 JUMPI DUP1 PUSH4 0x18160DDD EQ PUSH3 0x24A JUMPI DUP1 PUSH4 0x23B872DD EQ PUSH3 0x26C JUMPI DUP1 PUSH4 0x42842E0E EQ PUSH3 0x28C JUMPI DUP1 PUSH4 0x42966C68 EQ PUSH3 0x2AC JUMPI DUP1 PUSH4 0x4CAAD396 EQ PUSH3 0x2CC JUMPI DUP1 PUSH4 0x5F032EF4 EQ PUSH3 0x304 JUMPI PUSH3 0x160 JUMP JUMPDEST DUP1 PUSH4 0x1FFC9A7 EQ PUSH3 0x165 JUMPI DUP1 PUSH4 0x6FDDE03 EQ PUSH3 0x19B JUMPI DUP1 PUSH4 0x81812FC EQ PUSH3 0x1BD JUMPI DUP1 PUSH4 0x95EA7B3 EQ PUSH3 0x1F3 JUMPI DUP1 PUSH4 0x12BA95EE EQ PUSH3 0x213 JUMPI JUMPDEST PUSH1 0x0 DUP1 REVERT JUMPDEST PUSH3 0x183 PUSH1 0x4 DUP1 CALLDATASIZE SUB DUP2 ADD SWAP1 PUSH3 0x17D SWAP2 SWAP1 PUSH3 0x40EF JUMP JUMPDEST PUSH3 0x525 JUMP JUMPDEST PUSH1 0x40 MLOAD PUSH3 0x192 SWAP2 SWAP1 PUSH3 0x413E JUMP JUMPDEST PUSH1 0x40 MLOAD DUP1 SWAP2 SUB SWAP1 RETURN JUMPDEST PUSH3 0x1A5 PUSH3 0x5B9 JUMP JUMPDEST PUSH1 0x40 MLOAD PUSH3 0x1B4 SWAP2 SWAP1 PUSH3 0x41F5 JUMP JUMPDEST PUSH1 0x40 MLOAD DUP1 SWAP2 SUB SWAP1 RETURN JUMPDEST PUSH3 0x1DB PUSH1 0x4 DUP1 CALLDATASIZE SUB DUP2 ADD SWAP1 PUSH3 0x1D5 SWAP2 SWAP1 PUSH3 0x4254 JUMP JUMPDEST PUSH3 0x64F JUMP JUMPDEST PUSH1 0x40 MLOAD PUSH3 0x1EA SWAP2 SWAP1 PUSH3 0x42CB JUMP JUMPDEST PUSH1 0x40 MLOAD DUP1 SWAP2 SUB SWAP1 RETURN JUMPDEST PUSH3 0x211 PUSH1 0x4 DUP1 CALLDATASIZE SUB DUP2 ADD SWAP1 PUSH3 0x20B SWAP2 SWAP1 PUSH3 0x4319 JUMP JUMPDEST PUSH3 0x682 JUMP JUMPDEST STOP JUMPDEST PUSH3 0x231 PUSH1 0x4 DUP1 CALLDATASIZE SUB DUP2 ADD SWAP1 PUSH3 0x22B SWAP2 SWAP1 PUSH3 0x448F JUMP JUMPDEST PUSH3 0x86F JUMP JUMPDEST PUSH1 0x40 MLOAD PUSH3 0x241 SWAP3 SWAP2 SWAP1 PUSH3 0x44D2 JUMP JUMPDEST PUSH1 0x40 MLOAD DUP1 SWAP2 SUB SWAP1 RETURN JUMPDEST PUSH3 0x254 PUSH3 0xCF4 JUMP JUMPDEST PUSH1 0x40 MLOAD PUSH3 0x263 SWAP2 SWAP1 PUSH3 0x44FF JUMP JUMPDEST PUSH1 0x40 MLOAD DUP1 SWAP2 SUB SWAP1 RETURN JUMPDEST PUSH3 0x28A PUSH1 0x4 DUP1 CALLDATASIZE SUB DUP2 ADD SWAP1 PUSH3 0x284 SWAP2 SWAP1 PUSH3 0x451C JUMP JUMPDEST PUSH3 0xCFA JUMP JUMPDEST STOP JUMPDEST PUSH3 0x2AA PUSH1 0x4 DUP1 CALLDATASIZE SUB DUP2 ADD SWAP1 PUSH3 0x2A4 SWAP2 SWAP1 PUSH3 0x451C JUMP JUMPDEST PUSH3 0x1104 JUMP JUMPDEST STOP JUMPDEST PUSH3 0x2CA PUSH1 0x4 DUP1 CALLDATASIZE SUB DUP2 ADD SWAP1 PUSH3 0x2C4 SWAP2 SWAP1 PUSH3 0x4254 JUMP JUMPDEST PUSH3 0x1247 JUMP JUMPDEST STOP JUMPDEST PUSH3 0x2EA PUSH1 0x4 DUP1 CALLDATASIZE SUB DUP2 ADD SWAP1 PUSH3 0x2E4 SWAP2 SWAP1 PUSH3 0x459F JUMP JUMPDEST PUSH3 0x169D JUMP JUMPDEST PUSH1 0x40 MLOAD PUSH3 0x2FB SWAP4 SWAP3 SWAP2 SWAP1 PUSH3 0x45E2 JUMP JUMPDEST PUSH1 0x40 MLOAD DUP1 SWAP2 SUB SWAP1 RETURN JUMPDEST PUSH3 0x322 PUSH1 0x4 DUP1 CALLDATASIZE SUB DUP2 ADD SWAP1 PUSH3 0x31C SWAP2 SWAP1 PUSH3 0x468E JUMP JUMPDEST PUSH3 0x188D JUMP JUMPDEST PUSH1 0x40 MLOAD PUSH3 0x332 SWAP3 SWAP2 SWAP1 PUSH3 0x46C0 JUMP JUMPDEST PUSH1 0x40 MLOAD DUP1 SWAP2 SUB SWAP1 RETURN JUMPDEST PUSH3 0x359 PUSH1 0x4 DUP1 CALLDATASIZE SUB DUP2 ADD SWAP1 PUSH3 0x353 SWAP2 SWAP1 PUSH3 0x4254 JUMP JUMPDEST PUSH3 0x1BDF JUMP JUMPDEST PUSH1 0x40 MLOAD PUSH3 0x368 SWAP2 SWAP1 PUSH3 0x42CB JUMP JUMPDEST PUSH1 0x40 MLOAD DUP1 SWAP2 SUB SWAP1 RETURN JUMPDEST PUSH3 0x38F PUSH1 0x4 DUP1 CALLDATASIZE SUB DUP2 ADD SWAP1 PUSH3 0x389 SWAP2 SWAP1 PUSH3 0x46ED JUMP JUMPDEST PUSH3 0x1C8D JUMP JUMPDEST PUSH1 0x40 MLOAD PUSH3 0x39E SWAP2 SWAP1 PUSH3 0x44FF JUMP JUMPDEST PUSH1 0x40 MLOAD DUP1 SWAP2 SUB SWAP1 RETURN JUMPDEST PUSH3 0x3B1 PUSH3 0x1D47 JUMP JUMPDEST PUSH1 0x40 MLOAD PUSH3 0x3C0 SWAP2 SWAP1 PUSH3 0x41F5 JUMP JUMPDEST PUSH1 0x40 MLOAD DUP1 SWAP2 SUB SWAP1 RETURN JUMPDEST PUSH3 0x3E7 PUSH1 0x4 DUP1 CALLDATASIZE SUB DUP2 ADD SWAP1 PUSH3 0x3E1 SWAP2 SWAP1 PUSH3 0x4254 JUMP JUMPDEST PUSH3 0x1DDD JUMP JUMPDEST PUSH1 0x40 MLOAD PUSH3 0x3F8 SWAP4 SWAP3 SWAP2 SWAP1 PUSH3 0x473D JUMP JUMPDEST PUSH1 0x40 MLOAD DUP1 SWAP2 SUB SWAP1 RETURN JUMPDEST PUSH3 0x41F PUSH1 0x4 DUP1 CALLDATASIZE SUB DUP2 ADD SWAP1 PUSH3 0x419 SWAP2 SWAP1 PUSH3 0x47AB JUMP JUMPDEST PUSH3 0x1E41 JUMP JUMPDEST STOP JUMPDEST PUSH3 0x43F PUSH1 0x4 DUP1 CALLDATASIZE SUB DUP2 ADD SWAP1 PUSH3 0x439 SWAP2 SWAP1 PUSH3 0x4860 JUMP JUMPDEST PUSH3 0x1F40 JUMP JUMPDEST STOP JUMPDEST PUSH3 0x44B PUSH3 0x2089 JUMP JUMPDEST PUSH1 0x40 MLOAD PUSH3 0x45A SWAP2 SWAP1 PUSH3 0x42CB JUMP JUMPDEST PUSH1 0x40 MLOAD DUP1 SWAP2 SUB SWAP1 RETURN JUMPDEST PUSH3 0x481 PUSH1 0x4 DUP1 CALLDATASIZE SUB DUP2 ADD SWAP1 PUSH3 0x47B SWAP2 SWAP1 PUSH3 0x4254 JUMP JUMPDEST PUSH3 0x20AD JUMP JUMPDEST PUSH1 0x40 MLOAD PUSH3 0x490 SWAP2 SWAP1 PUSH3 0x41F5 JUMP JUMPDEST PUSH1 0x40 MLOAD DUP1 SWAP2 SUB SWAP1 RETURN JUMPDEST PUSH3 0x4B7 PUSH1 0x4 DUP1 CALLDATASIZE SUB DUP2 ADD SWAP1 PUSH3 0x4B1 SWAP2 SWAP1 PUSH3 0x48F6 JUMP JUMPDEST PUSH3 0x22C3 JUMP JUMPDEST STOP JUMPDEST PUSH3 0x4D7 PUSH1 0x4 DUP1 CALLDATASIZE SUB DUP2 ADD SWAP1 PUSH3 0x4D1 SWAP2 SWAP1 PUSH3 0x4999 JUMP JUMPDEST PUSH3 0x23D5 JUMP JUMPDEST PUSH1 0x40 MLOAD PUSH3 0x4E6 SWAP2 SWAP1 PUSH3 0x44FF JUMP JUMPDEST PUSH1 0x40 MLOAD DUP1 SWAP2 SUB SWAP1 RETURN JUMPDEST PUSH3 0x50D PUSH1 0x4 DUP1 CALLDATASIZE SUB DUP2 ADD SWAP1 PUSH3 0x507 SWAP2 SWAP1 PUSH3 0x49CC JUMP JUMPDEST PUSH3 0x266F JUMP JUMPDEST PUSH1 0x40 MLOAD PUSH3 0x51C SWAP2 SWAP1 PUSH3 0x413E JUMP JUMPDEST PUSH1 0x40 MLOAD DUP1 SWAP2 SUB SWAP1 RETURN JUMPDEST PUSH1 0x0 PUSH4 0x1FFC9A7 PUSH1 0xE0 SHL DUP3 PUSH28 0xFFFFFFFFFFFFFFFFFFFFFFFFFFFFFFFFFFFFFFFFFFFFFFFFFFFFFFFF NOT AND EQ DUP1 PUSH3 0x581 JUMPI POP PUSH4 0x80AC58CD PUSH1 0xE0 SHL DUP3 PUSH28 0xFFFFFFFFFFFFFFFFFFFFFFFFFFFFFFFFFFFFFFFFFFFFFFFFFFFFFFFF NOT AND EQ JUMPDEST DUP1 PUSH3 0x5B2 JUMPI POP PUSH4 0x5B5E139F PUSH1 0xE0 SHL DUP3 PUSH28 0xFFFFFFFFFFFFFFFFFFFFFFFFFFFFFFFFFFFFFFFFFFFFFFFFFFFFFFFF NOT AND EQ JUMPDEST SWAP1 POP SWAP2 SWAP1 POP JUMP JUMPDEST PUSH1 0x0 DUP1 SLOAD PUSH3 0x5C8 SWAP1 PUSH3 0x4A42 JUMP JUMPDEST DUP1 PUSH1 0x1F ADD PUSH1 0x20 DUP1 SWAP2 DIV MUL PUSH1 0x20 ADD PUSH1 0x40 MLOAD SWAP1 DUP2 ADD PUSH1 0x40 MSTORE DUP1 SWAP3 SWAP2 SWAP1 DUP2 DUP2 MSTORE PUSH1 0x20 ADD DUP3 DUP1 SLOAD PUSH3 0x5F6 SWAP1 PUSH3 0x4A42 JUMP JUMPDEST DUP1 ISZERO PUSH3 0x647 JUMPI DUP1 PUSH1 0x1F LT PUSH3 0x61B JUMPI PUSH2 0x100 DUP1 DUP4 SLOAD DIV MUL DUP4 MSTORE SWAP2 PUSH1 0x20 ADD SWAP2 PUSH3 0x647 JUMP JUMPDEST DUP3 ADD SWAP2 SWAP1 PUSH1 0x0 MSTORE PUSH1 0x20 PUSH1 0x0 KECCAK256 SWAP1 JUMPDEST DUP2 SLOAD DUP2 MSTORE SWAP1 PUSH1 0x1 ADD SWAP1 PUSH1 0x20 ADD DUP1 DUP4 GT PUSH3 0x629 JUMPI DUP3 SWAP1 SUB PUSH1 0x1F AND DUP3 ADD SWAP2 JUMPDEST POP POP POP POP POP DUP2 JUMP JUMPDEST PUSH1 0x4 PUSH1 0x20 MSTORE DUP1 PUSH1 0x0 MSTORE PUSH1 0x40 PUSH1 0x0 KECCAK256 PUSH1 0x0 SWAP2 POP SLOAD SWAP1 PUSH2 0x100 EXP SWAP1 DIV PUSH20 0xFFFFFFFFFFFFFFFFFFFFFFFFFFFFFFFFFFFFFFFF AND DUP2 JUMP JUMPDEST PUSH1 0x0 PUSH1 0x2 PUSH1 0x0 DUP4 DUP2 MSTORE PUSH1 0x20 ADD SWAP1 DUP2 MSTORE PUSH1 0x20 ADD PUSH1 0x0 KECCAK256 PUSH1 0x0 SWAP1 SLOAD SWAP1 PUSH2 0x100 EXP SWAP1 DIV PUSH20 0xFFFFFFFFFFFFFFFFFFFFFFFFFFFFFFFFFFFFFFFF AND SWAP1 POP DUP1 PUSH20 0xFFFFFFFFFFFFFFFFFFFFFFFFFFFFFFFFFFFFFFFF AND CALLER PUSH20 0xFFFFFFFFFFFFFFFFFFFFFFFFFFFFFFFFFFFFFFFF AND EQ DUP1 PUSH3 0x77B JUMPI POP PUSH1 0x5 PUSH1 0x0 DUP3 PUSH20 0xFFFFFFFFFFFFFFFFFFFFFFFFFFFFFFFFFFFFFFFF AND PUSH20 0xFFFFFFFFFFFFFFFFFFFFFFFFFFFFFFFFFFFFFFFF AND DUP2 MSTORE PUSH1 0x20 ADD SWAP1 DUP2 MSTORE PUSH1 0x20 ADD PUSH1 0x0 KECCAK256 PUSH1 0x0 CALLER PUSH20 0xFFFFFFFFFFFFFFFFFFFFFFFFFFFFFFFFFFFFFFFF AND PUSH20 0xFFFFFFFFFFFFFFFFFFFFFFFFFFFFFFFFFFFFFFFF AND DUP2 MSTORE PUSH1 0x20 ADD SWAP1 DUP2 MSTORE PUSH1 0x20 ADD PUSH1 0x0 KECCAK256 PUSH1 0x0 SWAP1 SLOAD SWAP1 PUSH2 0x100 EXP SWAP1 DIV PUSH1 0xFF AND JUMPDEST PUSH3 0x7BD JUMPI PUSH1 0x40 MLOAD PUSH32 0x8C379A000000000000000000000000000000000000000000000000000000000 DUP2 MSTORE PUSH1 0x4 ADD PUSH3 0x7B4 SWAP1 PUSH3 0x4AC7 JUMP JUMPDEST PUSH1 0x40 MLOAD DUP1 SWAP2 SUB SWAP1 REVERT JUMPDEST DUP3 PUSH1 0x4 PUSH1 0x0 DUP5 DUP2 MSTORE PUSH1 0x20 ADD SWAP1 DUP2 MSTORE PUSH1 0x20 ADD PUSH1 0x0 KECCAK256 PUSH1 0x0 PUSH2 0x100 EXP DUP2 SLOAD DUP2 PUSH20 0xFFFFFFFFFFFFFFFFFFFFFFFFFFFFFFFFFFFFFFFF MUL NOT AND SWAP1 DUP4 PUSH20 0xFFFFFFFFFFFFFFFFFFFFFFFFFFFFFFFFFFFFFFFF AND MUL OR SWAP1 SSTORE POP DUP2 DUP4 PUSH20 0xFFFFFFFFFFFFFFFFFFFFFFFFFFFFFFFFFFFFFFFF AND DUP3 PUSH20 0xFFFFFFFFFFFFFFFFFFFFFFFFFFFFFFFFFFFFFFFF AND PUSH32 0x8C5BE1E5EBEC7D5BD14F71427D1E84F3DD0314C0F7B2291E5B200AC8C7C3B925 PUSH1 0x40 MLOAD PUSH1 0x40 MLOAD DUP1 SWAP2 SUB SWAP1 LOG4 POP POP POP JUMP JUMPDEST PUSH1 0x0 DUP1 DUP3 PUSH1 0x0 ADD MLOAD PUSH1 0x0 PUSH3 0x884 DUP3 PUSH3 0x1BDF JUMP JUMPDEST SWAP1 POP DUP1 PUSH20 0xFFFFFFFFFFFFFFFFFFFFFFFFFFFFFFFFFFFFFFFF AND CALLER PUSH20 0xFFFFFFFFFFFFFFFFFFFFFFFFFFFFFFFFFFFFFFFF AND EQ ISZERO DUP1 ISZERO PUSH3 0x94A JUMPI POP PUSH1 0x5 PUSH1 0x0 DUP3 PUSH20 0xFFFFFFFFFFFFFFFFFFFFFFFFFFFFFFFFFFFFFFFF AND PUSH20 0xFFFFFFFFFFFFFFFFFFFFFFFFFFFFFFFFFFFFFFFF AND DUP2 MSTORE PUSH1 0x20 ADD SWAP1 DUP2 MSTORE PUSH1 0x20 ADD PUSH1 0x0 KECCAK256 PUSH1 0x0 CALLER PUSH20 0xFFFFFFFFFFFFFFFFFFFFFFFFFFFFFFFFFFFFFFFF AND PUSH20 0xFFFFFFFFFFFFFFFFFFFFFFFFFFFFFFFFFFFFFFFF AND DUP2 MSTORE PUSH1 0x20 ADD SWAP1 DUP2 MSTORE PUSH1 0x20 ADD PUSH1 0x0 KECCAK256 PUSH1 0x0 SWAP1 SLOAD SWAP1 PUSH2 0x100 EXP SWAP1 DIV PUSH1 0xFF AND ISZERO JUMPDEST DUP1 ISZERO PUSH3 0x9B6 JUMPI POP CALLER PUSH20 0xFFFFFFFFFFFFFFFFFFFFFFFFFFFFFFFFFFFFFFFF AND PUSH1 0x4 PUSH1 0x0 DUP5 DUP2 MSTORE PUSH1 0x20 ADD SWAP1 DUP2 MSTORE PUSH1 0x20 ADD PUSH1 0x0 KECCAK256 PUSH1 0x0 SWAP1 SLOAD SWAP1 PUSH2 0x100 EXP SWAP1 DIV PUSH20 0xFFFFFFFFFFFFFFFFFFFFFFFFFFFFFFFFFFFFFFFF AND PUSH20 0xFFFFFFFFFFFFFFFFFFFFFFFFFFFFFFFFFFFFFFFF AND EQ ISZERO JUMPDEST ISZERO PUSH3 0x9EE JUMPI PUSH1 0x40 MLOAD PUSH32 0xEA8E4EB500000000000000000000000000000000000000000000000000000000 DUP2 MSTORE PUSH1 0x4 ADD PUSH1 0x40 MLOAD DUP1 SWAP2 SUB SWAP1 REVERT JUMPDEST PUSH1 0x0 PUSH1 0x8 PUSH1 0x0 DUP8 PUSH1 0x0 ADD MLOAD DUP2 MSTORE PUSH1 0x20 ADD SWAP1 DUP2 MSTORE PUSH1 0x20 ADD PUSH1 0x0 KECCAK256 PUSH1 0x40 MLOAD DUP1 PUSH1 0x60 ADD PUSH1 0x40 MSTORE SWAP1 DUP2 PUSH1 0x0 DUP3 ADD PUSH1 0x0 SWAP1 SLOAD SWAP1 PUSH2 0x100 EXP SWAP1 DIV PUSH20 0xFFFFFFFFFFFFFFFFFFFFFFFFFFFFFFFFFFFFFFFF AND PUSH20 0xFFFFFFFFFFFFFFFFFFFFFFFFFFFFFFFFFFFFFFFF AND PUSH20 0xFFFFFFFFFFFFFFFFFFFFFFFFFFFFFFFFFFFFFFFF AND DUP2 MSTORE PUSH1 0x20 ADD PUSH1 0x0 DUP3 ADD PUSH1 0x14 SWAP1 SLOAD SWAP1 PUSH2 0x100 EXP SWAP1 DIV PUSH1 0x2 SIGNEXTEND PUSH1 0x2 SIGNEXTEND PUSH1 0x2 SIGNEXTEND DUP2 MSTORE PUSH1 0x20 ADD PUSH1 0x0 DUP3 ADD PUSH1 0x17 SWAP1 SLOAD SWAP1 PUSH2 0x100 EXP SWAP1 DIV PUSH1 0x2 SIGNEXTEND PUSH1 0x2 SIGNEXTEND PUSH1 0x2 SIGNEXTEND DUP2 MSTORE POP POP SWAP1 POP PUSH1 0x0 PUSH20 0xFFFFFFFFFFFFFFFFFFFFFFFFFFFFFFFFFFFFFFFF AND DUP2 PUSH1 0x0 ADD MLOAD PUSH20 0xFFFFFFFFFFFFFFFFFFFFFFFFFFFFFFFFFFFFFFFF AND SUB PUSH3 0xB0F JUMPI PUSH1 0x40 MLOAD PUSH32 0xA0F3FEEA00000000000000000000000000000000000000000000000000000000 DUP2 MSTORE PUSH1 0x4 ADD PUSH1 0x40 MLOAD DUP1 SWAP2 SUB SWAP1 REVERT JUMPDEST PUSH1 0x0 DUP2 PUSH1 0x0 ADD MLOAD SWAP1 POP PUSH1 0x0 DUP2 PUSH20 0xFFFFFFFFFFFFFFFFFFFFFFFFFFFFFFFFFFFFFFFF AND PUSH4 0x514EA4BF PUSH3 0xB41 DUP6 PUSH3 0x269E JUMP JUMPDEST PUSH1 0x40 MLOAD DUP3 PUSH4 0xFFFFFFFF AND PUSH1 0xE0 SHL DUP2 MSTORE PUSH1 0x4 ADD PUSH3 0xB5F SWAP2 SWAP1 PUSH3 0x4B04 JUMP JUMPDEST PUSH1 0xA0 PUSH1 0x40 MLOAD DUP1 DUP4 SUB DUP2 DUP7 GAS STATICCALL ISZERO DUP1 ISZERO PUSH3 0xB7D JUMPI RETURNDATASIZE PUSH1 0x0 DUP1 RETURNDATACOPY RETURNDATASIZE PUSH1 0x0 REVERT JUMPDEST POP POP POP POP PUSH1 0x40 MLOAD RETURNDATASIZE PUSH1 0x1F NOT PUSH1 0x1F DUP3 ADD AND DUP3 ADD DUP1 PUSH1 0x40 MSTORE POP DUP2 ADD SWAP1 PUSH3 0xBA3 SWAP2 SWAP1 PUSH3 0x4B4F JUMP JUMPDEST POP POP POP POP SWAP1 POP DUP1 PUSH16 0xFFFFFFFFFFFFFFFFFFFFFFFFFFFFFFFF AND DUP9 PUSH1 0x20 ADD MLOAD PUSH16 0xFFFFFFFFFFFFFFFFFFFFFFFFFFFFFFFF AND GT ISZERO PUSH3 0xC0C JUMPI PUSH1 0x40 MLOAD PUSH32 0x4323A55500000000000000000000000000000000000000000000000000000000 DUP2 MSTORE PUSH1 0x4 ADD PUSH1 0x40 MLOAD DUP1 SWAP2 SUB SWAP1 REVERT JUMPDEST DUP2 PUSH20 0xFFFFFFFFFFFFFFFFFFFFFFFFFFFFFFFFFFFFFFFF AND PUSH4 0xA34123A7 DUP5 PUSH1 0x20 ADD MLOAD DUP6 PUSH1 0x40 ADD MLOAD DUP12 PUSH1 0x20 ADD MLOAD PUSH1 0x40 MLOAD DUP5 PUSH4 0xFFFFFFFF AND PUSH1 0xE0 SHL DUP2 MSTORE PUSH1 0x4 ADD PUSH3 0xC57 SWAP4 SWAP3 SWAP2 SWAP1 PUSH3 0x4BD7 JUMP JUMPDEST PUSH1 0x40 DUP1 MLOAD DUP1 DUP4 SUB DUP2 PUSH1 0x0 DUP8 GAS CALL ISZERO DUP1 ISZERO PUSH3 0xC76 JUMPI RETURNDATASIZE PUSH1 0x0 DUP1 RETURNDATACOPY RETURNDATASIZE PUSH1 0x0 REVERT JUMPDEST POP POP POP POP PUSH1 0x40 MLOAD RETURNDATASIZE PUSH1 0x1F NOT PUSH1 0x1F DUP3 ADD AND DUP3 ADD DUP1 PUSH1 0x40 MSTORE POP DUP2 ADD SWAP1 PUSH3 0xC9C SWAP2 SWAP1 PUSH3 0x4C14 JUMP JUMPDEST DUP1 SWAP8 POP DUP2 SWAP9 POP POP POP DUP8 PUSH1 0x0 ADD MLOAD PUSH32 0x1832D0BE987B5F3CBC73B42F7EE61F47D509F9A14F8D3770969DFDABEF841C3E DUP10 PUSH1 0x20 ADD MLOAD DUP10 DUP10 PUSH1 0x40 MLOAD PUSH3 0xCE2 SWAP4 SWAP3 SWAP2 SWAP1 PUSH3 0x45E2 JUMP JUMPDEST PUSH1 0x40 MLOAD DUP1 SWAP2 SUB SWAP1 LOG2 POP POP POP POP POP SWAP2 POP SWAP2 JUMP JUMPDEST PUSH1 0x6 SLOAD DUP2 JUMP JUMPDEST PUSH1 0x2 PUSH1 0x0 DUP3 DUP2 MSTORE PUSH1 0x20 ADD SWAP1 DUP2 MSTORE PUSH1 0x20 ADD PUSH1 0x0 KECCAK256 PUSH1 0x0 SWAP1 SLOAD SWAP1 PUSH2 0x100 EXP SWAP1 DIV PUSH20 0xFFFFFFFFFFFFFFFFFFFFFFFFFFFFFFFFFFFFFFFF AND PUSH20 0xFFFFFFFFFFFFFFFFFFFFFFFFFFFFFFFFFFFFFFFF AND DUP4 PUSH20 0xFFFFFFFFFFFFFFFFFFFFFFFFFFFFFFFFFFFFFFFF AND EQ PUSH3 0xD9E JUMPI PUSH1 0x40 MLOAD PUSH32 0x8C379A000000000000000000000000000000000000000000000000000000000 DUP2 MSTORE PUSH1 0x4 ADD PUSH3 0xD95 SWAP1 PUSH3 0x4CAB JUMP JUMPDEST PUSH1 0x40 MLOAD DUP1 SWAP2 SUB SWAP1 REVERT JUMPDEST PUSH1 0x0 PUSH20 0xFFFFFFFFFFFFFFFFFFFFFFFFFFFFFFFFFFFFFFFF AND DUP3 PUSH20 0xFFFFFFFFFFFFFFFFFFFFFFFFFFFFFFFFFFFFFFFF AND SUB PUSH3 0xE10 JUMPI PUSH1 0x40 MLOAD PUSH32 0x8C379A000000000000000000000000000000000000000000000000000000000 DUP2 MSTORE PUSH1 0x4 ADD PUSH3 0xE07 SWAP1 PUSH3 0x4D1D JUMP JUMPDEST PUSH1 0x40 MLOAD DUP1 SWAP2 SUB SWAP1 REVERT JUMPDEST DUP3 PUSH20 0xFFFFFFFFFFFFFFFFFFFFFFFFFFFFFFFFFFFFFFFF AND CALLER PUSH20 0xFFFFFFFFFFFFFFFFFFFFFFFFFFFFFFFFFFFFFFFF AND EQ DUP1 PUSH3 0xED1 JUMPI POP PUSH1 0x5 PUSH1 0x0 DUP5 PUSH20 0xFFFFFFFFFFFFFFFFFFFFFFFFFFFFFFFFFFFFFFFF AND PUSH20 0xFFFFFFFFFFFFFFFFFFFFFFFFFFFFFFFFFFFFFFFF AND DUP2 MSTORE PUSH1 0x20 ADD SWAP1 DUP2 MSTORE PUSH1 0x20 ADD PUSH1 0x0 KECCAK256 PUSH1 0x0 CALLER PUSH20 0xFFFFFFFFFFFFFFFFFFFFFFFFFFFFFFFFFFFFFFFF AND PUSH20 0xFFFFFFFFFFFFFFFFFFFFFFFFFFFFFFFFFFFFFFFF AND DUP2 MSTORE PUSH1 0x20 ADD SWAP1 DUP2 MSTORE PUSH1 0x20 ADD PUSH1 0x0 KECCAK256 PUSH1 0x0 SWAP1 SLOAD SWAP1 PUSH2 0x100 EXP SWAP1 DIV PUSH1 0xFF AND JUMPDEST DUP1 PUSH3 0xF3B JUMPI POP PUSH1 0x4 PUSH1 0x0 DUP3 DUP2 MSTORE PUSH1 0x20 ADD SWAP1 DUP2 MSTORE PUSH1 0x20 ADD PUSH1 0x0 KECCAK256 PUSH1 0x0 SWAP1 SLOAD SWAP1 PUSH2 0x100 EXP SWAP1 DIV PUSH20 0xFFFFFFFFFFFFFFFFFFFFFFFFFFFFFFFFFFFFFFFF AND PUSH20 0xFFFFFFFFFFFFFFFFFFFFFFFFFFFFFFFFFFFFFFFF AND CALLER PUSH20 0xFFFFFFFFFFFFFFFFFFFFFFFFFFFFFFFFFFFFFFFF AND EQ JUMPDEST PUSH3 0xF7D JUMPI PUSH1 0x40 MLOAD PUSH32 0x8C379A000000000000000000000000000000000000000000000000000000000 DUP2 MSTORE PUSH1 0x4 ADD PUSH3 0xF74 SWAP1 PUSH3 0x4AC7 JUMP JUMPDEST PUSH1 0x40 MLOAD DUP1 SWAP2 SUB SWAP1 REVERT JUMPDEST PUSH1 0x3 PUSH1 0x0 DUP5 PUSH20 0xFFFFFFFFFFFFFFFFFFFFFFFFFFFFFFFFFFFFFFFF AND PUSH20 0xFFFFFFFFFFFFFFFFFFFFFFFFFFFFFFFFFFFFFFFF AND DUP2 MSTORE PUSH1 0x20 ADD SWAP1 DUP2 MSTORE PUSH1 0x20 ADD PUSH1 0x0 KECCAK256 PUSH1 0x0 DUP2 SLOAD DUP1 SWAP3 SWAP2 SWAP1 PUSH1 0x1 SWAP1 SUB SWAP2 SWAP1 POP SSTORE POP PUSH1 0x3 PUSH1 0x0 DUP4 PUSH20 0xFFFFFFFFFFFFFFFFFFFFFFFFFFFFFFFFFFFFFFFF AND PUSH20 0xFFFFFFFFFFFFFFFFFFFFFFFFFFFFFFFFFFFFFFFF AND DUP2 MSTORE PUSH1 0x20 ADD SWAP1 DUP2 MSTORE PUSH1 0x20 ADD PUSH1 0x0 KECCAK256 PUSH1 0x0 DUP2 SLOAD DUP1 SWAP3 SWAP2 SWAP1 PUSH1 0x1 ADD SWAP2 SWAP1 POP SSTORE POP DUP2 PUSH1 0x2 PUSH1 0x0 DUP4 DUP2 MSTORE PUSH1 0x20 ADD SWAP1 DUP2 MSTORE PUSH1 0x20 ADD PUSH1 0x0 KECCAK256 PUSH1 0x0 PUSH2 0x100 EXP DUP2 SLOAD DUP2 PUSH20 0xFFFFFFFFFFFFFFFFFFFFFFFFFFFFFFFFFFFFFFFF MUL NOT AND SWAP1 DUP4 PUSH20 0xFFFFFFFFFFFFFFFFFFFFFFFFFFFFFFFFFFFFFFFF AND MUL OR SWAP1 SSTORE POP PUSH1 0x4 PUSH1 0x0 DUP3 DUP2 MSTORE PUSH1 0x20 ADD SWAP1 DUP2 MSTORE PUSH1 0x20 ADD PUSH1 0x0 KECCAK256 PUSH1 0x0 PUSH2 0x100 EXP DUP2 SLOAD SWAP1 PUSH20 0xFFFFFFFFFFFFFFFFFFFFFFFFFFFFFFFFFFFFFFFF MUL NOT AND SWAP1 SSTORE DUP1 DUP3 PUSH20 0xFFFFFFFFFFFFFFFFFFFFFFFFFFFFFFFFFFFFFFFF AND DUP5 PUSH20 0xFFFFFFFFFFFFFFFFFFFFFFFFFFFFFFFFFFFFFFFF AND PUSH32 0xDDF252AD1BE2C89B69C2B068FC378DAA952BA7F163C4A11628F55A4DF523B3EF PUSH1 0x40 MLOAD PUSH1 0x40 MLOAD DUP1 SWAP2 SUB SWAP1 LOG4 POP POP POP JUMP JUMPDEST PUSH3 0x1111 DUP4 DUP4 DUP4 PUSH3 0xCFA JUMP JUMPDEST PUSH1 0x0 DUP3 PUSH20 0xFFFFFFFFFFFFFFFFFFFFFFFFFFFFFFFFFFFFFFFF AND EXTCODESIZE EQ DUP1 PUSH3 0x1200 JUMPI POP PUSH4 0x150B7A02 PUSH1 0xE0 SHL PUSH28 0xFFFFFFFFFFFFFFFFFFFFFFFFFFFFFFFFFFFFFFFFFFFFFFFFFFFFFFFF NOT AND DUP3 PUSH20 0xFFFFFFFFFFFFFFFFFFFFFFFFFFFFFFFFFFFFFFFF AND PUSH4 0x150B7A02 CALLER DUP7 DUP6 PUSH1 0x40 MLOAD DUP5 PUSH4 0xFFFFFFFF AND PUSH1 0xE0 SHL DUP2 MSTORE PUSH1 0x4 ADD PUSH3 0x1199 SWAP4 SWAP3 SWAP2 SWAP1 PUSH3 0x4D7A JUMP JUMPDEST PUSH1 0x20 PUSH1 0x40 MLOAD DUP1 DUP4 SUB DUP2 PUSH1 0x0 DUP8 GAS CALL ISZERO DUP1 ISZERO PUSH3 0x11B9 JUMPI RETURNDATASIZE PUSH1 0x0 DUP1 RETURNDATACOPY RETURNDATASIZE PUSH1 0x0 REVERT JUMPDEST POP POP POP POP PUSH1 0x40 MLOAD RETURNDATASIZE PUSH1 0x1F NOT PUSH1 0x1F DUP3 ADD AND DUP3 ADD DUP1 PUSH1 0x40 MSTORE POP DUP2 ADD SWAP1 PUSH3 0x11DF SWAP2 SWAP1 PUSH3 0x4DE3 JUMP JUMPDEST PUSH28 0xFFFFFFFFFFFFFFFFFFFFFFFFFFFFFFFFFFFFFFFFFFFFFFFFFFFFFFFF NOT AND EQ JUMPDEST PUSH3 0x1242 JUMPI PUSH1 0x40 MLOAD PUSH32 0x8C379A000000000000000000000000000000000000000000000000000000000 DUP2 MSTORE PUSH1 0x4 ADD PUSH3 0x1239 SWAP1 PUSH3 0x4E65 JUMP JUMPDEST PUSH1 0x40 MLOAD DUP1 SWAP2 SUB SWAP1 REVERT JUMPDEST POP POP POP JUMP JUMPDEST DUP1 PUSH1 0x0 PUSH3 0x1255 DUP3 PUSH3 0x1BDF JUMP JUMPDEST SWAP1 POP DUP1 PUSH20 0xFFFFFFFFFFFFFFFFFFFFFFFFFFFFFFFFFFFFFFFF AND CALLER PUSH20 0xFFFFFFFFFFFFFFFFFFFFFFFFFFFFFFFFFFFFFFFF AND EQ ISZERO DUP1 ISZERO PUSH3 0x131B JUMPI POP PUSH1 0x5 PUSH1 0x0 DUP3 PUSH20 0xFFFFFFFFFFFFFFFFFFFFFFFFFFFFFFFFFFFFFFFF AND PUSH20 0xFFFFFFFFFFFFFFFFFFFFFFFFFFFFFFFFFFFFFFFF AND DUP2 MSTORE PUSH1 0x20 ADD SWAP1 DUP2 MSTORE PUSH1 0x20 ADD PUSH1 0x0 KECCAK256 PUSH1 0x0 CALLER PUSH20 0xFFFFFFFFFFFFFFFFFFFFFFFFFFFFFFFFFFFFFFFF AND PUSH20 0xFFFFFFFFFFFFFFFFFFFFFFFFFFFFFFFFFFFFFFFF AND DUP2 MSTORE PUSH1 0x20 ADD SWAP1 DUP2 MSTORE PUSH1 0x20 ADD PUSH1 0x0 KECCAK256 PUSH1 0x0 SWAP1 SLOAD SWAP1 PUSH2 0x100 EXP SWAP1 DIV PUSH1 0xFF AND ISZERO JUMPDEST DUP1 ISZERO PUSH3 0x1387 JUMPI POP CALLER PUSH20 0xFFFFFFFFFFFFFFFFFFFFFFFFFFFFFFFFFFFFFFFF AND PUSH1 0x4 PUSH1 0x0 DUP5 DUP2 MSTORE PUSH1 0x20 ADD SWAP1 DUP2 MSTORE PUSH1 0x20 ADD PUSH1 0x0 KECCAK256 PUSH1 0x0 SWAP1 SLOAD SWAP1 PUSH2 0x100 EXP SWAP1 DIV PUSH20 0xFFFFFFFFFFFFFFFFFFFFFFFFFFFFFFFFFFFFFFFF AND PUSH20 0xFFFFFFFFFFFFFFFFFFFFFFFFFFFFFFFFFFFFFFFF AND EQ ISZERO JUMPDEST ISZERO PUSH3 0x13BF JUMPI PUSH1 0x40 MLOAD PUSH32 0xEA8E4EB500000000000000000000000000000000000000000000000000000000 DUP2 MSTORE PUSH1 0x4 ADD PUSH1 0x40 MLOAD DUP1 SWAP2 SUB SWAP1 REVERT JUMPDEST PUSH1 0x0 PUSH1 0x8 PUSH1 0x0 DUP6 DUP2 MSTORE PUSH1 0x20 ADD SWAP1 DUP2 MSTORE PUSH1 0x20 ADD PUSH1 0x0 KECCAK256 PUSH1 0x40 MLOAD DUP1 PUSH1 0x60 ADD PUSH1 0x40 MSTORE SWAP1 DUP2 PUSH1 0x0 DUP3 ADD PUSH1 0x0 SWAP1 SLOAD SWAP1 PUSH2 0x100 EXP SWAP1 DIV PUSH20 0xFFFFFFFFFFFFFFFFFFFFFFFFFFFFFFFFFFFFFFFF AND PUSH20 0xFFFFFFFFFFFFFFFFFFFFFFFFFFFFFFFFFFFFFFFF AND PUSH20 0xFFFFFFFFFFFFFFFFFFFFFFFFFFFFFFFFFFFFFFFF AND DUP2 MSTORE PUSH1 0x20 ADD PUSH1 0x0 DUP3 ADD PUSH1 0x14 SWAP1 SLOAD SWAP1 PUSH2 0x100 EXP SWAP1 DIV PUSH1 0x2 SIGNEXTEND PUSH1 0x2 SIGNEXTEND PUSH1 0x2 SIGNEXTEND DUP2 MSTORE PUSH1 0x20 ADD PUSH1 0x0 DUP3 ADD PUSH1 0x17 SWAP1 SLOAD SWAP1 PUSH2 0x100 EXP SWAP1 DIV PUSH1 0x2 SIGNEXTEND PUSH1 0x2 SIGNEXTEND PUSH1 0x2 SIGNEXTEND DUP2 MSTORE POP POP SWAP1 POP PUSH1 0x0 PUSH20 0xFFFFFFFFFFFFFFFFFFFFFFFFFFFFFFFFFFFFFFFF AND DUP2 PUSH1 0x0 ADD MLOAD PUSH20 0xFFFFFFFFFFFFFFFFFFFFFFFFFFFFFFFFFFFFFFFF AND SUB PUSH3 0x14DC JUMPI PUSH1 0x40 MLOAD PUSH32 0xA0F3FEEA00000000000000000000000000000000000000000000000000000000 DUP2 MSTORE PUSH1 0x4 ADD PUSH1 0x40 MLOAD DUP1 SWAP2 SUB SWAP1 REVERT JUMPDEST PUSH1 0x0 DUP2 PUSH1 0x0 ADD MLOAD SWAP1 POP PUSH1 0x0 DUP1 PUSH1 0x0 DUP4 PUSH20 0xFFFFFFFFFFFFFFFFFFFFFFFFFFFFFFFFFFFFFFFF AND PUSH4 0x514EA4BF PUSH3 0x1511 DUP8 PUSH3 0x269E JUMP JUMPDEST PUSH1 0x40 MLOAD DUP3 PUSH4 0xFFFFFFFF AND PUSH1 0xE0 SHL DUP2 MSTORE PUSH1 0x4 ADD PUSH3 0x152F SWAP2 SWAP1 PUSH3 0x4B04 JUMP JUMPDEST PUSH1 0xA0 PUSH1 0x40 MLOAD DUP1 DUP4 SUB DUP2 DUP7 GAS STATICCALL ISZERO DUP1 ISZERO PUSH3 0x154D JUMPI RETURNDATASIZE PUSH1 0x0 DUP1 RETURNDATACOPY RETURNDATASIZE PUSH1 0x0 REVERT JUMPDEST POP POP POP POP PUSH1 0x40 MLOAD RETURNDATASIZE PUSH1 0x1F NOT PUSH1 0x1F DUP3 ADD AND DUP3 ADD DUP1 PUSH1 0x40 MSTORE POP DUP2 ADD SWAP1 PUSH3 0x1573 SWAP2 SWAP1 PUSH3 0x4B4F JUMP JUMPDEST SWAP5 POP SWAP5 POP POP POP SWAP3 POP PUSH1 0x0 DUP4 PUSH16 0xFFFFFFFFFFFFFFFFFFFFFFFFFFFFFFFF AND GT DUP1 PUSH3 0x15AF JUMPI POP PUSH1 0x0 DUP3 PUSH16 0xFFFFFFFFFFFFFFFFFFFFFFFFFFFFFFFF AND GT JUMPDEST DUP1 PUSH3 0x15CD JUMPI POP PUSH1 0x0 DUP2 PUSH16 0xFFFFFFFFFFFFFFFFFFFFFFFFFFFFFFFF AND GT JUMPDEST ISZERO PUSH3 0x1605 JUMPI PUSH1 0x40 MLOAD PUSH32 0xD89CC67600000000000000000000000000000000000000000000000000000000 DUP2 MSTORE PUSH1 0x4 ADD PUSH1 0x40 MLOAD DUP1 SWAP2 SUB SWAP1 REVERT JUMPDEST PUSH1 0x8 PUSH1 0x0 DUP10 DUP2 MSTORE PUSH1 0x20 ADD SWAP1 DUP2 MSTORE PUSH1 0x20 ADD PUSH1 0x0 KECCAK256 PUSH1 0x0 DUP1 DUP3 ADD PUSH1 0x0 PUSH2 0x100 EXP DUP2 SLOAD SWAP1 PUSH20 0xFFFFFFFFFFFFFFFFFFFFFFFFFFFFFFFFFFFFFFFF MUL NOT AND SWAP1 SSTORE PUSH1 0x0 DUP3 ADD PUSH1 0x14 PUSH2 0x100 EXP DUP2 SLOAD SWAP1 PUSH3 0xFFFFFF MUL NOT AND SWAP1 SSTORE PUSH1 0x0 DUP3 ADD PUSH1 0x17 PUSH2 0x100 EXP DUP2 SLOAD SWAP1 PUSH3 0xFFFFFF MUL NOT AND SWAP1 SSTORE POP POP PUSH3 0x1679 DUP9 PUSH3 0x26DC JUMP JUMPDEST PUSH1 0x6 PUSH1 0x0 DUP2 SLOAD DUP1 SWAP3 SWAP2 SWAP1 PUSH3 0x168E SWAP1 PUSH3 0x4EB6 JUMP JUMPDEST SWAP2 SWAP1 POP SSTORE POP POP POP POP POP POP POP POP POP JUMP JUMPDEST PUSH1 0x0 DUP1 PUSH1 0x0 DUP1 PUSH1 0x8 PUSH1 0x0 DUP7 PUSH1 0x0 ADD CALLDATALOAD DUP2 MSTORE PUSH1 0x20 ADD SWAP1 DUP2 MSTORE PUSH1 0x20 ADD PUSH1 0x0 KECCAK256 PUSH1 0x40 MLOAD DUP1 PUSH1 0x60 ADD PUSH1 0x40 MSTORE SWAP1 DUP2 PUSH1 0x0 DUP3 ADD PUSH1 0x0 SWAP1 SLOAD SWAP1 PUSH2 0x100 EXP SWAP1 DIV PUSH20 0xFFFFFFFFFFFFFFFFFFFFFFFFFFFFFFFFFFFFFFFF AND PUSH20 0xFFFFFFFFFFFFFFFFFFFFFFFFFFFFFFFFFFFFFFFF AND PUSH20 0xFFFFFFFFFFFFFFFFFFFFFFFFFFFFFFFFFFFFFFFF AND DUP2 MSTORE PUSH1 0x20 ADD PUSH1 0x0 DUP3 ADD PUSH1 0x14 SWAP1 SLOAD SWAP1 PUSH2 0x100 EXP SWAP1 DIV PUSH1 0x2 SIGNEXTEND PUSH1 0x2 SIGNEXTEND PUSH1 0x2 SIGNEXTEND DUP2 MSTORE PUSH1 0x20 ADD PUSH1 0x0 DUP3 ADD PUSH1 0x17 SWAP1 SLOAD SWAP1 PUSH2 0x100 EXP SWAP1 DIV PUSH1 0x2 SIGNEXTEND PUSH1 0x2 SIGNEXTEND PUSH1 0x2 SIGNEXTEND DUP2 MSTORE POP POP SWAP1 POP PUSH1 0x0 PUSH20 0xFFFFFFFFFFFFFFFFFFFFFFFFFFFFFFFFFFFFFFFF AND DUP2 PUSH1 0x0 ADD MLOAD PUSH20 0xFFFFFFFFFFFFFFFFFFFFFFFFFFFFFFFFFFFFFFFF AND SUB PUSH3 0x17C2 JUMPI PUSH1 0x40 MLOAD PUSH32 0xA0F3FEEA00000000000000000000000000000000000000000000000000000000 DUP2 MSTORE PUSH1 0x4 ADD PUSH1 0x40 MLOAD DUP1 SWAP2 SUB SWAP1 REVERT JUMPDEST PUSH3 0x1837 PUSH1 0x40 MLOAD DUP1 PUSH1 0xE0 ADD PUSH1 0x40 MSTORE DUP1 DUP4 PUSH1 0x0 ADD MLOAD PUSH20 0xFFFFFFFFFFFFFFFFFFFFFFFFFFFFFFFFFFFFFFFF AND DUP2 MSTORE PUSH1 0x20 ADD DUP4 PUSH1 0x20 ADD MLOAD PUSH1 0x2 SIGNEXTEND DUP2 MSTORE PUSH1 0x20 ADD DUP4 PUSH1 0x40 ADD MLOAD PUSH1 0x2 SIGNEXTEND DUP2 MSTORE PUSH1 0x20 ADD DUP8 PUSH1 0x20 ADD CALLDATALOAD DUP2 MSTORE PUSH1 0x20 ADD DUP8 PUSH1 0x40 ADD CALLDATALOAD DUP2 MSTORE PUSH1 0x20 ADD DUP8 PUSH1 0x60 ADD CALLDATALOAD DUP2 MSTORE PUSH1 0x20 ADD DUP8 PUSH1 0x80 ADD CALLDATALOAD DUP2 MSTORE POP PUSH3 0x28A2 JUMP JUMPDEST DUP1 SWAP5 POP DUP2 SWAP6 POP DUP3 SWAP7 POP POP POP POP DUP5 PUSH1 0x0 ADD CALLDATALOAD PUSH32 0x22FB3C4728E7CC5DD64003F4267D8FB1EB2580F5598050868300738A823D7047 DUP6 DUP6 DUP6 PUSH1 0x40 MLOAD PUSH3 0x187D SWAP4 SWAP3 SWAP2 SWAP1 PUSH3 0x45E2 JUMP JUMPDEST PUSH1 0x40 MLOAD DUP1 SWAP2 SUB SWAP1 LOG2 POP SWAP2 SWAP4 SWAP1 SWAP3 POP JUMP JUMPDEST PUSH1 0x0 DUP1 DUP3 PUSH1 0x0 ADD MLOAD PUSH1 0x0 PUSH3 0x18A2 DUP3 PUSH3 0x1BDF JUMP JUMPDEST SWAP1 POP DUP1 PUSH20 0xFFFFFFFFFFFFFFFFFFFFFFFFFFFFFFFFFFFFFFFF AND CALLER PUSH20 0xFFFFFFFFFFFFFFFFFFFFFFFFFFFFFFFFFFFFFFFF AND EQ ISZERO DUP1 ISZERO PUSH3 0x1968 JUMPI POP PUSH1 0x5 PUSH1 0x0 DUP3 PUSH20 0xFFFFFFFFFFFFFFFFFFFFFFFFFFFFFFFFFFFFFFFF AND PUSH20 0xFFFFFFFFFFFFFFFFFFFFFFFFFFFFFFFFFFFFFFFF AND DUP2 MSTORE PUSH1 0x20 ADD SWAP1 DUP2 MSTORE PUSH1 0x20 ADD PUSH1 0x0 KECCAK256 PUSH1 0x0 CALLER PUSH20 0xFFFFFFFFFFFFFFFFFFFFFFFFFFFFFFFFFFFFFFFF AND PUSH20 0xFFFFFFFFFFFFFFFFFFFFFFFFFFFFFFFFFFFFFFFF AND DUP2 MSTORE PUSH1 0x20 ADD SWAP1 DUP2 MSTORE PUSH1 0x20 ADD PUSH1 0x0 KECCAK256 PUSH1 0x0 SWAP1 SLOAD SWAP1 PUSH2 0x100 EXP SWAP1 DIV PUSH1 0xFF AND ISZERO JUMPDEST DUP1 ISZERO PUSH3 0x19D4 JUMPI POP CALLER PUSH20 0xFFFFFFFFFFFFFFFFFFFFFFFFFFFFFFFFFFFFFFFF AND PUSH1 0x4 PUSH1 0x0 DUP5 DUP2 MSTORE PUSH1 0x20 ADD SWAP1 DUP2 MSTORE PUSH1 0x20 ADD PUSH1 0x0 KECCAK256 PUSH1 0x0 SWAP1 SLOAD SWAP1 PUSH2 0x100 EXP SWAP1 DIV PUSH20 0xFFFFFFFFFFFFFFFFFFFFFFFFFFFFFFFFFFFFFFFF AND PUSH20 0xFFFFFFFFFFFFFFFFFFFFFFFFFFFFFFFFFFFFFFFF AND EQ ISZERO JUMPDEST ISZERO PUSH3 0x1A0C JUMPI PUSH1 0x40 MLOAD PUSH32 0xEA8E4EB500000000000000000000000000000000000000000000000000000000 DUP2 MSTORE PUSH1 0x4 ADD PUSH1 0x40 MLOAD DUP1 SWAP2 SUB SWAP1 REVERT JUMPDEST PUSH1 0x0 PUSH1 0x8 PUSH1 0x0 DUP8 PUSH1 0x0 ADD MLOAD DUP2 MSTORE PUSH1 0x20 ADD SWAP1 DUP2 MSTORE PUSH1 0x20 ADD PUSH1 0x0 KECCAK256 PUSH1 0x40 MLOAD DUP1 PUSH1 0x60 ADD PUSH1 0x40 MSTORE SWAP1 DUP2 PUSH1 0x0 DUP3 ADD PUSH1 0x0 SWAP1 SLOAD SWAP1 PUSH2 0x100 EXP SWAP1 DIV PUSH20 0xFFFFFFFFFFFFFFFFFFFFFFFFFFFFFFFFFFFFFFFF AND PUSH20 0xFFFFFFFFFFFFFFFFFFFFFFFFFFFFFFFFFFFFFFFF AND PUSH20 0xFFFFFFFFFFFFFFFFFFFFFFFFFFFFFFFFFFFFFFFF AND DUP2 MSTORE PUSH1 0x20 ADD PUSH1 0x0 DUP3 ADD PUSH1 0x14 SWAP1 SLOAD SWAP1 PUSH2 0x100 EXP SWAP1 DIV PUSH1 0x2 SIGNEXTEND PUSH1 0x2 SIGNEXTEND PUSH1 0x2 SIGNEXTEND DUP2 MSTORE PUSH1 0x20 ADD PUSH1 0x0 DUP3 ADD PUSH1 0x17 SWAP1 SLOAD SWAP1 PUSH2 0x100 EXP SWAP1 DIV PUSH1 0x2 SIGNEXTEND PUSH1 0x2 SIGNEXTEND PUSH1 0x2 SIGNEXTEND DUP2 MSTORE POP POP SWAP1 POP PUSH1 0x0 PUSH20 0xFFFFFFFFFFFFFFFFFFFFFFFFFFFFFFFFFFFFFFFF AND DUP2 PUSH1 0x0 ADD MLOAD PUSH20 0xFFFFFFFFFFFFFFFFFFFFFFFFFFFFFFFFFFFFFFFF AND SUB PUSH3 0x1B2D JUMPI PUSH1 0x40 MLOAD PUSH32 0xA0F3FEEA00000000000000000000000000000000000000000000000000000000 DUP2 MSTORE PUSH1 0x4 ADD PUSH1 0x40 MLOAD DUP1 SWAP2 SUB SWAP1 REVERT JUMPDEST PUSH1 0x0 DUP2 PUSH1 0x0 ADD MLOAD SWAP1 POP DUP1 PUSH20 0xFFFFFFFFFFFFFFFFFFFFFFFFFFFFFFFFFFFFFFFF AND PUSH4 0x4F1EB3D8 CALLER DUP5 PUSH1 0x20 ADD MLOAD DUP6 PUSH1 0x40 ADD MLOAD DUP12 PUSH1 0x20 ADD MLOAD DUP13 PUSH1 0x40 ADD MLOAD PUSH1 0x40 MLOAD DUP7 PUSH4 0xFFFFFFFF AND PUSH1 0xE0 SHL DUP2 MSTORE PUSH1 0x4 ADD PUSH3 0x1B89 SWAP6 SWAP5 SWAP4 SWAP3 SWAP2 SWAP1 PUSH3 0x4EE4 JUMP JUMPDEST PUSH1 0x40 DUP1 MLOAD DUP1 DUP4 SUB DUP2 PUSH1 0x0 DUP8 GAS CALL ISZERO DUP1 ISZERO PUSH3 0x1BA8 JUMPI RETURNDATASIZE PUSH1 0x0 DUP1 RETURNDATACOPY RETURNDATASIZE PUSH1 0x0 REVERT JUMPDEST POP POP POP POP PUSH1 0x40 MLOAD RETURNDATASIZE PUSH1 0x1F NOT PUSH1 0x1F DUP3 ADD AND DUP3 ADD DUP1 PUSH1 0x40 MSTORE POP DUP2 ADD SWAP1 PUSH3 0x1BCE SWAP2 SWAP1 PUSH3 0x4F41 JUMP JUMPDEST DUP1 SWAP7 POP DUP2 SWAP8 POP POP POP POP POP POP POP SWAP2 POP SWAP2 JUMP JUMPDEST PUSH1 0x0 DUP1 PUSH20 0xFFFFFFFFFFFFFFFFFFFFFFFFFFFFFFFFFFFFFFFF AND PUSH1 0x2 PUSH1 0x0 DUP5 DUP2 MSTORE PUSH1 0x20 ADD SWAP1 DUP2 MSTORE PUSH1 0x20 ADD PUSH1 0x0 KECCAK256 PUSH1 0x0 SWAP1 SLOAD SWAP1 PUSH2 0x100 EXP SWAP1 DIV PUSH20 0xFFFFFFFFFFFFFFFFFFFFFFFFFFFFFFFFFFFFFFFF AND SWAP2 POP DUP2 PUSH20 0xFFFFFFFFFFFFFFFFFFFFFFFFFFFFFFFFFFFFFFFF AND SUB PUSH3 0x1C88 JUMPI PUSH1 0x40 MLOAD PUSH32 0x8C379A000000000000000000000000000000000000000000000000000000000 DUP2 MSTORE PUSH1 0x4 ADD PUSH3 0x1C7F SWAP1 PUSH3 0x4FD8 JUMP JUMPDEST PUSH1 0x40 MLOAD DUP1 SWAP2 SUB SWAP1 REVERT JUMPDEST SWAP2 SWAP1 POP JUMP JUMPDEST PUSH1 0x0 DUP1 PUSH20 0xFFFFFFFFFFFFFFFFFFFFFFFFFFFFFFFFFFFFFFFF AND DUP3 PUSH20 0xFFFFFFFFFFFFFFFFFFFFFFFFFFFFFFFFFFFFFFFF AND SUB PUSH3 0x1D00 JUMPI PUSH1 0x40 MLOAD PUSH32 0x8C379A000000000000000000000000000000000000000000000000000000000 DUP2 MSTORE PUSH1 0x4 ADD PUSH3 0x1CF7 SWAP1 PUSH3 0x504A JUMP JUMPDEST PUSH1 0x40 MLOAD DUP1 SWAP2 SUB SWAP1 REVERT JUMPDEST PUSH1 0x3 PUSH1 0x0 DUP4 PUSH20 0xFFFFFFFFFFFFFFFFFFFFFFFFFFFFFFFFFFFFFFFF AND PUSH20 0xFFFFFFFFFFFFFFFFFFFFFFFFFFFFFFFFFFFFFFFF AND DUP2 MSTORE PUSH1 0x20 ADD SWAP1 DUP2 MSTORE PUSH1 0x20 ADD PUSH1 0x0 KECCAK256 SLOAD SWAP1 POP SWAP2 SWAP1 POP JUMP JUMPDEST PUSH1 0x1 DUP1 SLOAD PUSH3 0x1D56 SWAP1 PUSH3 0x4A42 JUMP JUMPDEST DUP1 PUSH1 0x1F ADD PUSH1 0x20 DUP1 SWAP2 DIV MUL PUSH1 0x20 ADD PUSH1 0x40 MLOAD SWAP1 DUP2 ADD PUSH1 0x40 MSTORE DUP1 SWAP3 SWAP2 SWAP1 DUP2 DUP2 MSTORE PUSH1 0x20 ADD DUP3 DUP1 SLOAD PUSH3 0x1D84 SWAP1 PUSH3 0x4A42 JUMP JUMPDEST DUP1 ISZERO PUSH3 0x1DD5 JUMPI DUP1 PUSH1 0x1F LT PUSH3 0x1DA9 JUMPI PUSH2 0x100 DUP1 DUP4 SLOAD DIV MUL DUP4 MSTORE SWAP2 PUSH1 0x20 ADD SWAP2 PUSH3 0x1DD5 JUMP JUMPDEST DUP3 ADD SWAP2 SWAP1 PUSH1 0x0 MSTORE PUSH1 0x20 PUSH1 0x0 KECCAK256 SWAP1 JUMPDEST DUP2 SLOAD DUP2 MSTORE SWAP1 PUSH1 0x1 ADD SWAP1 PUSH1 0x20 ADD DUP1 DUP4 GT PUSH3 0x1DB7 JUMPI DUP3 SWAP1 SUB PUSH1 0x1F AND DUP3 ADD SWAP2 JUMPDEST POP POP POP POP POP DUP2 JUMP JUMPDEST PUSH1 0x8 PUSH1 0x20 MSTORE DUP1 PUSH1 0x0 MSTORE PUSH1 0x40 PUSH1 0x0 KECCAK256 PUSH1 0x0 SWAP2 POP SWAP1 POP DUP1 PUSH1 0x0 ADD PUSH1 0x0 SWAP1 SLOAD SWAP1 PUSH2 0x100 EXP SWAP1 DIV PUSH20 0xFFFFFFFFFFFFFFFFFFFFFFFFFFFFFFFFFFFFFFFF AND SWAP1 DUP1 PUSH1 0x0 ADD PUSH1 0x14 SWAP1 SLOAD SWAP1 PUSH2 0x100 EXP SWAP1 DIV PUSH1 0x2 SIGNEXTEND SWAP1 DUP1 PUSH1 0x0 ADD PUSH1 0x17 SWAP1 SLOAD SWAP1 PUSH2 0x100 EXP SWAP1 DIV PUSH1 0x2 SIGNEXTEND SWAP1 POP DUP4 JUMP JUMPDEST DUP1 PUSH1 0x5 PUSH1 0x0 CALLER PUSH20 0xFFFFFFFFFFFFFFFFFFFFFFFFFFFFFFFFFFFFFFFF AND PUSH20 0xFFFFFFFFFFFFFFFFFFFFFFFFFFFFFFFFFFFFFFFF AND DUP2 MSTORE PUSH1 0x20 ADD SWAP1 DUP2 MSTORE PUSH1 0x20 ADD PUSH1 0x0 KECCAK256 PUSH1 0x0 DUP5 PUSH20 0xFFFFFFFFFFFFFFFFFFFFFFFFFFFFFFFFFFFFFFFF AND PUSH20 0xFFFFFFFFFFFFFFFFFFFFFFFFFFFFFFFFFFFFFFFF AND DUP2 MSTORE PUSH1 0x20 ADD SWAP1 DUP2 MSTORE PUSH1 0x20 ADD PUSH1 0x0 KECCAK256 PUSH1 0x0 PUSH2 0x100 EXP DUP2 SLOAD DUP2 PUSH1 0xFF MUL NOT AND SWAP1 DUP4 ISZERO ISZERO MUL OR SWAP1 SSTORE POP DUP2 PUSH20 0xFFFFFFFFFFFFFFFFFFFFFFFFFFFFFFFFFFFFFFFF AND CALLER PUSH20 0xFFFFFFFFFFFFFFFFFFFFFFFFFFFFFFFFFFFFFFFF AND PUSH32 0x17307EAB39AB6107E8899845AD3D59BD9653F200F220920489CA2B5937696C31 DUP4 PUSH1 0x40 MLOAD PUSH3 0x1F34 SWAP2 SWAP1 PUSH3 0x413E JUMP JUMPDEST PUSH1 0x40 MLOAD DUP1 SWAP2 SUB SWAP1 LOG3 POP POP JUMP JUMPDEST PUSH3 0x1F4D DUP6 DUP6 DUP6 PUSH3 0xCFA JUMP JUMPDEST PUSH1 0x0 DUP5 PUSH20 0xFFFFFFFFFFFFFFFFFFFFFFFFFFFFFFFFFFFFFFFF AND EXTCODESIZE EQ DUP1 PUSH3 0x2040 JUMPI POP PUSH4 0x150B7A02 PUSH1 0xE0 SHL PUSH28 0xFFFFFFFFFFFFFFFFFFFFFFFFFFFFFFFFFFFFFFFFFFFFFFFFFFFFFFFF NOT AND DUP5 PUSH20 0xFFFFFFFFFFFFFFFFFFFFFFFFFFFFFFFFFFFFFFFF AND PUSH4 0x150B7A02 CALLER DUP9 DUP8 DUP8 DUP8 PUSH1 0x40 MLOAD DUP7 PUSH4 0xFFFFFFFF AND PUSH1 0xE0 SHL DUP2 MSTORE PUSH1 0x4 ADD PUSH3 0x1FD9 SWAP6 SWAP5 SWAP4 SWAP3 SWAP2 SWAP1 PUSH3 0x50AE JUMP JUMPDEST PUSH1 0x20 PUSH1 0x40 MLOAD DUP1 DUP4 SUB DUP2 PUSH1 0x0 DUP8 GAS CALL ISZERO DUP1 ISZERO PUSH3 0x1FF9 JUMPI RETURNDATASIZE PUSH1 0x0 DUP1 RETURNDATACOPY RETURNDATASIZE PUSH1 0x0 REVERT JUMPDEST POP POP POP POP PUSH1 0x40 MLOAD RETURNDATASIZE PUSH1 0x1F NOT PUSH1 0x1F DUP3 ADD AND DUP3 ADD DUP1 PUSH1 0x40 MSTORE POP DUP2 ADD SWAP1 PUSH3 0x201F SWAP2 SWAP1 PUSH3 0x4DE3 JUMP JUMPDEST PUSH28 0xFFFFFFFFFFFFFFFFFFFFFFFFFFFFFFFFFFFFFFFFFFFFFFFFFFFFFFFF NOT AND EQ JUMPDEST PUSH3 0x2082 JUMPI PUSH1 0x40 MLOAD PUSH32 0x8C379A000000000000000000000000000000000000000000000000000000000 DUP2 MSTORE PUSH1 0x4 ADD PUSH3 0x2079 SWAP1 PUSH3 0x4E65 JUMP JUMPDEST PUSH1 0x40 MLOAD DUP1 SWAP2 SUB SWAP1 REVERT JUMPDEST POP POP POP POP POP JUMP JUMPDEST PUSH32 0x0 DUP2 JUMP JUMPDEST PUSH1 0x60 PUSH1 0x0 PUSH1 0x8 PUSH1 0x0 DUP5 DUP2 MSTORE PUSH1 0x20 ADD SWAP1 DUP2 MSTORE PUSH1 0x20 ADD PUSH1 0x0 KECCAK256 PUSH1 0x40 MLOAD DUP1 PUSH1 0x60 ADD PUSH1 0x40 MSTORE SWAP1 DUP2 PUSH1 0x0 DUP3 ADD PUSH1 0x0 SWAP1 SLOAD SWAP1 PUSH2 0x100 EXP SWAP1 DIV PUSH20 0xFFFFFFFFFFFFFFFFFFFFFFFFFFFFFFFFFFFFFFFF AND PUSH20 0xFFFFFFFFFFFFFFFFFFFFFFFFFFFFFFFFFFFFFFFF AND PUSH20 0xFFFFFFFFFFFFFFFFFFFFFFFFFFFFFFFFFFFFFFFF AND DUP2 MSTORE PUSH1 0x20 ADD PUSH1 0x0 DUP3 ADD PUSH1 0x14 SWAP1 SLOAD SWAP1 PUSH2 0x100 EXP SWAP1 DIV PUSH1 0x2 SIGNEXTEND PUSH1 0x2 SIGNEXTEND PUSH1 0x2 SIGNEXTEND DUP2 MSTORE PUSH1 0x20 ADD PUSH1 0x0 DUP3 ADD PUSH1 0x17 SWAP1 SLOAD SWAP1 PUSH2 0x100 EXP SWAP1 DIV PUSH1 0x2 SIGNEXTEND PUSH1 0x2 SIGNEXTEND PUSH1 0x2 SIGNEXTEND DUP2 MSTORE POP POP SWAP1 POP PUSH1 0x0 PUSH20 0xFFFFFFFFFFFFFFFFFFFFFFFFFFFFFFFFFFFFFFFF AND DUP2 PUSH1 0x0 ADD MLOAD PUSH20 0xFFFFFFFFFFFFFFFFFFFFFFFFFFFFFFFFFFFFFFFF AND SUB PUSH3 0x21CC JUMPI PUSH1 0x40 MLOAD PUSH32 0xA0F3FEEA00000000000000000000000000000000000000000000000000000000 DUP2 MSTORE PUSH1 0x4 ADD PUSH1 0x40 MLOAD DUP1 SWAP2 SUB SWAP1 REVERT JUMPDEST PUSH1 0x0 DUP2 PUSH1 0x0 ADD MLOAD SWAP1 POP PUSH3 0x22BA PUSH1 0x40 MLOAD DUP1 PUSH1 0xA0 ADD PUSH1 0x40 MSTORE DUP1 DUP5 PUSH1 0x0 ADD MLOAD PUSH20 0xFFFFFFFFFFFFFFFFFFFFFFFFFFFFFFFFFFFFFFFF AND DUP2 MSTORE PUSH1 0x20 ADD ADDRESS PUSH20 0xFFFFFFFFFFFFFFFFFFFFFFFFFFFFFFFFFFFFFFFF AND DUP2 MSTORE PUSH1 0x20 ADD DUP5 PUSH1 0x20 ADD MLOAD PUSH1 0x2 SIGNEXTEND DUP2 MSTORE PUSH1 0x20 ADD DUP5 PUSH1 0x40 ADD MLOAD PUSH1 0x2 SIGNEXTEND DUP2 MSTORE PUSH1 0x20 ADD DUP4 PUSH20 0xFFFFFFFFFFFFFFFFFFFFFFFFFFFFFFFFFFFFFFFF AND PUSH4 0xDDCA3F43 PUSH1 0x40 MLOAD DUP2 PUSH4 0xFFFFFFFF AND PUSH1 0xE0 SHL DUP2 MSTORE PUSH1 0x4 ADD PUSH1 0x20 PUSH1 0x40 MLOAD DUP1 DUP4 SUB DUP2 DUP7 GAS STATICCALL ISZERO DUP1 ISZERO PUSH3 0x2286 JUMPI RETURNDATASIZE PUSH1 0x0 DUP1 RETURNDATACOPY RETURNDATASIZE PUSH1 0x0 REVERT JUMPDEST POP POP POP POP PUSH1 0x40 MLOAD RETURNDATASIZE PUSH1 0x1F NOT PUSH1 0x1F DUP3 ADD AND DUP3 ADD DUP1 PUSH1 0x40 MSTORE POP DUP2 ADD SWAP1 PUSH3 0x22AC SWAP2 SWAP1 PUSH3 0x5144 JUMP JUMPDEST PUSH3 0xFFFFFF AND DUP2 MSTORE POP PUSH3 0x2BC1 JUMP JUMPDEST SWAP3 POP POP POP SWAP2 SWAP1 POP JUMP JUMPDEST PUSH1 0x0 DUP3 DUP3 DUP2 ADD SWAP1 PUSH3 0x22D6 SWAP2 SWAP1 PUSH3 0x51E5 JUMP JUMPDEST SWAP1 POP DUP1 PUSH1 0x0 ADD MLOAD PUSH20 0xFFFFFFFFFFFFFFFFFFFFFFFFFFFFFFFFFFFFFFFF AND PUSH4 0x23B872DD DUP3 PUSH1 0x40 ADD MLOAD CALLER DUP9 PUSH1 0x40 MLOAD DUP5 PUSH4 0xFFFFFFFF AND PUSH1 0xE0 SHL DUP2 MSTORE PUSH1 0x4 ADD PUSH3 0x231F SWAP4 SWAP3 SWAP2 SWAP1 PUSH3 0x5217 JUMP JUMPDEST PUSH1 0x0 PUSH1 0x40 MLOAD DUP1 DUP4 SUB DUP2 PUSH1 0x0 DUP8 DUP1 EXTCODESIZE ISZERO DUP1 ISZERO PUSH3 0x233A JUMPI PUSH1 0x0 DUP1 REVERT JUMPDEST POP GAS CALL ISZERO DUP1 ISZERO PUSH3 0x234F JUMPI RETURNDATASIZE PUSH1 0x0 DUP1 RETURNDATACOPY RETURNDATASIZE PUSH1 0x0 REVERT JUMPDEST POP POP POP POP DUP1 PUSH1 0x20 ADD MLOAD PUSH20 0xFFFFFFFFFFFFFFFFFFFFFFFFFFFFFFFFFFFFFFFF AND PUSH4 0x23B872DD DUP3 PUSH1 0x40 ADD MLOAD CALLER DUP8 PUSH1 0x40 MLOAD DUP5 PUSH4 0xFFFFFFFF AND PUSH1 0xE0 SHL DUP2 MSTORE PUSH1 0x4 ADD PUSH3 0x239A SWAP4 SWAP3 SWAP2 SWAP1 PUSH3 0x5217 JUMP JUMPDEST PUSH1 0x0 PUSH1 0x40 MLOAD DUP1 DUP4 SUB DUP2 PUSH1 0x0 DUP8 DUP1 EXTCODESIZE ISZERO DUP1 ISZERO PUSH3 0x23B5 JUMPI PUSH1 0x0 DUP1 REVERT JUMPDEST POP GAS CALL ISZERO DUP1 ISZERO PUSH3 0x23CA JUMPI RETURNDATASIZE PUSH1 0x0 DUP1 RETURNDATACOPY RETURNDATASIZE PUSH1 0x0 REVERT JUMPDEST POP POP POP POP POP POP POP POP POP JUMP JUMPDEST PUSH1 0x0 DUP1 PUSH3 0x2421 DUP4 PUSH1 0x20 ADD PUSH1 0x20 DUP2 ADD SWAP1 PUSH3 0x23F1 SWAP2 SWAP1 PUSH3 0x46ED JUMP JUMPDEST DUP5 PUSH1 0x40 ADD PUSH1 0x20 DUP2 ADD SWAP1 PUSH3 0x2406 SWAP2 SWAP1 PUSH3 0x46ED JUMP JUMPDEST DUP6 PUSH1 0x60 ADD PUSH1 0x20 DUP2 ADD SWAP1 PUSH3 0x241B SWAP2 SWAP1 PUSH3 0x526B JUMP JUMPDEST PUSH3 0x2E9F JUMP JUMPDEST SWAP1 POP PUSH1 0x0 DUP1 PUSH1 0x0 PUSH3 0x24BB PUSH1 0x40 MLOAD DUP1 PUSH1 0xE0 ADD PUSH1 0x40 MSTORE DUP1 DUP7 PUSH20 0xFFFFFFFFFFFFFFFFFFFFFFFFFFFFFFFFFFFFFFFF AND DUP2 MSTORE PUSH1 0x20 ADD DUP9 PUSH1 0x80 ADD PUSH1 0x20 DUP2 ADD SWAP1 PUSH3 0x2468 SWAP2 SWAP1 PUSH3 0x52CE JUMP JUMPDEST PUSH1 0x2 SIGNEXTEND DUP2 MSTORE PUSH1 0x20 ADD DUP9 PUSH1 0xA0 ADD PUSH1 0x20 DUP2 ADD SWAP1 PUSH3 0x2485 SWAP2 SWAP1 PUSH3 0x52CE JUMP JUMPDEST PUSH1 0x2 SIGNEXTEND DUP2 MSTORE PUSH1 0x20 ADD DUP9 PUSH1 0xC0 ADD CALLDATALOAD DUP2 MSTORE PUSH1 0x20 ADD DUP9 PUSH1 0xE0 ADD CALLDATALOAD DUP2 MSTORE PUSH1 0x20 ADD DUP9 PUSH2 0x100 ADD CALLDATALOAD DUP2 MSTORE PUSH1 0x20 ADD DUP9 PUSH2 0x120 ADD CALLDATALOAD DUP2 MSTORE POP PUSH3 0x28A2 JUMP JUMPDEST SWAP3 POP SWAP3 POP SWAP3 POP PUSH1 0x7 PUSH1 0x0 DUP2 SLOAD DUP1 SWAP3 SWAP2 SWAP1 PUSH3 0x24D6 SWAP1 PUSH3 0x5300 JUMP JUMPDEST SWAP2 SWAP1 POP SSTORE SWAP5 POP PUSH3 0x24FC DUP7 PUSH1 0x0 ADD PUSH1 0x20 DUP2 ADD SWAP1 PUSH3 0x24F5 SWAP2 SWAP1 PUSH3 0x46ED JUMP JUMPDEST DUP7 PUSH3 0x2F1F JUMP JUMPDEST PUSH1 0x6 PUSH1 0x0 DUP2 SLOAD DUP1 SWAP3 SWAP2 SWAP1 PUSH3 0x2511 SWAP1 PUSH3 0x5300 JUMP JUMPDEST SWAP2 SWAP1 POP SSTORE POP PUSH1 0x0 PUSH1 0x40 MLOAD DUP1 PUSH1 0x60 ADD PUSH1 0x40 MSTORE DUP1 DUP7 PUSH20 0xFFFFFFFFFFFFFFFFFFFFFFFFFFFFFFFFFFFFFFFF AND DUP2 MSTORE PUSH1 0x20 ADD DUP9 PUSH1 0x80 ADD PUSH1 0x20 DUP2 ADD SWAP1 PUSH3 0x2554 SWAP2 SWAP1 PUSH3 0x52CE JUMP JUMPDEST PUSH1 0x2 SIGNEXTEND DUP2 MSTORE PUSH1 0x20 ADD DUP9 PUSH1 0xA0 ADD PUSH1 0x20 DUP2 ADD SWAP1 PUSH3 0x2571 SWAP2 SWAP1 PUSH3 0x52CE JUMP JUMPDEST PUSH1 0x2 SIGNEXTEND DUP2 MSTORE POP SWAP1 POP DUP1 PUSH1 0x8 PUSH1 0x0 DUP9 DUP2 MSTORE PUSH1 0x20 ADD SWAP1 DUP2 MSTORE PUSH1 0x20 ADD PUSH1 0x0 KECCAK256 PUSH1 0x0 DUP3 ADD MLOAD DUP2 PUSH1 0x0 ADD PUSH1 0x0 PUSH2 0x100 EXP DUP2 SLOAD DUP2 PUSH20 0xFFFFFFFFFFFFFFFFFFFFFFFFFFFFFFFFFFFFFFFF MUL NOT AND SWAP1 DUP4 PUSH20 0xFFFFFFFFFFFFFFFFFFFFFFFFFFFFFFFFFFFFFFFF AND MUL OR SWAP1 SSTORE POP PUSH1 0x20 DUP3 ADD MLOAD DUP2 PUSH1 0x0 ADD PUSH1 0x14 PUSH2 0x100 EXP DUP2 SLOAD DUP2 PUSH3 0xFFFFFF MUL NOT AND SWAP1 DUP4 PUSH1 0x2 SIGNEXTEND PUSH3 0xFFFFFF AND MUL OR SWAP1 SSTORE POP PUSH1 0x40 DUP3 ADD MLOAD DUP2 PUSH1 0x0 ADD PUSH1 0x17 PUSH2 0x100 EXP DUP2 SLOAD DUP2 PUSH3 0xFFFFFF MUL NOT AND SWAP1 DUP4 PUSH1 0x2 SIGNEXTEND PUSH3 0xFFFFFF AND MUL OR SWAP1 SSTORE POP SWAP1 POP POP DUP6 PUSH32 0x22FB3C4728E7CC5DD64003F4267D8FB1EB2580F5598050868300738A823D7047 DUP6 DUP6 DUP6 PUSH1 0x40 MLOAD PUSH3 0x265D SWAP4 SWAP3 SWAP2 SWAP1 PUSH3 0x45E2 JUMP JUMPDEST PUSH1 0x40 MLOAD DUP1 SWAP2 SUB SWAP1 LOG2 POP POP POP POP POP SWAP2 SWAP1 POP JUMP JUMPDEST PUSH1 0x5 PUSH1 0x20 MSTORE DUP2 PUSH1 0x0 MSTORE PUSH1 0x40 PUSH1 0x0 KECCAK256 PUSH1 0x20 MSTORE DUP1 PUSH1 0x0 MSTORE PUSH1 0x40 PUSH1 0x0 KECCAK256 PUSH1 0x0 SWAP2 POP SWAP2 POP SWAP1 SLOAD SWAP1 PUSH2 0x100 EXP SWAP1 DIV PUSH1 0xFF AND DUP2 JUMP JUMPDEST PUSH1 0x0 ADDRESS DUP3 PUSH1 0x20 ADD MLOAD DUP4 PUSH1 0x40 ADD MLOAD PUSH1 0x40 MLOAD PUSH1 0x20 ADD PUSH3 0x26BF SWAP4 SWAP3 SWAP2 SWAP1 PUSH3 0x53D9 JUMP JUMPDEST PUSH1 0x40 MLOAD PUSH1 0x20 DUP2 DUP4 SUB SUB DUP2 MSTORE SWAP1 PUSH1 0x40 MSTORE DUP1 MLOAD SWAP1 PUSH1 0x20 ADD KECCAK256 SWAP1 POP SWAP2 SWAP1 POP JUMP JUMPDEST PUSH1 0x0 PUSH1 0x2 PUSH1 0x0 DUP4 DUP2 MSTORE PUSH1 0x20 ADD SWAP1 DUP2 MSTORE PUSH1 0x20 ADD PUSH1 0x0 KECCAK256 PUSH1 0x0 SWAP1 SLOAD SWAP1 PUSH2 0x100 EXP SWAP1 DIV PUSH20 0xFFFFFFFFFFFFFFFFFFFFFFFFFFFFFFFFFFFFFFFF AND SWAP1 POP PUSH1 0x0 PUSH20 0xFFFFFFFFFFFFFFFFFFFFFFFFFFFFFFFFFFFFFFFF AND DUP2 PUSH20 0xFFFFFFFFFFFFFFFFFFFFFFFFFFFFFFFFFFFFFFFF AND SUB PUSH3 0x2786 JUMPI PUSH1 0x40 MLOAD PUSH32 0x8C379A000000000000000000000000000000000000000000000000000000000 DUP2 MSTORE PUSH1 0x4 ADD PUSH3 0x277D SWAP1 PUSH3 0x4FD8 JUMP JUMPDEST PUSH1 0x40 MLOAD DUP1 SWAP2 SUB SWAP1 REVERT JUMPDEST PUSH1 0x3 PUSH1 0x0 DUP3 PUSH20 0xFFFFFFFFFFFFFFFFFFFFFFFFFFFFFFFFFFFFFFFF AND PUSH20 0xFFFFFFFFFFFFFFFFFFFFFFFFFFFFFFFFFFFFFFFF AND DUP2 MSTORE PUSH1 0x20 ADD SWAP1 DUP2 MSTORE PUSH1 0x20 ADD PUSH1 0x0 KECCAK256 PUSH1 0x0 DUP2 SLOAD DUP1 SWAP3 SWAP2 SWAP1 PUSH1 0x1 SWAP1 SUB SWAP2 SWAP1 POP SSTORE POP PUSH1 0x2 PUSH1 0x0 DUP4 DUP2 MSTORE PUSH1 0x20 ADD SWAP1 DUP2 MSTORE PUSH1 0x20 ADD PUSH1 0x0 KECCAK256 PUSH1 0x0 PUSH2 0x100 EXP DUP2 SLOAD SWAP1 PUSH20 0xFFFFFFFFFFFFFFFFFFFFFFFFFFFFFFFFFFFFFFFF MUL NOT AND SWAP1 SSTORE PUSH1 0x4 PUSH1 0x0 DUP4 DUP2 MSTORE PUSH1 0x20 ADD SWAP1 DUP2 MSTORE PUSH1 0x20 ADD PUSH1 0x0 KECCAK256 PUSH1 0x0 PUSH2 0x100 EXP DUP2 SLOAD SWAP1 PUSH20 0xFFFFFFFFFFFFFFFFFFFFFFFFFFFFFFFFFFFFFFFF MUL NOT AND SWAP1 SSTORE DUP2 PUSH1 0x0 PUSH20 0xFFFFFFFFFFFFFFFFFFFFFFFFFFFFFFFFFFFFFFFF AND DUP3 PUSH20 0xFFFFFFFFFFFFFFFFFFFFFFFFFFFFFFFFFFFFFFFF AND PUSH32 0xDDF252AD1BE2C89B69C2B068FC378DAA952BA7F163C4A11628F55A4DF523B3EF PUSH1 0x40 MLOAD PUSH1 0x40 MLOAD DUP1 SWAP2 SUB SWAP1 LOG4 POP POP JUMP JUMPDEST PUSH1 0x0 DUP1 PUSH1 0x0 DUP1 DUP5 PUSH1 0x0 ADD MLOAD PUSH20 0xFFFFFFFFFFFFFFFFFFFFFFFFFFFFFFFFFFFFFFFF AND PUSH4 0x3850C7BD PUSH1 0x40 MLOAD DUP2 PUSH4 0xFFFFFFFF AND PUSH1 0xE0 SHL DUP2 MSTORE PUSH1 0x4 ADD PUSH1 0xA0 PUSH1 0x40 MLOAD DUP1 DUP4 SUB DUP2 DUP7 GAS STATICCALL ISZERO DUP1 ISZERO PUSH3 0x28F8 JUMPI RETURNDATASIZE PUSH1 0x0 DUP1 RETURNDATACOPY RETURNDATASIZE PUSH1 0x0 REVERT JUMPDEST POP POP POP POP PUSH1 0x40 MLOAD RETURNDATASIZE PUSH1 0x1F NOT PUSH1 0x1F DUP3 ADD AND DUP3 ADD DUP1 PUSH1 0x40 MSTORE POP DUP2 ADD SWAP1 PUSH3 0x291E SWAP2 SWAP1 PUSH3 0x54A3 JUMP JUMPDEST POP POP POP POP SWAP1 POP PUSH3 0x2957 DUP2 PUSH3 0x2938 DUP8 PUSH1 0x20 ADD MLOAD PUSH3 0x3137 JUMP JUMPDEST PUSH3 0x2947 DUP9 PUSH1 0x40 ADD MLOAD PUSH3 0x3137 JUMP JUMPDEST DUP9 PUSH1 0x60 ADD MLOAD DUP10 PUSH1 0x80 ADD MLOAD PUSH3 0x3651 JUMP JUMPDEST SWAP4 POP DUP5 PUSH1 0x0 ADD MLOAD PUSH20 0xFFFFFFFFFFFFFFFFFFFFFFFFFFFFFFFFFFFFFFFF AND PUSH4 0x3C8A7D8D ADDRESS DUP8 PUSH1 0x20 ADD MLOAD DUP9 PUSH1 0x40 ADD MLOAD DUP9 PUSH1 0x40 MLOAD DUP1 PUSH1 0x60 ADD PUSH1 0x40 MSTORE DUP1 DUP13 PUSH1 0x0 ADD MLOAD PUSH20 0xFFFFFFFFFFFFFFFFFFFFFFFFFFFFFFFFFFFFFFFF AND PUSH4 0xDFE1681 PUSH1 0x40 MLOAD DUP2 PUSH4 0xFFFFFFFF AND PUSH1 0xE0 SHL DUP2 MSTORE PUSH1 0x4 ADD PUSH1 0x20 PUSH1 0x40 MLOAD DUP1 DUP4 SUB DUP2 DUP7 GAS STATICCALL ISZERO DUP1 ISZERO PUSH3 0x29E0 JUMPI RETURNDATASIZE PUSH1 0x0 DUP1 RETURNDATACOPY RETURNDATASIZE PUSH1 0x0 REVERT JUMPDEST POP POP POP POP PUSH1 0x40 MLOAD RETURNDATASIZE PUSH1 0x1F NOT PUSH1 0x1F DUP3 ADD AND DUP3 ADD DUP1 PUSH1 0x40 MSTORE POP DUP2 ADD SWAP1 PUSH3 0x2A06 SWAP2 SWAP1 PUSH3 0x5542 JUMP JUMPDEST PUSH20 0xFFFFFFFFFFFFFFFFFFFFFFFFFFFFFFFFFFFFFFFF AND DUP2 MSTORE PUSH1 0x20 ADD DUP13 PUSH1 0x0 ADD MLOAD PUSH20 0xFFFFFFFFFFFFFFFFFFFFFFFFFFFFFFFFFFFFFFFF AND PUSH4 0xD21220A7 PUSH1 0x40 MLOAD DUP2 PUSH4 0xFFFFFFFF AND PUSH1 0xE0 SHL DUP2 MSTORE PUSH1 0x4 ADD PUSH1 0x20 PUSH1 0x40 MLOAD DUP1 DUP4 SUB DUP2 DUP7 GAS STATICCALL ISZERO DUP1 ISZERO PUSH3 0x2A71 JUMPI RETURNDATASIZE PUSH1 0x0 DUP1 RETURNDATACOPY RETURNDATASIZE PUSH1 0x0 REVERT JUMPDEST POP POP POP POP PUSH1 0x40 MLOAD RETURNDATASIZE PUSH1 0x1F NOT PUSH1 0x1F DUP3 ADD AND DUP3 ADD DUP1 PUSH1 0x40 MSTORE POP DUP2 ADD SWAP1 PUSH3 0x2A97 SWAP2 SWAP1 PUSH3 0x5542 JUMP JUMPDEST PUSH20 0xFFFFFFFFFFFFFFFFFFFFFFFFFFFFFFFFFFFFFFFF AND DUP2 MSTORE PUSH1 0x20 ADD CALLER PUSH20 0xFFFFFFFFFFFFFFFFFFFFFFFFFFFFFFFFFFFFFFFF AND DUP2 MSTORE POP PUSH1 0x40 MLOAD PUSH1 0x20 ADD PUSH3 0x2ADE SWAP2 SWAP1 PUSH3 0x55CD JUMP JUMPDEST PUSH1 0x40 MLOAD PUSH1 0x20 DUP2 DUP4 SUB SUB DUP2 MSTORE SWAP1 PUSH1 0x40 MSTORE PUSH1 0x40 MLOAD DUP7 PUSH4 0xFFFFFFFF AND PUSH1 0xE0 SHL DUP2 MSTORE PUSH1 0x4 ADD PUSH3 0x2B0F SWAP6 SWAP5 SWAP4 SWAP3 SWAP2 SWAP1 PUSH3 0x5636 JUMP JUMPDEST PUSH1 0x40 DUP1 MLOAD DUP1 DUP4 SUB DUP2 PUSH1 0x0 DUP8 GAS CALL ISZERO DUP1 ISZERO PUSH3 0x2B2E JUMPI RETURNDATASIZE PUSH1 0x0 DUP1 RETURNDATACOPY RETURNDATASIZE PUSH1 0x0 REVERT JUMPDEST POP POP POP POP PUSH1 0x40 MLOAD RETURNDATASIZE PUSH1 0x1F NOT PUSH1 0x1F DUP3 ADD AND DUP3 ADD DUP1 PUSH1 0x40 MSTORE POP DUP2 ADD SWAP1 PUSH3 0x2B54 SWAP2 SWAP1 PUSH3 0x4C14 JUMP JUMPDEST DUP1 SWAP4 POP DUP2 SWAP5 POP POP POP DUP5 PUSH1 0xA0 ADD MLOAD DUP4 LT DUP1 PUSH3 0x2B72 JUMPI POP DUP5 PUSH1 0xC0 ADD MLOAD DUP3 LT JUMPDEST ISZERO PUSH3 0x2BB9 JUMPI DUP3 DUP3 PUSH1 0x40 MLOAD PUSH32 0xA8F6C8D000000000000000000000000000000000000000000000000000000000 DUP2 MSTORE PUSH1 0x4 ADD PUSH3 0x2BB0 SWAP3 SWAP2 SWAP1 PUSH3 0x44D2 JUMP JUMPDEST PUSH1 0x40 MLOAD DUP1 SWAP2 SUB SWAP1 REVERT JUMPDEST POP SWAP2 SWAP4 SWAP1 SWAP3 POP JUMP JUMPDEST PUSH1 0x60 PUSH1 0x0 DUP3 PUSH1 0x0 ADD MLOAD SWAP1 POP PUSH1 0x0 DUP2 PUSH20 0xFFFFFFFFFFFFFFFFFFFFFFFFFFFFFFFFFFFFFFFF AND PUSH4 0xDFE1681 PUSH1 0x40 MLOAD DUP2 PUSH4 0xFFFFFFFF AND PUSH1 0xE0 SHL DUP2 MSTORE PUSH1 0x4 ADD PUSH1 0x20 PUSH1 0x40 MLOAD DUP1 DUP4 SUB DUP2 DUP7 GAS STATICCALL ISZERO DUP1 ISZERO PUSH3 0x2C1A JUMPI RETURNDATASIZE PUSH1 0x0 DUP1 RETURNDATACOPY RETURNDATASIZE PUSH1 0x0 REVERT JUMPDEST POP POP POP POP PUSH1 0x40 MLOAD RETURNDATASIZE PUSH1 0x1F NOT PUSH1 0x1F DUP3 ADD AND DUP3 ADD DUP1 PUSH1 0x40 MSTORE POP DUP2 ADD SWAP1 PUSH3 0x2C40 SWAP2 SWAP1 PUSH3 0x5542 JUMP JUMPDEST SWAP1 POP PUSH1 0x0 DUP3 PUSH20 0xFFFFFFFFFFFFFFFFFFFFFFFFFFFFFFFFFFFFFFFF AND PUSH4 0xD21220A7 PUSH1 0x40 MLOAD DUP2 PUSH4 0xFFFFFFFF AND PUSH1 0xE0 SHL DUP2 MSTORE PUSH1 0x4 ADD PUSH1 0x20 PUSH1 0x40 MLOAD DUP1 DUP4 SUB DUP2 DUP7 GAS STATICCALL ISZERO DUP1 ISZERO PUSH3 0x2C90 JUMPI RETURNDATASIZE PUSH1 0x0 DUP1 RETURNDATACOPY RETURNDATASIZE PUSH1 0x0 REVERT JUMPDEST POP POP POP POP PUSH1 0x40 MLOAD RETURNDATASIZE PUSH1 0x1F NOT PUSH1 0x1F DUP3 ADD AND DUP3 ADD DUP1 PUSH1 0x40 MSTORE POP DUP2 ADD SWAP1 PUSH3 0x2CB6 SWAP2 SWAP1 PUSH3 0x5542 JUMP JUMPDEST SWAP1 POP PUSH1 0x0 DUP3 PUSH20 0xFFFFFFFFFFFFFFFFFFFFFFFFFFFFFFFFFFFFFFFF AND PUSH4 0x95D89B41 PUSH1 0x40 MLOAD DUP2 PUSH4 0xFFFFFFFF AND PUSH1 0xE0 SHL DUP2 MSTORE PUSH1 0x4 ADD PUSH1 0x0 PUSH1 0x40 MLOAD DUP1 DUP4 SUB DUP2 DUP7 GAS STATICCALL ISZERO DUP1 ISZERO PUSH3 0x2D06 JUMPI RETURNDATASIZE PUSH1 0x0 DUP1 RETURNDATACOPY RETURNDATASIZE PUSH1 0x0 REVERT JUMPDEST POP POP POP POP PUSH1 0x40 MLOAD RETURNDATASIZE PUSH1 0x0 DUP3 RETURNDATACOPY RETURNDATASIZE PUSH1 0x1F NOT PUSH1 0x1F DUP3 ADD AND DUP3 ADD DUP1 PUSH1 0x40 MSTORE POP DUP2 ADD SWAP1 PUSH3 0x2D31 SWAP2 SWAP1 PUSH3 0x5753 JUMP JUMPDEST SWAP1 POP PUSH1 0x0 DUP3 PUSH20 0xFFFFFFFFFFFFFFFFFFFFFFFFFFFFFFFFFFFFFFFF AND PUSH4 0x95D89B41 PUSH1 0x40 MLOAD DUP2 PUSH4 0xFFFFFFFF AND PUSH1 0xE0 SHL DUP2 MSTORE PUSH1 0x4 ADD PUSH1 0x0 PUSH1 0x40 MLOAD DUP1 DUP4 SUB DUP2 DUP7 GAS STATICCALL ISZERO DUP1 ISZERO PUSH3 0x2D81 JUMPI RETURNDATASIZE PUSH1 0x0 DUP1 RETURNDATACOPY RETURNDATASIZE PUSH1 0x0 REVERT JUMPDEST POP POP POP POP PUSH1 0x40 MLOAD RETURNDATASIZE PUSH1 0x0 DUP3 RETURNDATACOPY RETURNDATASIZE PUSH1 0x1F NOT PUSH1 0x1F DUP3 ADD AND DUP3 ADD DUP1 PUSH1 0x40 MSTORE POP DUP2 ADD SWAP1 PUSH3 0x2DAC SWAP2 SWAP1 PUSH3 0x5753 JUMP JUMPDEST SWAP1 POP PUSH1 0x0 PUSH3 0x2DC9 DUP9 PUSH1 0x20 ADD MLOAD DUP10 PUSH1 0x40 ADD MLOAD DUP11 PUSH1 0x60 ADD MLOAD PUSH3 0x378B JUMP JUMPDEST PUSH3 0x2DDA DUP5 DUP5 DUP12 PUSH1 0x80 ADD MLOAD PUSH3 0x3818 JUMP JUMPDEST PUSH3 0x2DEE DUP11 PUSH1 0x40 ADD MLOAD DUP12 PUSH1 0x60 ADD MLOAD PUSH3 0x3858 JUMP JUMPDEST PUSH1 0x40 MLOAD PUSH1 0x20 ADD PUSH3 0x2E02 SWAP4 SWAP3 SWAP2 SWAP1 PUSH3 0x59E4 JUMP JUMPDEST PUSH1 0x40 MLOAD PUSH1 0x20 DUP2 DUP4 SUB SUB DUP2 MSTORE SWAP1 PUSH1 0x40 MSTORE SWAP1 POP PUSH1 0x0 PUSH3 0x2E30 DUP5 DUP5 DUP12 PUSH1 0x80 ADD MLOAD DUP13 PUSH1 0x40 ADD MLOAD DUP14 PUSH1 0x60 ADD MLOAD PUSH3 0x389A JUMP JUMPDEST SWAP1 POP PUSH1 0x0 DUP2 PUSH3 0x2E40 DUP5 PUSH3 0x38F4 JUMP JUMPDEST PUSH1 0x40 MLOAD PUSH1 0x20 ADD PUSH3 0x2E53 SWAP3 SWAP2 SWAP1 PUSH3 0x5B6E JUMP JUMPDEST PUSH1 0x40 MLOAD PUSH1 0x20 DUP2 DUP4 SUB SUB DUP2 MSTORE SWAP1 PUSH1 0x40 MSTORE SWAP1 POP PUSH3 0x2E6F DUP2 PUSH3 0x38F4 JUMP JUMPDEST PUSH1 0x40 MLOAD PUSH1 0x20 ADD PUSH3 0x2E81 SWAP2 SWAP1 PUSH3 0x5C0D JUMP JUMPDEST PUSH1 0x40 MLOAD PUSH1 0x20 DUP2 DUP4 SUB SUB DUP2 MSTORE SWAP1 PUSH1 0x40 MSTORE SWAP9 POP POP POP POP POP POP POP POP POP SWAP2 SWAP1 POP JUMP JUMPDEST PUSH1 0x0 DUP3 PUSH20 0xFFFFFFFFFFFFFFFFFFFFFFFFFFFFFFFFFFFFFFFF AND DUP5 PUSH20 0xFFFFFFFFFFFFFFFFFFFFFFFFFFFFFFFFFFFFFFFF AND LT PUSH3 0x2EDD JUMPI DUP3 DUP5 PUSH3 0x2EE0 JUMP JUMPDEST DUP4 DUP4 JUMPDEST DUP1 SWAP5 POP DUP2 SWAP6 POP POP POP PUSH3 0x2F16 PUSH32 0x0 DUP6 DUP6 DUP6 PUSH3 0x3A6A JUMP JUMPDEST SWAP1 POP SWAP4 SWAP3 POP POP POP JUMP JUMPDEST PUSH1 0x0 PUSH20 0xFFFFFFFFFFFFFFFFFFFFFFFFFFFFFFFFFFFFFFFF AND DUP3 PUSH20 0xFFFFFFFFFFFFFFFFFFFFFFFFFFFFFFFFFFFFFFFF AND SUB PUSH3 0x2F91 JUMPI PUSH1 0x40 MLOAD PUSH32 0x8C379A000000000000000000000000000000000000000000000000000000000 DUP2 MSTORE PUSH1 0x4 ADD PUSH3 0x2F88 SWAP1 PUSH3 0x4D1D JUMP JUMPDEST PUSH1 0x40 MLOAD DUP1 SWAP2 SUB SWAP1 REVERT JUMPDEST PUSH1 0x0 PUSH20 0xFFFFFFFFFFFFFFFFFFFFFFFFFFFFFFFFFFFFFFFF AND PUSH1 0x2 PUSH1 0x0 DUP4 DUP2 MSTORE PUSH1 0x20 ADD SWAP1 DUP2 MSTORE PUSH1 0x20 ADD PUSH1 0x0 KECCAK256 PUSH1 0x0 SWAP1 SLOAD SWAP1 PUSH2 0x100 EXP SWAP1 DIV PUSH20 0xFFFFFFFFFFFFFFFFFFFFFFFFFFFFFFFFFFFFFFFF AND PUSH20 0xFFFFFFFFFFFFFFFFFFFFFFFFFFFFFFFFFFFFFFFF AND EQ PUSH3 0x3036 JUMPI PUSH1 0x40 MLOAD PUSH32 0x8C379A000000000000000000000000000000000000000000000000000000000 DUP2 MSTORE PUSH1 0x4 ADD PUSH3 0x302D SWAP1 PUSH3 0x5C87 JUMP JUMPDEST PUSH1 0x40 MLOAD DUP1 SWAP2 SUB SWAP1 REVERT JUMPDEST PUSH1 0x3 PUSH1 0x0 DUP4 PUSH20 0xFFFFFFFFFFFFFFFFFFFFFFFFFFFFFFFFFFFFFFFF AND PUSH20 0xFFFFFFFFFFFFFFFFFFFFFFFFFFFFFFFFFFFFFFFF AND DUP2 MSTORE PUSH1 0x20 ADD SWAP1 DUP2 MSTORE PUSH1 0x20 ADD PUSH1 0x0 KECCAK256 PUSH1 0x0 DUP2 SLOAD DUP1 SWAP3 SWAP2 SWAP1 PUSH1 0x1 ADD SWAP2 SWAP1 POP SSTORE POP DUP2 PUSH1 0x2 PUSH1 0x0 DUP4 DUP2 MSTORE PUSH1 0x20 ADD SWAP1 DUP2 MSTORE PUSH1 0x20 ADD PUSH1 0x0 KECCAK256 PUSH1 0x0 PUSH2 0x100 EXP DUP2 SLOAD DUP2 PUSH20 0xFFFFFFFFFFFFFFFFFFFFFFFFFFFFFFFFFFFFFFFF MUL NOT AND SWAP1 DUP4 PUSH20 0xFFFFFFFFFFFFFFFFFFFFFFFFFFFFFFFFFFFFFFFF AND MUL OR SWAP1 SSTORE POP DUP1 DUP3 PUSH20 0xFFFFFFFFFFFFFFFFFFFFFFFFFFFFFFFFFFFFFFFF AND PUSH1 0x0 PUSH20 0xFFFFFFFFFFFFFFFFFFFFFFFFFFFFFFFFFFFFFFFF AND PUSH32 0xDDF252AD1BE2C89B69C2B068FC378DAA952BA7F163C4A11628F55A4DF523B3EF PUSH1 0x40 MLOAD PUSH1 0x40 MLOAD DUP1 SWAP2 SUB SWAP1 LOG4 POP POP JUMP JUMPDEST PUSH1 0x0 DUP1 PUSH1 0x0 DUP4 PUSH1 0x2 SIGNEXTEND SLT PUSH3 0x3150 JUMPI DUP3 PUSH1 0x2 SIGNEXTEND PUSH3 0x3160 JUMP JUMPDEST DUP3 PUSH1 0x2 SIGNEXTEND PUSH3 0x315F SWAP1 PUSH3 0x5CB3 JUMP JUMPDEST JUMPDEST SWAP1 POP PUSH32 0xFFFFFFFFFFFFFFFFFFFFFFFFFFFFFFFFFFFFFFFFFFFFFFFFFFFFFFFFFFF27618 PUSH3 0x318E SWAP1 PUSH3 0x5D00 JUMP JUMPDEST PUSH3 0xFFFFFF AND DUP2 GT ISZERO PUSH3 0x31D8 JUMPI PUSH1 0x40 MLOAD PUSH32 0x8C379A000000000000000000000000000000000000000000000000000000000 DUP2 MSTORE PUSH1 0x4 ADD PUSH3 0x31CF SWAP1 PUSH3 0x5D9D JUMP JUMPDEST PUSH1 0x40 MLOAD DUP1 SWAP2 SUB SWAP1 REVERT JUMPDEST PUSH1 0x0 DUP1 PUSH1 0x1 DUP4 AND SUB PUSH3 0x31FD JUMPI PUSH17 0x100000000000000000000000000000000 PUSH3 0x320F JUMP JUMPDEST PUSH16 0xFFFCB933BD6FAD37AA2D162D1A594001 JUMPDEST PUSH17 0xFFFFFFFFFFFFFFFFFFFFFFFFFFFFFFFFFF AND SWAP1 POP PUSH1 0x0 PUSH1 0x2 DUP4 AND EQ PUSH3 0x3255 JUMPI PUSH1 0x80 PUSH16 0xFFF97272373D413259A46990580E213A DUP3 PUSH3 0x3250 SWAP2 SWAP1 PUSH3 0x5DBF JUMP JUMPDEST SWAP1 SHR SWAP1 POP JUMPDEST PUSH1 0x0 PUSH1 0x4 DUP4 AND EQ PUSH3 0x3286 JUMPI PUSH1 0x80 PUSH16 0xFFF2E50F5F656932EF12357CF3C7FDCC DUP3 PUSH3 0x3281 SWAP2 SWAP1 PUSH3 0x5DBF JUMP JUMPDEST SWAP1 SHR SWAP1 POP JUMPDEST PUSH1 0x0 PUSH1 0x8 DUP4 AND EQ PUSH3 0x32B7 JUMPI PUSH1 0x80 PUSH16 0xFFE5CACA7E10E4E61C3624EAA0941CD0 DUP3 PUSH3 0x32B2 SWAP2 SWAP1 PUSH3 0x5DBF JUMP JUMPDEST SWAP1 SHR SWAP1 POP JUMPDEST PUSH1 0x0 PUSH1 0x10 DUP4 AND EQ PUSH3 0x32E8 JUMPI PUSH1 0x80 PUSH16 0xFFCB9843D60F6159C9DB58835C926644 DUP3 PUSH3 0x32E3 SWAP2 SWAP1 PUSH3 0x5DBF JUMP JUMPDEST SWAP1 SHR SWAP1 POP JUMPDEST PUSH1 0x0 PUSH1 0x20 DUP4 AND EQ PUSH3 0x3319 JUMPI PUSH1 0x80 PUSH16 0xFF973B41FA98C081472E6896DFB254C0 DUP3 PUSH3 0x3314 SWAP2 SWAP1 PUSH3 0x5DBF JUMP JUMPDEST SWAP1 SHR SWAP1 POP JUMPDEST PUSH1 0x0 PUSH1 0x40 DUP4 AND EQ PUSH3 0x334A JUMPI PUSH1 0x80 PUSH16 0xFF2EA16466C96A3843EC78B326B52861 DUP3 PUSH3 0x3345 SWAP2 SWAP1 PUSH3 0x5DBF JUMP JUMPDEST SWAP1 SHR SWAP1 POP JUMPDEST PUSH1 0x0 PUSH1 0x80 DUP4 AND EQ PUSH3 0x337B JUMPI PUSH1 0x80 PUSH16 0xFE5DEE046A99A2A811C461F1969C3053 DUP3 PUSH3 0x3376 SWAP2 SWAP1 PUSH3 0x5DBF JUMP JUMPDEST SWAP1 SHR SWAP1 POP JUMPDEST PUSH1 0x0 PUSH2 0x100 DUP4 AND EQ PUSH3 0x33AD JUMPI PUSH1 0x80 PUSH16 0xFCBE86C7900A88AEDCFFC83B479AA3A4 DUP3 PUSH3 0x33A8 SWAP2 SWAP1 PUSH3 0x5DBF JUMP JUMPDEST SWAP1 SHR SWAP1 POP JUMPDEST PUSH1 0x0 PUSH2 0x200 DUP4 AND EQ PUSH3 0x33DF JUMPI PUSH1 0x80 PUSH16 0xF987A7253AC413176F2B074CF7815E54 DUP3 PUSH3 0x33DA SWAP2 SWAP1 PUSH3 0x5DBF JUMP JUMPDEST SWAP1 SHR SWAP1 POP JUMPDEST PUSH1 0x0 PUSH2 0x400 DUP4 AND EQ PUSH3 0x3411 JUMPI PUSH1 0x80 PUSH16 0xF3392B0822B70005940C7A398E4B70F3 DUP3 PUSH3 0x340C SWAP2 SWAP1 PUSH3 0x5DBF JUMP JUMPDEST SWAP1 SHR SWAP1 POP JUMPDEST PUSH1 0x0 PUSH2 0x800 DUP4 AND EQ PUSH3 0x3443 JUMPI PUSH1 0x80 PUSH16 0xE7159475A2C29B7443B29C7FA6E889D9 DUP3 PUSH3 0x343E SWAP2 SWAP1 PUSH3 0x5DBF JUMP JUMPDEST SWAP1 SHR SWAP1 POP JUMPDEST PUSH1 0x0 PUSH2 0x1000 DUP4 AND EQ PUSH3 0x3475 JUMPI PUSH1 0x80 PUSH16 0xD097F3BDFD2022B8845AD8F792AA5825 DUP3 PUSH3 0x3470 SWAP2 SWAP1 PUSH3 0x5DBF JUMP JUMPDEST SWAP1 SHR SWAP1 POP JUMPDEST PUSH1 0x0 PUSH2 0x2000 DUP4 AND EQ PUSH3 0x34A7 JUMPI PUSH1 0x80 PUSH16 0xA9F746462D870FDF8A65DC1F90E061E5 DUP3 PUSH3 0x34A2 SWAP2 SWAP1 PUSH3 0x5DBF JUMP JUMPDEST SWAP1 SHR SWAP1 POP JUMPDEST PUSH1 0x0 PUSH2 0x4000 DUP4 AND EQ PUSH3 0x34D9 JUMPI PUSH1 0x80 PUSH16 0x70D869A156D2A1B890BB3DF62BAF32F7 DUP3 PUSH3 0x34D4 SWAP2 SWAP1 PUSH3 0x5DBF JUMP JUMPDEST SWAP1 SHR SWAP1 POP JUMPDEST PUSH1 0x0 PUSH2 0x8000 DUP4 AND EQ PUSH3 0x350B JUMPI PUSH1 0x80 PUSH16 0x31BE135F97D08FD981231505542FCFA6 DUP3 PUSH3 0x3506 SWAP2 SWAP1 PUSH3 0x5DBF JUMP JUMPDEST SWAP1 SHR SWAP1 POP JUMPDEST PUSH1 0x0 PUSH3 0x10000 DUP4 AND EQ PUSH3 0x353E JUMPI PUSH1 0x80 PUSH16 0x9AA508B5B7A84E1C677DE54F3E99BC9 DUP3 PUSH3 0x3539 SWAP2 SWAP1 PUSH3 0x5DBF JUMP JUMPDEST SWAP1 SHR SWAP1 POP JUMPDEST PUSH1 0x0 PUSH3 0x20000 DUP4 AND EQ PUSH3 0x3570 JUMPI PUSH1 0x80 PUSH15 0x5D6AF8DEDB81196699C329225EE604 DUP3 PUSH3 0x356B SWAP2 SWAP1 PUSH3 0x5DBF JUMP JUMPDEST SWAP1 SHR SWAP1 POP JUMPDEST PUSH1 0x0 PUSH3 0x40000 DUP4 AND EQ PUSH3 0x35A1 JUMPI PUSH1 0x80 PUSH14 0x2216E584F5FA1EA926041BEDFE98 DUP3 PUSH3 0x359C SWAP2 SWAP1 PUSH3 0x5DBF JUMP JUMPDEST SWAP1 SHR SWAP1 POP JUMPDEST PUSH1 0x0 PUSH3 0x80000 DUP4 AND EQ PUSH3 0x35D0 JUMPI PUSH1 0x80 PUSH12 0x48A170391F7DC42444E8FA2 DUP3 PUSH3 0x35CB SWAP2 SWAP1 PUSH3 0x5DBF JUMP JUMPDEST SWAP1 SHR SWAP1 POP JUMPDEST PUSH1 0x0 DUP5 PUSH1 0x2 SIGNEXTEND SGT ISZERO PUSH3 0x360E JUMPI DUP1 PUSH32 0xFFFFFFFFFFFFFFFFFFFFFFFFFFFFFFFFFFFFFFFFFFFFFFFFFFFFFFFFFFFFFFFF PUSH3 0x360B SWAP2 SWAP1 PUSH3 0x5E39 JUMP JUMPDEST SWAP1 POP JUMPDEST PUSH1 0x0 PUSH5 0x100000000 DUP3 PUSH3 0x3623 SWAP2 SWAP1 PUSH3 0x5E71 JUMP JUMPDEST EQ PUSH3 0x3631 JUMPI PUSH1 0x1 PUSH3 0x3634 JUMP JUMPDEST PUSH1 0x0 JUMPDEST PUSH1 0xFF AND PUSH1 0x20 DUP3 SWAP1 SHR PUSH3 0x3648 SWAP2 SWAP1 PUSH3 0x5EA9 JUMP JUMPDEST SWAP3 POP POP POP SWAP2 SWAP1 POP JUMP JUMPDEST PUSH1 0x0 DUP4 PUSH20 0xFFFFFFFFFFFFFFFFFFFFFFFFFFFFFFFFFFFFFFFF AND DUP6 PUSH20 0xFFFFFFFFFFFFFFFFFFFFFFFFFFFFFFFFFFFFFFFF AND GT ISZERO PUSH3 0x3693 JUMPI DUP4 DUP6 DUP1 SWAP6 POP DUP2 SWAP7 POP POP POP JUMPDEST DUP5 PUSH20 0xFFFFFFFFFFFFFFFFFFFFFFFFFFFFFFFFFFFFFFFF AND DUP7 PUSH20 0xFFFFFFFFFFFFFFFFFFFFFFFFFFFFFFFFFFFFFFFF AND GT PUSH3 0x36DC JUMPI PUSH3 0x36D4 DUP6 DUP6 DUP6 PUSH3 0x3B37 JUMP JUMPDEST SWAP1 POP PUSH3 0x3782 JUMP JUMPDEST DUP4 PUSH20 0xFFFFFFFFFFFFFFFFFFFFFFFFFFFFFFFFFFFFFFFF AND DUP7 PUSH20 0xFFFFFFFFFFFFFFFFFFFFFFFFFFFFFFFFFFFFFFFF AND GT PUSH3 0x3771 JUMPI PUSH1 0x0 PUSH3 0x371F DUP8 DUP7 DUP7 PUSH3 0x3B37 JUMP JUMPDEST SWAP1 POP PUSH1 0x0 PUSH3 0x3730 DUP8 DUP10 DUP7 PUSH3 0x3BFD JUMP JUMPDEST SWAP1 POP DUP1 PUSH16 0xFFFFFFFFFFFFFFFFFFFFFFFFFFFFFFFF AND DUP3 PUSH16 0xFFFFFFFFFFFFFFFFFFFFFFFFFFFFFFFF AND LT PUSH3 0x3765 JUMPI DUP1 PUSH3 0x3767 JUMP JUMPDEST DUP2 JUMPDEST SWAP3 POP POP POP PUSH3 0x3781 JUMP JUMPDEST PUSH3 0x377E DUP6 DUP6 DUP5 PUSH3 0x3BFD JUMP JUMPDEST SWAP1 POP JUMPDEST JUMPDEST SWAP6 SWAP5 POP POP POP POP POP JUMP JUMPDEST PUSH1 0x60 PUSH1 0x0 DUP5 DUP5 DUP5 PUSH1 0x40 MLOAD PUSH1 0x20 ADD PUSH3 0x37A6 SWAP4 SWAP3 SWAP2 SWAP1 PUSH3 0x53D9 JUMP JUMPDEST PUSH1 0x40 MLOAD PUSH1 0x20 DUP2 DUP4 SUB SUB DUP2 MSTORE SWAP1 PUSH1 0x40 MSTORE DUP1 MLOAD SWAP1 PUSH1 0x20 ADD KECCAK256 SWAP1 POP PUSH1 0x0 PUSH2 0x168 DUP3 PUSH1 0x0 SHR PUSH3 0x37D3 SWAP2 SWAP1 PUSH3 0x5E71 JUMP JUMPDEST SWAP1 POP PUSH3 0x37E0 DUP2 PUSH3 0x3C85 JUMP JUMPDEST PUSH3 0x37EB DUP3 PUSH3 0x3C85 JUMP JUMPDEST PUSH1 0x40 MLOAD PUSH1 0x20 ADD PUSH3 0x37FE SWAP3 SWAP2 SWAP1 PUSH3 0x6042 JUMP JUMPDEST PUSH1 0x40 MLOAD PUSH1 0x20 DUP2 DUP4 SUB SUB DUP2 MSTORE SWAP1 PUSH1 0x40 MSTORE SWAP3 POP POP POP SWAP4 SWAP3 POP POP POP JUMP JUMPDEST PUSH1 0x60 DUP4 DUP4 PUSH3 0x382C DUP5 PUSH3 0xFFFFFF AND PUSH3 0x3DFE JUMP JUMPDEST PUSH1 0x40 MLOAD PUSH1 0x20 ADD PUSH3 0x3840 SWAP4 SWAP3 SWAP2 SWAP1 PUSH3 0x62CA JUMP JUMPDEST PUSH1 0x40 MLOAD PUSH1 0x20 DUP2 DUP4 SUB SUB DUP2 MSTORE SWAP1 PUSH1 0x40 MSTORE SWAP1 POP SWAP4 SWAP3 POP POP POP JUMP JUMPDEST PUSH1 0x60 PUSH3 0x3865 DUP4 PUSH3 0x3E91 JUMP JUMPDEST PUSH3 0x3870 DUP4 PUSH3 0x3E91 JUMP JUMPDEST PUSH1 0x40 MLOAD PUSH1 0x20 ADD PUSH3 0x3883 SWAP3 SWAP2 SWAP1 PUSH3 0x6555 JUMP JUMPDEST PUSH1 0x40 MLOAD PUSH1 0x20 DUP2 DUP4 SUB SUB DUP2 MSTORE SWAP1 PUSH1 0x40 MSTORE SWAP1 POP SWAP3 SWAP2 POP POP JUMP JUMPDEST PUSH1 0x60 DUP6 DUP6 PUSH3 0x38AE DUP7 PUSH3 0xFFFFFF AND PUSH3 0x3DFE JUMP JUMPDEST PUSH3 0x38B9 DUP7 PUSH3 0x3E91 JUMP JUMPDEST PUSH3 0x38C4 DUP7 PUSH3 0x3E91 JUMP JUMPDEST PUSH1 0x40 MLOAD PUSH1 0x20 ADD PUSH3 0x38DA SWAP6 SWAP5 SWAP4 SWAP3 SWAP2 SWAP1 PUSH3 0x6645 JUMP JUMPDEST PUSH1 0x40 MLOAD PUSH1 0x20 DUP2 DUP4 SUB SUB DUP2 MSTORE SWAP1 PUSH1 0x40 MSTORE SWAP1 POP SWAP6 SWAP5 POP POP POP POP POP JUMP JUMPDEST PUSH1 0x60 PUSH1 0x0 DUP3 MLOAD SUB PUSH3 0x3918 JUMPI PUSH1 0x40 MLOAD DUP1 PUSH1 0x20 ADD PUSH1 0x40 MSTORE DUP1 PUSH1 0x0 DUP2 MSTORE POP SWAP1 POP PUSH3 0x3A65 JUMP JUMPDEST PUSH1 0x0 PUSH1 0x40 MLOAD DUP1 PUSH1 0x60 ADD PUSH1 0x40 MSTORE DUP1 PUSH1 0x40 DUP2 MSTORE PUSH1 0x20 ADD PUSH3 0xD6E8 PUSH1 0x40 SWAP2 CODECOPY SWAP1 POP PUSH1 0x0 PUSH1 0x3 PUSH1 0x2 DUP6 MLOAD PUSH3 0x394A SWAP2 SWAP1 PUSH3 0x5EA9 JUMP JUMPDEST PUSH3 0x3956 SWAP2 SWAP1 PUSH3 0x5E39 JUMP JUMPDEST PUSH1 0x4 PUSH3 0x3964 SWAP2 SWAP1 PUSH3 0x5DBF JUMP JUMPDEST PUSH8 0xFFFFFFFFFFFFFFFF DUP2 GT ISZERO PUSH3 0x3980 JUMPI PUSH3 0x397F PUSH3 0x4365 JUMP JUMPDEST JUMPDEST PUSH1 0x40 MLOAD SWAP1 DUP1 DUP3 MSTORE DUP1 PUSH1 0x1F ADD PUSH1 0x1F NOT AND PUSH1 0x20 ADD DUP3 ADD PUSH1 0x40 MSTORE DUP1 ISZERO PUSH3 0x39B3 JUMPI DUP2 PUSH1 0x20 ADD PUSH1 0x1 DUP3 MUL DUP1 CALLDATASIZE DUP4 CALLDATACOPY DUP1 DUP3 ADD SWAP2 POP POP SWAP1 POP JUMPDEST POP SWAP1 POP PUSH1 0x1 DUP3 ADD PUSH1 0x20 DUP3 ADD DUP6 DUP7 MLOAD DUP8 ADD JUMPDEST DUP1 DUP3 LT ISZERO PUSH3 0x3A21 JUMPI PUSH1 0x3 DUP3 ADD SWAP2 POP DUP2 MLOAD PUSH1 0x3F DUP2 PUSH1 0x12 SHR AND DUP6 ADD MLOAD DUP5 MSTORE8 PUSH1 0x1 DUP5 ADD SWAP4 POP PUSH1 0x3F DUP2 PUSH1 0xC SHR AND DUP6 ADD MLOAD DUP5 MSTORE8 PUSH1 0x1 DUP5 ADD SWAP4 POP PUSH1 0x3F DUP2 PUSH1 0x6 SHR AND DUP6 ADD MLOAD DUP5 MSTORE8 PUSH1 0x1 DUP5 ADD SWAP4 POP PUSH1 0x3F DUP2 AND DUP6 ADD MLOAD DUP5 MSTORE8 PUSH1 0x1 DUP5 ADD SWAP4 POP POP PUSH3 0x39C4 JUMP JUMPDEST POP POP PUSH1 0x3 DUP7 MLOAD MOD PUSH1 0x1 DUP2 EQ PUSH3 0x3A40 JUMPI PUSH1 0x2 DUP2 EQ PUSH3 0x3A54 JUMPI PUSH3 0x3A5C JUMP JUMPDEST PUSH1 0x3D PUSH1 0x1 DUP4 SUB MSTORE8 PUSH1 0x3D PUSH1 0x2 DUP4 SUB MSTORE8 PUSH3 0x3A5C JUMP JUMPDEST PUSH1 0x3D PUSH1 0x1 DUP4 SUB MSTORE8 JUMPDEST POP POP POP DUP1 SWAP3 POP POP POP JUMPDEST SWAP2 SWAP1 POP JUMP JUMPDEST PUSH1 0x0 DUP3 PUSH20 0xFFFFFFFFFFFFFFFFFFFFFFFFFFFFFFFFFFFFFFFF AND DUP5 PUSH20 0xFFFFFFFFFFFFFFFFFFFFFFFFFFFFFFFFFFFFFFFF AND LT PUSH3 0x3AA5 JUMPI PUSH1 0x0 DUP1 REVERT JUMPDEST DUP5 DUP5 DUP5 DUP5 PUSH1 0x40 MLOAD PUSH1 0x20 ADD PUSH3 0x3ABD SWAP4 SWAP3 SWAP2 SWAP1 PUSH3 0x670D JUMP JUMPDEST PUSH1 0x40 MLOAD PUSH1 0x20 DUP2 DUP4 SUB SUB DUP2 MSTORE SWAP1 PUSH1 0x40 MSTORE DUP1 MLOAD SWAP1 PUSH1 0x20 ADD KECCAK256 PUSH1 0x40 MLOAD DUP1 PUSH1 0x20 ADD PUSH3 0x3AE5 SWAP1 PUSH3 0x4070 JUMP JUMPDEST PUSH1 0x20 DUP3 ADD DUP2 SUB DUP3 MSTORE PUSH1 0x1F NOT PUSH1 0x1F DUP3 ADD AND PUSH1 0x40 MSTORE POP DUP1 MLOAD SWAP1 PUSH1 0x20 ADD KECCAK256 PUSH1 0x40 MLOAD PUSH1 0x20 ADD PUSH3 0x3B14 SWAP4 SWAP3 SWAP2 SWAP1 PUSH3 0x67C5 JUMP JUMPDEST PUSH1 0x40 MLOAD PUSH1 0x20 DUP2 DUP4 SUB SUB DUP2 MSTORE SWAP1 PUSH1 0x40 MSTORE DUP1 MLOAD SWAP1 PUSH1 0x20 ADD KECCAK256 PUSH1 0x0 SHR SWAP1 POP SWAP5 SWAP4 POP POP POP POP JUMP JUMPDEST PUSH1 0x0 DUP3 PUSH20 0xFFFFFFFFFFFFFFFFFFFFFFFFFFFFFFFFFFFFFFFF AND DUP5 PUSH20 0xFFFFFFFFFFFFFFFFFFFFFFFFFFFFFFFFFFFFFFFF AND GT ISZERO PUSH3 0x3B79 JUMPI DUP3 DUP5 DUP1 SWAP5 POP DUP2 SWAP6 POP POP POP JUMPDEST PUSH1 0x0 PUSH3 0x3BC1 DUP6 PUSH20 0xFFFFFFFFFFFFFFFFFFFFFFFFFFFFFFFFFFFFFFFF AND DUP6 PUSH20 0xFFFFFFFFFFFFFFFFFFFFFFFFFFFFFFFFFFFFFFFF AND PUSH13 0x1000000000000000000000000 PUSH3 0x3F53 JUMP JUMPDEST SWAP1 POP PUSH3 0x3BF3 DUP4 DUP3 DUP8 DUP8 PUSH3 0x3BD7 SWAP2 SWAP1 PUSH3 0x6815 JUMP JUMPDEST PUSH20 0xFFFFFFFFFFFFFFFFFFFFFFFFFFFFFFFFFFFFFFFF AND PUSH3 0x3F53 JUMP JUMPDEST SWAP2 POP POP SWAP4 SWAP3 POP POP POP JUMP JUMPDEST PUSH1 0x0 DUP3 PUSH20 0xFFFFFFFFFFFFFFFFFFFFFFFFFFFFFFFFFFFFFFFF AND DUP5 PUSH20 0xFFFFFFFFFFFFFFFFFFFFFFFFFFFFFFFFFFFFFFFF AND GT ISZERO PUSH3 0x3C3F JUMPI DUP3 DUP5 DUP1 SWAP5 POP DUP2 SWAP6 POP POP POP JUMPDEST PUSH3 0x3C7C DUP3 PUSH13 0x1000000000000000000000000 DUP7 DUP7 PUSH3 0x3C60 SWAP2 SWAP1 PUSH3 0x6815 JUMP JUMPDEST PUSH20 0xFFFFFFFFFFFFFFFFFFFFFFFFFFFFFFFFFFFFFFFF AND PUSH3 0x3F53 JUMP JUMPDEST SWAP1 POP SWAP4 SWAP3 POP POP POP JUMP JUMPDEST PUSH1 0x60 PUSH1 0x0 DUP3 SUB PUSH3 0x3CCE JUMPI PUSH1 0x40 MLOAD DUP1 PUSH1 0x40 ADD PUSH1 0x40 MSTORE DUP1 PUSH1 0x1 DUP2 MSTORE PUSH1 0x20 ADD PUSH32 0x3000000000000000000000000000000000000000000000000000000000000000 DUP2 MSTORE POP SWAP1 POP PUSH3 0x3DF9 JUMP JUMPDEST PUSH1 0x0 DUP3 SWAP1 POP PUSH1 0x0 JUMPDEST PUSH1 0x0 DUP3 EQ PUSH3 0x3D06 JUMPI DUP1 DUP1 PUSH3 0x3CEC SWAP1 PUSH3 0x5300 JUMP JUMPDEST SWAP2 POP POP PUSH1 0xA DUP3 PUSH3 0x3CFE SWAP2 SWAP1 PUSH3 0x5E39 JUMP JUMPDEST SWAP2 POP PUSH3 0x3CD6 JUMP JUMPDEST PUSH1 0x0 DUP2 PUSH8 0xFFFFFFFFFFFFFFFF DUP2 GT ISZERO PUSH3 0x3D25 JUMPI PUSH3 0x3D24 PUSH3 0x4365 JUMP JUMPDEST JUMPDEST PUSH1 0x40 MLOAD SWAP1 DUP1 DUP3 MSTORE DUP1 PUSH1 0x1F ADD PUSH1 0x1F NOT AND PUSH1 0x20 ADD DUP3 ADD PUSH1 0x40 MSTORE DUP1 ISZERO PUSH3 0x3D58 JUMPI DUP2 PUSH1 0x20 ADD PUSH1 0x1 DUP3 MUL DUP1 CALLDATASIZE DUP4 CALLDATACOPY DUP1 DUP3 ADD SWAP2 POP POP SWAP1 POP JUMPDEST POP SWAP1 POP JUMPDEST PUSH1 0x0 DUP6 EQ PUSH3 0x3DF2 JUMPI PUSH1 0x1 DUP3 PUSH3 0x3D74 SWAP2 SWAP1 PUSH3 0x6864 JUMP JUMPDEST SWAP2 POP PUSH1 0xA DUP6 PUSH3 0x3D85 SWAP2 SWAP1 PUSH3 0x5E71 JUMP JUMPDEST PUSH1 0x30 PUSH3 0x3D93 SWAP2 SWAP1 PUSH3 0x5EA9 JUMP JUMPDEST PUSH1 0xF8 SHL DUP2 DUP4 DUP2 MLOAD DUP2 LT PUSH3 0x3DAC JUMPI PUSH3 0x3DAB PUSH3 0x689F JUMP JUMPDEST JUMPDEST PUSH1 0x20 ADD ADD SWAP1 PUSH31 0xFFFFFFFFFFFFFFFFFFFFFFFFFFFFFFFFFFFFFFFFFFFFFFFFFFFFFFFFFFFFFF NOT AND SWAP1 DUP2 PUSH1 0x0 BYTE SWAP1 MSTORE8 POP PUSH1 0xA DUP6 PUSH3 0x3DEA SWAP2 SWAP1 PUSH3 0x5E39 JUMP JUMPDEST SWAP5 POP PUSH3 0x3D5C JUMP JUMPDEST DUP1 SWAP4 POP POP POP POP JUMPDEST SWAP2 SWAP1 POP JUMP JUMPDEST PUSH1 0x60 PUSH2 0x1F4 DUP3 SUB PUSH3 0x3E48 JUMPI PUSH1 0x40 MLOAD DUP1 PUSH1 0x40 ADD PUSH1 0x40 MSTORE DUP1 PUSH1 0x5 DUP2 MSTORE PUSH1 0x20 ADD PUSH32 0x302E303525000000000000000000000000000000000000000000000000000000 DUP2 MSTORE POP SWAP1 POP PUSH3 0x3E8C JUMP JUMPDEST PUSH2 0xBB8 DUP3 SUB PUSH3 0x3E8B JUMPI PUSH1 0x40 MLOAD DUP1 PUSH1 0x40 ADD PUSH1 0x40 MSTORE DUP1 PUSH1 0x4 DUP2 MSTORE PUSH1 0x20 ADD PUSH32 0x302E332500000000000000000000000000000000000000000000000000000000 DUP2 MSTORE POP SWAP1 POP JUMPDEST JUMPDEST SWAP2 SWAP1 POP JUMP JUMPDEST PUSH1 0x60 PUSH1 0x0 DUP3 PUSH1 0x2 SIGNEXTEND SLT PUSH3 0x3EB5 JUMPI PUSH1 0x40 MLOAD DUP1 PUSH1 0x20 ADD PUSH1 0x40 MSTORE DUP1 PUSH1 0x0 DUP2 MSTORE POP PUSH3 0x3EEC JUMP JUMPDEST PUSH1 0x40 MLOAD DUP1 PUSH1 0x40 ADD PUSH1 0x40 MSTORE DUP1 PUSH1 0x1 DUP2 MSTORE PUSH1 0x20 ADD PUSH32 0x2D00000000000000000000000000000000000000000000000000000000000000 DUP2 MSTORE POP JUMPDEST PUSH1 0x0 DUP4 PUSH1 0x2 SIGNEXTEND SLT PUSH3 0x3F0E JUMPI PUSH3 0x3F08 DUP4 PUSH3 0xFFFFFF AND PUSH3 0x3C85 JUMP JUMPDEST PUSH3 0x3F2A JUMP JUMPDEST PUSH3 0x3F29 DUP4 PUSH3 0x3F1E SWAP1 PUSH3 0x5D00 JUMP JUMPDEST PUSH3 0xFFFFFF AND PUSH3 0x3C85 JUMP JUMPDEST JUMPDEST PUSH1 0x40 MLOAD PUSH1 0x20 ADD PUSH3 0x3F3D SWAP3 SWAP2 SWAP1 PUSH3 0x68CE JUMP JUMPDEST PUSH1 0x40 MLOAD PUSH1 0x20 DUP2 DUP4 SUB SUB DUP2 MSTORE SWAP1 PUSH1 0x40 MSTORE SWAP1 POP SWAP2 SWAP1 POP JUMP JUMPDEST PUSH1 0x0 DUP1 PUSH1 0x0 DUP1 NOT DUP6 DUP8 MULMOD DUP6 DUP8 MUL SWAP3 POP DUP3 DUP2 LT DUP4 DUP3 SUB SUB SWAP2 POP POP PUSH1 0x0 DUP2 SUB PUSH3 0x3F93 JUMPI DUP4 DUP3 DUP2 PUSH3 0x3F88 JUMPI PUSH3 0x3F87 PUSH3 0x5E0A JUMP JUMPDEST JUMPDEST DIV SWAP3 POP POP POP PUSH3 0x4069 JUMP JUMPDEST DUP4 DUP2 LT PUSH3 0x3FDC JUMPI DUP1 DUP5 PUSH1 0x40 MLOAD PUSH32 0x773CC18C00000000000000000000000000000000000000000000000000000000 DUP2 MSTORE PUSH1 0x4 ADD PUSH3 0x3FD3 SWAP3 SWAP2 SWAP1 PUSH3 0x44D2 JUMP JUMPDEST PUSH1 0x40 MLOAD DUP1 SWAP2 SUB SWAP1 REVERT JUMPDEST PUSH1 0x0 DUP5 DUP7 DUP9 MULMOD SWAP1 POP DUP3 DUP2 GT DUP3 SUB SWAP2 POP DUP1 DUP4 SUB SWAP3 POP PUSH1 0x0 PUSH1 0x1 DUP7 NOT ADD DUP7 AND SWAP1 POP DUP1 DUP7 DIV SWAP6 POP DUP1 DUP5 DIV SWAP4 POP PUSH1 0x1 DUP2 DUP3 PUSH1 0x0 SUB DIV ADD SWAP1 POP DUP1 DUP4 MUL DUP5 OR SWAP4 POP PUSH1 0x0 PUSH1 0x2 DUP8 PUSH1 0x3 MUL XOR SWAP1 POP DUP1 DUP8 MUL PUSH1 0x2 SUB DUP2 MUL SWAP1 POP DUP1 DUP8 MUL PUSH1 0x2 SUB DUP2 MUL SWAP1 POP DUP1 DUP8 MUL PUSH1 0x2 SUB DUP2 MUL SWAP1 POP DUP1 DUP8 MUL PUSH1 0x2 SUB DUP2 MUL SWAP1 POP DUP1 DUP8 MUL PUSH1 0x2 SUB DUP2 MUL SWAP1 POP DUP1 DUP8 MUL PUSH1 0x2 SUB DUP2 MUL SWAP1 POP DUP1 DUP6 MUL SWAP6 POP POP POP POP POP POP JUMPDEST SWAP4 SWAP3 POP POP POP JUMP JUMPDEST PUSH2 0x6DF1 DUP1 PUSH3 0x68F7 DUP4 CODECOPY ADD SWAP1 JUMP JUMPDEST PUSH1 0x0 PUSH1 0x40 MLOAD SWAP1 POP SWAP1 JUMP JUMPDEST PUSH1 0x0 DUP1 REVERT JUMPDEST PUSH1 0x0 DUP1 REVERT JUMPDEST PUSH1 0x0 PUSH32 0xFFFFFFFF00000000000000000000000000000000000000000000000000000000 DUP3 AND SWAP1 POP SWAP2 SWAP1 POP JUMP JUMPDEST PUSH3 0x40C9 DUP2 PUSH3 0x4092 JUMP JUMPDEST DUP2 EQ PUSH3 0x40D5 JUMPI PUSH1 0x0 DUP1 REVERT JUMPDEST POP JUMP JUMPDEST PUSH1 0x0 DUP2 CALLDATALOAD SWAP1 POP PUSH3 0x40E9 DUP2 PUSH3 0x40BE JUMP JUMPDEST SWAP3 SWAP2 POP POP JUMP JUMPDEST PUSH1 0x0 PUSH1 0x20 DUP3 DUP5 SUB SLT ISZERO PUSH3 0x4108 JUMPI PUSH3 0x4107 PUSH3 0x4088 JUMP JUMPDEST JUMPDEST PUSH1 0x0 PUSH3 0x4118 DUP5 DUP3 DUP6 ADD PUSH3 0x40D8 JUMP JUMPDEST SWAP2 POP POP SWAP3 SWAP2 POP POP JUMP JUMPDEST PUSH1 0x0 DUP2 ISZERO ISZERO SWAP1 POP SWAP2 SWAP1 POP JUMP JUMPDEST PUSH3 0x4138 DUP2 PUSH3 0x4121 JUMP JUMPDEST DUP3 MSTORE POP POP JUMP JUMPDEST PUSH1 0x0 PUSH1 0x20 DUP3 ADD SWAP1 POP PUSH3 0x4155 PUSH1 0x0 DUP4 ADD DUP5 PUSH3 0x412D JUMP JUMPDEST SWAP3 SWAP2 POP POP JUMP JUMPDEST PUSH1 0x0 DUP2 MLOAD SWAP1 POP SWAP2 SWAP1 POP JUMP JUMPDEST PUSH1 0x0 DUP3 DUP3 MSTORE PUSH1 0x20 DUP3 ADD SWAP1 POP SWAP3 SWAP2 POP POP JUMP JUMPDEST PUSH1 0x0 JUMPDEST DUP4 DUP2 LT ISZERO PUSH3 0x4197 JUMPI DUP1 DUP3 ADD MLOAD DUP2 DUP5 ADD MSTORE PUSH1 0x20 DUP2 ADD SWAP1 POP PUSH3 0x417A JUMP JUMPDEST PUSH1 0x0 DUP5 DUP5 ADD MSTORE POP POP POP POP JUMP JUMPDEST PUSH1 0x0 PUSH1 0x1F NOT PUSH1 0x1F DUP4 ADD AND SWAP1 POP SWAP2 SWAP1 POP JUMP JUMPDEST PUSH1 0x0 PUSH3 0x41C1 DUP3 PUSH3 0x415B JUMP JUMPDEST PUSH3 0x41CD DUP2 DUP6 PUSH3 0x4166 JUMP JUMPDEST SWAP4 POP PUSH3 0x41DF DUP2 DUP6 PUSH1 0x20 DUP7 ADD PUSH3 0x4177 JUMP JUMPDEST PUSH3 0x41EA DUP2 PUSH3 0x41A3 JUMP JUMPDEST DUP5 ADD SWAP2 POP POP SWAP3 SWAP2 POP POP JUMP JUMPDEST PUSH1 0x0 PUSH1 0x20 DUP3 ADD SWAP1 POP DUP2 DUP2 SUB PUSH1 0x0 DUP4 ADD MSTORE PUSH3 0x4211 DUP2 DUP5 PUSH3 0x41B4 JUMP JUMPDEST SWAP1 POP SWAP3 SWAP2 POP POP JUMP JUMPDEST PUSH1 0x0 DUP2 SWAP1 POP SWAP2 SWAP1 POP JUMP JUMPDEST PUSH3 0x422E DUP2 PUSH3 0x4219 JUMP JUMPDEST DUP2 EQ PUSH3 0x423A JUMPI PUSH1 0x0 DUP1 REVERT JUMPDEST POP JUMP JUMPDEST PUSH1 0x0 DUP2 CALLDATALOAD SWAP1 POP PUSH3 0x424E DUP2 PUSH3 0x4223 JUMP JUMPDEST SWAP3 SWAP2 POP POP JUMP JUMPDEST PUSH1 0x0 PUSH1 0x20 DUP3 DUP5 SUB SLT ISZERO PUSH3 0x426D JUMPI PUSH3 0x426C PUSH3 0x4088 JUMP JUMPDEST JUMPDEST PUSH1 0x0 PUSH3 0x427D DUP5 DUP3 DUP6 ADD PUSH3 0x423D JUMP JUMPDEST SWAP2 POP POP SWAP3 SWAP2 POP POP JUMP JUMPDEST PUSH1 0x0 PUSH20 0xFFFFFFFFFFFFFFFFFFFFFFFFFFFFFFFFFFFFFFFF DUP3 AND SWAP1 POP SWAP2 SWAP1 POP JUMP JUMPDEST PUSH1 0x0 PUSH3 0x42B3 DUP3 PUSH3 0x4286 JUMP JUMPDEST SWAP1 POP SWAP2 SWAP1 POP JUMP JUMPDEST PUSH3 0x42C5 DUP2 PUSH3 0x42A6 JUMP JUMPDEST DUP3 MSTORE POP POP JUMP JUMPDEST PUSH1 0x0 PUSH1 0x20 DUP3 ADD SWAP1 POP PUSH3 0x42E2 PUSH1 0x0 DUP4 ADD DUP5 PUSH3 0x42BA JUMP JUMPDEST SWAP3 SWAP2 POP POP JUMP JUMPDEST PUSH3 0x42F3 DUP2 PUSH3 0x42A6 JUMP JUMPDEST DUP2 EQ PUSH3 0x42FF JUMPI PUSH1 0x0 DUP1 REVERT JUMPDEST POP JUMP JUMPDEST PUSH1 0x0 DUP2 CALLDATALOAD SWAP1 POP PUSH3 0x4313 DUP2 PUSH3 0x42E8 JUMP JUMPDEST SWAP3 SWAP2 POP POP JUMP JUMPDEST PUSH1 0x0 DUP1 PUSH1 0x40 DUP4 DUP6 SUB SLT ISZERO PUSH3 0x4333 JUMPI PUSH3 0x4332 PUSH3 0x4088 JUMP JUMPDEST JUMPDEST PUSH1 0x0 PUSH3 0x4343 DUP6 DUP3 DUP7 ADD PUSH3 0x4302 JUMP JUMPDEST SWAP3 POP POP PUSH1 0x20 PUSH3 0x4356 DUP6 DUP3 DUP7 ADD PUSH3 0x423D JUMP JUMPDEST SWAP2 POP POP SWAP3 POP SWAP3 SWAP1 POP JUMP JUMPDEST PUSH1 0x0 DUP1 REVERT JUMPDEST PUSH32 0x4E487B7100000000000000000000000000000000000000000000000000000000 PUSH1 0x0 MSTORE PUSH1 0x41 PUSH1 0x4 MSTORE PUSH1 0x24 PUSH1 0x0 REVERT JUMPDEST PUSH3 0x439F DUP3 PUSH3 0x41A3 JUMP JUMPDEST DUP2 ADD DUP2 DUP2 LT PUSH8 0xFFFFFFFFFFFFFFFF DUP3 GT OR ISZERO PUSH3 0x43C1 JUMPI PUSH3 0x43C0 PUSH3 0x4365 JUMP JUMPDEST JUMPDEST DUP1 PUSH1 0x40 MSTORE POP POP POP JUMP JUMPDEST PUSH1 0x0 PUSH3 0x43D6 PUSH3 0x407E JUMP JUMPDEST SWAP1 POP PUSH3 0x43E4 DUP3 DUP3 PUSH3 0x4394 JUMP JUMPDEST SWAP2 SWAP1 POP JUMP JUMPDEST PUSH1 0x0 PUSH16 0xFFFFFFFFFFFFFFFFFFFFFFFFFFFFFFFF DUP3 AND SWAP1 POP SWAP2 SWAP1 POP JUMP JUMPDEST PUSH3 0x4410 DUP2 PUSH3 0x43E9 JUMP JUMPDEST DUP2 EQ PUSH3 0x441C JUMPI PUSH1 0x0 DUP1 REVERT JUMPDEST POP JUMP JUMPDEST PUSH1 0x0 DUP2 CALLDATALOAD SWAP1 POP PUSH3 0x4430 DUP2 PUSH3 0x4405 JUMP JUMPDEST SWAP3 SWAP2 POP POP JUMP JUMPDEST PUSH1 0x0 PUSH1 0x40 DUP3 DUP5 SUB SLT ISZERO PUSH3 0x444F JUMPI PUSH3 0x444E PUSH3 0x4360 JUMP JUMPDEST JUMPDEST PUSH3 0x445B PUSH1 0x40 PUSH3 0x43CA JUMP JUMPDEST SWAP1 POP PUSH1 0x0 PUSH3 0x446D DUP5 DUP3 DUP6 ADD PUSH3 0x423D JUMP JUMPDEST PUSH1 0x0 DUP4 ADD MSTORE POP PUSH1 0x20 PUSH3 0x4483 DUP5 DUP3 DUP6 ADD PUSH3 0x441F JUMP JUMPDEST PUSH1 0x20 DUP4 ADD MSTORE POP SWAP3 SWAP2 POP POP JUMP JUMPDEST PUSH1 0x0 PUSH1 0x40 DUP3 DUP5 SUB SLT ISZERO PUSH3 0x44A8 JUMPI PUSH3 0x44A7 PUSH3 0x4088 JUMP JUMPDEST JUMPDEST PUSH1 0x0 PUSH3 0x44B8 DUP5 DUP3 DUP6 ADD PUSH3 0x4436 JUMP JUMPDEST SWAP2 POP POP SWAP3 SWAP2 POP POP JUMP JUMPDEST PUSH3 0x44CC DUP2 PUSH3 0x4219 JUMP JUMPDEST DUP3 MSTORE POP POP JUMP JUMPDEST PUSH1 0x0 PUSH1 0x40 DUP3 ADD SWAP1 POP PUSH3 0x44E9 PUSH1 0x0 DUP4 ADD DUP6 PUSH3 0x44C1 JUMP JUMPDEST PUSH3 0x44F8 PUSH1 0x20 DUP4 ADD DUP5 PUSH3 0x44C1 JUMP JUMPDEST SWAP4 SWAP3 POP POP POP JUMP JUMPDEST PUSH1 0x0 PUSH1 0x20 DUP3 ADD SWAP1 POP PUSH3 0x4516 PUSH1 0x0 DUP4 ADD DUP5 PUSH3 0x44C1 JUMP JUMPDEST SWAP3 SWAP2 POP POP JUMP JUMPDEST PUSH1 0x0 DUP1 PUSH1 0x0 PUSH1 0x60 DUP5 DUP7 SUB SLT ISZERO PUSH3 0x4538 JUMPI PUSH3 0x4537 PUSH3 0x4088 JUMP JUMPDEST JUMPDEST PUSH1 0x0 PUSH3 0x4548 DUP7 DUP3 DUP8 ADD PUSH3 0x4302 JUMP JUMPDEST SWAP4 POP POP PUSH1 0x20 PUSH3 0x455B DUP7 DUP3 DUP8 ADD PUSH3 0x4302 JUMP JUMPDEST SWAP3 POP POP PUSH1 0x40 PUSH3 0x456E DUP7 DUP3 DUP8 ADD PUSH3 0x423D JUMP JUMPDEST SWAP2 POP POP SWAP3 POP SWAP3 POP SWAP3 JUMP JUMPDEST PUSH1 0x0 DUP1 REVERT JUMPDEST PUSH1 0x0 PUSH1 0xA0 DUP3 DUP5 SUB SLT ISZERO PUSH3 0x4596 JUMPI PUSH3 0x4595 PUSH3 0x4578 JUMP JUMPDEST JUMPDEST DUP2 SWAP1 POP SWAP3 SWAP2 POP POP JUMP JUMPDEST PUSH1 0x0 PUSH1 0xA0 DUP3 DUP5 SUB SLT ISZERO PUSH3 0x45B8 JUMPI PUSH3 0x45B7 PUSH3 0x4088 JUMP JUMPDEST JUMPDEST PUSH1 0x0 PUSH3 0x45C8 DUP5 DUP3 DUP6 ADD PUSH3 0x457D JUMP JUMPDEST SWAP2 POP POP SWAP3 SWAP2 POP POP JUMP JUMPDEST PUSH3 0x45DC DUP2 PUSH3 0x43E9 JUMP JUMPDEST DUP3 MSTORE POP POP JUMP JUMPDEST PUSH1 0x0 PUSH1 0x60 DUP3 ADD SWAP1 POP PUSH3 0x45F9 PUSH1 0x0 DUP4 ADD DUP7 PUSH3 0x45D1 JUMP JUMPDEST PUSH3 0x4608 PUSH1 0x20 DUP4 ADD DUP6 PUSH3 0x44C1 JUMP JUMPDEST PUSH3 0x4617 PUSH1 0x40 DUP4 ADD DUP5 PUSH3 0x44C1 JUMP JUMPDEST SWAP5 SWAP4 POP POP POP POP JUMP JUMPDEST PUSH1 0x0 PUSH1 0x60 DUP3 DUP5 SUB SLT ISZERO PUSH3 0x4638 JUMPI PUSH3 0x4637 PUSH3 0x4360 JUMP JUMPDEST JUMPDEST PUSH3 0x4644 PUSH1 0x60 PUSH3 0x43CA JUMP JUMPDEST SWAP1 POP PUSH1 0x0 PUSH3 0x4656 DUP5 DUP3 DUP6 ADD PUSH3 0x423D JUMP JUMPDEST PUSH1 0x0 DUP4 ADD MSTORE POP PUSH1 0x20 PUSH3 0x466C DUP5 DUP3 DUP6 ADD PUSH3 0x441F JUMP JUMPDEST PUSH1 0x20 DUP4 ADD MSTORE POP PUSH1 0x40 PUSH3 0x4682 DUP5 DUP3 DUP6 ADD PUSH3 0x441F JUMP JUMPDEST PUSH1 0x40 DUP4 ADD MSTORE POP SWAP3 SWAP2 POP POP JUMP JUMPDEST PUSH1 0x0 PUSH1 0x60 DUP3 DUP5 SUB SLT ISZERO PUSH3 0x46A7 JUMPI PUSH3 0x46A6 PUSH3 0x4088 JUMP JUMPDEST JUMPDEST PUSH1 0x0 PUSH3 0x46B7 DUP5 DUP3 DUP6 ADD PUSH3 0x461F JUMP JUMPDEST SWAP2 POP POP SWAP3 SWAP2 POP POP JUMP JUMPDEST PUSH1 0x0 PUSH1 0x40 DUP3 ADD SWAP1 POP PUSH3 0x46D7 PUSH1 0x0 DUP4 ADD DUP6 PUSH3 0x45D1 JUMP JUMPDEST PUSH3 0x46E6 PUSH1 0x20 DUP4 ADD DUP5 PUSH3 0x45D1 JUMP JUMPDEST SWAP4 SWAP3 POP POP POP JUMP JUMPDEST PUSH1 0x0 PUSH1 0x20 DUP3 DUP5 SUB SLT ISZERO PUSH3 0x4706 JUMPI PUSH3 0x4705 PUSH3 0x4088 JUMP JUMPDEST JUMPDEST PUSH1 0x0 PUSH3 0x4716 DUP5 DUP3 DUP6 ADD PUSH3 0x4302 JUMP JUMPDEST SWAP2 POP POP SWAP3 SWAP2 POP POP JUMP JUMPDEST PUSH1 0x0 DUP2 PUSH1 0x2 SIGNEXTEND SWAP1 POP SWAP2 SWAP1 POP JUMP JUMPDEST PUSH3 0x4737 DUP2 PUSH3 0x471F JUMP JUMPDEST DUP3 MSTORE POP POP JUMP JUMPDEST PUSH1 0x0 PUSH1 0x60 DUP3 ADD SWAP1 POP PUSH3 0x4754 PUSH1 0x0 DUP4 ADD DUP7 PUSH3 0x42BA JUMP JUMPDEST PUSH3 0x4763 PUSH1 0x20 DUP4 ADD DUP6 PUSH3 0x472C JUMP JUMPDEST PUSH3 0x4772 PUSH1 0x40 DUP4 ADD DUP5 PUSH3 0x472C JUMP JUMPDEST SWAP5 SWAP4 POP POP POP POP JUMP JUMPDEST PUSH3 0x4785 DUP2 PUSH3 0x4121 JUMP JUMPDEST DUP2 EQ PUSH3 0x4791 JUMPI PUSH1 0x0 DUP1 REVERT JUMPDEST POP JUMP JUMPDEST PUSH1 0x0 DUP2 CALLDATALOAD SWAP1 POP PUSH3 0x47A5 DUP2 PUSH3 0x477A JUMP JUMPDEST SWAP3 SWAP2 POP POP JUMP JUMPDEST PUSH1 0x0 DUP1 PUSH1 0x40 DUP4 DUP6 SUB SLT ISZERO PUSH3 0x47C5 JUMPI PUSH3 0x47C4 PUSH3 0x4088 JUMP JUMPDEST JUMPDEST PUSH1 0x0 PUSH3 0x47D5 DUP6 DUP3 DUP7 ADD PUSH3 0x4302 JUMP JUMPDEST SWAP3 POP POP PUSH1 0x20 PUSH3 0x47E8 DUP6 DUP3 DUP7 ADD PUSH3 0x4794 JUMP JUMPDEST SWAP2 POP POP SWAP3 POP SWAP3 SWAP1 POP JUMP JUMPDEST PUSH1 0x0 DUP1 REVERT JUMPDEST PUSH1 0x0 DUP1 REVERT JUMPDEST PUSH1 0x0 DUP1 REVERT JUMPDEST PUSH1 0x0 DUP1 DUP4 PUSH1 0x1F DUP5 ADD SLT PUSH3 0x481A JUMPI PUSH3 0x4819 PUSH3 0x47F2 JUMP JUMPDEST JUMPDEST DUP3 CALLDATALOAD SWAP1 POP PUSH8 0xFFFFFFFFFFFFFFFF DUP2 GT ISZERO PUSH3 0x483A JUMPI PUSH3 0x4839 PUSH3 0x47F7 JUMP JUMPDEST JUMPDEST PUSH1 0x20 DUP4 ADD SWAP2 POP DUP4 PUSH1 0x1 DUP3 MUL DUP4 ADD GT ISZERO PUSH3 0x4859 JUMPI PUSH3 0x4858 PUSH3 0x47FC JUMP JUMPDEST JUMPDEST SWAP3 POP SWAP3 SWAP1 POP JUMP JUMPDEST PUSH1 0x0 DUP1 PUSH1 0x0 DUP1 PUSH1 0x0 PUSH1 0x80 DUP7 DUP9 SUB SLT ISZERO PUSH3 0x487F JUMPI PUSH3 0x487E PUSH3 0x4088 JUMP JUMPDEST JUMPDEST PUSH1 0x0 PUSH3 0x488F DUP9 DUP3 DUP10 ADD PUSH3 0x4302 JUMP JUMPDEST SWAP6 POP POP PUSH1 0x20 PUSH3 0x48A2 DUP9 DUP3 DUP10 ADD PUSH3 0x4302 JUMP JUMPDEST SWAP5 POP POP PUSH1 0x40 PUSH3 0x48B5 DUP9 DUP3 DUP10 ADD PUSH3 0x423D JUMP JUMPDEST SWAP4 POP POP PUSH1 0x60 DUP7 ADD CALLDATALOAD PUSH8 0xFFFFFFFFFFFFFFFF DUP2 GT ISZERO PUSH3 0x48D9 JUMPI PUSH3 0x48D8 PUSH3 0x408D JUMP JUMPDEST JUMPDEST PUSH3 0x48E7 DUP9 DUP3 DUP10 ADD PUSH3 0x4801 JUMP JUMPDEST SWAP3 POP SWAP3 POP POP SWAP3 SWAP6 POP SWAP3 SWAP6 SWAP1 SWAP4 POP JUMP JUMPDEST PUSH1 0x0 DUP1 PUSH1 0x0 DUP1 PUSH1 0x60 DUP6 DUP8 SUB SLT ISZERO PUSH3 0x4913 JUMPI PUSH3 0x4912 PUSH3 0x4088 JUMP JUMPDEST JUMPDEST PUSH1 0x0 PUSH3 0x4923 DUP8 DUP3 DUP9 ADD PUSH3 0x423D JUMP JUMPDEST SWAP5 POP POP PUSH1 0x20 PUSH3 0x4936 DUP8 DUP3 DUP9 ADD PUSH3 0x423D JUMP JUMPDEST SWAP4 POP POP PUSH1 0x40 DUP6 ADD CALLDATALOAD PUSH8 0xFFFFFFFFFFFFFFFF DUP2 GT ISZERO PUSH3 0x495A JUMPI PUSH3 0x4959 PUSH3 0x408D JUMP JUMPDEST JUMPDEST PUSH3 0x4968 DUP8 DUP3 DUP9 ADD PUSH3 0x4801 JUMP JUMPDEST SWAP3 POP SWAP3 POP POP SWAP3 SWAP6 SWAP2 SWAP5 POP SWAP3 POP JUMP JUMPDEST PUSH1 0x0 PUSH2 0x140 DUP3 DUP5 SUB SLT ISZERO PUSH3 0x4990 JUMPI PUSH3 0x498F PUSH3 0x4578 JUMP JUMPDEST JUMPDEST DUP2 SWAP1 POP SWAP3 SWAP2 POP POP JUMP JUMPDEST PUSH1 0x0 PUSH2 0x140 DUP3 DUP5 SUB SLT ISZERO PUSH3 0x49B3 JUMPI PUSH3 0x49B2 PUSH3 0x4088 JUMP JUMPDEST JUMPDEST PUSH1 0x0 PUSH3 0x49C3 DUP5 DUP3 DUP6 ADD PUSH3 0x4976 JUMP JUMPDEST SWAP2 POP POP SWAP3 SWAP2 POP POP JUMP JUMPDEST PUSH1 0x0 DUP1 PUSH1 0x40 DUP4 DUP6 SUB SLT ISZERO PUSH3 0x49E6 JUMPI PUSH3 0x49E5 PUSH3 0x4088 JUMP JUMPDEST JUMPDEST PUSH1 0x0 PUSH3 0x49F6 DUP6 DUP3 DUP7 ADD PUSH3 0x4302 JUMP JUMPDEST SWAP3 POP POP PUSH1 0x20 PUSH3 0x4A09 DUP6 DUP3 DUP7 ADD PUSH3 0x4302 JUMP JUMPDEST SWAP2 POP POP SWAP3 POP SWAP3 SWAP1 POP JUMP JUMPDEST PUSH32 0x4E487B7100000000000000000000000000000000000000000000000000000000 PUSH1 0x0 MSTORE PUSH1 0x22 PUSH1 0x4 MSTORE PUSH1 0x24 PUSH1 0x0 REVERT JUMPDEST PUSH1 0x0 PUSH1 0x2 DUP3 DIV SWAP1 POP PUSH1 0x1 DUP3 AND DUP1 PUSH3 0x4A5B JUMPI PUSH1 0x7F DUP3 AND SWAP2 POP JUMPDEST PUSH1 0x20 DUP3 LT DUP2 SUB PUSH3 0x4A71 JUMPI PUSH3 0x4A70 PUSH3 0x4A13 JUMP JUMPDEST JUMPDEST POP SWAP2 SWAP1 POP JUMP JUMPDEST PUSH32 0x4E4F545F415554484F52495A4544000000000000000000000000000000000000 PUSH1 0x0 DUP3 ADD MSTORE POP JUMP JUMPDEST PUSH1 0x0 PUSH3 0x4AAF PUSH1 0xE DUP4 PUSH3 0x4166 JUMP JUMPDEST SWAP2 POP PUSH3 0x4ABC DUP3 PUSH3 0x4A77 JUMP JUMPDEST PUSH1 0x20 DUP3 ADD SWAP1 POP SWAP2 SWAP1 POP JUMP JUMPDEST PUSH1 0x0 PUSH1 0x20 DUP3 ADD SWAP1 POP DUP2 DUP2 SUB PUSH1 0x0 DUP4 ADD MSTORE PUSH3 0x4AE2 DUP2 PUSH3 0x4AA0 JUMP JUMPDEST SWAP1 POP SWAP2 SWAP1 POP JUMP JUMPDEST PUSH1 0x0 DUP2 SWAP1 POP SWAP2 SWAP1 POP JUMP JUMPDEST PUSH3 0x4AFE DUP2 PUSH3 0x4AE9 JUMP JUMPDEST DUP3 MSTORE POP POP JUMP JUMPDEST PUSH1 0x0 PUSH1 0x20 DUP3 ADD SWAP1 POP PUSH3 0x4B1B PUSH1 0x0 DUP4 ADD DUP5 PUSH3 0x4AF3 JUMP JUMPDEST SWAP3 SWAP2 POP POP JUMP JUMPDEST PUSH1 0x0 DUP2 MLOAD SWAP1 POP PUSH3 0x4B32 DUP2 PUSH3 0x4405 JUMP JUMPDEST SWAP3 SWAP2 POP POP JUMP JUMPDEST PUSH1 0x0 DUP2 MLOAD SWAP1 POP PUSH3 0x4B49 DUP2 PUSH3 0x4223 JUMP JUMPDEST SWAP3 SWAP2 POP POP JUMP JUMPDEST PUSH1 0x0 DUP1 PUSH1 0x0 DUP1 PUSH1 0x0 PUSH1 0xA0 DUP7 DUP9 SUB SLT ISZERO PUSH3 0x4B6E JUMPI PUSH3 0x4B6D PUSH3 0x4088 JUMP JUMPDEST JUMPDEST PUSH1 0x0 PUSH3 0x4B7E DUP9 DUP3 DUP10 ADD PUSH3 0x4B21 JUMP JUMPDEST SWAP6 POP POP PUSH1 0x20 PUSH3 0x4B91 DUP9 DUP3 DUP10 ADD PUSH3 0x4B38 JUMP JUMPDEST SWAP5 POP POP PUSH1 0x40 PUSH3 0x4BA4 DUP9 DUP3 DUP10 ADD PUSH3 0x4B38 JUMP JUMPDEST SWAP4 POP POP PUSH1 0x60 PUSH3 0x4BB7 DUP9 DUP3 DUP10 ADD PUSH3 0x4B21 JUMP JUMPDEST SWAP3 POP POP PUSH1 0x80 PUSH3 0x4BCA DUP9 DUP3 DUP10 ADD PUSH3 0x4B21 JUMP JUMPDEST SWAP2 POP POP SWAP3 SWAP6 POP SWAP3 SWAP6 SWAP1 SWAP4 POP JUMP JUMPDEST PUSH1 0x0 PUSH1 0x60 DUP3 ADD SWAP1 POP PUSH3 0x4BEE PUSH1 0x0 DUP4 ADD DUP7 PUSH3 0x472C JUMP JUMPDEST PUSH3 0x4BFD PUSH1 0x20 DUP4 ADD DUP6 PUSH3 0x472C JUMP JUMPDEST PUSH3 0x4C0C PUSH1 0x40 DUP4 ADD DUP5 PUSH3 0x45D1 JUMP JUMPDEST SWAP5 SWAP4 POP POP POP POP JUMP JUMPDEST PUSH1 0x0 DUP1 PUSH1 0x40 DUP4 DUP6 SUB SLT ISZERO PUSH3 0x4C2E JUMPI PUSH3 0x4C2D PUSH3 0x4088 JUMP JUMPDEST JUMPDEST PUSH1 0x0 PUSH3 0x4C3E DUP6 DUP3 DUP7 ADD PUSH3 0x4B38 JUMP JUMPDEST SWAP3 POP POP PUSH1 0x20 PUSH3 0x4C51 DUP6 DUP3 DUP7 ADD PUSH3 0x4B38 JUMP JUMPDEST SWAP2 POP POP SWAP3 POP SWAP3 SWAP1 POP JUMP JUMPDEST PUSH32 0x57524F4E475F46524F4D00000000000000000000000000000000000000000000 PUSH1 0x0 DUP3 ADD MSTORE POP JUMP JUMPDEST PUSH1 0x0 PUSH3 0x4C93 PUSH1 0xA DUP4 PUSH3 0x4166 JUMP JUMPDEST SWAP2 POP PUSH3 0x4CA0 DUP3 PUSH3 0x4C5B JUMP JUMPDEST PUSH1 0x20 DUP3 ADD SWAP1 POP SWAP2 SWAP1 POP JUMP JUMPDEST PUSH1 0x0 PUSH1 0x20 DUP3 ADD SWAP1 POP DUP2 DUP2 SUB PUSH1 0x0 DUP4 ADD MSTORE PUSH3 0x4CC6 DUP2 PUSH3 0x4C84 JUMP JUMPDEST SWAP1 POP SWAP2 SWAP1 POP JUMP JUMPDEST PUSH32 0x494E56414C49445F524543495049454E54000000000000000000000000000000 PUSH1 0x0 DUP3 ADD MSTORE POP JUMP JUMPDEST PUSH1 0x0 PUSH3 0x4D05 PUSH1 0x11 DUP4 PUSH3 0x4166 JUMP JUMPDEST SWAP2 POP PUSH3 0x4D12 DUP3 PUSH3 0x4CCD JUMP JUMPDEST PUSH1 0x20 DUP3 ADD SWAP1 POP SWAP2 SWAP1 POP JUMP JUMPDEST PUSH1 0x0 PUSH1 0x20 DUP3 ADD SWAP1 POP DUP2 DUP2 SUB PUSH1 0x0 DUP4 ADD MSTORE PUSH3 0x4D38 DUP2 PUSH3 0x4CF6 JUMP JUMPDEST SWAP1 POP SWAP2 SWAP1 POP JUMP JUMPDEST PUSH1 0x0 DUP3 DUP3 MSTORE PUSH1 0x20 DUP3 ADD SWAP1 POP SWAP3 SWAP2 POP POP JUMP JUMPDEST POP JUMP JUMPDEST PUSH1 0x0 PUSH3 0x4D62 PUSH1 0x0 DUP4 PUSH3 0x4D3F JUMP JUMPDEST SWAP2 POP PUSH3 0x4D6F DUP3 PUSH3 0x4D50 JUMP JUMPDEST PUSH1 0x0 DUP3 ADD SWAP1 POP SWAP2 SWAP1 POP JUMP JUMPDEST PUSH1 0x0 PUSH1 0x80 DUP3 ADD SWAP1 POP PUSH3 0x4D91 PUSH1 0x0 DUP4 ADD DUP7 PUSH3 0x42BA JUMP JUMPDEST PUSH3 0x4DA0 PUSH1 0x20 DUP4 ADD DUP6 PUSH3 0x42BA JUMP JUMPDEST PUSH3 0x4DAF PUSH1 0x40 DUP4 ADD DUP5 PUSH3 0x44C1 JUMP JUMPDEST DUP2 DUP2 SUB PUSH1 0x60 DUP4 ADD MSTORE PUSH3 0x4DC2 DUP2 PUSH3 0x4D53 JUMP JUMPDEST SWAP1 POP SWAP5 SWAP4 POP POP POP POP JUMP JUMPDEST PUSH1 0x0 DUP2 MLOAD SWAP1 POP PUSH3 0x4DDD DUP2 PUSH3 0x40BE JUMP JUMPDEST SWAP3 SWAP2 POP POP JUMP JUMPDEST PUSH1 0x0 PUSH1 0x20 DUP3 DUP5 SUB SLT ISZERO PUSH3 0x4DFC JUMPI PUSH3 0x4DFB PUSH3 0x4088 JUMP JUMPDEST JUMPDEST PUSH1 0x0 PUSH3 0x4E0C DUP5 DUP3 DUP6 ADD PUSH3 0x4DCC JUMP JUMPDEST SWAP2 POP POP SWAP3 SWAP2 POP POP JUMP JUMPDEST PUSH32 0x554E534146455F524543495049454E5400000000000000000000000000000000 PUSH1 0x0 DUP3 ADD MSTORE POP JUMP JUMPDEST PUSH1 0x0 PUSH3 0x4E4D PUSH1 0x10 DUP4 PUSH3 0x4166 JUMP JUMPDEST SWAP2 POP PUSH3 0x4E5A DUP3 PUSH3 0x4E15 JUMP JUMPDEST PUSH1 0x20 DUP3 ADD SWAP1 POP SWAP2 SWAP1 POP JUMP JUMPDEST PUSH1 0x0 PUSH1 0x20 DUP3 ADD SWAP1 POP DUP2 DUP2 SUB PUSH1 0x0 DUP4 ADD MSTORE PUSH3 0x4E80 DUP2 PUSH3 0x4E3E JUMP JUMPDEST SWAP1 POP SWAP2 SWAP1 POP JUMP JUMPDEST PUSH32 0x4E487B7100000000000000000000000000000000000000000000000000000000 PUSH1 0x0 MSTORE PUSH1 0x11 PUSH1 0x4 MSTORE PUSH1 0x24 PUSH1 0x0 REVERT JUMPDEST PUSH1 0x0 PUSH3 0x4EC3 DUP3 PUSH3 0x4219 JUMP JUMPDEST SWAP2 POP PUSH1 0x0 DUP3 SUB PUSH3 0x4ED9 JUMPI PUSH3 0x4ED8 PUSH3 0x4E87 JUMP JUMPDEST JUMPDEST PUSH1 0x1 DUP3 SUB SWAP1 POP SWAP2 SWAP1 POP JUMP JUMPDEST PUSH1 0x0 PUSH1 0xA0 DUP3 ADD SWAP1 POP PUSH3 0x4EFB PUSH1 0x0 DUP4 ADD DUP9 PUSH3 0x42BA JUMP JUMPDEST PUSH3 0x4F0A PUSH1 0x20 DUP4 ADD DUP8 PUSH3 0x472C JUMP JUMPDEST PUSH3 0x4F19 PUSH1 0x40 DUP4 ADD DUP7 PUSH3 0x472C JUMP JUMPDEST PUSH3 0x4F28 PUSH1 0x60 DUP4 ADD DUP6 PUSH3 0x45D1 JUMP JUMPDEST PUSH3 0x4F37 PUSH1 0x80 DUP4 ADD DUP5 PUSH3 0x45D1 JUMP JUMPDEST SWAP7 SWAP6 POP POP POP POP POP POP JUMP JUMPDEST PUSH1 0x0 DUP1 PUSH1 0x40 DUP4 DUP6 SUB SLT ISZERO PUSH3 0x4F5B JUMPI PUSH3 0x4F5A PUSH3 0x4088 JUMP JUMPDEST JUMPDEST PUSH1 0x0 PUSH3 0x4F6B DUP6 DUP3 DUP7 ADD PUSH3 0x4B21 JUMP JUMPDEST SWAP3 POP POP PUSH1 0x20 PUSH3 0x4F7E DUP6 DUP3 DUP7 ADD PUSH3 0x4B21 JUMP JUMPDEST SWAP2 POP POP SWAP3 POP SWAP3 SWAP1 POP JUMP JUMPDEST PUSH32 0x4E4F545F4D494E54454400000000000000000000000000000000000000000000 PUSH1 0x0 DUP3 ADD MSTORE POP JUMP JUMPDEST PUSH1 0x0 PUSH3 0x4FC0 PUSH1 0xA DUP4 PUSH3 0x4166 JUMP JUMPDEST SWAP2 POP PUSH3 0x4FCD DUP3 PUSH3 0x4F88 JUMP JUMPDEST PUSH1 0x20 DUP3 ADD SWAP1 POP SWAP2 SWAP1 POP JUMP JUMPDEST PUSH1 0x0 PUSH1 0x20 DUP3 ADD SWAP1 POP DUP2 DUP2 SUB PUSH1 0x0 DUP4 ADD MSTORE PUSH3 0x4FF3 DUP2 PUSH3 0x4FB1 JUMP JUMPDEST SWAP1 POP SWAP2 SWAP1 POP JUMP JUMPDEST PUSH32 0x5A45524F5F414444524553530000000000000000000000000000000000000000 PUSH1 0x0 DUP3 ADD MSTORE POP JUMP JUMPDEST PUSH1 0x0 PUSH3 0x5032 PUSH1 0xC DUP4 PUSH3 0x4166 JUMP JUMPDEST SWAP2 POP PUSH3 0x503F DUP3 PUSH3 0x4FFA JUMP JUMPDEST PUSH1 0x20 DUP3 ADD SWAP1 POP SWAP2 SWAP1 POP JUMP JUMPDEST PUSH1 0x0 PUSH1 0x20 DUP3 ADD SWAP1 POP DUP2 DUP2 SUB PUSH1 0x0 DUP4 ADD MSTORE PUSH3 0x5065 DUP2 PUSH3 0x5023 JUMP JUMPDEST SWAP1 POP SWAP2 SWAP1 POP JUMP JUMPDEST DUP3 DUP2 DUP4 CALLDATACOPY PUSH1 0x0 DUP4 DUP4 ADD MSTORE POP POP POP JUMP JUMPDEST PUSH1 0x0 PUSH3 0x5089 DUP4 DUP6 PUSH3 0x4D3F JUMP JUMPDEST SWAP4 POP PUSH3 0x5098 DUP4 DUP6 DUP5 PUSH3 0x506C JUMP JUMPDEST PUSH3 0x50A3 DUP4 PUSH3 0x41A3 JUMP JUMPDEST DUP5 ADD SWAP1 POP SWAP4 SWAP3 POP POP POP JUMP JUMPDEST PUSH1 0x0 PUSH1 0x80 DUP3 ADD SWAP1 POP PUSH3 0x50C5 PUSH1 0x0 DUP4 ADD DUP9 PUSH3 0x42BA JUMP JUMPDEST PUSH3 0x50D4 PUSH1 0x20 DUP4 ADD DUP8 PUSH3 0x42BA JUMP JUMPDEST PUSH3 0x50E3 PUSH1 0x40 DUP4 ADD DUP7 PUSH3 0x44C1 JUMP JUMPDEST DUP2 DUP2 SUB PUSH1 0x60 DUP4 ADD MSTORE PUSH3 0x50F8 DUP2 DUP5 DUP7 PUSH3 0x507B JUMP JUMPDEST SWAP1 POP SWAP7 SWAP6 POP POP POP POP POP POP JUMP JUMPDEST PUSH1 0x0 PUSH3 0xFFFFFF DUP3 AND SWAP1 POP SWAP2 SWAP1 POP JUMP JUMPDEST PUSH3 0x511E DUP2 PUSH3 0x5104 JUMP JUMPDEST DUP2 EQ PUSH3 0x512A JUMPI PUSH1 0x0 DUP1 REVERT JUMPDEST POP JUMP JUMPDEST PUSH1 0x0 DUP2 MLOAD SWAP1 POP PUSH3 0x513E DUP2 PUSH3 0x5113 JUMP JUMPDEST SWAP3 SWAP2 POP POP JUMP JUMPDEST PUSH1 0x0 PUSH1 0x20 DUP3 DUP5 SUB SLT ISZERO PUSH3 0x515D JUMPI PUSH3 0x515C PUSH3 0x4088 JUMP JUMPDEST JUMPDEST PUSH1 0x0 PUSH3 0x516D DUP5 DUP3 DUP6 ADD PUSH3 0x512D JUMP JUMPDEST SWAP2 POP POP SWAP3 SWAP2 POP POP JUMP JUMPDEST PUSH1 0x0 PUSH1 0x60 DUP3 DUP5 SUB SLT ISZERO PUSH3 0x518F JUMPI PUSH3 0x518E PUSH3 0x4360 JUMP JUMPDEST JUMPDEST PUSH3 0x519B PUSH1 0x60 PUSH3 0x43CA JUMP JUMPDEST SWAP1 POP PUSH1 0x0 PUSH3 0x51AD DUP5 DUP3 DUP6 ADD PUSH3 0x4302 JUMP JUMPDEST PUSH1 0x0 DUP4 ADD MSTORE POP PUSH1 0x20 PUSH3 0x51C3 DUP5 DUP3 DUP6 ADD PUSH3 0x4302 JUMP JUMPDEST PUSH1 0x20 DUP4 ADD MSTORE POP PUSH1 0x40 PUSH3 0x51D9 DUP5 DUP3 DUP6 ADD PUSH3 0x4302 JUMP JUMPDEST PUSH1 0x40 DUP4 ADD MSTORE POP SWAP3 SWAP2 POP POP JUMP JUMPDEST PUSH1 0x0 PUSH1 0x60 DUP3 DUP5 SUB SLT ISZERO PUSH3 0x51FE JUMPI PUSH3 0x51FD PUSH3 0x4088 JUMP JUMPDEST JUMPDEST PUSH1 0x0 PUSH3 0x520E DUP5 DUP3 DUP6 ADD PUSH3 0x5176 JUMP JUMPDEST SWAP2 POP POP SWAP3 SWAP2 POP POP JUMP JUMPDEST PUSH1 0x0 PUSH1 0x60 DUP3 ADD SWAP1 POP PUSH3 0x522E PUSH1 0x0 DUP4 ADD DUP7 PUSH3 0x42BA JUMP JUMPDEST PUSH3 0x523D PUSH1 0x20 DUP4 ADD DUP6 PUSH3 0x42BA JUMP JUMPDEST PUSH3 0x524C PUSH1 0x40 DUP4 ADD DUP5 PUSH3 0x44C1 JUMP JUMPDEST SWAP5 SWAP4 POP POP POP POP JUMP JUMPDEST PUSH1 0x0 DUP2 CALLDATALOAD SWAP1 POP PUSH3 0x5265 DUP2 PUSH3 0x5113 JUMP JUMPDEST SWAP3 SWAP2 POP POP JUMP JUMPDEST PUSH1 0x0 PUSH1 0x20 DUP3 DUP5 SUB SLT ISZERO PUSH3 0x5284 JUMPI PUSH3 0x5283 PUSH3 0x4088 JUMP JUMPDEST JUMPDEST PUSH1 0x0 PUSH3 0x5294 DUP5 DUP3 DUP6 ADD PUSH3 0x5254 JUMP JUMPDEST SWAP2 POP POP SWAP3 SWAP2 POP POP JUMP JUMPDEST PUSH3 0x52A8 DUP2 PUSH3 0x471F JUMP JUMPDEST DUP2 EQ PUSH3 0x52B4 JUMPI PUSH1 0x0 DUP1 REVERT JUMPDEST POP JUMP JUMPDEST PUSH1 0x0 DUP2 CALLDATALOAD SWAP1 POP PUSH3 0x52C8 DUP2 PUSH3 0x529D JUMP JUMPDEST SWAP3 SWAP2 POP POP JUMP JUMPDEST PUSH1 0x0 PUSH1 0x20 DUP3 DUP5 SUB SLT ISZERO PUSH3 0x52E7 JUMPI PUSH3 0x52E6 PUSH3 0x4088 JUMP JUMPDEST JUMPDEST PUSH1 0x0 PUSH3 0x52F7 DUP5 DUP3 DUP6 ADD PUSH3 0x52B7 JUMP JUMPDEST SWAP2 POP POP SWAP3 SWAP2 POP POP JUMP JUMPDEST PUSH1 0x0 PUSH3 0x530D DUP3 PUSH3 0x4219 JUMP JUMPDEST SWAP2 POP PUSH32 0xFFFFFFFFFFFFFFFFFFFFFFFFFFFFFFFFFFFFFFFFFFFFFFFFFFFFFFFFFFFFFFFF DUP3 SUB PUSH3 0x5342 JUMPI PUSH3 0x5341 PUSH3 0x4E87 JUMP JUMPDEST JUMPDEST PUSH1 0x1 DUP3 ADD SWAP1 POP SWAP2 SWAP1 POP JUMP JUMPDEST PUSH1 0x0 DUP2 PUSH1 0x60 SHL SWAP1 POP SWAP2 SWAP1 POP JUMP JUMPDEST PUSH1 0x0 PUSH3 0x5367 DUP3 PUSH3 0x534D JUMP JUMPDEST SWAP1 POP SWAP2 SWAP1 POP JUMP JUMPDEST PUSH1 0x0 PUSH3 0x537B DUP3 PUSH3 0x535A JUMP JUMPDEST SWAP1 POP SWAP2 SWAP1 POP JUMP JUMPDEST PUSH3 0x5397 PUSH3 0x5391 DUP3 PUSH3 0x42A6 JUMP JUMPDEST PUSH3 0x536E JUMP JUMPDEST DUP3 MSTORE POP POP JUMP JUMPDEST PUSH1 0x0 DUP2 PUSH1 0xE8 SHL SWAP1 POP SWAP2 SWAP1 POP JUMP JUMPDEST PUSH1 0x0 PUSH3 0x53B7 DUP3 PUSH3 0x539D JUMP JUMPDEST SWAP1 POP SWAP2 SWAP1 POP JUMP JUMPDEST PUSH3 0x53D3 PUSH3 0x53CD DUP3 PUSH3 0x471F JUMP JUMPDEST PUSH3 0x53AA JUMP JUMPDEST DUP3 MSTORE POP POP JUMP JUMPDEST PUSH1 0x0 PUSH3 0x53E7 DUP3 DUP7 PUSH3 0x5382 JUMP JUMPDEST PUSH1 0x14 DUP3 ADD SWAP2 POP PUSH3 0x53F9 DUP3 DUP6 PUSH3 0x53BE JUMP JUMPDEST PUSH1 0x3 DUP3 ADD SWAP2 POP PUSH3 0x540B DUP3 DUP5 PUSH3 0x53BE JUMP JUMPDEST PUSH1 0x3 DUP3 ADD SWAP2 POP DUP2 SWAP1 POP SWAP5 SWAP4 POP POP POP POP JUMP JUMPDEST PUSH3 0x5427 DUP2 PUSH3 0x4286 JUMP JUMPDEST DUP2 EQ PUSH3 0x5433 JUMPI PUSH1 0x0 DUP1 REVERT JUMPDEST POP JUMP JUMPDEST PUSH1 0x0 DUP2 MLOAD SWAP1 POP PUSH3 0x5447 DUP2 PUSH3 0x541C JUMP JUMPDEST SWAP3 SWAP2 POP POP JUMP JUMPDEST PUSH1 0x0 DUP2 MLOAD SWAP1 POP PUSH3 0x545E DUP2 PUSH3 0x529D JUMP JUMPDEST SWAP3 SWAP2 POP POP JUMP JUMPDEST PUSH1 0x0 PUSH2 0xFFFF DUP3 AND SWAP1 POP SWAP2 SWAP1 POP JUMP JUMPDEST PUSH3 0x547D DUP2 PUSH3 0x5464 JUMP JUMPDEST DUP2 EQ PUSH3 0x5489 JUMPI PUSH1 0x0 DUP1 REVERT JUMPDEST POP JUMP JUMPDEST PUSH1 0x0 DUP2 MLOAD SWAP1 POP PUSH3 0x549D DUP2 PUSH3 0x5472 JUMP JUMPDEST SWAP3 SWAP2 POP POP JUMP JUMPDEST PUSH1 0x0 DUP1 PUSH1 0x0 DUP1 PUSH1 0x0 PUSH1 0xA0 DUP7 DUP9 SUB SLT ISZERO PUSH3 0x54C2 JUMPI PUSH3 0x54C1 PUSH3 0x4088 JUMP JUMPDEST JUMPDEST PUSH1 0x0 PUSH3 0x54D2 DUP9 DUP3 DUP10 ADD PUSH3 0x5436 JUMP JUMPDEST SWAP6 POP POP PUSH1 0x20 PUSH3 0x54E5 DUP9 DUP3 DUP10 ADD PUSH3 0x544D JUMP JUMPDEST SWAP5 POP POP PUSH1 0x40 PUSH3 0x54F8 DUP9 DUP3 DUP10 ADD PUSH3 0x548C JUMP JUMPDEST SWAP4 POP POP PUSH1 0x60 PUSH3 0x550B DUP9 DUP3 DUP10 ADD PUSH3 0x548C JUMP JUMPDEST SWAP3 POP POP PUSH1 0x80 PUSH3 0x551E DUP9 DUP3 DUP10 ADD PUSH3 0x548C JUMP JUMPDEST SWAP2 POP POP SWAP3 SWAP6 POP SWAP3 SWAP6 SWAP1 SWAP4 POP JUMP JUMPDEST PUSH1 0x0 DUP2 MLOAD SWAP1 POP PUSH3 0x553C DUP2 PUSH3 0x42E8 JUMP JUMPDEST SWAP3 SWAP2 POP POP JUMP JUMPDEST PUSH1 0x0 PUSH1 0x20 DUP3 DUP5 SUB SLT ISZERO PUSH3 0x555B JUMPI PUSH3 0x555A PUSH3 0x4088 JUMP JUMPDEST JUMPDEST PUSH1 0x0 PUSH3 0x556B DUP5 DUP3 DUP6 ADD PUSH3 0x552B JUMP JUMPDEST SWAP2 POP POP SWAP3 SWAP2 POP POP JUMP JUMPDEST PUSH3 0x557F DUP2 PUSH3 0x42A6 JUMP JUMPDEST DUP3 MSTORE POP POP JUMP JUMPDEST PUSH1 0x60 DUP3 ADD PUSH1 0x0 DUP3 ADD MLOAD PUSH3 0x559D PUSH1 0x0 DUP6 ADD DUP3 PUSH3 0x5574 JUMP JUMPDEST POP PUSH1 0x20 DUP3 ADD MLOAD PUSH3 0x55B2 PUSH1 0x20 DUP6 ADD DUP3 PUSH3 0x5574 JUMP JUMPDEST POP PUSH1 0x40 DUP3 ADD MLOAD PUSH3 0x55C7 PUSH1 0x40 DUP6 ADD DUP3 PUSH3 0x5574 JUMP JUMPDEST POP POP POP POP JUMP JUMPDEST PUSH1 0x0 PUSH1 0x60 DUP3 ADD SWAP1 POP PUSH3 0x55E4 PUSH1 0x0 DUP4 ADD DUP5 PUSH3 0x5585 JUMP JUMPDEST SWAP3 SWAP2 POP POP JUMP JUMPDEST PUSH1 0x0 DUP2 MLOAD SWAP1 POP SWAP2 SWAP1 POP JUMP JUMPDEST PUSH1 0x0 PUSH3 0x5602 DUP3 PUSH3 0x55EA JUMP JUMPDEST PUSH3 0x560E DUP2 DUP6 PUSH3 0x4D3F JUMP JUMPDEST SWAP4 POP PUSH3 0x5620 DUP2 DUP6 PUSH1 0x20 DUP7 ADD PUSH3 0x4177 JUMP JUMPDEST PUSH3 0x562B DUP2 PUSH3 0x41A3 JUMP JUMPDEST DUP5 ADD SWAP2 POP POP SWAP3 SWAP2 POP POP JUMP JUMPDEST PUSH1 0x0 PUSH1 0xA0 DUP3 ADD SWAP1 POP PUSH3 0x564D PUSH1 0x0 DUP4 ADD DUP9 PUSH3 0x42BA JUMP JUMPDEST PUSH3 0x565C PUSH1 0x20 DUP4 ADD DUP8 PUSH3 0x472C JUMP JUMPDEST PUSH3 0x566B PUSH1 0x40 DUP4 ADD DUP7 PUSH3 0x472C JUMP JUMPDEST PUSH3 0x567A PUSH1 0x60 DUP4 ADD DUP6 PUSH3 0x45D1 JUMP JUMPDEST DUP2 DUP2 SUB PUSH1 0x80 DUP4 ADD MSTORE PUSH3 0x568E DUP2 DUP5 PUSH3 0x55F5 JUMP JUMPDEST SWAP1 POP SWAP7 SWAP6 POP POP POP POP POP POP JUMP JUMPDEST PUSH1 0x0 DUP1 REVERT JUMPDEST PUSH1 0x0 PUSH8 0xFFFFFFFFFFFFFFFF DUP3 GT ISZERO PUSH3 0x56BD JUMPI PUSH3 0x56BC PUSH3 0x4365 JUMP JUMPDEST JUMPDEST PUSH3 0x56C8 DUP3 PUSH3 0x41A3 JUMP JUMPDEST SWAP1 POP PUSH1 0x20 DUP2 ADD SWAP1 POP SWAP2 SWAP1 POP JUMP JUMPDEST PUSH1 0x0 PUSH3 0x56EC PUSH3 0x56E6 DUP5 PUSH3 0x569F JUMP JUMPDEST PUSH3 0x43CA JUMP JUMPDEST SWAP1 POP DUP3 DUP2 MSTORE PUSH1 0x20 DUP2 ADD DUP5 DUP5 DUP5 ADD GT ISZERO PUSH3 0x570B JUMPI PUSH3 0x570A PUSH3 0x569A JUMP JUMPDEST JUMPDEST PUSH3 0x5718 DUP5 DUP3 DUP6 PUSH3 0x4177 JUMP JUMPDEST POP SWAP4 SWAP3 POP POP POP JUMP JUMPDEST PUSH1 0x0 DUP3 PUSH1 0x1F DUP4 ADD SLT PUSH3 0x5738 JUMPI PUSH3 0x5737 PUSH3 0x47F2 JUMP JUMPDEST JUMPDEST DUP2 MLOAD PUSH3 0x574A DUP5 DUP3 PUSH1 0x20 DUP7 ADD PUSH3 0x56D5 JUMP JUMPDEST SWAP2 POP POP SWAP3 SWAP2 POP POP JUMP JUMPDEST PUSH1 0x0 PUSH1 0x20 DUP3 DUP5 SUB SLT ISZERO PUSH3 0x576C JUMPI PUSH3 0x576B PUSH3 0x4088 JUMP JUMPDEST JUMPDEST PUSH1 0x0 DUP3 ADD MLOAD PUSH8 0xFFFFFFFFFFFFFFFF DUP2 GT ISZERO PUSH3 0x578D JUMPI PUSH3 0x578C PUSH3 0x408D JUMP JUMPDEST JUMPDEST PUSH3 0x579B DUP5 DUP3 DUP6 ADD PUSH3 0x5720 JUMP JUMPDEST SWAP2 POP POP SWAP3 SWAP2 POP POP JUMP JUMPDEST PUSH1 0x0 DUP2 SWAP1 POP SWAP3 SWAP2 POP POP JUMP JUMPDEST PUSH32 0x3C73766720786D6C6E733D27687474703A2F2F7777772E77332E6F72672F3230 PUSH1 0x0 DUP3 ADD MSTORE PUSH32 0x30302F737667272076696577426F783D273020302033303020343830273E0000 PUSH1 0x20 DUP3 ADD MSTORE POP JUMP JUMPDEST PUSH1 0x0 PUSH3 0x580D PUSH1 0x3E DUP4 PUSH3 0x57A4 JUMP JUMPDEST SWAP2 POP PUSH3 0x581A DUP3 PUSH3 0x57AF JUMP JUMPDEST PUSH1 0x3E DUP3 ADD SWAP1 POP SWAP2 SWAP1 POP JUMP JUMPDEST PUSH32 0x3C7374796C653E2E746F6B656E73207B20666F6E743A20626F6C642033307078 PUSH1 0x0 DUP3 ADD MSTORE PUSH32 0x2073616E732D73657269663B207D000000000000000000000000000000000000 PUSH1 0x20 DUP3 ADD MSTORE POP JUMP JUMPDEST PUSH1 0x0 PUSH3 0x5883 PUSH1 0x2E DUP4 PUSH3 0x57A4 JUMP JUMPDEST SWAP2 POP PUSH3 0x5890 DUP3 PUSH3 0x5825 JUMP JUMPDEST PUSH1 0x2E DUP3 ADD SWAP1 POP SWAP2 SWAP1 POP JUMP JUMPDEST PUSH32 0x2E666565207B20666F6E743A206E6F726D616C20323670782073616E732D7365 PUSH1 0x0 DUP3 ADD MSTORE PUSH32 0x7269663B207D0000000000000000000000000000000000000000000000000000 PUSH1 0x20 DUP3 ADD MSTORE POP JUMP JUMPDEST PUSH1 0x0 PUSH3 0x58F9 PUSH1 0x26 DUP4 PUSH3 0x57A4 JUMP JUMPDEST SWAP2 POP PUSH3 0x5906 DUP3 PUSH3 0x589B JUMP JUMPDEST PUSH1 0x26 DUP3 ADD SWAP1 POP SWAP2 SWAP1 POP JUMP JUMPDEST PUSH32 0x2E7469636B207B20666F6E743A206E6F726D616C20313870782073616E732D73 PUSH1 0x0 DUP3 ADD MSTORE PUSH32 0x657269663B207D3C2F7374796C653E0000000000000000000000000000000000 PUSH1 0x20 DUP3 ADD MSTORE POP JUMP JUMPDEST PUSH1 0x0 PUSH3 0x596F PUSH1 0x2F DUP4 PUSH3 0x57A4 JUMP JUMPDEST SWAP2 POP PUSH3 0x597C DUP3 PUSH3 0x5911 JUMP JUMPDEST PUSH1 0x2F DUP3 ADD SWAP1 POP SWAP2 SWAP1 POP JUMP JUMPDEST PUSH1 0x0 PUSH3 0x5994 DUP3 PUSH3 0x415B JUMP JUMPDEST PUSH3 0x59A0 DUP2 DUP6 PUSH3 0x57A4 JUMP JUMPDEST SWAP4 POP PUSH3 0x59B2 DUP2 DUP6 PUSH1 0x20 DUP7 ADD PUSH3 0x4177 JUMP JUMPDEST DUP1 DUP5 ADD SWAP2 POP POP SWAP3 SWAP2 POP POP JUMP JUMPDEST PUSH32 0x3C2F7376673E0000000000000000000000000000000000000000000000000000 DUP2 MSTORE POP JUMP JUMPDEST PUSH1 0x0 PUSH3 0x59F1 DUP3 PUSH3 0x57FE JUMP JUMPDEST SWAP2 POP PUSH3 0x59FE DUP3 PUSH3 0x5874 JUMP JUMPDEST SWAP2 POP PUSH3 0x5A0B DUP3 PUSH3 0x58EA JUMP JUMPDEST SWAP2 POP PUSH3 0x5A18 DUP3 PUSH3 0x5960 JUMP JUMPDEST SWAP2 POP PUSH3 0x5A26 DUP3 DUP7 PUSH3 0x5987 JUMP JUMPDEST SWAP2 POP PUSH3 0x5A34 DUP3 DUP6 PUSH3 0x5987 JUMP JUMPDEST SWAP2 POP PUSH3 0x5A42 DUP3 DUP5 PUSH3 0x5987 JUMP JUMPDEST SWAP2 POP PUSH3 0x5A4F DUP3 PUSH3 0x59BE JUMP JUMPDEST PUSH1 0x6 DUP3 ADD SWAP2 POP DUP2 SWAP1 POP SWAP5 SWAP4 POP POP POP POP JUMP JUMPDEST PUSH32 0x7B226E616D65223A22556E697377617020563320506F736974696F6E222C0000 DUP2 MSTORE POP JUMP JUMPDEST PUSH32 0x226465736372697074696F6E223A220000000000000000000000000000000000 DUP2 MSTORE POP JUMP JUMPDEST PUSH32 0x222C000000000000000000000000000000000000000000000000000000000000 DUP2 MSTORE POP JUMP JUMPDEST PUSH32 0x22696D616765223A22646174613A696D6167652F7376672B786D6C3B62617365 PUSH1 0x0 DUP3 ADD MSTORE PUSH32 0x36342C0000000000000000000000000000000000000000000000000000000000 PUSH1 0x20 DUP3 ADD MSTORE POP JUMP JUMPDEST PUSH1 0x0 PUSH3 0x5B30 PUSH1 0x23 DUP4 PUSH3 0x57A4 JUMP JUMPDEST SWAP2 POP PUSH3 0x5B3D DUP3 PUSH3 0x5AD2 JUMP JUMPDEST PUSH1 0x23 DUP3 ADD SWAP1 POP SWAP2 SWAP1 POP JUMP JUMPDEST PUSH32 0x227D000000000000000000000000000000000000000000000000000000000000 DUP2 MSTORE POP JUMP JUMPDEST PUSH1 0x0 PUSH3 0x5B7B DUP3 PUSH3 0x5A60 JUMP JUMPDEST PUSH1 0x1E DUP3 ADD SWAP2 POP PUSH3 0x5B8C DUP3 PUSH3 0x5A86 JUMP JUMPDEST PUSH1 0xF DUP3 ADD SWAP2 POP PUSH3 0x5B9E DUP3 DUP6 PUSH3 0x5987 JUMP JUMPDEST SWAP2 POP PUSH3 0x5BAB DUP3 PUSH3 0x5AAC JUMP JUMPDEST PUSH1 0x2 DUP3 ADD SWAP2 POP PUSH3 0x5BBC DUP3 PUSH3 0x5B21 JUMP JUMPDEST SWAP2 POP PUSH3 0x5BCA DUP3 DUP5 PUSH3 0x5987 JUMP JUMPDEST SWAP2 POP PUSH3 0x5BD7 DUP3 PUSH3 0x5B48 JUMP JUMPDEST PUSH1 0x2 DUP3 ADD SWAP2 POP DUP2 SWAP1 POP SWAP4 SWAP3 POP POP POP JUMP JUMPDEST PUSH32 0x646174613A6170706C69636174696F6E2F6A736F6E3B6261736536342C000000 DUP2 MSTORE POP JUMP JUMPDEST PUSH1 0x0 PUSH3 0x5C1A DUP3 PUSH3 0x5BE7 JUMP JUMPDEST PUSH1 0x1D DUP3 ADD SWAP2 POP PUSH3 0x5C2C DUP3 DUP5 PUSH3 0x5987 JUMP JUMPDEST SWAP2 POP DUP2 SWAP1 POP SWAP3 SWAP2 POP POP JUMP JUMPDEST PUSH32 0x414C52454144595F4D494E544544000000000000000000000000000000000000 PUSH1 0x0 DUP3 ADD MSTORE POP JUMP JUMPDEST PUSH1 0x0 PUSH3 0x5C6F PUSH1 0xE DUP4 PUSH3 0x4166 JUMP JUMPDEST SWAP2 POP PUSH3 0x5C7C DUP3 PUSH3 0x5C37 JUMP JUMPDEST PUSH1 0x20 DUP3 ADD SWAP1 POP SWAP2 SWAP1 POP JUMP JUMPDEST PUSH1 0x0 PUSH1 0x20 DUP3 ADD SWAP1 POP DUP2 DUP2 SUB PUSH1 0x0 DUP4 ADD MSTORE PUSH3 0x5CA2 DUP2 PUSH3 0x5C60 JUMP JUMPDEST SWAP1 POP SWAP2 SWAP1 POP JUMP JUMPDEST PUSH1 0x0 DUP2 SWAP1 POP SWAP2 SWAP1 POP JUMP JUMPDEST PUSH1 0x0 PUSH3 0x5CC0 DUP3 PUSH3 0x5CA9 JUMP JUMPDEST SWAP2 POP PUSH32 0x8000000000000000000000000000000000000000000000000000000000000000 DUP3 SUB PUSH3 0x5CF5 JUMPI PUSH3 0x5CF4 PUSH3 0x4E87 JUMP JUMPDEST JUMPDEST DUP2 PUSH1 0x0 SUB SWAP1 POP SWAP2 SWAP1 POP JUMP JUMPDEST PUSH1 0x0 PUSH3 0x5D0D DUP3 PUSH3 0x471F JUMP JUMPDEST SWAP2 POP PUSH32 0xFFFFFFFFFFFFFFFFFFFFFFFFFFFFFFFFFFFFFFFFFFFFFFFFFFFFFFFFFF800000 DUP3 SUB PUSH3 0x5D42 JUMPI PUSH3 0x5D41 PUSH3 0x4E87 JUMP JUMPDEST JUMPDEST DUP2 PUSH1 0x0 SUB SWAP1 POP SWAP2 SWAP1 POP JUMP JUMPDEST PUSH32 0x5400000000000000000000000000000000000000000000000000000000000000 PUSH1 0x0 DUP3 ADD MSTORE POP JUMP JUMPDEST PUSH1 0x0 PUSH3 0x5D85 PUSH1 0x1 DUP4 PUSH3 0x4166 JUMP JUMPDEST SWAP2 POP PUSH3 0x5D92 DUP3 PUSH3 0x5D4D JUMP JUMPDEST PUSH1 0x20 DUP3 ADD SWAP1 POP SWAP2 SWAP1 POP JUMP JUMPDEST PUSH1 0x0 PUSH1 0x20 DUP3 ADD SWAP1 POP DUP2 DUP2 SUB PUSH1 0x0 DUP4 ADD MSTORE PUSH3 0x5DB8 DUP2 PUSH3 0x5D76 JUMP JUMPDEST SWAP1 POP SWAP2 SWAP1 POP JUMP JUMPDEST PUSH1 0x0 PUSH3 0x5DCC DUP3 PUSH3 0x4219 JUMP JUMPDEST SWAP2 POP PUSH3 0x5DD9 DUP4 PUSH3 0x4219 JUMP JUMPDEST SWAP3 POP DUP3 DUP3 MUL PUSH3 0x5DE9 DUP2 PUSH3 0x4219 JUMP JUMPDEST SWAP2 POP DUP3 DUP3 DIV DUP5 EQ DUP4 ISZERO OR PUSH3 0x5E03 JUMPI PUSH3 0x5E02 PUSH3 0x4E87 JUMP JUMPDEST JUMPDEST POP SWAP3 SWAP2 POP POP JUMP JUMPDEST PUSH32 0x4E487B7100000000000000000000000000000000000000000000000000000000 PUSH1 0x0 MSTORE PUSH1 0x12 PUSH1 0x4 MSTORE PUSH1 0x24 PUSH1 0x0 REVERT JUMPDEST PUSH1 0x0 PUSH3 0x5E46 DUP3 PUSH3 0x4219 JUMP JUMPDEST SWAP2 POP PUSH3 0x5E53 DUP4 PUSH3 0x4219 JUMP JUMPDEST SWAP3 POP DUP3 PUSH3 0x5E66 JUMPI PUSH3 0x5E65 PUSH3 0x5E0A JUMP JUMPDEST JUMPDEST DUP3 DUP3 DIV SWAP1 POP SWAP3 SWAP2 POP POP JUMP JUMPDEST PUSH1 0x0 PUSH3 0x5E7E DUP3 PUSH3 0x4219 JUMP JUMPDEST SWAP2 POP PUSH3 0x5E8B DUP4 PUSH3 0x4219 JUMP JUMPDEST SWAP3 POP DUP3 PUSH3 0x5E9E JUMPI PUSH3 0x5E9D PUSH3 0x5E0A JUMP JUMPDEST JUMPDEST DUP3 DUP3 MOD SWAP1 POP SWAP3 SWAP2 POP POP JUMP JUMPDEST PUSH1 0x0 PUSH3 0x5EB6 DUP3 PUSH3 0x4219 JUMP JUMPDEST SWAP2 POP PUSH3 0x5EC3 DUP4 PUSH3 0x4219 JUMP JUMPDEST SWAP3 POP DUP3 DUP3 ADD SWAP1 POP DUP1 DUP3 GT ISZERO PUSH3 0x5EDE JUMPI PUSH3 0x5EDD PUSH3 0x4E87 JUMP JUMPDEST JUMPDEST SWAP3 SWAP2 POP POP JUMP JUMPDEST PUSH32 0x3C726563742077696474683D2233303022206865696768743D22343830222066 PUSH1 0x0 DUP3 ADD MSTORE PUSH32 0x696C6C3D2268736C280000000000000000000000000000000000000000000000 PUSH1 0x20 DUP3 ADD MSTORE POP JUMP JUMPDEST PUSH1 0x0 PUSH3 0x5F42 PUSH1 0x29 DUP4 PUSH3 0x57A4 JUMP JUMPDEST SWAP2 POP PUSH3 0x5F4F DUP3 PUSH3 0x5EE4 JUMP JUMPDEST PUSH1 0x29 DUP3 ADD SWAP1 POP SWAP2 SWAP1 POP JUMP JUMPDEST PUSH32 0x2C3430252C34302529222F3E0000000000000000000000000000000000000000 DUP2 MSTORE POP JUMP JUMPDEST PUSH32 0x3C7265637420783D2233302220793D223330222077696474683D223234302220 PUSH1 0x0 DUP3 ADD MSTORE PUSH32 0x6865696768743D22343230222072783D223135222072793D223135222066696C PUSH1 0x20 DUP3 ADD MSTORE PUSH32 0x6C3D2268736C2800000000000000000000000000000000000000000000000000 PUSH1 0x40 DUP3 ADD MSTORE POP JUMP JUMPDEST PUSH1 0x0 PUSH3 0x6004 PUSH1 0x47 DUP4 PUSH3 0x57A4 JUMP JUMPDEST SWAP2 POP PUSH3 0x6011 DUP3 PUSH3 0x5F80 JUMP JUMPDEST PUSH1 0x47 DUP3 ADD SWAP1 POP SWAP2 SWAP1 POP JUMP JUMPDEST PUSH32 0x2C313030252C3530252922207374726F6B653D2223303030222F3E0000000000 DUP2 MSTORE POP JUMP JUMPDEST PUSH1 0x0 PUSH3 0x604F DUP3 PUSH3 0x5F33 JUMP JUMPDEST SWAP2 POP PUSH3 0x605D DUP3 DUP6 PUSH3 0x5987 JUMP JUMPDEST SWAP2 POP PUSH3 0x606A DUP3 PUSH3 0x5F5A JUMP JUMPDEST PUSH1 0xC DUP3 ADD SWAP2 POP PUSH3 0x607B DUP3 PUSH3 0x5FF5 JUMP JUMPDEST SWAP2 POP PUSH3 0x6089 DUP3 DUP5 PUSH3 0x5987 JUMP JUMPDEST SWAP2 POP PUSH3 0x6096 DUP3 PUSH3 0x601C JUMP JUMPDEST PUSH1 0x1B DUP3 ADD SWAP2 POP DUP2 SWAP1 POP SWAP4 SWAP3 POP POP POP JUMP JUMPDEST PUSH32 0x3C7265637420783D2233302220793D223837222077696474683D223234302220 PUSH1 0x0 DUP3 ADD MSTORE PUSH32 0x6865696768743D223432222F3E00000000000000000000000000000000000000 PUSH1 0x20 DUP3 ADD MSTORE POP JUMP JUMPDEST PUSH1 0x0 PUSH3 0x6104 PUSH1 0x2D DUP4 PUSH3 0x57A4 JUMP JUMPDEST SWAP2 POP PUSH3 0x6111 DUP3 PUSH3 0x60A6 JUMP JUMPDEST PUSH1 0x2D DUP3 ADD SWAP1 POP SWAP2 SWAP1 POP JUMP JUMPDEST PUSH32 0x3C7465787420783D2233392220793D223132302220636C6173733D22746F6B65 PUSH1 0x0 DUP3 ADD MSTORE PUSH32 0x6E73222066696C6C3D2223666666223E00000000000000000000000000000000 PUSH1 0x20 DUP3 ADD MSTORE POP JUMP JUMPDEST PUSH1 0x0 PUSH3 0x617A PUSH1 0x30 DUP4 PUSH3 0x57A4 JUMP JUMPDEST SWAP2 POP PUSH3 0x6187 DUP3 PUSH3 0x611C JUMP JUMPDEST PUSH1 0x30 DUP3 ADD SWAP1 POP SWAP2 SWAP1 POP JUMP JUMPDEST PUSH32 0x2F00000000000000000000000000000000000000000000000000000000000000 DUP2 MSTORE POP JUMP JUMPDEST PUSH32 0x3C2F746578743E3C7265637420783D2233302220793D22313332222077696474 PUSH1 0x0 DUP3 ADD MSTORE PUSH32 0x683D2232343022206865696768743D223330222F3E0000000000000000000000 PUSH1 0x20 DUP3 ADD MSTORE POP JUMP JUMPDEST PUSH1 0x0 PUSH3 0x6216 PUSH1 0x35 DUP4 PUSH3 0x57A4 JUMP JUMPDEST SWAP2 POP PUSH3 0x6223 DUP3 PUSH3 0x61B8 JUMP JUMPDEST PUSH1 0x35 DUP3 ADD SWAP1 POP SWAP2 SWAP1 POP JUMP JUMPDEST PUSH32 0x3C7465787420783D2233392220793D22313230222064793D2233362220636C61 PUSH1 0x0 DUP3 ADD MSTORE PUSH32 0x73733D22666565222066696C6C3D2223666666223E0000000000000000000000 PUSH1 0x20 DUP3 ADD MSTORE POP JUMP JUMPDEST PUSH1 0x0 PUSH3 0x628C PUSH1 0x35 DUP4 PUSH3 0x57A4 JUMP JUMPDEST SWAP2 POP PUSH3 0x6299 DUP3 PUSH3 0x622E JUMP JUMPDEST PUSH1 0x35 DUP3 ADD SWAP1 POP SWAP2 SWAP1 POP JUMP JUMPDEST PUSH32 0x3C2F746578743E00000000000000000000000000000000000000000000000000 DUP2 MSTORE POP JUMP JUMPDEST PUSH1 0x0 PUSH3 0x62D7 DUP3 PUSH3 0x60F5 JUMP JUMPDEST SWAP2 POP PUSH3 0x62E4 DUP3 PUSH3 0x616B JUMP JUMPDEST SWAP2 POP PUSH3 0x62F2 DUP3 DUP7 PUSH3 0x5987 JUMP JUMPDEST SWAP2 POP PUSH3 0x62FF DUP3 PUSH3 0x6192 JUMP JUMPDEST PUSH1 0x1 DUP3 ADD SWAP2 POP PUSH3 0x6311 DUP3 DUP6 PUSH3 0x5987 JUMP JUMPDEST SWAP2 POP PUSH3 0x631E DUP3 PUSH3 0x6207 JUMP JUMPDEST SWAP2 POP PUSH3 0x632B DUP3 PUSH3 0x627D JUMP JUMPDEST SWAP2 POP PUSH3 0x6339 DUP3 DUP5 PUSH3 0x5987 JUMP JUMPDEST SWAP2 POP PUSH3 0x6346 DUP3 PUSH3 0x62A4 JUMP JUMPDEST PUSH1 0x7 DUP3 ADD SWAP2 POP DUP2 SWAP1 POP SWAP5 SWAP4 POP POP POP POP JUMP JUMPDEST PUSH32 0x3C7265637420783D2233302220793D22333432222077696474683D2232343022 PUSH1 0x0 DUP3 ADD MSTORE PUSH32 0x206865696768743D223234222F3E000000000000000000000000000000000000 PUSH1 0x20 DUP3 ADD MSTORE POP JUMP JUMPDEST PUSH1 0x0 PUSH3 0x63B5 PUSH1 0x2E DUP4 PUSH3 0x57A4 JUMP JUMPDEST SWAP2 POP PUSH3 0x63C2 DUP3 PUSH3 0x6357 JUMP JUMPDEST PUSH1 0x2E DUP3 ADD SWAP1 POP SWAP2 SWAP1 POP JUMP JUMPDEST PUSH32 0x3C7465787420783D2233392220793D223336302220636C6173733D227469636B PUSH1 0x0 DUP3 ADD MSTORE PUSH32 0x222066696C6C3D2223666666223E4C6F776572207469636B3A20000000000000 PUSH1 0x20 DUP3 ADD MSTORE POP JUMP JUMPDEST PUSH1 0x0 PUSH3 0x642B PUSH1 0x3A DUP4 PUSH3 0x57A4 JUMP JUMPDEST SWAP2 POP PUSH3 0x6438 DUP3 PUSH3 0x63CD JUMP JUMPDEST PUSH1 0x3A DUP3 ADD SWAP1 POP SWAP2 SWAP1 POP JUMP JUMPDEST PUSH32 0x3C7265637420783D2233302220793D22333732222077696474683D2232343022 PUSH1 0x0 DUP3 ADD MSTORE PUSH32 0x206865696768743D223234222F3E000000000000000000000000000000000000 PUSH1 0x20 DUP3 ADD MSTORE POP JUMP JUMPDEST PUSH1 0x0 PUSH3 0x64A1 PUSH1 0x2E DUP4 PUSH3 0x57A4 JUMP JUMPDEST SWAP2 POP PUSH3 0x64AE DUP3 PUSH3 0x6443 JUMP JUMPDEST PUSH1 0x2E DUP3 ADD SWAP1 POP SWAP2 SWAP1 POP JUMP JUMPDEST PUSH32 0x3C7465787420783D2233392220793D22333630222064793D2233302220636C61 PUSH1 0x0 DUP3 ADD MSTORE PUSH32 0x73733D227469636B222066696C6C3D2223666666223E5570706572207469636B PUSH1 0x20 DUP3 ADD MSTORE PUSH32 0x3A20000000000000000000000000000000000000000000000000000000000000 PUSH1 0x40 DUP3 ADD MSTORE POP JUMP JUMPDEST PUSH1 0x0 PUSH3 0x653D PUSH1 0x42 DUP4 PUSH3 0x57A4 JUMP JUMPDEST SWAP2 POP PUSH3 0x654A DUP3 PUSH3 0x64B9 JUMP JUMPDEST PUSH1 0x42 DUP3 ADD SWAP1 POP SWAP2 SWAP1 POP JUMP JUMPDEST PUSH1 0x0 PUSH3 0x6562 DUP3 PUSH3 0x63A6 JUMP JUMPDEST SWAP2 POP PUSH3 0x656F DUP3 PUSH3 0x641C JUMP JUMPDEST SWAP2 POP PUSH3 0x657D DUP3 DUP6 PUSH3 0x5987 JUMP JUMPDEST SWAP2 POP PUSH3 0x658A DUP3 PUSH3 0x62A4 JUMP JUMPDEST PUSH1 0x7 DUP3 ADD SWAP2 POP PUSH3 0x659B DUP3 PUSH3 0x6492 JUMP JUMPDEST SWAP2 POP PUSH3 0x65A8 DUP3 PUSH3 0x652E JUMP JUMPDEST SWAP2 POP PUSH3 0x65B6 DUP3 DUP5 PUSH3 0x5987 JUMP JUMPDEST SWAP2 POP PUSH3 0x65C3 DUP3 PUSH3 0x62A4 JUMP JUMPDEST PUSH1 0x7 DUP3 ADD SWAP2 POP DUP2 SWAP1 POP SWAP4 SWAP3 POP POP POP JUMP JUMPDEST PUSH32 0x2000000000000000000000000000000000000000000000000000000000000000 DUP2 MSTORE POP JUMP JUMPDEST PUSH32 0x2C204C6F776572207469636B3A20000000000000000000000000000000000000 DUP2 MSTORE POP JUMP JUMPDEST PUSH32 0x2C20557070657220746578743A20000000000000000000000000000000000000 DUP2 MSTORE POP JUMP JUMPDEST PUSH1 0x0 PUSH3 0x6653 DUP3 DUP9 PUSH3 0x5987 JUMP JUMPDEST SWAP2 POP PUSH3 0x6660 DUP3 PUSH3 0x6192 JUMP JUMPDEST PUSH1 0x1 DUP3 ADD SWAP2 POP PUSH3 0x6672 DUP3 DUP8 PUSH3 0x5987 JUMP JUMPDEST SWAP2 POP PUSH3 0x667F DUP3 PUSH3 0x65D3 JUMP JUMPDEST PUSH1 0x1 DUP3 ADD SWAP2 POP PUSH3 0x6691 DUP3 DUP7 PUSH3 0x5987 JUMP JUMPDEST SWAP2 POP PUSH3 0x669E DUP3 PUSH3 0x65F9 JUMP JUMPDEST PUSH1 0xE DUP3 ADD SWAP2 POP PUSH3 0x66B0 DUP3 DUP6 PUSH3 0x5987 JUMP JUMPDEST SWAP2 POP PUSH3 0x66BD DUP3 PUSH3 0x661F JUMP JUMPDEST PUSH1 0xE DUP3 ADD SWAP2 POP PUSH3 0x66CF DUP3 DUP5 PUSH3 0x5987 JUMP JUMPDEST SWAP2 POP DUP2 SWAP1 POP SWAP7 SWAP6 POP POP POP POP POP POP JUMP JUMPDEST PUSH1 0x0 PUSH3 0x66EB DUP3 PUSH3 0x539D JUMP JUMPDEST SWAP1 POP SWAP2 SWAP1 POP JUMP JUMPDEST PUSH3 0x6707 PUSH3 0x6701 DUP3 PUSH3 0x5104 JUMP JUMPDEST PUSH3 0x66DE JUMP JUMPDEST DUP3 MSTORE POP POP JUMP JUMPDEST PUSH1 0x0 PUSH3 0x671B DUP3 DUP7 PUSH3 0x5382 JUMP JUMPDEST PUSH1 0x14 DUP3 ADD SWAP2 POP PUSH3 0x672D DUP3 DUP6 PUSH3 0x5382 JUMP JUMPDEST PUSH1 0x14 DUP3 ADD SWAP2 POP PUSH3 0x673F DUP3 DUP5 PUSH3 0x66F2 JUMP JUMPDEST PUSH1 0x3 DUP3 ADD SWAP2 POP DUP2 SWAP1 POP SWAP5 SWAP4 POP POP POP POP JUMP JUMPDEST PUSH32 0xFF00000000000000000000000000000000000000000000000000000000000000 PUSH1 0x0 DUP3 ADD MSTORE POP JUMP JUMPDEST PUSH1 0x0 PUSH3 0x6788 PUSH1 0x1 DUP4 PUSH3 0x57A4 JUMP JUMPDEST SWAP2 POP PUSH3 0x6795 DUP3 PUSH3 0x6750 JUMP JUMPDEST PUSH1 0x1 DUP3 ADD SWAP1 POP SWAP2 SWAP1 POP JUMP JUMPDEST PUSH1 0x0 DUP2 SWAP1 POP SWAP2 SWAP1 POP JUMP JUMPDEST PUSH3 0x67BF PUSH3 0x67B9 DUP3 PUSH3 0x4AE9 JUMP JUMPDEST PUSH3 0x67A0 JUMP JUMPDEST DUP3 MSTORE POP POP JUMP JUMPDEST PUSH1 0x0 PUSH3 0x67D2 DUP3 PUSH3 0x6779 JUMP JUMPDEST SWAP2 POP PUSH3 0x67E0 DUP3 DUP7 PUSH3 0x5382 JUMP JUMPDEST PUSH1 0x14 DUP3 ADD SWAP2 POP PUSH3 0x67F2 DUP3 DUP6 PUSH3 0x67AA JUMP JUMPDEST PUSH1 0x20 DUP3 ADD SWAP2 POP PUSH3 0x6804 DUP3 DUP5 PUSH3 0x67AA JUMP JUMPDEST PUSH1 0x20 DUP3 ADD SWAP2 POP DUP2 SWAP1 POP SWAP5 SWAP4 POP POP POP POP JUMP JUMPDEST PUSH1 0x0 PUSH3 0x6822 DUP3 PUSH3 0x4286 JUMP JUMPDEST SWAP2 POP PUSH3 0x682F DUP4 PUSH3 0x4286 JUMP JUMPDEST SWAP3 POP DUP3 DUP3 SUB SWAP1 POP PUSH20 0xFFFFFFFFFFFFFFFFFFFFFFFFFFFFFFFFFFFFFFFF DUP2 GT ISZERO PUSH3 0x685E JUMPI PUSH3 0x685D PUSH3 0x4E87 JUMP JUMPDEST JUMPDEST SWAP3 SWAP2 POP POP JUMP JUMPDEST PUSH1 0x0 PUSH3 0x6871 DUP3 PUSH3 0x4219 JUMP JUMPDEST SWAP2 POP PUSH3 0x687E DUP4 PUSH3 0x4219 JUMP JUMPDEST SWAP3 POP DUP3 DUP3 SUB SWAP1 POP DUP2 DUP2 GT ISZERO PUSH3 0x6899 JUMPI PUSH3 0x6898 PUSH3 0x4E87 JUMP JUMPDEST JUMPDEST SWAP3 SWAP2 POP POP JUMP JUMPDEST PUSH32 0x4E487B7100000000000000000000000000000000000000000000000000000000 PUSH1 0x0 MSTORE PUSH1 0x32 PUSH1 0x4 MSTORE PUSH1 0x24 PUSH1 0x0 REVERT JUMPDEST PUSH1 0x0 PUSH3 0x68DC DUP3 DUP6 PUSH3 0x5987 JUMP JUMPDEST SWAP2 POP PUSH3 0x68EA DUP3 DUP5 PUSH3 0x5987 JUMP JUMPDEST SWAP2 POP DUP2 SWAP1 POP SWAP4 SWAP3 POP POP POP JUMP INVALID PUSH2 0x120 PUSH1 0x40 MSTORE CALLVALUE DUP1 ISZERO PUSH3 0x12 JUMPI PUSH1 0x0 DUP1 REVERT JUMPDEST POP CALLER PUSH20 0xFFFFFFFFFFFFFFFFFFFFFFFFFFFFFFFFFFFFFFFF AND PUSH4 0x89035730 PUSH1 0x40 MLOAD DUP2 PUSH4 0xFFFFFFFF AND PUSH1 0xE0 SHL DUP2 MSTORE PUSH1 0x4 ADD PUSH1 0xA0 PUSH1 0x40 MLOAD DUP1 DUP4 SUB DUP2 PUSH1 0x0 DUP8 GAS CALL ISZERO DUP1 ISZERO PUSH3 0x61 JUMPI RETURNDATASIZE PUSH1 0x0 DUP1 RETURNDATACOPY RETURNDATASIZE PUSH1 0x0 REVERT JUMPDEST POP POP POP POP PUSH1 0x40 MLOAD RETURNDATASIZE PUSH1 0x1F NOT PUSH1 0x1F DUP3 ADD AND DUP3 ADD DUP1 PUSH1 0x40 MSTORE POP DUP2 ADD SWAP1 PUSH3 0x87 SWAP2 SWAP1 PUSH3 0x1F8 JUMP JUMPDEST DUP1 PUSH3 0xFFFFFF AND PUSH2 0x100 SWAP1 PUSH3 0xFFFFFF AND DUP2 MSTORE POP DUP2 PUSH3 0xFFFFFF AND PUSH1 0xE0 SWAP1 PUSH3 0xFFFFFF AND DUP2 MSTORE POP DUP3 PUSH20 0xFFFFFFFFFFFFFFFFFFFFFFFFFFFFFFFFFFFFFFFF AND PUSH1 0xC0 SWAP1 PUSH20 0xFFFFFFFFFFFFFFFFFFFFFFFFFFFFFFFFFFFFFFFF AND DUP2 MSTORE POP DUP4 PUSH20 0xFFFFFFFFFFFFFFFFFFFFFFFFFFFFFFFFFFFFFFFF AND PUSH1 0xA0 SWAP1 PUSH20 0xFFFFFFFFFFFFFFFFFFFFFFFFFFFFFFFFFFFFFFFF AND DUP2 MSTORE POP DUP5 PUSH20 0xFFFFFFFFFFFFFFFFFFFFFFFFFFFFFFFFFFFFFFFF AND PUSH1 0x80 SWAP1 PUSH20 0xFFFFFFFFFFFFFFFFFFFFFFFFFFFFFFFFFFFFFFFF AND DUP2 MSTORE POP POP POP POP POP POP PUSH3 0x280 JUMP JUMPDEST PUSH1 0x0 DUP1 REVERT JUMPDEST PUSH1 0x0 PUSH20 0xFFFFFFFFFFFFFFFFFFFFFFFFFFFFFFFFFFFFFFFF DUP3 AND SWAP1 POP SWAP2 SWAP1 POP JUMP JUMPDEST PUSH1 0x0 PUSH3 0x180 DUP3 PUSH3 0x153 JUMP JUMPDEST SWAP1 POP SWAP2 SWAP1 POP JUMP JUMPDEST PUSH3 0x192 DUP2 PUSH3 0x173 JUMP JUMPDEST DUP2 EQ PUSH3 0x19E JUMPI PUSH1 0x0 DUP1 REVERT JUMPDEST POP JUMP JUMPDEST PUSH1 0x0 DUP2 MLOAD SWAP1 POP PUSH3 0x1B2 DUP2 PUSH3 0x187 JUMP JUMPDEST SWAP3 SWAP2 POP POP JUMP JUMPDEST PUSH1 0x0 PUSH3 0xFFFFFF DUP3 AND SWAP1 POP SWAP2 SWAP1 POP JUMP JUMPDEST PUSH3 0x1D2 DUP2 PUSH3 0x1B8 JUMP JUMPDEST DUP2 EQ PUSH3 0x1DE JUMPI PUSH1 0x0 DUP1 REVERT JUMPDEST POP JUMP JUMPDEST PUSH1 0x0 DUP2 MLOAD SWAP1 POP PUSH3 0x1F2 DUP2 PUSH3 0x1C7 JUMP JUMPDEST SWAP3 SWAP2 POP POP JUMP JUMPDEST PUSH1 0x0 DUP1 PUSH1 0x0 DUP1 PUSH1 0x0 PUSH1 0xA0 DUP7 DUP9 SUB SLT ISZERO PUSH3 0x217 JUMPI PUSH3 0x216 PUSH3 0x14E JUMP JUMPDEST JUMPDEST PUSH1 0x0 PUSH3 0x227 DUP9 DUP3 DUP10 ADD PUSH3 0x1A1 JUMP JUMPDEST SWAP6 POP POP PUSH1 0x20 PUSH3 0x23A DUP9 DUP3 DUP10 ADD PUSH3 0x1A1 JUMP JUMPDEST SWAP5 POP POP PUSH1 0x40 PUSH3 0x24D DUP9 DUP3 DUP10 ADD PUSH3 0x1A1 JUMP JUMPDEST SWAP4 POP POP PUSH1 0x60 PUSH3 0x260 DUP9 DUP3 DUP10 ADD PUSH3 0x1E1 JUMP JUMPDEST SWAP3 POP POP PUSH1 0x80 PUSH3 0x273 DUP9 DUP3 DUP10 ADD PUSH3 0x1E1 JUMP JUMPDEST SWAP2 POP POP SWAP3 SWAP6 POP SWAP3 SWAP6 SWAP1 SWAP4 POP JUMP JUMPDEST PUSH1 0x80 MLOAD PUSH1 0xA0 MLOAD PUSH1 0xC0 MLOAD PUSH1 0xE0 MLOAD PUSH2 0x100 MLOAD PUSH2 0x6AAE PUSH3 0x343 PUSH1 0x0 CODECOPY PUSH1 0x0 DUP2 DUP2 PUSH2 0x92D ADD MSTORE DUP2 DUP2 PUSH2 0x964 ADD MSTORE DUP2 DUP2 PUSH2 0x19FA ADD MSTORE PUSH2 0x22AA ADD MSTORE PUSH1 0x0 DUP2 DUP2 PUSH2 0x1549 ADD MSTORE DUP2 DUP2 PUSH2 0x18D3 ADD MSTORE DUP2 DUP2 PUSH2 0x2725 ADD MSTORE PUSH2 0x2766 ADD MSTORE PUSH1 0x0 DUP2 DUP2 PUSH2 0xA37 ADD MSTORE DUP2 DUP2 PUSH2 0xB75 ADD MSTORE DUP2 DUP2 PUSH2 0xD60 ADD MSTORE DUP2 DUP2 PUSH2 0x1125 ADD MSTORE DUP2 DUP2 PUSH2 0x156D ADD MSTORE DUP2 DUP2 PUSH2 0x1F2E ADD MSTORE PUSH2 0x29C6 ADD MSTORE PUSH1 0x0 DUP2 DUP2 PUSH2 0x462 ADD MSTORE DUP2 DUP2 PUSH2 0x997 ADD MSTORE DUP2 DUP2 PUSH2 0xADE ADD MSTORE DUP2 DUP2 PUSH2 0xC80 ADD MSTORE DUP2 DUP2 PUSH2 0x1017 ADD MSTORE DUP2 DUP2 PUSH2 0x2093 ADD MSTORE PUSH2 0x2923 ADD MSTORE PUSH1 0x0 PUSH2 0x1525 ADD MSTORE PUSH2 0x6AAE PUSH1 0x0 RETURN INVALID PUSH1 0x80 PUSH1 0x40 MSTORE CALLVALUE DUP1 ISZERO PUSH2 0x10 JUMPI PUSH1 0x0 DUP1 REVERT JUMPDEST POP PUSH1 0x4 CALLDATASIZE LT PUSH2 0x137 JUMPI PUSH1 0x0 CALLDATALOAD PUSH1 0xE0 SHR DUP1 PUSH4 0x5339C296 GT PUSH2 0xB8 JUMPI DUP1 PUSH4 0xD21220A7 GT PUSH2 0x7C JUMPI DUP1 PUSH4 0xD21220A7 EQ PUSH2 0x385 JUMPI DUP1 PUSH4 0xDD5A12D8 EQ PUSH2 0x3A3 JUMPI DUP1 PUSH4 0xDDCA3F43 EQ PUSH2 0x3D4 JUMPI DUP1 PUSH4 0xF3058399 EQ PUSH2 0x3F2 JUMPI DUP1 PUSH4 0xF30DBA93 EQ PUSH2 0x410 JUMPI DUP1 PUSH4 0xF637731D EQ PUSH2 0x444 JUMPI PUSH2 0x137 JUMP JUMPDEST DUP1 PUSH4 0x5339C296 EQ PUSH2 0x2B8 JUMPI DUP1 PUSH4 0x883BDBFD EQ PUSH2 0x2E8 JUMPI DUP1 PUSH4 0xA34123A7 EQ PUSH2 0x318 JUMPI DUP1 PUSH4 0xC45A0155 EQ PUSH2 0x349 JUMPI DUP1 PUSH4 0xD0C93A7C EQ PUSH2 0x367 JUMPI PUSH2 0x137 JUMP JUMPDEST DUP1 PUSH4 0x3C8A7D8D GT PUSH2 0xFF JUMPI DUP1 PUSH4 0x3C8A7D8D EQ PUSH2 0x1E8 JUMPI DUP1 PUSH4 0x46141319 EQ PUSH2 0x219 JUMPI DUP1 PUSH4 0x4A182392 EQ PUSH2 0x237 JUMPI DUP1 PUSH4 0x4F1EB3D8 EQ PUSH2 0x253 JUMPI DUP1 PUSH4 0x514EA4BF EQ PUSH2 0x284 JUMPI PUSH2 0x137 JUMP JUMPDEST DUP1 PUSH4 0xDFE1681 EQ PUSH2 0x13C JUMPI DUP1 PUSH4 0x1A686502 EQ PUSH2 0x15A JUMPI DUP1 PUSH4 0x252C09D7 EQ PUSH2 0x178 JUMPI DUP1 PUSH4 0x32148F67 EQ PUSH2 0x1AA JUMPI DUP1 PUSH4 0x3850C7BD EQ PUSH2 0x1C6 JUMPI JUMPDEST PUSH1 0x0 DUP1 REVERT JUMPDEST PUSH2 0x144 PUSH2 0x460 JUMP JUMPDEST PUSH1 0x40 MLOAD PUSH2 0x151 SWAP2 SWAP1 PUSH2 0x513E JUMP JUMPDEST PUSH1 0x40 MLOAD DUP1 SWAP2 SUB SWAP1 RETURN JUMPDEST PUSH2 0x162 PUSH2 0x484 JUMP JUMPDEST PUSH1 0x40 MLOAD PUSH2 0x16F SWAP2 SWAP1 PUSH2 0x5184 JUMP JUMPDEST PUSH1 0x40 MLOAD DUP1 SWAP2 SUB SWAP1 RETURN JUMPDEST PUSH2 0x192 PUSH1 0x4 DUP1 CALLDATASIZE SUB DUP2 ADD SWAP1 PUSH2 0x18D SWAP2 SWAP1 PUSH2 0x51DF JUMP JUMPDEST PUSH2 0x4A6 JUMP JUMPDEST PUSH1 0x40 MLOAD PUSH2 0x1A1 SWAP4 SWAP3 SWAP2 SWAP1 PUSH2 0x5262 JUMP JUMPDEST PUSH1 0x40 MLOAD DUP1 SWAP2 SUB SWAP1 RETURN JUMPDEST PUSH2 0x1C4 PUSH1 0x4 DUP1 CALLDATASIZE SUB DUP2 ADD SWAP1 PUSH2 0x1BF SWAP2 SWAP1 PUSH2 0x52D3 JUMP JUMPDEST PUSH2 0x4FE JUMP JUMPDEST STOP JUMPDEST PUSH2 0x1CE PUSH2 0x59E JUMP JUMPDEST PUSH1 0x40 MLOAD PUSH2 0x1DF SWAP6 SWAP5 SWAP4 SWAP3 SWAP2 SWAP1 PUSH2 0x533A JUMP JUMPDEST PUSH1 0x40 MLOAD DUP1 SWAP2 SUB SWAP1 RETURN JUMPDEST PUSH2 0x202 PUSH1 0x4 DUP1 CALLDATASIZE SUB DUP2 ADD SWAP1 PUSH2 0x1FD SWAP2 SWAP1 PUSH2 0x5476 JUMP JUMPDEST PUSH2 0x619 JUMP JUMPDEST PUSH1 0x40 MLOAD PUSH2 0x210 SWAP3 SWAP2 SWAP1 PUSH2 0x551F JUMP JUMPDEST PUSH1 0x40 MLOAD DUP1 SWAP2 SUB SWAP1 RETURN JUMPDEST PUSH2 0x221 PUSH2 0x91F JUMP JUMPDEST PUSH1 0x40 MLOAD PUSH2 0x22E SWAP2 SWAP1 PUSH2 0x5548 JUMP JUMPDEST PUSH1 0x40 MLOAD DUP1 SWAP2 SUB SWAP1 RETURN JUMPDEST PUSH2 0x251 PUSH1 0x4 DUP1 CALLDATASIZE SUB DUP2 ADD SWAP1 PUSH2 0x24C SWAP2 SWAP1 PUSH2 0x5563 JUMP JUMPDEST PUSH2 0x925 JUMP JUMPDEST STOP JUMPDEST PUSH2 0x26D PUSH1 0x4 DUP1 CALLDATASIZE SUB DUP2 ADD SWAP1 PUSH2 0x268 SWAP2 SWAP1 PUSH2 0x55D7 JUMP JUMPDEST PUSH2 0xE8C JUMP JUMPDEST PUSH1 0x40 MLOAD PUSH2 0x27B SWAP3 SWAP2 SWAP1 PUSH2 0x5652 JUMP JUMPDEST PUSH1 0x40 MLOAD DUP1 SWAP2 SUB SWAP1 RETURN JUMPDEST PUSH2 0x29E PUSH1 0x4 DUP1 CALLDATASIZE SUB DUP2 ADD SWAP1 PUSH2 0x299 SWAP2 SWAP1 PUSH2 0x56B1 JUMP JUMPDEST PUSH2 0x1216 JUMP JUMPDEST PUSH1 0x40 MLOAD PUSH2 0x2AF SWAP6 SWAP5 SWAP4 SWAP3 SWAP2 SWAP1 PUSH2 0x56DE JUMP JUMPDEST PUSH1 0x40 MLOAD DUP1 SWAP2 SUB SWAP1 RETURN JUMPDEST PUSH2 0x2D2 PUSH1 0x4 DUP1 CALLDATASIZE SUB DUP2 ADD SWAP1 PUSH2 0x2CD SWAP2 SWAP1 PUSH2 0x576A JUMP JUMPDEST PUSH2 0x12A0 JUMP JUMPDEST PUSH1 0x40 MLOAD PUSH2 0x2DF SWAP2 SWAP1 PUSH2 0x5548 JUMP JUMPDEST PUSH1 0x40 MLOAD DUP1 SWAP2 SUB SWAP1 RETURN JUMPDEST PUSH2 0x302 PUSH1 0x4 DUP1 CALLDATASIZE SUB DUP2 ADD SWAP1 PUSH2 0x2FD SWAP2 SWAP1 PUSH2 0x57ED JUMP JUMPDEST PUSH2 0x12B8 JUMP JUMPDEST PUSH1 0x40 MLOAD PUSH2 0x30F SWAP2 SWAP1 PUSH2 0x58F8 JUMP JUMPDEST PUSH1 0x40 MLOAD DUP1 SWAP2 SUB SWAP1 RETURN JUMPDEST PUSH2 0x332 PUSH1 0x4 DUP1 CALLDATASIZE SUB DUP2 ADD SWAP1 PUSH2 0x32D SWAP2 SWAP1 PUSH2 0x591A JUMP JUMPDEST PUSH2 0x135E JUMP JUMPDEST PUSH1 0x40 MLOAD PUSH2 0x340 SWAP3 SWAP2 SWAP1 PUSH2 0x551F JUMP JUMPDEST PUSH1 0x40 MLOAD DUP1 SWAP2 SUB SWAP1 RETURN JUMPDEST PUSH2 0x351 PUSH2 0x1523 JUMP JUMPDEST PUSH1 0x40 MLOAD PUSH2 0x35E SWAP2 SWAP1 PUSH2 0x513E JUMP JUMPDEST PUSH1 0x40 MLOAD DUP1 SWAP2 SUB SWAP1 RETURN JUMPDEST PUSH2 0x36F PUSH2 0x1547 JUMP JUMPDEST PUSH1 0x40 MLOAD PUSH2 0x37C SWAP2 SWAP1 PUSH2 0x598B JUMP JUMPDEST PUSH1 0x40 MLOAD DUP1 SWAP2 SUB SWAP1 RETURN JUMPDEST PUSH2 0x38D PUSH2 0x156B JUMP JUMPDEST PUSH1 0x40 MLOAD PUSH2 0x39A SWAP2 SWAP1 PUSH2 0x513E JUMP JUMPDEST PUSH1 0x40 MLOAD DUP1 SWAP2 SUB SWAP1 RETURN JUMPDEST PUSH2 0x3BD PUSH1 0x4 DUP1 CALLDATASIZE SUB DUP2 ADD SWAP1 PUSH2 0x3B8 SWAP2 SWAP1 PUSH2 0x59FE JUMP JUMPDEST PUSH2 0x158F JUMP JUMPDEST PUSH1 0x40 MLOAD PUSH2 0x3CB SWAP3 SWAP2 SWAP1 PUSH2 0x5AB1 JUMP JUMPDEST PUSH1 0x40 MLOAD DUP1 SWAP2 SUB SWAP1 RETURN JUMPDEST PUSH2 0x3DC PUSH2 0x22A8 JUMP JUMPDEST PUSH1 0x40 MLOAD PUSH2 0x3E9 SWAP2 SWAP1 PUSH2 0x598B JUMP JUMPDEST PUSH1 0x40 MLOAD DUP1 SWAP2 SUB SWAP1 RETURN JUMPDEST PUSH2 0x3FA PUSH2 0x22CC JUMP JUMPDEST PUSH1 0x40 MLOAD PUSH2 0x407 SWAP2 SWAP1 PUSH2 0x5548 JUMP JUMPDEST PUSH1 0x40 MLOAD DUP1 SWAP2 SUB SWAP1 RETURN JUMPDEST PUSH2 0x42A PUSH1 0x4 DUP1 CALLDATASIZE SUB DUP2 ADD SWAP1 PUSH2 0x425 SWAP2 SWAP1 PUSH2 0x5ADA JUMP JUMPDEST PUSH2 0x22D2 JUMP JUMPDEST PUSH1 0x40 MLOAD PUSH2 0x43B SWAP6 SWAP5 SWAP4 SWAP3 SWAP2 SWAP1 PUSH2 0x5B23 JUMP JUMPDEST PUSH1 0x40 MLOAD DUP1 SWAP2 SUB SWAP1 RETURN JUMPDEST PUSH2 0x45E PUSH1 0x4 DUP1 CALLDATASIZE SUB DUP2 ADD SWAP1 PUSH2 0x459 SWAP2 SWAP1 PUSH2 0x5B76 JUMP JUMPDEST PUSH2 0x233E JUMP JUMPDEST STOP JUMPDEST PUSH32 0x0 DUP2 JUMP JUMPDEST PUSH1 0x3 PUSH1 0x0 SWAP1 SLOAD SWAP1 PUSH2 0x100 EXP SWAP1 DIV PUSH16 0xFFFFFFFFFFFFFFFFFFFFFFFFFFFFFFFF AND DUP2 JUMP JUMPDEST PUSH1 0x7 DUP2 PUSH2 0xFFFF DUP2 LT PUSH2 0x4B7 JUMPI PUSH1 0x0 DUP1 REVERT JUMPDEST ADD PUSH1 0x0 SWAP2 POP SWAP1 POP DUP1 PUSH1 0x0 ADD PUSH1 0x0 SWAP1 SLOAD SWAP1 PUSH2 0x100 EXP SWAP1 DIV PUSH4 0xFFFFFFFF AND SWAP1 DUP1 PUSH1 0x0 ADD PUSH1 0x4 SWAP1 SLOAD SWAP1 PUSH2 0x100 EXP SWAP1 DIV PUSH1 0x6 SIGNEXTEND SWAP1 DUP1 PUSH1 0x0 ADD PUSH1 0xB SWAP1 SLOAD SWAP1 PUSH2 0x100 EXP SWAP1 DIV PUSH1 0xFF AND SWAP1 POP DUP4 JUMP JUMPDEST PUSH1 0x0 PUSH1 0x2 PUSH1 0x0 ADD PUSH1 0x1B SWAP1 SLOAD SWAP1 PUSH2 0x100 EXP SWAP1 DIV PUSH2 0xFFFF AND SWAP1 POP PUSH1 0x0 PUSH2 0x52E DUP3 DUP5 PUSH1 0x7 PUSH2 0x2512 SWAP1 SWAP3 SWAP2 SWAP1 PUSH4 0xFFFFFFFF AND JUMP JUMPDEST SWAP1 POP DUP2 PUSH2 0xFFFF AND DUP2 PUSH2 0xFFFF AND EQ PUSH2 0x599 JUMPI DUP1 PUSH1 0x2 PUSH1 0x0 ADD PUSH1 0x1B PUSH2 0x100 EXP DUP2 SLOAD DUP2 PUSH2 0xFFFF MUL NOT AND SWAP1 DUP4 PUSH2 0xFFFF AND MUL OR SWAP1 SSTORE POP PUSH32 0xAC49E518F90A358F652E4400164F05A5D8F7E35E7747279BC3A93DBF584E125A DUP3 DUP3 PUSH1 0x40 MLOAD PUSH2 0x590 SWAP3 SWAP2 SWAP1 PUSH2 0x5BA3 JUMP JUMPDEST PUSH1 0x40 MLOAD DUP1 SWAP2 SUB SWAP1 LOG1 JUMPDEST POP POP POP JUMP JUMPDEST PUSH1 0x2 DUP1 PUSH1 0x0 ADD PUSH1 0x0 SWAP1 SLOAD SWAP1 PUSH2 0x100 EXP SWAP1 DIV PUSH20 0xFFFFFFFFFFFFFFFFFFFFFFFFFFFFFFFFFFFFFFFF AND SWAP1 DUP1 PUSH1 0x0 ADD PUSH1 0x14 SWAP1 SLOAD SWAP1 PUSH2 0x100 EXP SWAP1 DIV PUSH1 0x2 SIGNEXTEND SWAP1 DUP1 PUSH1 0x0 ADD PUSH1 0x17 SWAP1 SLOAD SWAP1 PUSH2 0x100 EXP SWAP1 DIV PUSH2 0xFFFF AND SWAP1 DUP1 PUSH1 0x0 ADD PUSH1 0x19 SWAP1 SLOAD SWAP1 PUSH2 0x100 EXP SWAP1 DIV PUSH2 0xFFFF AND SWAP1 DUP1 PUSH1 0x0 ADD PUSH1 0x1B SWAP1 SLOAD SWAP1 PUSH2 0x100 EXP SWAP1 DIV PUSH2 0xFFFF AND SWAP1 POP DUP6 JUMP JUMPDEST PUSH1 0x0 DUP1 DUP6 PUSH1 0x2 SIGNEXTEND DUP8 PUSH1 0x2 SIGNEXTEND SLT ISZERO DUP1 PUSH2 0x656 JUMPI POP PUSH32 0xFFFFFFFFFFFFFFFFFFFFFFFFFFFFFFFFFFFFFFFFFFFFFFFFFFFFFFFFFFF27618 PUSH1 0x2 SIGNEXTEND DUP8 PUSH1 0x2 SIGNEXTEND SLT JUMPDEST DUP1 PUSH2 0x68F JUMPI POP PUSH32 0xFFFFFFFFFFFFFFFFFFFFFFFFFFFFFFFFFFFFFFFFFFFFFFFFFFFFFFFFFFF27618 PUSH2 0x686 SWAP1 PUSH2 0x5BFB JUMP JUMPDEST PUSH1 0x2 SIGNEXTEND DUP7 PUSH1 0x2 SIGNEXTEND SGT JUMPDEST ISZERO PUSH2 0x6C6 JUMPI PUSH1 0x40 MLOAD PUSH32 0x64847D000000000000000000000000000000000000000000000000000000000 DUP2 MSTORE PUSH1 0x4 ADD PUSH1 0x40 MLOAD DUP1 SWAP2 SUB SWAP1 REVERT JUMPDEST PUSH1 0x0 DUP6 PUSH16 0xFFFFFFFFFFFFFFFFFFFFFFFFFFFFFFFF AND SUB PUSH2 0x712 JUMPI PUSH1 0x40 MLOAD PUSH32 0x1007454800000000000000000000000000000000000000000000000000000000 DUP2 MSTORE PUSH1 0x4 ADD PUSH1 0x40 MLOAD DUP1 SWAP2 SUB SWAP1 REVERT JUMPDEST PUSH1 0x0 DUP1 PUSH2 0x75D PUSH1 0x40 MLOAD DUP1 PUSH1 0x80 ADD PUSH1 0x40 MSTORE DUP1 DUP13 PUSH20 0xFFFFFFFFFFFFFFFFFFFFFFFFFFFFFFFFFFFFFFFF AND DUP2 MSTORE PUSH1 0x20 ADD DUP12 PUSH1 0x2 SIGNEXTEND DUP2 MSTORE PUSH1 0x20 ADD DUP11 PUSH1 0x2 SIGNEXTEND DUP2 MSTORE PUSH1 0x20 ADD DUP10 PUSH1 0xF SIGNEXTEND DUP2 MSTORE POP PUSH2 0x259C JUMP JUMPDEST SWAP3 POP SWAP3 POP POP DUP2 SWAP4 POP DUP1 SWAP3 POP PUSH1 0x0 DUP1 PUSH1 0x0 DUP7 GT ISZERO PUSH2 0x77F JUMPI PUSH2 0x77C PUSH2 0x291F JUMP JUMPDEST SWAP2 POP JUMPDEST PUSH1 0x0 DUP6 GT ISZERO PUSH2 0x793 JUMPI PUSH2 0x790 PUSH2 0x29C2 JUMP JUMPDEST SWAP1 POP JUMPDEST CALLER PUSH20 0xFFFFFFFFFFFFFFFFFFFFFFFFFFFFFFFFFFFFFFFF AND PUSH4 0xD3487997 DUP8 DUP8 DUP12 DUP12 PUSH1 0x40 MLOAD DUP6 PUSH4 0xFFFFFFFF AND PUSH1 0xE0 SHL DUP2 MSTORE PUSH1 0x4 ADD PUSH2 0x7D2 SWAP5 SWAP4 SWAP3 SWAP2 SWAP1 PUSH2 0x5CA1 JUMP JUMPDEST PUSH1 0x0 PUSH1 0x40 MLOAD DUP1 DUP4 SUB DUP2 PUSH1 0x0 DUP8 DUP1 EXTCODESIZE ISZERO DUP1 ISZERO PUSH2 0x7EC JUMPI PUSH1 0x0 DUP1 REVERT JUMPDEST POP GAS CALL ISZERO DUP1 ISZERO PUSH2 0x800 JUMPI RETURNDATASIZE PUSH1 0x0 DUP1 RETURNDATACOPY RETURNDATASIZE PUSH1 0x0 REVERT JUMPDEST POP POP POP POP PUSH1 0x0 DUP7 GT DUP1 ISZERO PUSH2 0x825 JUMPI POP PUSH2 0x817 PUSH2 0x291F JUMP JUMPDEST DUP7 DUP4 PUSH2 0x823 SWAP2 SWAP1 PUSH2 0x5CE1 JUMP JUMPDEST GT JUMPDEST ISZERO PUSH2 0x85C JUMPI PUSH1 0x40 MLOAD PUSH32 0x98FB56100000000000000000000000000000000000000000000000000000000 DUP2 MSTORE PUSH1 0x4 ADD PUSH1 0x40 MLOAD DUP1 SWAP2 SUB SWAP1 REVERT JUMPDEST PUSH1 0x0 DUP6 GT DUP1 ISZERO PUSH2 0x87D JUMPI POP PUSH2 0x86F PUSH2 0x29C2 JUMP JUMPDEST DUP6 DUP3 PUSH2 0x87B SWAP2 SWAP1 PUSH2 0x5CE1 JUMP JUMPDEST GT JUMPDEST ISZERO PUSH2 0x8B4 JUMPI PUSH1 0x40 MLOAD PUSH32 0x98FB56100000000000000000000000000000000000000000000000000000000 DUP2 MSTORE PUSH1 0x4 ADD PUSH1 0x40 MLOAD DUP1 SWAP2 SUB SWAP1 REVERT JUMPDEST DUP10 PUSH1 0x2 SIGNEXTEND DUP12 PUSH1 0x2 SIGNEXTEND DUP14 PUSH20 0xFFFFFFFFFFFFFFFFFFFFFFFFFFFFFFFFFFFFFFFF AND PUSH32 0x7A53080BA414158BE7EC69B987B5FB7D07DEE101FE85488F0853AE16239D0BDE CALLER DUP14 DUP12 DUP12 PUSH1 0x40 MLOAD PUSH2 0x908 SWAP5 SWAP4 SWAP3 SWAP2 SWAP1 PUSH2 0x5D15 JUMP JUMPDEST PUSH1 0x40 MLOAD DUP1 SWAP2 SUB SWAP1 LOG4 POP POP POP POP SWAP7 POP SWAP7 SWAP5 POP POP POP POP POP JUMP JUMPDEST PUSH1 0x1 SLOAD DUP2 JUMP JUMPDEST PUSH1 0x0 PUSH2 0x95A DUP6 PUSH32 0x0 PUSH3 0xFFFFFF AND PUSH3 0xF4240 PUSH2 0x2A65 JUMP JUMPDEST SWAP1 POP PUSH1 0x0 PUSH2 0x991 DUP6 PUSH32 0x0 PUSH3 0xFFFFFF AND PUSH3 0xF4240 PUSH2 0x2A65 JUMP JUMPDEST SWAP1 POP PUSH1 0x0 PUSH32 0x0 PUSH20 0xFFFFFFFFFFFFFFFFFFFFFFFFFFFFFFFFFFFFFFFF AND PUSH4 0x70A08231 ADDRESS PUSH1 0x40 MLOAD DUP3 PUSH4 0xFFFFFFFF AND PUSH1 0xE0 SHL DUP2 MSTORE PUSH1 0x4 ADD PUSH2 0x9EE SWAP2 SWAP1 PUSH2 0x513E JUMP JUMPDEST PUSH1 0x20 PUSH1 0x40 MLOAD DUP1 DUP4 SUB DUP2 PUSH1 0x0 DUP8 GAS CALL ISZERO DUP1 ISZERO PUSH2 0xA0D JUMPI RETURNDATASIZE PUSH1 0x0 DUP1 RETURNDATACOPY RETURNDATASIZE PUSH1 0x0 REVERT JUMPDEST POP POP POP POP PUSH1 0x40 MLOAD RETURNDATASIZE PUSH1 0x1F NOT PUSH1 0x1F DUP3 ADD AND DUP3 ADD DUP1 PUSH1 0x40 MSTORE POP DUP2 ADD SWAP1 PUSH2 0xA31 SWAP2 SWAP1 PUSH2 0x5D6F JUMP JUMPDEST SWAP1 POP PUSH1 0x0 PUSH32 0x0 PUSH20 0xFFFFFFFFFFFFFFFFFFFFFFFFFFFFFFFFFFFFFFFF AND PUSH4 0x70A08231 ADDRESS PUSH1 0x40 MLOAD DUP3 PUSH4 0xFFFFFFFF AND PUSH1 0xE0 SHL DUP2 MSTORE PUSH1 0x4 ADD PUSH2 0xA8E SWAP2 SWAP1 PUSH2 0x513E JUMP JUMPDEST PUSH1 0x20 PUSH1 0x40 MLOAD DUP1 DUP4 SUB DUP2 PUSH1 0x0 DUP8 GAS CALL ISZERO DUP1 ISZERO PUSH2 0xAAD JUMPI RETURNDATASIZE PUSH1 0x0 DUP1 RETURNDATACOPY RETURNDATASIZE PUSH1 0x0 REVERT JUMPDEST POP POP POP POP PUSH1 0x40 MLOAD RETURNDATASIZE PUSH1 0x1F NOT PUSH1 0x1F DUP3 ADD AND DUP3 ADD DUP1 PUSH1 0x40 MSTORE POP DUP2 ADD SWAP1 PUSH2 0xAD1 SWAP2 SWAP1 PUSH2 0x5D6F JUMP JUMPDEST SWAP1 POP PUSH1 0x0 DUP9 GT ISZERO PUSH2 0xB6A JUMPI PUSH32 0x0 PUSH20 0xFFFFFFFFFFFFFFFFFFFFFFFFFFFFFFFFFFFFFFFF AND PUSH4 0xA9059CBB CALLER DUP11 PUSH1 0x40 MLOAD DUP4 PUSH4 0xFFFFFFFF AND PUSH1 0xE0 SHL DUP2 MSTORE PUSH1 0x4 ADD PUSH2 0xB37 SWAP3 SWAP2 SWAP1 PUSH2 0x5D9C JUMP JUMPDEST PUSH1 0x0 PUSH1 0x40 MLOAD DUP1 DUP4 SUB DUP2 PUSH1 0x0 DUP8 DUP1 EXTCODESIZE ISZERO DUP1 ISZERO PUSH2 0xB51 JUMPI PUSH1 0x0 DUP1 REVERT JUMPDEST POP GAS CALL ISZERO DUP1 ISZERO PUSH2 0xB65 JUMPI RETURNDATASIZE PUSH1 0x0 DUP1 RETURNDATACOPY RETURNDATASIZE PUSH1 0x0 REVERT JUMPDEST POP POP POP POP JUMPDEST PUSH1 0x0 DUP8 GT ISZERO PUSH2 0xC01 JUMPI PUSH32 0x0 PUSH20 0xFFFFFFFFFFFFFFFFFFFFFFFFFFFFFFFFFFFFFFFF AND PUSH4 0xA9059CBB CALLER DUP10 PUSH1 0x40 MLOAD DUP4 PUSH4 0xFFFFFFFF AND PUSH1 0xE0 SHL DUP2 MSTORE PUSH1 0x4 ADD PUSH2 0xBCE SWAP3 SWAP2 SWAP1 PUSH2 0x5D9C JUMP JUMPDEST PUSH1 0x0 PUSH1 0x40 MLOAD DUP1 DUP4 SUB DUP2 PUSH1 0x0 DUP8 DUP1 EXTCODESIZE ISZERO DUP1 ISZERO PUSH2 0xBE8 JUMPI PUSH1 0x0 DUP1 REVERT JUMPDEST POP GAS CALL ISZERO DUP1 ISZERO PUSH2 0xBFC JUMPI RETURNDATASIZE PUSH1 0x0 DUP1 RETURNDATACOPY RETURNDATASIZE PUSH1 0x0 REVERT JUMPDEST POP POP POP POP JUMPDEST CALLER PUSH20 0xFFFFFFFFFFFFFFFFFFFFFFFFFFFFFFFFFFFFFFFF AND PUSH4 0xE9CBAFB0 DUP6 DUP6 DUP10 DUP10 PUSH1 0x40 MLOAD DUP6 PUSH4 0xFFFFFFFF AND PUSH1 0xE0 SHL DUP2 MSTORE PUSH1 0x4 ADD PUSH2 0xC40 SWAP5 SWAP4 SWAP3 SWAP2 SWAP1 PUSH2 0x5CA1 JUMP JUMPDEST PUSH1 0x0 PUSH1 0x40 MLOAD DUP1 DUP4 SUB DUP2 PUSH1 0x0 DUP8 DUP1 EXTCODESIZE ISZERO DUP1 ISZERO PUSH2 0xC5A JUMPI PUSH1 0x0 DUP1 REVERT JUMPDEST POP GAS CALL ISZERO DUP1 ISZERO PUSH2 0xC6E JUMPI RETURNDATASIZE PUSH1 0x0 DUP1 RETURNDATACOPY RETURNDATASIZE PUSH1 0x0 REVERT JUMPDEST POP POP POP POP DUP4 DUP3 PUSH2 0xC7E SWAP2 SWAP1 PUSH2 0x5CE1 JUMP JUMPDEST PUSH32 0x0 PUSH20 0xFFFFFFFFFFFFFFFFFFFFFFFFFFFFFFFFFFFFFFFF AND PUSH4 0x70A08231 ADDRESS PUSH1 0x40 MLOAD DUP3 PUSH4 0xFFFFFFFF AND PUSH1 0xE0 SHL DUP2 MSTORE PUSH1 0x4 ADD PUSH2 0xCD7 SWAP2 SWAP1 PUSH2 0x513E JUMP JUMPDEST PUSH1 0x20 PUSH1 0x40 MLOAD DUP1 DUP4 SUB DUP2 PUSH1 0x0 DUP8 GAS CALL ISZERO DUP1 ISZERO PUSH2 0xCF6 JUMPI RETURNDATASIZE PUSH1 0x0 DUP1 RETURNDATACOPY RETURNDATASIZE PUSH1 0x0 REVERT JUMPDEST POP POP POP POP PUSH1 0x40 MLOAD RETURNDATASIZE PUSH1 0x1F NOT PUSH1 0x1F DUP3 ADD AND DUP3 ADD DUP1 PUSH1 0x40 MSTORE POP DUP2 ADD SWAP1 PUSH2 0xD1A SWAP2 SWAP1 PUSH2 0x5D6F JUMP JUMPDEST LT ISZERO PUSH2 0xD52 JUMPI PUSH1 0x40 MLOAD PUSH32 0x7BC35E0500000000000000000000000000000000000000000000000000000000 DUP2 MSTORE PUSH1 0x4 ADD PUSH1 0x40 MLOAD DUP1 SWAP2 SUB SWAP1 REVERT JUMPDEST DUP3 DUP2 PUSH2 0xD5E SWAP2 SWAP1 PUSH2 0x5CE1 JUMP JUMPDEST PUSH32 0x0 PUSH20 0xFFFFFFFFFFFFFFFFFFFFFFFFFFFFFFFFFFFFFFFF AND PUSH4 0x70A08231 ADDRESS PUSH1 0x40 MLOAD DUP3 PUSH4 0xFFFFFFFF AND PUSH1 0xE0 SHL DUP2 MSTORE PUSH1 0x4 ADD PUSH2 0xDB7 SWAP2 SWAP1 PUSH2 0x513E JUMP JUMPDEST PUSH1 0x20 PUSH1 0x40 MLOAD DUP1 DUP4 SUB DUP2 PUSH1 0x0 DUP8 GAS CALL ISZERO DUP1 ISZERO PUSH2 0xDD6 JUMPI RETURNDATASIZE PUSH1 0x0 DUP1 RETURNDATACOPY RETURNDATASIZE PUSH1 0x0 REVERT JUMPDEST POP POP POP POP PUSH1 0x40 MLOAD RETURNDATASIZE PUSH1 0x1F NOT PUSH1 0x1F DUP3 ADD AND DUP3 ADD DUP1 PUSH1 0x40 MSTORE POP DUP2 ADD SWAP1 PUSH2 0xDFA SWAP2 SWAP1 PUSH2 0x5D6F JUMP JUMPDEST LT ISZERO PUSH2 0xE32 JUMPI PUSH1 0x40 MLOAD PUSH32 0x7BC35E0500000000000000000000000000000000000000000000000000000000 DUP2 MSTORE PUSH1 0x4 ADD PUSH1 0x40 MLOAD DUP1 SWAP2 SUB SWAP1 REVERT JUMPDEST CALLER PUSH20 0xFFFFFFFFFFFFFFFFFFFFFFFFFFFFFFFFFFFFFFFF AND PUSH32 0x1C1DB1F1D6A01E51FEC24BB54087B65FE5430F692280E70D92F718EB72AE76B7 DUP10 DUP10 PUSH1 0x40 MLOAD PUSH2 0xE7A SWAP3 SWAP2 SWAP1 PUSH2 0x551F JUMP JUMPDEST PUSH1 0x40 MLOAD DUP1 SWAP2 SUB SWAP1 LOG2 POP POP POP POP POP POP POP POP JUMP JUMPDEST PUSH1 0x0 DUP1 PUSH1 0x0 PUSH2 0xEA9 CALLER DUP9 DUP9 PUSH1 0x6 PUSH2 0x2AD0 SWAP1 SWAP4 SWAP3 SWAP2 SWAP1 PUSH4 0xFFFFFFFF AND JUMP JUMPDEST SWAP1 POP DUP1 PUSH1 0x3 ADD PUSH1 0x0 SWAP1 SLOAD SWAP1 PUSH2 0x100 EXP SWAP1 DIV PUSH16 0xFFFFFFFFFFFFFFFFFFFFFFFFFFFFFFFF AND PUSH16 0xFFFFFFFFFFFFFFFFFFFFFFFFFFFFFFFF AND DUP6 PUSH16 0xFFFFFFFFFFFFFFFFFFFFFFFFFFFFFFFF AND GT PUSH2 0xEFC JUMPI DUP5 PUSH2 0xF1E JUMP JUMPDEST DUP1 PUSH1 0x3 ADD PUSH1 0x0 SWAP1 SLOAD SWAP1 PUSH2 0x100 EXP SWAP1 DIV PUSH16 0xFFFFFFFFFFFFFFFFFFFFFFFFFFFFFFFF AND JUMPDEST SWAP3 POP DUP1 PUSH1 0x3 ADD PUSH1 0x10 SWAP1 SLOAD SWAP1 PUSH2 0x100 EXP SWAP1 DIV PUSH16 0xFFFFFFFFFFFFFFFFFFFFFFFFFFFFFFFF AND PUSH16 0xFFFFFFFFFFFFFFFFFFFFFFFFFFFFFFFF AND DUP5 PUSH16 0xFFFFFFFFFFFFFFFFFFFFFFFFFFFFFFFF AND GT PUSH2 0xF71 JUMPI DUP4 PUSH2 0xF93 JUMP JUMPDEST DUP1 PUSH1 0x3 ADD PUSH1 0x10 SWAP1 SLOAD SWAP1 PUSH2 0x100 EXP SWAP1 DIV PUSH16 0xFFFFFFFFFFFFFFFFFFFFFFFFFFFFFFFF AND JUMPDEST SWAP2 POP PUSH1 0x0 DUP4 PUSH16 0xFFFFFFFFFFFFFFFFFFFFFFFFFFFFFFFF AND GT ISZERO PUSH2 0x10A3 JUMPI DUP3 DUP2 PUSH1 0x3 ADD PUSH1 0x0 DUP3 DUP3 DUP3 SWAP1 SLOAD SWAP1 PUSH2 0x100 EXP SWAP1 DIV PUSH16 0xFFFFFFFFFFFFFFFFFFFFFFFFFFFFFFFF AND PUSH2 0xFDF SWAP2 SWAP1 PUSH2 0x5DC5 JUMP JUMPDEST SWAP3 POP PUSH2 0x100 EXP DUP2 SLOAD DUP2 PUSH16 0xFFFFFFFFFFFFFFFFFFFFFFFFFFFFFFFF MUL NOT AND SWAP1 DUP4 PUSH16 0xFFFFFFFFFFFFFFFFFFFFFFFFFFFFFFFF AND MUL OR SWAP1 SSTORE POP PUSH32 0x0 PUSH20 0xFFFFFFFFFFFFFFFFFFFFFFFFFFFFFFFFFFFFFFFF AND PUSH4 0xA9059CBB DUP10 DUP6 PUSH1 0x40 MLOAD DUP4 PUSH4 0xFFFFFFFF AND PUSH1 0xE0 SHL DUP2 MSTORE PUSH1 0x4 ADD PUSH2 0x1070 SWAP3 SWAP2 SWAP1 PUSH2 0x5E44 JUMP JUMPDEST PUSH1 0x0 PUSH1 0x40 MLOAD DUP1 DUP4 SUB DUP2 PUSH1 0x0 DUP8 DUP1 EXTCODESIZE ISZERO DUP1 ISZERO PUSH2 0x108A JUMPI PUSH1 0x0 DUP1 REVERT JUMPDEST POP GAS CALL ISZERO DUP1 ISZERO PUSH2 0x109E JUMPI RETURNDATASIZE PUSH1 0x0 DUP1 RETURNDATACOPY RETURNDATASIZE PUSH1 0x0 REVERT JUMPDEST POP POP POP POP JUMPDEST PUSH1 0x0 DUP3 PUSH16 0xFFFFFFFFFFFFFFFFFFFFFFFFFFFFFFFF AND GT ISZERO PUSH2 0x11B1 JUMPI DUP2 DUP2 PUSH1 0x3 ADD PUSH1 0x10 DUP3 DUP3 DUP3 SWAP1 SLOAD SWAP1 PUSH2 0x100 EXP SWAP1 DIV PUSH16 0xFFFFFFFFFFFFFFFFFFFFFFFFFFFFFFFF AND PUSH2 0x10ED SWAP2 SWAP1 PUSH2 0x5DC5 JUMP JUMPDEST SWAP3 POP PUSH2 0x100 EXP DUP2 SLOAD DUP2 PUSH16 0xFFFFFFFFFFFFFFFFFFFFFFFFFFFFFFFF MUL NOT AND SWAP1 DUP4 PUSH16 0xFFFFFFFFFFFFFFFFFFFFFFFFFFFFFFFF AND MUL OR SWAP1 SSTORE POP PUSH32 0x0 PUSH20 0xFFFFFFFFFFFFFFFFFFFFFFFFFFFFFFFFFFFFFFFF AND PUSH4 0xA9059CBB DUP10 DUP5 PUSH1 0x40 MLOAD DUP4 PUSH4 0xFFFFFFFF AND PUSH1 0xE0 SHL DUP2 MSTORE PUSH1 0x4 ADD PUSH2 0x117E SWAP3 SWAP2 SWAP1 PUSH2 0x5E44 JUMP JUMPDEST PUSH1 0x0 PUSH1 0x40 MLOAD DUP1 DUP4 SUB DUP2 PUSH1 0x0 DUP8 DUP1 EXTCODESIZE ISZERO DUP1 ISZERO PUSH2 0x1198 JUMPI PUSH1 0x0 DUP1 REVERT JUMPDEST POP GAS CALL ISZERO DUP1 ISZERO PUSH2 0x11AC JUMPI RETURNDATASIZE PUSH1 0x0 DUP1 RETURNDATACOPY RETURNDATASIZE PUSH1 0x0 REVERT JUMPDEST POP POP POP POP JUMPDEST DUP6 PUSH1 0x2 SIGNEXTEND DUP8 PUSH1 0x2 SIGNEXTEND CALLER PUSH20 0xFFFFFFFFFFFFFFFFFFFFFFFFFFFFFFFFFFFFFFFF AND PUSH32 0xA89C1C8A741251492622C95237828C75D1DBB03EA956F09E3792FF2A14F4FE62 DUP12 DUP8 DUP8 PUSH1 0x40 MLOAD PUSH2 0x1203 SWAP4 SWAP3 SWAP2 SWAP1 PUSH2 0x5E6D JUMP JUMPDEST PUSH1 0x40 MLOAD DUP1 SWAP2 SUB SWAP1 LOG4 POP SWAP6 POP SWAP6 SWAP4 POP POP POP POP JUMP JUMPDEST PUSH1 0x6 PUSH1 0x20 MSTORE DUP1 PUSH1 0x0 MSTORE PUSH1 0x40 PUSH1 0x0 KECCAK256 PUSH1 0x0 SWAP2 POP SWAP1 POP DUP1 PUSH1 0x0 ADD PUSH1 0x0 SWAP1 SLOAD SWAP1 PUSH2 0x100 EXP SWAP1 DIV PUSH16 0xFFFFFFFFFFFFFFFFFFFFFFFFFFFFFFFF AND SWAP1 DUP1 PUSH1 0x1 ADD SLOAD SWAP1 DUP1 PUSH1 0x2 ADD SLOAD SWAP1 DUP1 PUSH1 0x3 ADD PUSH1 0x0 SWAP1 SLOAD SWAP1 PUSH2 0x100 EXP SWAP1 DIV PUSH16 0xFFFFFFFFFFFFFFFFFFFFFFFFFFFFFFFF AND SWAP1 DUP1 PUSH1 0x3 ADD PUSH1 0x10 SWAP1 SLOAD SWAP1 PUSH2 0x100 EXP SWAP1 DIV PUSH16 0xFFFFFFFFFFFFFFFFFFFFFFFFFFFFFFFF AND SWAP1 POP DUP6 JUMP JUMPDEST PUSH1 0x5 PUSH1 0x20 MSTORE DUP1 PUSH1 0x0 MSTORE PUSH1 0x40 PUSH1 0x0 KECCAK256 PUSH1 0x0 SWAP2 POP SWAP1 POP SLOAD DUP2 JUMP JUMPDEST PUSH1 0x60 PUSH2 0x1356 PUSH2 0x12C5 PUSH2 0x2B18 JUMP JUMPDEST DUP5 DUP5 DUP1 DUP1 PUSH1 0x20 MUL PUSH1 0x20 ADD PUSH1 0x40 MLOAD SWAP1 DUP2 ADD PUSH1 0x40 MSTORE DUP1 SWAP4 SWAP3 SWAP2 SWAP1 DUP2 DUP2 MSTORE PUSH1 0x20 ADD DUP4 DUP4 PUSH1 0x20 MUL DUP1 DUP3 DUP5 CALLDATACOPY PUSH1 0x0 DUP2 DUP5 ADD MSTORE PUSH1 0x1F NOT PUSH1 0x1F DUP3 ADD AND SWAP1 POP DUP1 DUP4 ADD SWAP3 POP POP POP POP POP POP POP PUSH1 0x2 PUSH1 0x0 ADD PUSH1 0x14 SWAP1 SLOAD SWAP1 PUSH2 0x100 EXP SWAP1 DIV PUSH1 0x2 SIGNEXTEND PUSH1 0x2 PUSH1 0x0 ADD PUSH1 0x17 SWAP1 SLOAD SWAP1 PUSH2 0x100 EXP SWAP1 DIV PUSH2 0xFFFF AND PUSH1 0x2 PUSH1 0x0 ADD PUSH1 0x19 SWAP1 SLOAD SWAP1 PUSH2 0x100 EXP SWAP1 DIV PUSH2 0xFFFF AND PUSH1 0x7 PUSH2 0x2B20 SWAP1 SWAP6 SWAP5 SWAP4 SWAP3 SWAP2 SWAP1 PUSH4 0xFFFFFFFF AND JUMP JUMPDEST SWAP1 POP SWAP3 SWAP2 POP POP JUMP JUMPDEST PUSH1 0x0 DUP1 PUSH1 0x0 DUP1 PUSH1 0x0 PUSH2 0x13B7 PUSH1 0x40 MLOAD DUP1 PUSH1 0x80 ADD PUSH1 0x40 MSTORE DUP1 CALLER PUSH20 0xFFFFFFFFFFFFFFFFFFFFFFFFFFFFFFFFFFFFFFFF AND DUP2 MSTORE PUSH1 0x20 ADD DUP11 PUSH1 0x2 SIGNEXTEND DUP2 MSTORE PUSH1 0x20 ADD DUP10 PUSH1 0x2 SIGNEXTEND DUP2 MSTORE PUSH1 0x20 ADD DUP9 PUSH2 0x13AC SWAP1 PUSH2 0x5EA4 JUMP JUMPDEST PUSH1 0xF SIGNEXTEND DUP2 MSTORE POP PUSH2 0x259C JUMP JUMPDEST SWAP3 POP SWAP3 POP SWAP3 POP DUP2 PUSH2 0x13C7 SWAP1 PUSH2 0x5EEC JUMP JUMPDEST SWAP5 POP DUP1 PUSH2 0x13D3 SWAP1 PUSH2 0x5EEC JUMP JUMPDEST SWAP4 POP PUSH1 0x0 DUP6 GT DUP1 PUSH2 0x13E4 JUMPI POP PUSH1 0x0 DUP5 GT JUMPDEST ISZERO PUSH2 0x14BE JUMPI DUP5 DUP4 PUSH1 0x3 ADD PUSH1 0x0 SWAP1 SLOAD SWAP1 PUSH2 0x100 EXP SWAP1 DIV PUSH16 0xFFFFFFFFFFFFFFFFFFFFFFFFFFFFFFFF AND PUSH2 0x1415 SWAP2 SWAP1 PUSH2 0x5F34 JUMP JUMPDEST DUP5 DUP5 PUSH1 0x3 ADD PUSH1 0x10 SWAP1 SLOAD SWAP1 PUSH2 0x100 EXP SWAP1 DIV PUSH16 0xFFFFFFFFFFFFFFFFFFFFFFFFFFFFFFFF AND PUSH2 0x1441 SWAP2 SWAP1 PUSH2 0x5F34 JUMP JUMPDEST DUP5 PUSH1 0x3 ADD PUSH1 0x0 DUP7 PUSH1 0x3 ADD PUSH1 0x10 DUP5 SWAP2 SWAP1 PUSH2 0x100 EXP DUP2 SLOAD DUP2 PUSH16 0xFFFFFFFFFFFFFFFFFFFFFFFFFFFFFFFF MUL NOT AND SWAP1 DUP4 PUSH16 0xFFFFFFFFFFFFFFFFFFFFFFFFFFFFFFFF AND MUL OR SWAP1 SSTORE POP DUP4 SWAP2 SWAP1 PUSH2 0x100 EXP DUP2 SLOAD DUP2 PUSH16 0xFFFFFFFFFFFFFFFFFFFFFFFFFFFFFFFF MUL NOT AND SWAP1 DUP4 PUSH16 0xFFFFFFFFFFFFFFFFFFFFFFFFFFFFFFFF AND MUL OR SWAP1 SSTORE POP POP POP JUMPDEST DUP7 PUSH1 0x2 SIGNEXTEND DUP9 PUSH1 0x2 SIGNEXTEND CALLER PUSH20 0xFFFFFFFFFFFFFFFFFFFFFFFFFFFFFFFFFFFFFFFF AND PUSH32 0xC396CD989A39F4459B5FA1AED6A9A8DCDBC45908ACFD67E028CD568DA98982C DUP10 DUP10 DUP10 PUSH1 0x40 MLOAD PUSH2 0x1510 SWAP4 SWAP3 SWAP2 SWAP1 PUSH2 0x5F78 JUMP JUMPDEST PUSH1 0x40 MLOAD DUP1 SWAP2 SUB SWAP1 LOG4 POP POP POP SWAP4 POP SWAP4 SWAP2 POP POP JUMP JUMPDEST PUSH32 0x0 DUP2 JUMP JUMPDEST PUSH32 0x0 DUP2 JUMP JUMPDEST PUSH32 0x0 DUP2 JUMP JUMPDEST PUSH1 0x0 DUP1 PUSH1 0x0 PUSH1 0x2 PUSH1 0x40 MLOAD DUP1 PUSH1 0xA0 ADD PUSH1 0x40 MSTORE SWAP1 DUP2 PUSH1 0x0 DUP3 ADD PUSH1 0x0 SWAP1 SLOAD SWAP1 PUSH2 0x100 EXP SWAP1 DIV PUSH20 0xFFFFFFFFFFFFFFFFFFFFFFFFFFFFFFFFFFFFFFFF AND PUSH20 0xFFFFFFFFFFFFFFFFFFFFFFFFFFFFFFFFFFFFFFFF AND PUSH20 0xFFFFFFFFFFFFFFFFFFFFFFFFFFFFFFFFFFFFFFFF AND DUP2 MSTORE PUSH1 0x20 ADD PUSH1 0x0 DUP3 ADD PUSH1 0x14 SWAP1 SLOAD SWAP1 PUSH2 0x100 EXP SWAP1 DIV PUSH1 0x2 SIGNEXTEND PUSH1 0x2 SIGNEXTEND PUSH1 0x2 SIGNEXTEND DUP2 MSTORE PUSH1 0x20 ADD PUSH1 0x0 DUP3 ADD PUSH1 0x17 SWAP1 SLOAD SWAP1 PUSH2 0x100 EXP SWAP1 DIV PUSH2 0xFFFF AND PUSH2 0xFFFF AND PUSH2 0xFFFF AND DUP2 MSTORE PUSH1 0x20 ADD PUSH1 0x0 DUP3 ADD PUSH1 0x19 SWAP1 SLOAD SWAP1 PUSH2 0x100 EXP SWAP1 DIV PUSH2 0xFFFF AND PUSH2 0xFFFF AND PUSH2 0xFFFF AND DUP2 MSTORE PUSH1 0x20 ADD PUSH1 0x0 DUP3 ADD PUSH1 0x1B SWAP1 SLOAD SWAP1 PUSH2 0x100 EXP SWAP1 DIV PUSH2 0xFFFF AND PUSH2 0xFFFF AND PUSH2 0xFFFF AND DUP2 MSTORE POP POP SWAP1 POP PUSH1 0x0 PUSH1 0x3 PUSH1 0x0 SWAP1 SLOAD SWAP1 PUSH2 0x100 EXP SWAP1 DIV PUSH16 0xFFFFFFFFFFFFFFFFFFFFFFFFFFFFFFFF AND SWAP1 POP DUP9 PUSH2 0x1720 JUMPI DUP2 PUSH1 0x0 ADD MLOAD PUSH20 0xFFFFFFFFFFFFFFFFFFFFFFFFFFFFFFFFFFFFFFFF AND DUP8 PUSH20 0xFFFFFFFFFFFFFFFFFFFFFFFFFFFFFFFFFFFFFFFF AND LT DUP1 PUSH2 0x171B JUMPI POP PUSH20 0xFFFD8963EFD1FC6A506488495D951D5263988D26 PUSH20 0xFFFFFFFFFFFFFFFFFFFFFFFFFFFFFFFFFFFFFFFF AND DUP8 PUSH20 0xFFFFFFFFFFFFFFFFFFFFFFFFFFFFFFFFFFFFFFFF AND GT JUMPDEST PUSH2 0x178F JUMP JUMPDEST DUP2 PUSH1 0x0 ADD MLOAD PUSH20 0xFFFFFFFFFFFFFFFFFFFFFFFFFFFFFFFFFFFFFFFF AND DUP8 PUSH20 0xFFFFFFFFFFFFFFFFFFFFFFFFFFFFFFFFFFFFFFFF AND GT DUP1 PUSH2 0x178E JUMPI POP PUSH5 0x1000276A3 PUSH20 0xFFFFFFFFFFFFFFFFFFFFFFFFFFFFFFFFFFFFFFFF AND DUP8 PUSH20 0xFFFFFFFFFFFFFFFFFFFFFFFFFFFFFFFFFFFFFFFF AND LT JUMPDEST JUMPDEST ISZERO PUSH2 0x17C6 JUMPI PUSH1 0x40 MLOAD PUSH32 0xB53BBACC00000000000000000000000000000000000000000000000000000000 DUP2 MSTORE PUSH1 0x4 ADD PUSH1 0x40 MLOAD DUP1 SWAP2 SUB SWAP1 REVERT JUMPDEST PUSH1 0x0 PUSH1 0x40 MLOAD DUP1 PUSH1 0xC0 ADD PUSH1 0x40 MSTORE DUP1 DUP11 DUP2 MSTORE PUSH1 0x20 ADD PUSH1 0x0 DUP2 MSTORE PUSH1 0x20 ADD DUP5 PUSH1 0x0 ADD MLOAD PUSH20 0xFFFFFFFFFFFFFFFFFFFFFFFFFFFFFFFFFFFFFFFF AND DUP2 MSTORE PUSH1 0x20 ADD DUP5 PUSH1 0x20 ADD MLOAD PUSH1 0x2 SIGNEXTEND DUP2 MSTORE PUSH1 0x20 ADD DUP12 PUSH2 0x181A JUMPI PUSH1 0x1 SLOAD PUSH2 0x181E JUMP JUMPDEST PUSH1 0x0 SLOAD JUMPDEST DUP2 MSTORE PUSH1 0x20 ADD DUP4 PUSH16 0xFFFFFFFFFFFFFFFFFFFFFFFFFFFFFFFF AND DUP2 MSTORE POP SWAP1 POP JUMPDEST PUSH1 0x0 DUP2 PUSH1 0x0 ADD MLOAD GT DUP1 ISZERO PUSH2 0x1880 JUMPI POP DUP8 PUSH20 0xFFFFFFFFFFFFFFFFFFFFFFFFFFFFFFFFFFFFFFFF AND DUP2 PUSH1 0x40 ADD MLOAD PUSH20 0xFFFFFFFFFFFFFFFFFFFFFFFFFFFFFFFFFFFFFFFF AND EQ ISZERO JUMPDEST ISZERO PUSH2 0x1CE8 JUMPI PUSH2 0x188D PUSH2 0x5063 JUMP JUMPDEST DUP2 PUSH1 0x40 ADD MLOAD DUP2 PUSH1 0x0 ADD SWAP1 PUSH20 0xFFFFFFFFFFFFFFFFFFFFFFFFFFFFFFFFFFFFFFFF AND SWAP1 DUP2 PUSH20 0xFFFFFFFFFFFFFFFFFFFFFFFFFFFFFFFFFFFFFFFF AND DUP2 MSTORE POP POP PUSH2 0x1905 DUP3 PUSH1 0x60 ADD MLOAD PUSH32 0x0 DUP14 PUSH1 0x5 PUSH2 0x2BE7 SWAP1 SWAP4 SWAP3 SWAP2 SWAP1 PUSH4 0xFFFFFFFF AND JUMP JUMPDEST DUP3 PUSH1 0x20 ADD DUP4 PUSH1 0x40 ADD DUP3 ISZERO ISZERO ISZERO ISZERO DUP2 MSTORE POP DUP3 PUSH1 0x2 SIGNEXTEND PUSH1 0x2 SIGNEXTEND DUP2 MSTORE POP POP POP PUSH2 0x192E DUP2 PUSH1 0x20 ADD MLOAD PUSH2 0x2DD5 JUMP JUMPDEST DUP2 PUSH1 0x60 ADD SWAP1 PUSH20 0xFFFFFFFFFFFFFFFFFFFFFFFFFFFFFFFFFFFFFFFF AND SWAP1 DUP2 PUSH20 0xFFFFFFFFFFFFFFFFFFFFFFFFFFFFFFFFFFFFFFFF AND DUP2 MSTORE POP POP PUSH2 0x1A1E DUP3 PUSH1 0x40 ADD MLOAD DUP13 PUSH2 0x19AA JUMPI DUP11 PUSH20 0xFFFFFFFFFFFFFFFFFFFFFFFFFFFFFFFFFFFFFFFF AND DUP4 PUSH1 0x60 ADD MLOAD PUSH20 0xFFFFFFFFFFFFFFFFFFFFFFFFFFFFFFFFFFFFFFFF AND GT PUSH2 0x19DE JUMP JUMPDEST DUP11 PUSH20 0xFFFFFFFFFFFFFFFFFFFFFFFFFFFFFFFFFFFFFFFF AND DUP4 PUSH1 0x60 ADD MLOAD PUSH20 0xFFFFFFFFFFFFFFFFFFFFFFFFFFFFFFFFFFFFFFFF AND LT JUMPDEST PUSH2 0x19EC JUMPI DUP3 PUSH1 0x60 ADD MLOAD PUSH2 0x19EE JUMP JUMPDEST DUP11 JUMPDEST DUP5 PUSH1 0xA0 ADD MLOAD DUP6 PUSH1 0x0 ADD MLOAD PUSH32 0x0 PUSH2 0x32A2 JUMP JUMPDEST DUP6 PUSH1 0x40 ADD DUP6 PUSH1 0x80 ADD DUP7 PUSH1 0xA0 ADD DUP8 PUSH1 0xC0 ADD DUP5 DUP2 MSTORE POP DUP5 DUP2 MSTORE POP DUP5 DUP2 MSTORE POP DUP5 PUSH20 0xFFFFFFFFFFFFFFFFFFFFFFFFFFFFFFFFFFFFFFFF AND PUSH20 0xFFFFFFFFFFFFFFFFFFFFFFFFFFFFFFFFFFFFFFFF AND DUP2 MSTORE POP POP POP POP POP DUP1 PUSH1 0xC0 ADD MLOAD DUP2 PUSH1 0x80 ADD MLOAD PUSH2 0x1A82 SWAP2 SWAP1 PUSH2 0x5CE1 JUMP JUMPDEST DUP3 PUSH1 0x0 ADD DUP2 DUP2 MLOAD PUSH2 0x1A93 SWAP2 SWAP1 PUSH2 0x5FAF JUMP JUMPDEST SWAP2 POP DUP2 DUP2 MSTORE POP POP DUP1 PUSH1 0xA0 ADD MLOAD DUP3 PUSH1 0x20 ADD DUP2 DUP2 MLOAD PUSH2 0x1AB0 SWAP2 SWAP1 PUSH2 0x5CE1 JUMP JUMPDEST SWAP2 POP DUP2 DUP2 MSTORE POP POP PUSH1 0x0 DUP3 PUSH1 0xA0 ADD MLOAD PUSH16 0xFFFFFFFFFFFFFFFFFFFFFFFFFFFFFFFF AND GT ISZERO PUSH2 0x1B25 JUMPI PUSH2 0x1B0C DUP2 PUSH1 0xC0 ADD MLOAD PUSH17 0x100000000000000000000000000000000 DUP5 PUSH1 0xA0 ADD MLOAD PUSH16 0xFFFFFFFFFFFFFFFFFFFFFFFFFFFFFFFF AND PUSH2 0x3426 JUMP JUMPDEST DUP3 PUSH1 0x80 ADD DUP2 DUP2 MLOAD PUSH2 0x1B1D SWAP2 SWAP1 PUSH2 0x5CE1 JUMP JUMPDEST SWAP2 POP DUP2 DUP2 MSTORE POP POP JUMPDEST DUP1 PUSH1 0x60 ADD MLOAD PUSH20 0xFFFFFFFFFFFFFFFFFFFFFFFFFFFFFFFFFFFFFFFF AND DUP3 PUSH1 0x40 ADD MLOAD PUSH20 0xFFFFFFFFFFFFFFFFFFFFFFFFFFFFFFFFFFFFFFFF AND SUB PUSH2 0x1C87 JUMPI DUP1 PUSH1 0x40 ADD MLOAD ISZERO PUSH2 0x1C50 JUMPI PUSH1 0x0 PUSH2 0x1BAC DUP3 PUSH1 0x20 ADD MLOAD DUP14 PUSH2 0x1B81 JUMPI PUSH1 0x0 SLOAD PUSH2 0x1B87 JUMP JUMPDEST DUP5 PUSH1 0x80 ADD MLOAD JUMPDEST DUP15 PUSH2 0x1B96 JUMPI DUP6 PUSH1 0x80 ADD MLOAD PUSH2 0x1B9A JUMP JUMPDEST PUSH1 0x1 SLOAD JUMPDEST PUSH1 0x4 PUSH2 0x353B SWAP1 SWAP4 SWAP3 SWAP2 SWAP1 PUSH4 0xFFFFFFFF AND JUMP JUMPDEST SWAP1 POP DUP12 ISZERO PUSH2 0x1BC1 JUMPI DUP1 PUSH2 0x1BBE SWAP1 PUSH2 0x5EA4 JUMP JUMPDEST SWAP1 POP JUMPDEST PUSH2 0x1BCF DUP4 PUSH1 0xA0 ADD MLOAD DUP3 PUSH2 0x35A5 JUMP JUMPDEST DUP4 PUSH1 0xA0 ADD SWAP1 PUSH16 0xFFFFFFFFFFFFFFFFFFFFFFFFFFFFFFFF AND SWAP1 DUP2 PUSH16 0xFFFFFFFFFFFFFFFFFFFFFFFFFFFFFFFF AND DUP2 MSTORE POP POP PUSH1 0x0 DUP4 PUSH1 0xA0 ADD MLOAD PUSH16 0xFFFFFFFFFFFFFFFFFFFFFFFFFFFFFFFF AND SUB PUSH2 0x1C4E JUMPI PUSH1 0x40 MLOAD PUSH32 0x4323A55500000000000000000000000000000000000000000000000000000000 DUP2 MSTORE PUSH1 0x4 ADD PUSH1 0x40 MLOAD DUP1 SWAP2 SUB SWAP1 REVERT JUMPDEST POP JUMPDEST DUP11 PUSH2 0x1C5F JUMPI DUP1 PUSH1 0x20 ADD MLOAD PUSH2 0x1C71 JUMP JUMPDEST PUSH1 0x1 DUP2 PUSH1 0x20 ADD MLOAD PUSH2 0x1C70 SWAP2 SWAP1 PUSH2 0x5FE3 JUMP JUMPDEST JUMPDEST DUP3 PUSH1 0x60 ADD SWAP1 PUSH1 0x2 SIGNEXTEND SWAP1 DUP2 PUSH1 0x2 SIGNEXTEND DUP2 MSTORE POP POP PUSH2 0x1CE2 JUMP JUMPDEST DUP1 PUSH1 0x0 ADD MLOAD PUSH20 0xFFFFFFFFFFFFFFFFFFFFFFFFFFFFFFFFFFFFFFFF AND DUP3 PUSH1 0x40 ADD MLOAD PUSH20 0xFFFFFFFFFFFFFFFFFFFFFFFFFFFFFFFFFFFFFFFF AND EQ PUSH2 0x1CE1 JUMPI PUSH2 0x1CCF DUP3 PUSH1 0x40 ADD MLOAD PUSH2 0x35E3 JUMP JUMPDEST DUP3 PUSH1 0x60 ADD SWAP1 PUSH1 0x2 SIGNEXTEND SWAP1 DUP2 PUSH1 0x2 SIGNEXTEND DUP2 MSTORE POP POP JUMPDEST JUMPDEST POP PUSH2 0x183C JUMP JUMPDEST DUP3 PUSH1 0x20 ADD MLOAD PUSH1 0x2 SIGNEXTEND DUP2 PUSH1 0x60 ADD MLOAD PUSH1 0x2 SIGNEXTEND EQ PUSH2 0x1DFF JUMPI PUSH1 0x0 DUP1 PUSH2 0x1D33 DUP6 PUSH1 0x40 ADD MLOAD PUSH2 0x1D10 PUSH2 0x2B18 JUMP JUMPDEST DUP8 PUSH1 0x20 ADD MLOAD DUP9 PUSH1 0x60 ADD MLOAD DUP10 PUSH1 0x80 ADD MLOAD PUSH1 0x7 PUSH2 0x39E2 SWAP1 SWAP6 SWAP5 SWAP4 SWAP3 SWAP2 SWAP1 PUSH4 0xFFFFFFFF AND JUMP JUMPDEST SWAP2 POP SWAP2 POP DUP3 PUSH1 0x40 ADD MLOAD DUP4 PUSH1 0x60 ADD MLOAD DUP4 DUP4 PUSH1 0x2 PUSH1 0x0 ADD PUSH1 0x0 PUSH1 0x2 PUSH1 0x0 ADD PUSH1 0x14 PUSH1 0x2 PUSH1 0x0 ADD PUSH1 0x17 PUSH1 0x2 PUSH1 0x0 ADD PUSH1 0x19 DUP9 SWAP2 SWAP1 PUSH2 0x100 EXP DUP2 SLOAD DUP2 PUSH2 0xFFFF MUL NOT AND SWAP1 DUP4 PUSH2 0xFFFF AND MUL OR SWAP1 SSTORE POP DUP8 SWAP2 SWAP1 PUSH2 0x100 EXP DUP2 SLOAD DUP2 PUSH2 0xFFFF MUL NOT AND SWAP1 DUP4 PUSH2 0xFFFF AND MUL OR SWAP1 SSTORE POP DUP7 SWAP2 SWAP1 PUSH2 0x100 EXP DUP2 SLOAD DUP2 PUSH3 0xFFFFFF MUL NOT AND SWAP1 DUP4 PUSH1 0x2 SIGNEXTEND PUSH3 0xFFFFFF AND MUL OR SWAP1 SSTORE POP DUP6 SWAP2 SWAP1 PUSH2 0x100 EXP DUP2 SLOAD DUP2 PUSH20 0xFFFFFFFFFFFFFFFFFFFFFFFFFFFFFFFFFFFFFFFF MUL NOT AND SWAP1 DUP4 PUSH20 0xFFFFFFFFFFFFFFFFFFFFFFFFFFFFFFFFFFFFFFFF AND MUL OR SWAP1 SSTORE POP POP POP POP POP POP POP PUSH2 0x1E48 JUMP JUMPDEST DUP1 PUSH1 0x40 ADD MLOAD PUSH1 0x2 PUSH1 0x0 ADD PUSH1 0x0 PUSH2 0x100 EXP DUP2 SLOAD DUP2 PUSH20 0xFFFFFFFFFFFFFFFFFFFFFFFFFFFFFFFFFFFFFFFF MUL NOT AND SWAP1 DUP4 PUSH20 0xFFFFFFFFFFFFFFFFFFFFFFFFFFFFFFFFFFFFFFFF AND MUL OR SWAP1 SSTORE POP JUMPDEST DUP1 PUSH1 0xA0 ADD MLOAD PUSH16 0xFFFFFFFFFFFFFFFFFFFFFFFFFFFFFFFF AND DUP3 PUSH16 0xFFFFFFFFFFFFFFFFFFFFFFFFFFFFFFFF AND EQ PUSH2 0x1EB5 JUMPI DUP1 PUSH1 0xA0 ADD MLOAD PUSH1 0x3 PUSH1 0x0 PUSH2 0x100 EXP DUP2 SLOAD DUP2 PUSH16 0xFFFFFFFFFFFFFFFFFFFFFFFFFFFFFFFF MUL NOT AND SWAP1 DUP4 PUSH16 0xFFFFFFFFFFFFFFFFFFFFFFFFFFFFFFFF AND MUL OR SWAP1 SSTORE POP JUMPDEST DUP10 ISZERO PUSH2 0x1ECB JUMPI DUP1 PUSH1 0x80 ADD MLOAD PUSH1 0x0 DUP2 SWAP1 SSTORE POP PUSH2 0x1ED7 JUMP JUMPDEST DUP1 PUSH1 0x80 ADD MLOAD PUSH1 0x1 DUP2 SWAP1 SSTORE POP JUMPDEST DUP10 PUSH2 0x1EFF JUMPI DUP1 PUSH1 0x20 ADD MLOAD PUSH2 0x1EEA SWAP1 PUSH2 0x5EEC JUMP JUMPDEST DUP2 PUSH1 0x0 ADD MLOAD DUP11 PUSH2 0x1EFA SWAP2 SWAP1 PUSH2 0x5FAF JUMP JUMPDEST PUSH2 0x1F1E JUMP JUMPDEST DUP1 PUSH1 0x0 ADD MLOAD DUP10 PUSH2 0x1F0F SWAP2 SWAP1 PUSH2 0x5FAF JUMP JUMPDEST DUP2 PUSH1 0x20 ADD MLOAD PUSH2 0x1F1D SWAP1 PUSH2 0x5EEC JUMP JUMPDEST JUMPDEST DUP1 SWAP6 POP DUP2 SWAP7 POP POP POP DUP10 ISZERO PUSH2 0x2091 JUMPI PUSH32 0x0 PUSH20 0xFFFFFFFFFFFFFFFFFFFFFFFFFFFFFFFFFFFFFFFF AND PUSH4 0xA9059CBB DUP13 DUP7 PUSH2 0x1F73 SWAP1 PUSH2 0x5EEC JUMP JUMPDEST PUSH1 0x40 MLOAD DUP4 PUSH4 0xFFFFFFFF AND PUSH1 0xE0 SHL DUP2 MSTORE PUSH1 0x4 ADD PUSH2 0x1F90 SWAP3 SWAP2 SWAP1 PUSH2 0x5D9C JUMP JUMPDEST PUSH1 0x0 PUSH1 0x40 MLOAD DUP1 DUP4 SUB DUP2 PUSH1 0x0 DUP8 DUP1 EXTCODESIZE ISZERO DUP1 ISZERO PUSH2 0x1FAA JUMPI PUSH1 0x0 DUP1 REVERT JUMPDEST POP GAS CALL ISZERO DUP1 ISZERO PUSH2 0x1FBE JUMPI RETURNDATASIZE PUSH1 0x0 DUP1 RETURNDATACOPY RETURNDATASIZE PUSH1 0x0 REVERT JUMPDEST POP POP POP POP PUSH1 0x0 PUSH2 0x1FCC PUSH2 0x291F JUMP JUMPDEST SWAP1 POP CALLER PUSH20 0xFFFFFFFFFFFFFFFFFFFFFFFFFFFFFFFFFFFFFFFF AND PUSH4 0xFA461E33 DUP8 DUP8 DUP12 DUP12 PUSH1 0x40 MLOAD DUP6 PUSH4 0xFFFFFFFF AND PUSH1 0xE0 SHL DUP2 MSTORE PUSH1 0x4 ADD PUSH2 0x200D SWAP5 SWAP4 SWAP3 SWAP2 SWAP1 PUSH2 0x603E JUMP JUMPDEST PUSH1 0x0 PUSH1 0x40 MLOAD DUP1 DUP4 SUB DUP2 PUSH1 0x0 DUP8 DUP1 EXTCODESIZE ISZERO DUP1 ISZERO PUSH2 0x2027 JUMPI PUSH1 0x0 DUP1 REVERT JUMPDEST POP GAS CALL ISZERO DUP1 ISZERO PUSH2 0x203B JUMPI RETURNDATASIZE PUSH1 0x0 DUP1 RETURNDATACOPY RETURNDATASIZE PUSH1 0x0 REVERT JUMPDEST POP POP POP POP PUSH2 0x2047 PUSH2 0x291F JUMP JUMPDEST DUP7 DUP3 PUSH2 0x2053 SWAP2 SWAP1 PUSH2 0x5CE1 JUMP JUMPDEST GT ISZERO PUSH2 0x208B JUMPI PUSH1 0x40 MLOAD PUSH32 0x98FB56100000000000000000000000000000000000000000000000000000000 DUP2 MSTORE PUSH1 0x4 ADD PUSH1 0x40 MLOAD DUP1 SWAP2 SUB SWAP1 REVERT JUMPDEST POP PUSH2 0x21F2 JUMP JUMPDEST PUSH32 0x0 PUSH20 0xFFFFFFFFFFFFFFFFFFFFFFFFFFFFFFFFFFFFFFFF AND PUSH4 0xA9059CBB DUP13 DUP8 PUSH2 0x20D8 SWAP1 PUSH2 0x5EEC JUMP JUMPDEST PUSH1 0x40 MLOAD DUP4 PUSH4 0xFFFFFFFF AND PUSH1 0xE0 SHL DUP2 MSTORE PUSH1 0x4 ADD PUSH2 0x20F5 SWAP3 SWAP2 SWAP1 PUSH2 0x5D9C JUMP JUMPDEST PUSH1 0x0 PUSH1 0x40 MLOAD DUP1 DUP4 SUB DUP2 PUSH1 0x0 DUP8 DUP1 EXTCODESIZE ISZERO DUP1 ISZERO PUSH2 0x210F JUMPI PUSH1 0x0 DUP1 REVERT JUMPDEST POP GAS CALL ISZERO DUP1 ISZERO PUSH2 0x2123 JUMPI RETURNDATASIZE PUSH1 0x0 DUP1 RETURNDATACOPY RETURNDATASIZE PUSH1 0x0 REVERT JUMPDEST POP POP POP POP PUSH1 0x0 PUSH2 0x2131 PUSH2 0x29C2 JUMP JUMPDEST SWAP1 POP CALLER PUSH20 0xFFFFFFFFFFFFFFFFFFFFFFFFFFFFFFFFFFFFFFFF AND PUSH4 0xFA461E33 DUP8 DUP8 DUP12 DUP12 PUSH1 0x40 MLOAD DUP6 PUSH4 0xFFFFFFFF AND PUSH1 0xE0 SHL DUP2 MSTORE PUSH1 0x4 ADD PUSH2 0x2172 SWAP5 SWAP4 SWAP3 SWAP2 SWAP1 PUSH2 0x603E JUMP JUMPDEST PUSH1 0x0 PUSH1 0x40 MLOAD DUP1 DUP4 SUB DUP2 PUSH1 0x0 DUP8 DUP1 EXTCODESIZE ISZERO DUP1 ISZERO PUSH2 0x218C JUMPI PUSH1 0x0 DUP1 REVERT JUMPDEST POP GAS CALL ISZERO DUP1 ISZERO PUSH2 0x21A0 JUMPI RETURNDATASIZE PUSH1 0x0 DUP1 RETURNDATACOPY RETURNDATASIZE PUSH1 0x0 REVERT JUMPDEST POP POP POP POP PUSH2 0x21AC PUSH2 0x29C2 JUMP JUMPDEST DUP6 DUP3 PUSH2 0x21B8 SWAP2 SWAP1 PUSH2 0x5CE1 JUMP JUMPDEST GT ISZERO PUSH2 0x21F0 JUMPI PUSH1 0x40 MLOAD PUSH32 0x98FB56100000000000000000000000000000000000000000000000000000000 DUP2 MSTORE PUSH1 0x4 ADD PUSH1 0x40 MLOAD DUP1 SWAP2 SUB SWAP1 REVERT JUMPDEST POP JUMPDEST DUP11 PUSH20 0xFFFFFFFFFFFFFFFFFFFFFFFFFFFFFFFFFFFFFFFF AND CALLER PUSH20 0xFFFFFFFFFFFFFFFFFFFFFFFFFFFFFFFFFFFFFFFF AND PUSH32 0xC42079F94A6350D7E6235F29174924F928CC2AC818EB64FED8004E115FBCCA67 DUP8 DUP8 PUSH1 0x2 PUSH1 0x0 ADD PUSH1 0x0 SWAP1 SLOAD SWAP1 PUSH2 0x100 EXP SWAP1 DIV PUSH20 0xFFFFFFFFFFFFFFFFFFFFFFFFFFFFFFFFFFFFFFFF AND DUP7 PUSH1 0xA0 ADD MLOAD PUSH1 0x2 PUSH1 0x0 ADD PUSH1 0x14 SWAP1 SLOAD SWAP1 PUSH2 0x100 EXP SWAP1 DIV PUSH1 0x2 SIGNEXTEND PUSH1 0x40 MLOAD PUSH2 0x2292 SWAP6 SWAP5 SWAP4 SWAP3 SWAP2 SWAP1 PUSH2 0x607E JUMP JUMPDEST PUSH1 0x40 MLOAD DUP1 SWAP2 SUB SWAP1 LOG3 POP POP POP SWAP7 POP SWAP7 SWAP5 POP POP POP POP POP JUMP JUMPDEST PUSH32 0x0 DUP2 JUMP JUMPDEST PUSH1 0x0 SLOAD DUP2 JUMP JUMPDEST PUSH1 0x4 PUSH1 0x20 MSTORE DUP1 PUSH1 0x0 MSTORE PUSH1 0x40 PUSH1 0x0 KECCAK256 PUSH1 0x0 SWAP2 POP SWAP1 POP DUP1 PUSH1 0x0 ADD PUSH1 0x0 SWAP1 SLOAD SWAP1 PUSH2 0x100 EXP SWAP1 DIV PUSH1 0xFF AND SWAP1 DUP1 PUSH1 0x0 ADD PUSH1 0x1 SWAP1 SLOAD SWAP1 PUSH2 0x100 EXP SWAP1 DIV PUSH16 0xFFFFFFFFFFFFFFFFFFFFFFFFFFFFFFFF AND SWAP1 DUP1 PUSH1 0x1 ADD PUSH1 0x0 SWAP1 SLOAD SWAP1 PUSH2 0x100 EXP SWAP1 DIV PUSH1 0xF SIGNEXTEND SWAP1 DUP1 PUSH1 0x2 ADD SLOAD SWAP1 DUP1 PUSH1 0x3 ADD SLOAD SWAP1 POP DUP6 JUMP JUMPDEST PUSH1 0x0 PUSH1 0x2 PUSH1 0x0 ADD PUSH1 0x0 SWAP1 SLOAD SWAP1 PUSH2 0x100 EXP SWAP1 DIV PUSH20 0xFFFFFFFFFFFFFFFFFFFFFFFFFFFFFFFFFFFFFFFF AND PUSH20 0xFFFFFFFFFFFFFFFFFFFFFFFFFFFFFFFFFFFFFFFF AND EQ PUSH2 0x23B3 JUMPI PUSH1 0x40 MLOAD PUSH32 0xDC149F000000000000000000000000000000000000000000000000000000000 DUP2 MSTORE PUSH1 0x4 ADD PUSH1 0x40 MLOAD DUP1 SWAP2 SUB SWAP1 REVERT JUMPDEST PUSH1 0x0 PUSH2 0x23BE DUP3 PUSH2 0x35E3 JUMP JUMPDEST SWAP1 POP PUSH1 0x0 DUP1 PUSH2 0x23DE PUSH2 0x23CE PUSH2 0x2B18 JUMP JUMPDEST PUSH1 0x7 PUSH2 0x3B8E SWAP1 SWAP2 SWAP1 PUSH4 0xFFFFFFFF AND JUMP JUMPDEST SWAP2 POP SWAP2 POP PUSH1 0x40 MLOAD DUP1 PUSH1 0xA0 ADD PUSH1 0x40 MSTORE DUP1 DUP6 PUSH20 0xFFFFFFFFFFFFFFFFFFFFFFFFFFFFFFFFFFFFFFFF AND DUP2 MSTORE PUSH1 0x20 ADD DUP5 PUSH1 0x2 SIGNEXTEND DUP2 MSTORE PUSH1 0x20 ADD PUSH1 0x0 PUSH2 0xFFFF AND DUP2 MSTORE PUSH1 0x20 ADD DUP4 PUSH2 0xFFFF AND DUP2 MSTORE PUSH1 0x20 ADD DUP3 PUSH2 0xFFFF AND DUP2 MSTORE POP PUSH1 0x2 PUSH1 0x0 DUP3 ADD MLOAD DUP2 PUSH1 0x0 ADD PUSH1 0x0 PUSH2 0x100 EXP DUP2 SLOAD DUP2 PUSH20 0xFFFFFFFFFFFFFFFFFFFFFFFFFFFFFFFFFFFFFFFF MUL NOT AND SWAP1 DUP4 PUSH20 0xFFFFFFFFFFFFFFFFFFFFFFFFFFFFFFFFFFFFFFFF AND MUL OR SWAP1 SSTORE POP PUSH1 0x20 DUP3 ADD MLOAD DUP2 PUSH1 0x0 ADD PUSH1 0x14 PUSH2 0x100 EXP DUP2 SLOAD DUP2 PUSH3 0xFFFFFF MUL NOT AND SWAP1 DUP4 PUSH1 0x2 SIGNEXTEND PUSH3 0xFFFFFF AND MUL OR SWAP1 SSTORE POP PUSH1 0x40 DUP3 ADD MLOAD DUP2 PUSH1 0x0 ADD PUSH1 0x17 PUSH2 0x100 EXP DUP2 SLOAD DUP2 PUSH2 0xFFFF MUL NOT AND SWAP1 DUP4 PUSH2 0xFFFF AND MUL OR SWAP1 SSTORE POP PUSH1 0x60 DUP3 ADD MLOAD DUP2 PUSH1 0x0 ADD PUSH1 0x19 PUSH2 0x100 EXP DUP2 SLOAD DUP2 PUSH2 0xFFFF MUL NOT AND SWAP1 DUP4 PUSH2 0xFFFF AND MUL OR SWAP1 SSTORE POP PUSH1 0x80 DUP3 ADD MLOAD DUP2 PUSH1 0x0 ADD PUSH1 0x1B PUSH2 0x100 EXP DUP2 SLOAD DUP2 PUSH2 0xFFFF MUL NOT AND SWAP1 DUP4 PUSH2 0xFFFF AND MUL OR SWAP1 SSTORE POP SWAP1 POP POP POP POP POP POP JUMP JUMPDEST PUSH1 0x0 DUP3 PUSH2 0xFFFF AND DUP3 PUSH2 0xFFFF AND GT PUSH2 0x252B JUMPI DUP3 SWAP1 POP PUSH2 0x2595 JUMP JUMPDEST PUSH1 0x0 DUP4 SWAP1 POP JUMPDEST DUP3 PUSH2 0xFFFF AND DUP2 PUSH2 0xFFFF AND LT ISZERO PUSH2 0x2590 JUMPI PUSH1 0x1 DUP6 DUP3 PUSH2 0xFFFF AND PUSH2 0xFFFF DUP2 LT PUSH2 0x255B JUMPI PUSH2 0x255A PUSH2 0x60D1 JUMP JUMPDEST JUMPDEST ADD PUSH1 0x0 ADD PUSH1 0x0 PUSH2 0x100 EXP DUP2 SLOAD DUP2 PUSH4 0xFFFFFFFF MUL NOT AND SWAP1 DUP4 PUSH4 0xFFFFFFFF AND MUL OR SWAP1 SSTORE POP DUP1 DUP1 PUSH2 0x2588 SWAP1 PUSH2 0x6100 JUMP JUMPDEST SWAP2 POP POP PUSH2 0x2531 JUMP JUMPDEST POP DUP2 SWAP1 POP JUMPDEST SWAP4 SWAP3 POP POP POP JUMP JUMPDEST PUSH1 0x0 DUP1 PUSH1 0x0 DUP1 PUSH1 0x2 PUSH1 0x40 MLOAD DUP1 PUSH1 0xA0 ADD PUSH1 0x40 MSTORE SWAP1 DUP2 PUSH1 0x0 DUP3 ADD PUSH1 0x0 SWAP1 SLOAD SWAP1 PUSH2 0x100 EXP SWAP1 DIV PUSH20 0xFFFFFFFFFFFFFFFFFFFFFFFFFFFFFFFFFFFFFFFF AND PUSH20 0xFFFFFFFFFFFFFFFFFFFFFFFFFFFFFFFFFFFFFFFF AND PUSH20 0xFFFFFFFFFFFFFFFFFFFFFFFFFFFFFFFFFFFFFFFF AND DUP2 MSTORE PUSH1 0x20 ADD PUSH1 0x0 DUP3 ADD PUSH1 0x14 SWAP1 SLOAD SWAP1 PUSH2 0x100 EXP SWAP1 DIV PUSH1 0x2 SIGNEXTEND PUSH1 0x2 SIGNEXTEND PUSH1 0x2 SIGNEXTEND DUP2 MSTORE PUSH1 0x20 ADD PUSH1 0x0 DUP3 ADD PUSH1 0x17 SWAP1 SLOAD SWAP1 PUSH2 0x100 EXP SWAP1 DIV PUSH2 0xFFFF AND PUSH2 0xFFFF AND PUSH2 0xFFFF AND DUP2 MSTORE PUSH1 0x20 ADD PUSH1 0x0 DUP3 ADD PUSH1 0x19 SWAP1 SLOAD SWAP1 PUSH2 0x100 EXP SWAP1 DIV PUSH2 0xFFFF AND PUSH2 0xFFFF AND PUSH2 0xFFFF AND DUP2 MSTORE PUSH1 0x20 ADD PUSH1 0x0 DUP3 ADD PUSH1 0x1B SWAP1 SLOAD SWAP1 PUSH2 0x100 EXP SWAP1 DIV PUSH2 0xFFFF AND PUSH2 0xFFFF AND PUSH2 0xFFFF AND DUP2 MSTORE POP POP SWAP1 POP PUSH1 0x0 DUP1 SLOAD SWAP1 POP PUSH1 0x0 PUSH1 0x1 SLOAD SWAP1 POP PUSH2 0x26B5 DUP8 PUSH1 0x0 ADD MLOAD DUP9 PUSH1 0x20 ADD MLOAD DUP10 PUSH1 0x40 ADD MLOAD PUSH1 0x6 PUSH2 0x2AD0 SWAP1 SWAP4 SWAP3 SWAP2 SWAP1 PUSH4 0xFFFFFFFF AND JUMP JUMPDEST SWAP6 POP PUSH1 0x0 PUSH2 0x26E4 DUP9 PUSH1 0x20 ADD MLOAD DUP6 PUSH1 0x20 ADD MLOAD DUP11 PUSH1 0x60 ADD MLOAD DUP7 DUP7 PUSH1 0x0 PUSH1 0x4 PUSH2 0x3C58 SWAP1 SWAP7 SWAP6 SWAP5 SWAP4 SWAP3 SWAP2 SWAP1 PUSH4 0xFFFFFFFF AND JUMP JUMPDEST SWAP1 POP PUSH1 0x0 PUSH2 0x2713 DUP10 PUSH1 0x40 ADD MLOAD DUP7 PUSH1 0x20 ADD MLOAD DUP12 PUSH1 0x60 ADD MLOAD DUP8 DUP8 PUSH1 0x1 PUSH1 0x4 PUSH2 0x3C58 SWAP1 SWAP7 SWAP6 SWAP5 SWAP4 SWAP3 SWAP2 SWAP1 PUSH4 0xFFFFFFFF AND JUMP JUMPDEST SWAP1 POP DUP2 ISZERO PUSH2 0x2756 JUMPI PUSH2 0x2755 DUP10 PUSH1 0x20 ADD MLOAD PUSH32 0x0 PUSH1 0x5 PUSH2 0x3E0B SWAP1 SWAP3 SWAP2 SWAP1 PUSH4 0xFFFFFFFF AND JUMP JUMPDEST JUMPDEST DUP1 ISZERO PUSH2 0x2797 JUMPI PUSH2 0x2796 DUP10 PUSH1 0x40 ADD MLOAD PUSH32 0x0 PUSH1 0x5 PUSH2 0x3E0B SWAP1 SWAP3 SWAP2 SWAP1 PUSH4 0xFFFFFFFF AND JUMP JUMPDEST JUMPDEST PUSH1 0x0 DUP1 PUSH2 0x27C2 DUP12 PUSH1 0x20 ADD MLOAD DUP13 PUSH1 0x40 ADD MLOAD DUP10 PUSH1 0x20 ADD MLOAD DUP10 DUP10 PUSH1 0x4 PUSH2 0x3E7B SWAP1 SWAP6 SWAP5 SWAP4 SWAP3 SWAP2 SWAP1 PUSH4 0xFFFFFFFF AND JUMP JUMPDEST SWAP2 POP SWAP2 POP PUSH2 0x27E1 DUP12 PUSH1 0x60 ADD MLOAD DUP4 DUP4 DUP14 PUSH2 0x3F8A SWAP1 SWAP4 SWAP3 SWAP2 SWAP1 PUSH4 0xFFFFFFFF AND JUMP JUMPDEST DUP11 PUSH1 0x20 ADD MLOAD PUSH1 0x2 SIGNEXTEND DUP8 PUSH1 0x20 ADD MLOAD PUSH1 0x2 SIGNEXTEND SLT ISZERO PUSH2 0x2825 JUMPI PUSH2 0x281E PUSH2 0x2807 DUP13 PUSH1 0x20 ADD MLOAD PUSH2 0x2DD5 JUMP JUMPDEST PUSH2 0x2814 DUP14 PUSH1 0x40 ADD MLOAD PUSH2 0x2DD5 JUMP JUMPDEST DUP14 PUSH1 0x60 ADD MLOAD PUSH2 0x41CD JUMP JUMPDEST SWAP9 POP PUSH2 0x2911 JUMP JUMPDEST DUP11 PUSH1 0x40 ADD MLOAD PUSH1 0x2 SIGNEXTEND DUP8 PUSH1 0x20 ADD MLOAD PUSH1 0x2 SIGNEXTEND SLT ISZERO PUSH2 0x28E6 JUMPI PUSH2 0x285A DUP8 PUSH1 0x0 ADD MLOAD PUSH2 0x2850 DUP14 PUSH1 0x40 ADD MLOAD PUSH2 0x2DD5 JUMP JUMPDEST DUP14 PUSH1 0x60 ADD MLOAD PUSH2 0x41CD JUMP JUMPDEST SWAP9 POP PUSH2 0x287B PUSH2 0x286C DUP13 PUSH1 0x20 ADD MLOAD PUSH2 0x2DD5 JUMP JUMPDEST DUP9 PUSH1 0x0 ADD MLOAD DUP14 PUSH1 0x60 ADD MLOAD PUSH2 0x4214 JUMP JUMPDEST SWAP8 POP PUSH2 0x28A9 PUSH1 0x3 PUSH1 0x0 SWAP1 SLOAD SWAP1 PUSH2 0x100 EXP SWAP1 DIV PUSH16 0xFFFFFFFFFFFFFFFFFFFFFFFFFFFFFFFF AND DUP13 PUSH1 0x60 ADD MLOAD PUSH2 0x35A5 JUMP JUMPDEST PUSH1 0x3 PUSH1 0x0 PUSH2 0x100 EXP DUP2 SLOAD DUP2 PUSH16 0xFFFFFFFFFFFFFFFFFFFFFFFFFFFFFFFF MUL NOT AND SWAP1 DUP4 PUSH16 0xFFFFFFFFFFFFFFFFFFFFFFFFFFFFFFFF AND MUL OR SWAP1 SSTORE POP PUSH2 0x2910 JUMP JUMPDEST PUSH2 0x290D PUSH2 0x28F6 DUP13 PUSH1 0x20 ADD MLOAD PUSH2 0x2DD5 JUMP JUMPDEST PUSH2 0x2903 DUP14 PUSH1 0x40 ADD MLOAD PUSH2 0x2DD5 JUMP JUMPDEST DUP14 PUSH1 0x60 ADD MLOAD PUSH2 0x4214 JUMP JUMPDEST SWAP8 POP JUMPDEST JUMPDEST POP POP POP POP POP POP POP SWAP2 SWAP4 SWAP1 SWAP3 POP JUMP JUMPDEST PUSH1 0x0 PUSH32 0x0 PUSH20 0xFFFFFFFFFFFFFFFFFFFFFFFFFFFFFFFFFFFFFFFF AND PUSH4 0x70A08231 ADDRESS PUSH1 0x40 MLOAD DUP3 PUSH4 0xFFFFFFFF AND PUSH1 0xE0 SHL DUP2 MSTORE PUSH1 0x4 ADD PUSH2 0x297A SWAP2 SWAP1 PUSH2 0x513E JUMP JUMPDEST PUSH1 0x20 PUSH1 0x40 MLOAD DUP1 DUP4 SUB DUP2 PUSH1 0x0 DUP8 GAS CALL ISZERO DUP1 ISZERO PUSH2 0x2999 JUMPI RETURNDATASIZE PUSH1 0x0 DUP1 RETURNDATACOPY RETURNDATASIZE PUSH1 0x0 REVERT JUMPDEST POP POP POP POP PUSH1 0x40 MLOAD RETURNDATASIZE PUSH1 0x1F NOT PUSH1 0x1F DUP3 ADD AND DUP3 ADD DUP1 PUSH1 0x40 MSTORE POP DUP2 ADD SWAP1 PUSH2 0x29BD SWAP2 SWAP1 PUSH2 0x5D6F JUMP JUMPDEST SWAP1 POP SWAP1 JUMP JUMPDEST PUSH1 0x0 PUSH32 0x0 PUSH20 0xFFFFFFFFFFFFFFFFFFFFFFFFFFFFFFFFFFFFFFFF AND PUSH4 0x70A08231 ADDRESS PUSH1 0x40 MLOAD DUP3 PUSH4 0xFFFFFFFF AND PUSH1 0xE0 SHL DUP2 MSTORE PUSH1 0x4 ADD PUSH2 0x2A1D SWAP2 SWAP1 PUSH2 0x513E JUMP JUMPDEST PUSH1 0x20 PUSH1 0x40 MLOAD DUP1 DUP4 SUB DUP2 PUSH1 0x0 DUP8 GAS CALL ISZERO DUP1 ISZERO PUSH2 0x2A3C JUMPI RETURNDATASIZE PUSH1 0x0 DUP1 RETURNDATACOPY RETURNDATASIZE PUSH1 0x0 REVERT JUMPDEST POP POP POP POP PUSH1 0x40 MLOAD RETURNDATASIZE PUSH1 0x1F NOT PUSH1 0x1F DUP3 ADD AND DUP3 ADD DUP1 PUSH1 0x40 MSTORE POP DUP2 ADD SWAP1 PUSH2 0x2A60 SWAP2 SWAP1 PUSH2 0x5D6F JUMP JUMPDEST SWAP1 POP SWAP1 JUMP JUMPDEST PUSH1 0x0 PUSH2 0x2A72 DUP5 DUP5 DUP5 PUSH2 0x3426 JUMP JUMPDEST SWAP1 POP PUSH1 0x0 DUP3 DUP1 PUSH2 0x2A85 JUMPI PUSH2 0x2A84 PUSH2 0x612A JUMP JUMPDEST JUMPDEST DUP5 DUP7 MULMOD GT ISZERO PUSH2 0x2AC9 JUMPI PUSH32 0xFFFFFFFFFFFFFFFFFFFFFFFFFFFFFFFFFFFFFFFFFFFFFFFFFFFFFFFFFFFFFFFF DUP2 LT PUSH2 0x2ABA JUMPI PUSH1 0x0 DUP1 REVERT JUMPDEST DUP1 DUP1 PUSH2 0x2AC5 SWAP1 PUSH2 0x6159 JUMP JUMPDEST SWAP2 POP POP JUMPDEST SWAP4 SWAP3 POP POP POP JUMP JUMPDEST PUSH1 0x0 DUP5 PUSH1 0x0 DUP6 DUP6 DUP6 PUSH1 0x40 MLOAD PUSH1 0x20 ADD PUSH2 0x2AEA SWAP4 SWAP3 SWAP2 SWAP1 PUSH2 0x621F JUMP JUMPDEST PUSH1 0x40 MLOAD PUSH1 0x20 DUP2 DUP4 SUB SUB DUP2 MSTORE SWAP1 PUSH1 0x40 MSTORE DUP1 MLOAD SWAP1 PUSH1 0x20 ADD KECCAK256 DUP2 MSTORE PUSH1 0x20 ADD SWAP1 DUP2 MSTORE PUSH1 0x20 ADD PUSH1 0x0 KECCAK256 SWAP1 POP SWAP5 SWAP4 POP POP POP POP JUMP JUMPDEST PUSH1 0x0 TIMESTAMP SWAP1 POP SWAP1 JUMP JUMPDEST PUSH1 0x60 DUP5 MLOAD PUSH8 0xFFFFFFFFFFFFFFFF DUP2 GT ISZERO PUSH2 0x2B3D JUMPI PUSH2 0x2B3C PUSH2 0x625C JUMP JUMPDEST JUMPDEST PUSH1 0x40 MLOAD SWAP1 DUP1 DUP3 MSTORE DUP1 PUSH1 0x20 MUL PUSH1 0x20 ADD DUP3 ADD PUSH1 0x40 MSTORE DUP1 ISZERO PUSH2 0x2B6B JUMPI DUP2 PUSH1 0x20 ADD PUSH1 0x20 DUP3 MUL DUP1 CALLDATASIZE DUP4 CALLDATACOPY DUP1 DUP3 ADD SWAP2 POP POP SWAP1 POP JUMPDEST POP SWAP1 POP PUSH1 0x0 JUMPDEST DUP6 MLOAD DUP2 LT ISZERO PUSH2 0x2BDC JUMPI PUSH2 0x2BA2 DUP9 DUP9 DUP9 DUP5 DUP2 MLOAD DUP2 LT PUSH2 0x2B92 JUMPI PUSH2 0x2B91 PUSH2 0x60D1 JUMP JUMPDEST JUMPDEST PUSH1 0x20 MUL PUSH1 0x20 ADD ADD MLOAD DUP9 DUP9 DUP9 PUSH2 0x425B JUMP JUMPDEST DUP3 DUP3 DUP2 MLOAD DUP2 LT PUSH2 0x2BB5 JUMPI PUSH2 0x2BB4 PUSH2 0x60D1 JUMP JUMPDEST JUMPDEST PUSH1 0x20 MUL PUSH1 0x20 ADD ADD SWAP1 PUSH1 0x6 SIGNEXTEND SWAP1 DUP2 PUSH1 0x6 SIGNEXTEND DUP2 MSTORE POP POP DUP1 DUP1 PUSH2 0x2BD4 SWAP1 PUSH2 0x6159 JUMP JUMPDEST SWAP2 POP POP PUSH2 0x2B71 JUMP JUMPDEST POP SWAP7 SWAP6 POP POP POP POP POP POP JUMP JUMPDEST PUSH1 0x0 DUP1 PUSH1 0x0 DUP5 DUP7 PUSH2 0x2BF8 SWAP2 SWAP1 PUSH2 0x628B JUMP JUMPDEST SWAP1 POP PUSH1 0x0 DUP7 PUSH1 0x2 SIGNEXTEND SLT DUP1 ISZERO PUSH2 0x2C1C JUMPI POP PUSH1 0x0 DUP6 DUP8 PUSH2 0x2C16 SWAP2 SWAP1 PUSH2 0x62F5 JUMP JUMPDEST PUSH1 0x2 SIGNEXTEND EQ ISZERO JUMPDEST ISZERO PUSH2 0x2C30 JUMPI DUP1 DUP1 PUSH2 0x2C2C SWAP1 PUSH2 0x6326 JUMP JUMPDEST SWAP2 POP POP JUMPDEST DUP4 ISZERO PUSH2 0x2CF3 JUMPI PUSH1 0x0 DUP1 PUSH2 0x2C42 DUP4 PUSH2 0x4416 JUMP JUMPDEST SWAP2 POP SWAP2 POP PUSH1 0x0 DUP2 PUSH1 0xFF AND PUSH1 0x1 SWAP1 SHL PUSH1 0x1 DUP4 PUSH1 0xFF AND PUSH1 0x1 SWAP1 SHL PUSH2 0x2C64 SWAP2 SWAP1 PUSH2 0x5FAF JUMP JUMPDEST PUSH2 0x2C6E SWAP2 SWAP1 PUSH2 0x5CE1 JUMP JUMPDEST SWAP1 POP PUSH1 0x0 DUP2 DUP12 PUSH1 0x0 DUP7 PUSH1 0x1 SIGNEXTEND PUSH1 0x1 SIGNEXTEND DUP2 MSTORE PUSH1 0x20 ADD SWAP1 DUP2 MSTORE PUSH1 0x20 ADD PUSH1 0x0 KECCAK256 SLOAD AND SWAP1 POP PUSH1 0x0 DUP2 EQ ISZERO SWAP6 POP DUP6 PUSH2 0x2CBA JUMPI DUP9 DUP4 PUSH1 0xFF AND DUP7 PUSH2 0x2CAB SWAP2 SWAP1 PUSH2 0x5FE3 JUMP JUMPDEST PUSH2 0x2CB5 SWAP2 SWAP1 PUSH2 0x636E JUMP JUMPDEST PUSH2 0x2CE8 JUMP JUMPDEST DUP9 PUSH2 0x2CC4 DUP3 PUSH2 0x4438 JUMP JUMPDEST DUP5 PUSH2 0x2CCF SWAP2 SWAP1 PUSH2 0x63B8 JUMP JUMPDEST PUSH1 0xFF AND DUP7 PUSH2 0x2CDD SWAP2 SWAP1 PUSH2 0x5FE3 JUMP JUMPDEST PUSH2 0x2CE7 SWAP2 SWAP1 PUSH2 0x636E JUMP JUMPDEST JUMPDEST SWAP7 POP POP POP POP POP PUSH2 0x2DCB JUMP JUMPDEST PUSH1 0x0 DUP1 PUSH2 0x2D0B PUSH1 0x1 DUP5 PUSH2 0x2D06 SWAP2 SWAP1 PUSH2 0x63ED JUMP JUMPDEST PUSH2 0x4416 JUMP JUMPDEST SWAP2 POP SWAP2 POP PUSH1 0x0 PUSH1 0x1 DUP3 PUSH1 0xFF AND PUSH1 0x1 SWAP1 SHL PUSH2 0x2D25 SWAP2 SWAP1 PUSH2 0x5FAF JUMP JUMPDEST NOT SWAP1 POP PUSH1 0x0 DUP2 DUP12 PUSH1 0x0 DUP7 PUSH1 0x1 SIGNEXTEND PUSH1 0x1 SIGNEXTEND DUP2 MSTORE PUSH1 0x20 ADD SWAP1 DUP2 MSTORE PUSH1 0x20 ADD PUSH1 0x0 KECCAK256 SLOAD AND SWAP1 POP PUSH1 0x0 DUP2 EQ ISZERO SWAP6 POP DUP6 PUSH2 0x2D8A JUMPI DUP9 DUP4 PUSH1 0xFF PUSH2 0x2D61 SWAP2 SWAP1 PUSH2 0x63B8 JUMP JUMPDEST PUSH1 0xFF AND PUSH1 0x1 DUP8 PUSH2 0x2D71 SWAP2 SWAP1 PUSH2 0x63ED JUMP JUMPDEST PUSH2 0x2D7B SWAP2 SWAP1 PUSH2 0x63ED JUMP JUMPDEST PUSH2 0x2D85 SWAP2 SWAP1 PUSH2 0x636E JUMP JUMPDEST PUSH2 0x2DC4 JUMP JUMPDEST DUP9 DUP4 PUSH2 0x2D95 DUP4 PUSH2 0x455B JUMP JUMPDEST PUSH2 0x2D9F SWAP2 SWAP1 PUSH2 0x63B8 JUMP JUMPDEST PUSH1 0xFF AND PUSH1 0x1 DUP8 PUSH2 0x2DAF SWAP2 SWAP1 PUSH2 0x63ED JUMP JUMPDEST PUSH2 0x2DB9 SWAP2 SWAP1 PUSH2 0x63ED JUMP JUMPDEST PUSH2 0x2DC3 SWAP2 SWAP1 PUSH2 0x636E JUMP JUMPDEST JUMPDEST SWAP7 POP POP POP POP POP JUMPDEST POP SWAP5 POP SWAP5 SWAP3 POP POP POP JUMP JUMPDEST PUSH1 0x0 DUP1 PUSH1 0x0 DUP4 PUSH1 0x2 SIGNEXTEND SLT PUSH2 0x2DEC JUMPI DUP3 PUSH1 0x2 SIGNEXTEND PUSH2 0x2DFA JUMP JUMPDEST DUP3 PUSH1 0x2 SIGNEXTEND PUSH2 0x2DF9 SWAP1 PUSH2 0x5EEC JUMP JUMPDEST JUMPDEST SWAP1 POP PUSH32 0xFFFFFFFFFFFFFFFFFFFFFFFFFFFFFFFFFFFFFFFFFFFFFFFFFFFFFFFFFFF27618 PUSH2 0x2E26 SWAP1 PUSH2 0x5BFB JUMP JUMPDEST PUSH3 0xFFFFFF AND DUP2 GT ISZERO PUSH2 0x2E6D JUMPI PUSH1 0x40 MLOAD PUSH32 0x8C379A000000000000000000000000000000000000000000000000000000000 DUP2 MSTORE PUSH1 0x4 ADD PUSH2 0x2E64 SWAP1 PUSH2 0x64A5 JUMP JUMPDEST PUSH1 0x40 MLOAD DUP1 SWAP2 SUB SWAP1 REVERT JUMPDEST PUSH1 0x0 DUP1 PUSH1 0x1 DUP4 AND SUB PUSH2 0x2E90 JUMPI PUSH17 0x100000000000000000000000000000000 PUSH2 0x2EA2 JUMP JUMPDEST PUSH16 0xFFFCB933BD6FAD37AA2D162D1A594001 JUMPDEST PUSH17 0xFFFFFFFFFFFFFFFFFFFFFFFFFFFFFFFFFF AND SWAP1 POP PUSH1 0x0 PUSH1 0x2 DUP4 AND EQ PUSH2 0x2EE5 JUMPI PUSH1 0x80 PUSH16 0xFFF97272373D413259A46990580E213A DUP3 PUSH2 0x2EE0 SWAP2 SWAP1 PUSH2 0x64C5 JUMP JUMPDEST SWAP1 SHR SWAP1 POP JUMPDEST PUSH1 0x0 PUSH1 0x4 DUP4 AND EQ PUSH2 0x2F13 JUMPI PUSH1 0x80 PUSH16 0xFFF2E50F5F656932EF12357CF3C7FDCC DUP3 PUSH2 0x2F0E SWAP2 SWAP1 PUSH2 0x64C5 JUMP JUMPDEST SWAP1 SHR SWAP1 POP JUMPDEST PUSH1 0x0 PUSH1 0x8 DUP4 AND EQ PUSH2 0x2F41 JUMPI PUSH1 0x80 PUSH16 0xFFE5CACA7E10E4E61C3624EAA0941CD0 DUP3 PUSH2 0x2F3C SWAP2 SWAP1 PUSH2 0x64C5 JUMP JUMPDEST SWAP1 SHR SWAP1 POP JUMPDEST PUSH1 0x0 PUSH1 0x10 DUP4 AND EQ PUSH2 0x2F6F JUMPI PUSH1 0x80 PUSH16 0xFFCB9843D60F6159C9DB58835C926644 DUP3 PUSH2 0x2F6A SWAP2 SWAP1 PUSH2 0x64C5 JUMP JUMPDEST SWAP1 SHR SWAP1 POP JUMPDEST PUSH1 0x0 PUSH1 0x20 DUP4 AND EQ PUSH2 0x2F9D JUMPI PUSH1 0x80 PUSH16 0xFF973B41FA98C081472E6896DFB254C0 DUP3 PUSH2 0x2F98 SWAP2 SWAP1 PUSH2 0x64C5 JUMP JUMPDEST SWAP1 SHR SWAP1 POP JUMPDEST PUSH1 0x0 PUSH1 0x40 DUP4 AND EQ PUSH2 0x2FCB JUMPI PUSH1 0x80 PUSH16 0xFF2EA16466C96A3843EC78B326B52861 DUP3 PUSH2 0x2FC6 SWAP2 SWAP1 PUSH2 0x64C5 JUMP JUMPDEST SWAP1 SHR SWAP1 POP JUMPDEST PUSH1 0x0 PUSH1 0x80 DUP4 AND EQ PUSH2 0x2FF9 JUMPI PUSH1 0x80 PUSH16 0xFE5DEE046A99A2A811C461F1969C3053 DUP3 PUSH2 0x2FF4 SWAP2 SWAP1 PUSH2 0x64C5 JUMP JUMPDEST SWAP1 SHR SWAP1 POP JUMPDEST PUSH1 0x0 PUSH2 0x100 DUP4 AND EQ PUSH2 0x3028 JUMPI PUSH1 0x80 PUSH16 0xFCBE86C7900A88AEDCFFC83B479AA3A4 DUP3 PUSH2 0x3023 SWAP2 SWAP1 PUSH2 0x64C5 JUMP JUMPDEST SWAP1 SHR SWAP1 POP JUMPDEST PUSH1 0x0 PUSH2 0x200 DUP4 AND EQ PUSH2 0x3057 JUMPI PUSH1 0x80 PUSH16 0xF987A7253AC413176F2B074CF7815E54 DUP3 PUSH2 0x3052 SWAP2 SWAP1 PUSH2 0x64C5 JUMP JUMPDEST SWAP1 SHR SWAP1 POP JUMPDEST PUSH1 0x0 PUSH2 0x400 DUP4 AND EQ PUSH2 0x3086 JUMPI PUSH1 0x80 PUSH16 0xF3392B0822B70005940C7A398E4B70F3 DUP3 PUSH2 0x3081 SWAP2 SWAP1 PUSH2 0x64C5 JUMP JUMPDEST SWAP1 SHR SWAP1 POP JUMPDEST PUSH1 0x0 PUSH2 0x800 DUP4 AND EQ PUSH2 0x30B5 JUMPI PUSH1 0x80 PUSH16 0xE7159475A2C29B7443B29C7FA6E889D9 DUP3 PUSH2 0x30B0 SWAP2 SWAP1 PUSH2 0x64C5 JUMP JUMPDEST SWAP1 SHR SWAP1 POP JUMPDEST PUSH1 0x0 PUSH2 0x1000 DUP4 AND EQ PUSH2 0x30E4 JUMPI PUSH1 0x80 PUSH16 0xD097F3BDFD2022B8845AD8F792AA5825 DUP3 PUSH2 0x30DF SWAP2 SWAP1 PUSH2 0x64C5 JUMP JUMPDEST SWAP1 SHR SWAP1 POP JUMPDEST PUSH1 0x0 PUSH2 0x2000 DUP4 AND EQ PUSH2 0x3113 JUMPI PUSH1 0x80 PUSH16 0xA9F746462D870FDF8A65DC1F90E061E5 DUP3 PUSH2 0x310E SWAP2 SWAP1 PUSH2 0x64C5 JUMP JUMPDEST SWAP1 SHR SWAP1 POP JUMPDEST PUSH1 0x0 PUSH2 0x4000 DUP4 AND EQ PUSH2 0x3142 JUMPI PUSH1 0x80 PUSH16 0x70D869A156D2A1B890BB3DF62BAF32F7 DUP3 PUSH2 0x313D SWAP2 SWAP1 PUSH2 0x64C5 JUMP JUMPDEST SWAP1 SHR SWAP1 POP JUMPDEST PUSH1 0x0 PUSH2 0x8000 DUP4 AND EQ PUSH2 0x3171 JUMPI PUSH1 0x80 PUSH16 0x31BE135F97D08FD981231505542FCFA6 DUP3 PUSH2 0x316C SWAP2 SWAP1 PUSH2 0x64C5 JUMP JUMPDEST SWAP1 SHR SWAP1 POP JUMPDEST PUSH1 0x0 PUSH3 0x10000 DUP4 AND EQ PUSH2 0x31A1 JUMPI PUSH1 0x80 PUSH16 0x9AA508B5B7A84E1C677DE54F3E99BC9 DUP3 PUSH2 0x319C SWAP2 SWAP1 PUSH2 0x64C5 JUMP JUMPDEST SWAP1 SHR SWAP1 POP JUMPDEST PUSH1 0x0 PUSH3 0x20000 DUP4 AND EQ PUSH2 0x31D0 JUMPI PUSH1 0x80 PUSH15 0x5D6AF8DEDB81196699C329225EE604 DUP3 PUSH2 0x31CB SWAP2 SWAP1 PUSH2 0x64C5 JUMP JUMPDEST SWAP1 SHR SWAP1 POP JUMPDEST PUSH1 0x0 PUSH3 0x40000 DUP4 AND EQ PUSH2 0x31FE JUMPI PUSH1 0x80 PUSH14 0x2216E584F5FA1EA926041BEDFE98 DUP3 PUSH2 0x31F9 SWAP2 SWAP1 PUSH2 0x64C5 JUMP JUMPDEST SWAP1 SHR SWAP1 POP JUMPDEST PUSH1 0x0 PUSH3 0x80000 DUP4 AND EQ PUSH2 0x322A JUMPI PUSH1 0x80 PUSH12 0x48A170391F7DC42444E8FA2 DUP3 PUSH2 0x3225 SWAP2 SWAP1 PUSH2 0x64C5 JUMP JUMPDEST SWAP1 SHR SWAP1 POP JUMPDEST PUSH1 0x0 DUP5 PUSH1 0x2 SIGNEXTEND SGT ISZERO PUSH2 0x3265 JUMPI DUP1 PUSH32 0xFFFFFFFFFFFFFFFFFFFFFFFFFFFFFFFFFFFFFFFFFFFFFFFFFFFFFFFFFFFFFFFF PUSH2 0x3262 SWAP2 SWAP1 PUSH2 0x6507 JUMP JUMPDEST SWAP1 POP JUMPDEST PUSH1 0x0 PUSH5 0x100000000 DUP3 PUSH2 0x3278 SWAP2 SWAP1 PUSH2 0x6538 JUMP JUMPDEST EQ PUSH2 0x3284 JUMPI PUSH1 0x1 PUSH2 0x3287 JUMP JUMPDEST PUSH1 0x0 JUMPDEST PUSH1 0xFF AND PUSH1 0x20 DUP3 SWAP1 SHR PUSH2 0x3299 SWAP2 SWAP1 PUSH2 0x5CE1 JUMP JUMPDEST SWAP3 POP POP POP SWAP2 SWAP1 POP JUMP JUMPDEST PUSH1 0x0 DUP1 PUSH1 0x0 DUP1 PUSH1 0x0 DUP9 PUSH20 0xFFFFFFFFFFFFFFFFFFFFFFFFFFFFFFFFFFFFFFFF AND DUP11 PUSH20 0xFFFFFFFFFFFFFFFFFFFFFFFFFFFFFFFFFFFFFFFF AND LT ISZERO SWAP1 POP PUSH1 0x0 PUSH2 0x32FF DUP9 DUP9 PUSH3 0xF4240 PUSH2 0x32F1 SWAP2 SWAP1 PUSH2 0x6569 JUMP JUMPDEST PUSH3 0xFFFFFF AND PUSH3 0xF4240 PUSH2 0x3426 JUMP JUMPDEST SWAP1 POP DUP2 PUSH2 0x3318 JUMPI PUSH2 0x3313 DUP12 DUP12 DUP12 PUSH1 0x1 PUSH2 0x46CA JUMP JUMPDEST PUSH2 0x3326 JUMP JUMPDEST PUSH2 0x3325 DUP12 DUP12 DUP12 PUSH1 0x1 PUSH2 0x47B9 JUMP JUMPDEST JUMPDEST SWAP5 POP DUP5 DUP2 LT PUSH2 0x3337 JUMPI DUP10 SWAP6 POP PUSH2 0x3346 JUMP JUMPDEST PUSH2 0x3343 DUP12 DUP11 DUP4 DUP6 PUSH2 0x48FD JUMP JUMPDEST SWAP6 POP JUMPDEST PUSH1 0x0 DUP11 PUSH20 0xFFFFFFFFFFFFFFFFFFFFFFFFFFFFFFFFFFFFFFFF AND DUP8 PUSH20 0xFFFFFFFFFFFFFFFFFFFFFFFFFFFFFFFFFFFFFFFF AND EQ SWAP1 POP DUP3 ISZERO PUSH2 0x33AE JUMPI DUP1 PUSH2 0x3396 JUMPI PUSH2 0x3391 DUP13 DUP9 DUP13 PUSH1 0x1 PUSH2 0x47B9 JUMP JUMPDEST PUSH2 0x3398 JUMP JUMPDEST DUP6 JUMPDEST SWAP6 POP PUSH2 0x33A7 DUP13 DUP9 DUP13 PUSH1 0x0 PUSH2 0x46CA JUMP JUMPDEST SWAP5 POP PUSH2 0x33D9 JUMP JUMPDEST DUP1 PUSH2 0x33C5 JUMPI PUSH2 0x33C0 DUP13 DUP9 DUP13 PUSH1 0x1 PUSH2 0x46CA JUMP JUMPDEST PUSH2 0x33C7 JUMP JUMPDEST DUP6 JUMPDEST SWAP6 POP PUSH2 0x33D6 DUP13 DUP9 DUP13 PUSH1 0x0 PUSH2 0x47B9 JUMP JUMPDEST SWAP5 POP JUMPDEST DUP1 PUSH2 0x33F1 JUMPI DUP6 DUP10 PUSH2 0x33EA SWAP2 SWAP1 PUSH2 0x5FAF JUMP JUMPDEST SWAP4 POP PUSH2 0x3417 JUMP JUMPDEST PUSH2 0x3414 DUP7 DUP10 PUSH3 0xFFFFFF AND DUP11 PUSH3 0xF4240 PUSH2 0x340A SWAP2 SWAP1 PUSH2 0x6569 JUMP JUMPDEST PUSH3 0xFFFFFF AND PUSH2 0x2A65 JUMP JUMPDEST SWAP4 POP JUMPDEST POP POP POP SWAP6 POP SWAP6 POP SWAP6 POP SWAP6 SWAP2 POP POP JUMP JUMPDEST PUSH1 0x0 DUP1 PUSH1 0x0 DUP1 NOT DUP6 DUP8 MULMOD DUP6 DUP8 MUL SWAP3 POP DUP3 DUP2 LT DUP4 DUP3 SUB SUB SWAP2 POP POP PUSH1 0x0 DUP2 SUB PUSH2 0x3461 JUMPI DUP4 DUP3 DUP2 PUSH2 0x3457 JUMPI PUSH2 0x3456 PUSH2 0x612A JUMP JUMPDEST JUMPDEST DIV SWAP3 POP POP POP PUSH2 0x3534 JUMP JUMPDEST DUP4 DUP2 LT PUSH2 0x34A7 JUMPI DUP1 DUP5 PUSH1 0x40 MLOAD PUSH32 0x773CC18C00000000000000000000000000000000000000000000000000000000 DUP2 MSTORE PUSH1 0x4 ADD PUSH2 0x349E SWAP3 SWAP2 SWAP1 PUSH2 0x551F JUMP JUMPDEST PUSH1 0x40 MLOAD DUP1 SWAP2 SUB SWAP1 REVERT JUMPDEST PUSH1 0x0 DUP5 DUP7 DUP9 MULMOD SWAP1 POP DUP3 DUP2 GT DUP3 SUB SWAP2 POP DUP1 DUP4 SUB SWAP3 POP PUSH1 0x0 PUSH1 0x1 DUP7 NOT ADD DUP7 AND SWAP1 POP DUP1 DUP7 DIV SWAP6 POP DUP1 DUP5 DIV SWAP4 POP PUSH1 0x1 DUP2 DUP3 PUSH1 0x0 SUB DIV ADD SWAP1 POP DUP1 DUP4 MUL DUP5 OR SWAP4 POP PUSH1 0x0 PUSH1 0x2 DUP8 PUSH1 0x3 MUL XOR SWAP1 POP DUP1 DUP8 MUL PUSH1 0x2 SUB DUP2 MUL SWAP1 POP DUP1 DUP8 MUL PUSH1 0x2 SUB DUP2 MUL SWAP1 POP DUP1 DUP8 MUL PUSH1 0x2 SUB DUP2 MUL SWAP1 POP DUP1 DUP8 MUL PUSH1 0x2 SUB DUP2 MUL SWAP1 POP DUP1 DUP8 MUL PUSH1 0x2 SUB DUP2 MUL SWAP1 POP DUP1 DUP8 MUL PUSH1 0x2 SUB DUP2 MUL SWAP1 POP DUP1 DUP6 MUL SWAP6 POP POP POP POP POP POP JUMPDEST SWAP4 SWAP3 POP POP POP JUMP JUMPDEST PUSH1 0x0 DUP1 DUP6 PUSH1 0x0 DUP7 PUSH1 0x2 SIGNEXTEND PUSH1 0x2 SIGNEXTEND DUP2 MSTORE PUSH1 0x20 ADD SWAP1 DUP2 MSTORE PUSH1 0x20 ADD PUSH1 0x0 KECCAK256 SWAP1 POP DUP1 PUSH1 0x2 ADD SLOAD DUP5 PUSH2 0x3568 SWAP2 SWAP1 PUSH2 0x5FAF JUMP JUMPDEST DUP2 PUSH1 0x2 ADD DUP2 SWAP1 SSTORE POP DUP1 PUSH1 0x3 ADD SLOAD DUP4 PUSH2 0x3580 SWAP2 SWAP1 PUSH2 0x5FAF JUMP JUMPDEST DUP2 PUSH1 0x3 ADD DUP2 SWAP1 SSTORE POP DUP1 PUSH1 0x1 ADD PUSH1 0x0 SWAP1 SLOAD SWAP1 PUSH2 0x100 EXP SWAP1 DIV PUSH1 0xF SIGNEXTEND SWAP2 POP POP SWAP5 SWAP4 POP POP POP POP JUMP JUMPDEST PUSH1 0x0 DUP1 DUP3 PUSH1 0xF SIGNEXTEND SLT ISZERO PUSH2 0x35CE JUMPI DUP2 PUSH2 0x35BC SWAP1 PUSH2 0x5EA4 JUMP JUMPDEST DUP4 PUSH2 0x35C7 SWAP2 SWAP1 PUSH2 0x5DC5 JUMP JUMPDEST SWAP1 POP PUSH2 0x35DD JUMP JUMPDEST DUP2 DUP4 PUSH2 0x35DA SWAP2 SWAP1 PUSH2 0x5F34 JUMP JUMPDEST SWAP1 POP JUMPDEST SWAP3 SWAP2 POP POP JUMP JUMPDEST PUSH1 0x0 PUSH5 0x1000276A3 PUSH20 0xFFFFFFFFFFFFFFFFFFFFFFFFFFFFFFFFFFFFFFFF AND DUP3 PUSH20 0xFFFFFFFFFFFFFFFFFFFFFFFFFFFFFFFFFFFFFFFF AND LT ISZERO DUP1 ISZERO PUSH2 0x3665 JUMPI POP PUSH20 0xFFFD8963EFD1FC6A506488495D951D5263988D26 PUSH20 0xFFFFFFFFFFFFFFFFFFFFFFFFFFFFFFFFFFFFFFFF AND DUP3 PUSH20 0xFFFFFFFFFFFFFFFFFFFFFFFFFFFFFFFFFFFFFFFF AND LT JUMPDEST PUSH2 0x36A4 JUMPI PUSH1 0x40 MLOAD PUSH32 0x8C379A000000000000000000000000000000000000000000000000000000000 DUP2 MSTORE PUSH1 0x4 ADD PUSH2 0x369B SWAP1 PUSH2 0x65EC JUMP JUMPDEST PUSH1 0x40 MLOAD DUP1 SWAP2 SUB SWAP1 REVERT JUMPDEST PUSH1 0x0 PUSH1 0x20 DUP4 PUSH20 0xFFFFFFFFFFFFFFFFFFFFFFFFFFFFFFFFFFFFFFFF AND SWAP1 SHL SWAP1 POP PUSH1 0x0 DUP2 SWAP1 POP PUSH1 0x0 PUSH16 0xFFFFFFFFFFFFFFFFFFFFFFFFFFFFFFFF DUP3 GT PUSH1 0x7 SHL DUP1 DUP3 OR SWAP2 POP DUP3 DUP2 SHR SWAP3 POP POP PUSH8 0xFFFFFFFFFFFFFFFF DUP3 GT PUSH1 0x6 SHL DUP1 DUP3 OR SWAP2 POP DUP3 DUP2 SHR SWAP3 POP POP PUSH4 0xFFFFFFFF DUP3 GT PUSH1 0x5 SHL DUP1 DUP3 OR SWAP2 POP DUP3 DUP2 SHR SWAP3 POP POP PUSH2 0xFFFF DUP3 GT PUSH1 0x4 SHL DUP1 DUP3 OR SWAP2 POP DUP3 DUP2 SHR SWAP3 POP POP PUSH1 0xFF DUP3 GT PUSH1 0x3 SHL DUP1 DUP3 OR SWAP2 POP DUP3 DUP2 SHR SWAP3 POP POP PUSH1 0xF DUP3 GT PUSH1 0x2 SHL DUP1 DUP3 OR SWAP2 POP DUP3 DUP2 SHR SWAP3 POP POP PUSH1 0x3 DUP3 GT PUSH1 0x1 SHL DUP1 DUP3 OR SWAP2 POP DUP3 DUP2 SHR SWAP3 POP POP PUSH1 0x1 DUP3 GT DUP1 DUP3 OR SWAP2 POP POP PUSH1 0x80 DUP2 LT PUSH2 0x378B JUMPI PUSH1 0x7F DUP2 PUSH2 0x3781 SWAP2 SWAP1 PUSH2 0x5FAF JUMP JUMPDEST DUP4 SWAP1 SHR SWAP2 POP PUSH2 0x379E JUMP JUMPDEST DUP1 PUSH1 0x7F PUSH2 0x3798 SWAP2 SWAP1 PUSH2 0x5FAF JUMP JUMPDEST DUP4 SWAP1 SHL SWAP2 POP JUMPDEST PUSH1 0x0 PUSH1 0x40 PUSH1 0x80 DUP4 PUSH2 0x37AF SWAP2 SWAP1 PUSH2 0x660C JUMP JUMPDEST SWAP1 SHL SWAP1 POP DUP3 DUP4 MUL PUSH1 0x7F SHR SWAP3 POP DUP3 PUSH1 0x80 SHR DUP1 PUSH1 0x3F SHL DUP3 OR SWAP2 POP DUP4 DUP2 SHR SWAP4 POP POP DUP3 DUP4 MUL PUSH1 0x7F SHR SWAP3 POP DUP3 PUSH1 0x80 SHR DUP1 PUSH1 0x3E SHL DUP3 OR SWAP2 POP DUP4 DUP2 SHR SWAP4 POP POP DUP3 DUP4 MUL PUSH1 0x7F SHR SWAP3 POP DUP3 PUSH1 0x80 SHR DUP1 PUSH1 0x3D SHL DUP3 OR SWAP2 POP DUP4 DUP2 SHR SWAP4 POP POP DUP3 DUP4 MUL PUSH1 0x7F SHR SWAP3 POP DUP3 PUSH1 0x80 SHR DUP1 PUSH1 0x3C SHL DUP3 OR SWAP2 POP DUP4 DUP2 SHR SWAP4 POP POP DUP3 DUP4 MUL PUSH1 0x7F SHR SWAP3 POP DUP3 PUSH1 0x80 SHR DUP1 PUSH1 0x3B SHL DUP3 OR SWAP2 POP DUP4 DUP2 SHR SWAP4 POP POP DUP3 DUP4 MUL PUSH1 0x7F SHR SWAP3 POP DUP3 PUSH1 0x80 SHR DUP1 PUSH1 0x3A SHL DUP3 OR SWAP2 POP DUP4 DUP2 SHR SWAP4 POP POP DUP3 DUP4 MUL PUSH1 0x7F SHR SWAP3 POP DUP3 PUSH1 0x80 SHR DUP1 PUSH1 0x39 SHL DUP3 OR SWAP2 POP DUP4 DUP2 SHR SWAP4 POP POP DUP3 DUP4 MUL PUSH1 0x7F SHR SWAP3 POP DUP3 PUSH1 0x80 SHR DUP1 PUSH1 0x38 SHL DUP3 OR SWAP2 POP DUP4 DUP2 SHR SWAP4 POP POP DUP3 DUP4 MUL PUSH1 0x7F SHR SWAP3 POP DUP3 PUSH1 0x80 SHR DUP1 PUSH1 0x37 SHL DUP3 OR SWAP2 POP DUP4 DUP2 SHR SWAP4 POP POP DUP3 DUP4 MUL PUSH1 0x7F SHR SWAP3 POP DUP3 PUSH1 0x80 SHR DUP1 PUSH1 0x36 SHL DUP3 OR SWAP2 POP DUP4 DUP2 SHR SWAP4 POP POP DUP3 DUP4 MUL PUSH1 0x7F SHR SWAP3 POP DUP3 PUSH1 0x80 SHR DUP1 PUSH1 0x35 SHL DUP3 OR SWAP2 POP DUP4 DUP2 SHR SWAP4 POP POP DUP3 DUP4 MUL PUSH1 0x7F SHR SWAP3 POP DUP3 PUSH1 0x80 SHR DUP1 PUSH1 0x34 SHL DUP3 OR SWAP2 POP DUP4 DUP2 SHR SWAP4 POP POP DUP3 DUP4 MUL PUSH1 0x7F SHR SWAP3 POP DUP3 PUSH1 0x80 SHR DUP1 PUSH1 0x33 SHL DUP3 OR SWAP2 POP DUP4 DUP2 SHR SWAP4 POP POP DUP3 DUP4 MUL PUSH1 0x7F SHR SWAP3 POP DUP3 PUSH1 0x80 SHR DUP1 PUSH1 0x32 SHL DUP3 OR SWAP2 POP POP PUSH1 0x0 PUSH10 0x3627A301D71055774C85 DUP3 PUSH2 0x3932 SWAP2 SWAP1 PUSH2 0x664F JUMP JUMPDEST SWAP1 POP PUSH1 0x0 PUSH1 0x80 PUSH16 0x28F6481AB7F045A5AF012A19D003AAA DUP4 PUSH2 0x3954 SWAP2 SWAP1 PUSH2 0x660C JUMP JUMPDEST SWAP1 SAR SWAP1 POP PUSH1 0x0 PUSH1 0x80 PUSH16 0xDB2DF09E81959A81455E260799A0632F DUP5 PUSH2 0x3978 SWAP2 SWAP1 PUSH2 0x66C7 JUMP JUMPDEST SWAP1 SAR SWAP1 POP DUP1 PUSH1 0x2 SIGNEXTEND DUP3 PUSH1 0x2 SIGNEXTEND EQ PUSH2 0x39D2 JUMPI DUP9 PUSH20 0xFFFFFFFFFFFFFFFFFFFFFFFFFFFFFFFFFFFFFFFF AND PUSH2 0x39A9 DUP3 PUSH2 0x2DD5 JUMP JUMPDEST PUSH20 0xFFFFFFFFFFFFFFFFFFFFFFFFFFFFFFFFFFFFFFFF AND GT ISZERO PUSH2 0x39CB JUMPI DUP2 PUSH2 0x39CD JUMP JUMPDEST DUP1 JUMPDEST PUSH2 0x39D4 JUMP JUMPDEST DUP2 JUMPDEST SWAP8 POP POP POP POP POP POP POP POP SWAP2 SWAP1 POP JUMP JUMPDEST PUSH1 0x0 DUP1 PUSH1 0x0 DUP9 DUP9 PUSH2 0xFFFF AND PUSH2 0xFFFF DUP2 LT PUSH2 0x39FF JUMPI PUSH2 0x39FE PUSH2 0x60D1 JUMP JUMPDEST JUMPDEST ADD PUSH1 0x40 MLOAD DUP1 PUSH1 0x60 ADD PUSH1 0x40 MSTORE SWAP1 DUP2 PUSH1 0x0 DUP3 ADD PUSH1 0x0 SWAP1 SLOAD SWAP1 PUSH2 0x100 EXP SWAP1 DIV PUSH4 0xFFFFFFFF AND PUSH4 0xFFFFFFFF AND PUSH4 0xFFFFFFFF AND DUP2 MSTORE PUSH1 0x20 ADD PUSH1 0x0 DUP3 ADD PUSH1 0x4 SWAP1 SLOAD SWAP1 PUSH2 0x100 EXP SWAP1 DIV PUSH1 0x6 SIGNEXTEND PUSH1 0x6 SIGNEXTEND PUSH1 0x6 SIGNEXTEND DUP2 MSTORE PUSH1 0x20 ADD PUSH1 0x0 DUP3 ADD PUSH1 0xB SWAP1 SLOAD SWAP1 PUSH2 0x100 EXP SWAP1 DIV PUSH1 0xFF AND ISZERO ISZERO ISZERO ISZERO DUP2 MSTORE POP POP SWAP1 POP DUP7 PUSH4 0xFFFFFFFF AND DUP2 PUSH1 0x0 ADD MLOAD PUSH4 0xFFFFFFFF AND SUB PUSH2 0x3A8E JUMPI DUP8 DUP6 SWAP3 POP SWAP3 POP POP PUSH2 0x3B83 JUMP JUMPDEST DUP5 PUSH2 0xFFFF AND DUP5 PUSH2 0xFFFF AND GT DUP1 ISZERO PUSH2 0x3AB8 JUMPI POP PUSH1 0x1 DUP6 PUSH2 0x3AAD SWAP2 SWAP1 PUSH2 0x670B JUMP JUMPDEST PUSH2 0xFFFF AND DUP9 PUSH2 0xFFFF AND EQ JUMPDEST ISZERO PUSH2 0x3AC5 JUMPI DUP4 SWAP2 POP PUSH2 0x3AC9 JUMP JUMPDEST DUP5 SWAP2 POP JUMPDEST DUP2 PUSH1 0x1 DUP10 PUSH2 0x3AD7 SWAP2 SWAP1 PUSH2 0x6741 JUMP JUMPDEST PUSH2 0x3AE1 SWAP2 SWAP1 PUSH2 0x6777 JUMP JUMPDEST SWAP3 POP PUSH2 0x3AEE DUP2 DUP9 DUP9 PUSH2 0x492A JUMP JUMPDEST DUP10 DUP5 PUSH2 0xFFFF AND PUSH2 0xFFFF DUP2 LT PUSH2 0x3B06 JUMPI PUSH2 0x3B05 PUSH2 0x60D1 JUMP JUMPDEST JUMPDEST ADD PUSH1 0x0 DUP3 ADD MLOAD DUP2 PUSH1 0x0 ADD PUSH1 0x0 PUSH2 0x100 EXP DUP2 SLOAD DUP2 PUSH4 0xFFFFFFFF MUL NOT AND SWAP1 DUP4 PUSH4 0xFFFFFFFF AND MUL OR SWAP1 SSTORE POP PUSH1 0x20 DUP3 ADD MLOAD DUP2 PUSH1 0x0 ADD PUSH1 0x4 PUSH2 0x100 EXP DUP2 SLOAD DUP2 PUSH7 0xFFFFFFFFFFFFFF MUL NOT AND SWAP1 DUP4 PUSH1 0x6 SIGNEXTEND PUSH7 0xFFFFFFFFFFFFFF AND MUL OR SWAP1 SSTORE POP PUSH1 0x40 DUP3 ADD MLOAD DUP2 PUSH1 0x0 ADD PUSH1 0xB PUSH2 0x100 EXP DUP2 SLOAD DUP2 PUSH1 0xFF MUL NOT AND SWAP1 DUP4 ISZERO ISZERO MUL OR SWAP1 SSTORE POP SWAP1 POP POP POP JUMPDEST SWAP7 POP SWAP7 SWAP5 POP POP POP POP POP JUMP JUMPDEST PUSH1 0x0 DUP1 PUSH1 0x40 MLOAD DUP1 PUSH1 0x60 ADD PUSH1 0x40 MSTORE DUP1 DUP5 PUSH4 0xFFFFFFFF AND DUP2 MSTORE PUSH1 0x20 ADD PUSH1 0x0 PUSH1 0x6 SIGNEXTEND DUP2 MSTORE PUSH1 0x20 ADD PUSH1 0x1 ISZERO ISZERO DUP2 MSTORE POP DUP5 PUSH1 0x0 PUSH2 0xFFFF DUP2 LT PUSH2 0x3BCE JUMPI PUSH2 0x3BCD PUSH2 0x60D1 JUMP JUMPDEST JUMPDEST ADD PUSH1 0x0 DUP3 ADD MLOAD DUP2 PUSH1 0x0 ADD PUSH1 0x0 PUSH2 0x100 EXP DUP2 SLOAD DUP2 PUSH4 0xFFFFFFFF MUL NOT AND SWAP1 DUP4 PUSH4 0xFFFFFFFF AND MUL OR SWAP1 SSTORE POP PUSH1 0x20 DUP3 ADD MLOAD DUP2 PUSH1 0x0 ADD PUSH1 0x4 PUSH2 0x100 EXP DUP2 SLOAD DUP2 PUSH7 0xFFFFFFFFFFFFFF MUL NOT AND SWAP1 DUP4 PUSH1 0x6 SIGNEXTEND PUSH7 0xFFFFFFFFFFFFFF AND MUL OR SWAP1 SSTORE POP PUSH1 0x40 DUP3 ADD MLOAD DUP2 PUSH1 0x0 ADD PUSH1 0xB PUSH2 0x100 EXP DUP2 SLOAD DUP2 PUSH1 0xFF MUL NOT AND SWAP1 DUP4 ISZERO ISZERO MUL OR SWAP1 SSTORE POP SWAP1 POP POP PUSH1 0x1 SWAP2 POP PUSH1 0x1 SWAP1 POP SWAP3 POP SWAP3 SWAP1 POP JUMP JUMPDEST PUSH1 0x0 DUP1 DUP9 PUSH1 0x0 DUP10 PUSH1 0x2 SIGNEXTEND PUSH1 0x2 SIGNEXTEND DUP2 MSTORE PUSH1 0x20 ADD SWAP1 DUP2 MSTORE PUSH1 0x20 ADD PUSH1 0x0 KECCAK256 SWAP1 POP PUSH1 0x0 DUP2 PUSH1 0x0 ADD PUSH1 0x1 SWAP1 SLOAD SWAP1 PUSH2 0x100 EXP SWAP1 DIV PUSH16 0xFFFFFFFFFFFFFFFFFFFFFFFFFFFFFFFF AND SWAP1 POP PUSH1 0x0 PUSH2 0x3CA6 DUP3 DUP10 PUSH2 0x35A5 JUMP JUMPDEST SWAP1 POP PUSH1 0x0 DUP3 PUSH16 0xFFFFFFFFFFFFFFFFFFFFFFFFFFFFFFFF AND EQ ISZERO ISZERO PUSH1 0x0 DUP3 PUSH16 0xFFFFFFFFFFFFFFFFFFFFFFFFFFFFFFFF AND EQ ISZERO ISZERO EQ ISZERO SWAP4 POP PUSH1 0x0 DUP3 PUSH16 0xFFFFFFFFFFFFFFFFFFFFFFFFFFFFFFFF AND SUB PUSH2 0x3D34 JUMPI DUP9 PUSH1 0x2 SIGNEXTEND DUP11 PUSH1 0x2 SIGNEXTEND SGT PUSH2 0x3D16 JUMPI DUP7 DUP4 PUSH1 0x2 ADD DUP2 SWAP1 SSTORE POP DUP6 DUP4 PUSH1 0x3 ADD DUP2 SWAP1 SSTORE POP JUMPDEST PUSH1 0x1 DUP4 PUSH1 0x0 ADD PUSH1 0x0 PUSH2 0x100 EXP DUP2 SLOAD DUP2 PUSH1 0xFF MUL NOT AND SWAP1 DUP4 ISZERO ISZERO MUL OR SWAP1 SSTORE POP JUMPDEST DUP1 DUP4 PUSH1 0x0 ADD PUSH1 0x1 PUSH2 0x100 EXP DUP2 SLOAD DUP2 PUSH16 0xFFFFFFFFFFFFFFFFFFFFFFFFFFFFFFFF MUL NOT AND SWAP1 DUP4 PUSH16 0xFFFFFFFFFFFFFFFFFFFFFFFFFFFFFFFF AND MUL OR SWAP1 SSTORE POP DUP5 PUSH2 0x3D9C JUMPI DUP8 PUSH1 0xF SIGNEXTEND DUP4 PUSH1 0x1 ADD PUSH1 0x0 SWAP1 SLOAD SWAP1 PUSH2 0x100 EXP SWAP1 DIV PUSH1 0xF SIGNEXTEND PUSH1 0xF SIGNEXTEND PUSH2 0x3D97 SWAP2 SWAP1 PUSH2 0x66C7 JUMP JUMPDEST PUSH2 0x3DC0 JUMP JUMPDEST DUP8 PUSH1 0xF SIGNEXTEND DUP4 PUSH1 0x1 ADD PUSH1 0x0 SWAP1 SLOAD SWAP1 PUSH2 0x100 EXP SWAP1 DIV PUSH1 0xF SIGNEXTEND PUSH1 0xF SIGNEXTEND PUSH2 0x3DBF SWAP2 SWAP1 PUSH2 0x660C JUMP JUMPDEST JUMPDEST DUP4 PUSH1 0x1 ADD PUSH1 0x0 PUSH2 0x100 EXP DUP2 SLOAD DUP2 PUSH16 0xFFFFFFFFFFFFFFFFFFFFFFFFFFFFFFFF MUL NOT AND SWAP1 DUP4 PUSH1 0xF SIGNEXTEND PUSH16 0xFFFFFFFFFFFFFFFFFFFFFFFFFFFFFFFF AND MUL OR SWAP1 SSTORE POP POP POP POP SWAP8 SWAP7 POP POP POP POP POP POP POP JUMP JUMPDEST PUSH1 0x0 DUP2 DUP4 PUSH2 0x3E19 SWAP2 SWAP1 PUSH2 0x62F5 JUMP JUMPDEST PUSH1 0x2 SIGNEXTEND EQ PUSH2 0x3E26 JUMPI PUSH1 0x0 DUP1 REVERT JUMPDEST PUSH1 0x0 DUP1 PUSH2 0x3E3D DUP4 DUP6 PUSH2 0x3E38 SWAP2 SWAP1 PUSH2 0x628B JUMP JUMPDEST PUSH2 0x4416 JUMP JUMPDEST SWAP2 POP SWAP2 POP PUSH1 0x0 DUP2 PUSH1 0xFF AND PUSH1 0x1 SWAP1 SHL SWAP1 POP DUP1 DUP7 PUSH1 0x0 DUP6 PUSH1 0x1 SIGNEXTEND PUSH1 0x1 SIGNEXTEND DUP2 MSTORE PUSH1 0x20 ADD SWAP1 DUP2 MSTORE PUSH1 0x20 ADD PUSH1 0x0 KECCAK256 PUSH1 0x0 DUP3 DUP3 SLOAD XOR SWAP3 POP POP DUP2 SWAP1 SSTORE POP POP POP POP POP POP POP JUMP JUMPDEST PUSH1 0x0 DUP1 PUSH1 0x0 DUP9 PUSH1 0x0 DUP10 PUSH1 0x2 SIGNEXTEND PUSH1 0x2 SIGNEXTEND DUP2 MSTORE PUSH1 0x20 ADD SWAP1 DUP2 MSTORE PUSH1 0x20 ADD PUSH1 0x0 KECCAK256 SWAP1 POP PUSH1 0x0 DUP10 PUSH1 0x0 DUP10 PUSH1 0x2 SIGNEXTEND PUSH1 0x2 SIGNEXTEND DUP2 MSTORE PUSH1 0x20 ADD SWAP1 DUP2 MSTORE PUSH1 0x20 ADD PUSH1 0x0 KECCAK256 SWAP1 POP PUSH1 0x0 DUP1 DUP11 PUSH1 0x2 SIGNEXTEND DUP10 PUSH1 0x2 SIGNEXTEND SLT PUSH2 0x3ED9 JUMPI DUP4 PUSH1 0x2 ADD SLOAD SWAP2 POP DUP4 PUSH1 0x3 ADD SLOAD SWAP1 POP PUSH2 0x3EFE JUMP JUMPDEST DUP4 PUSH1 0x2 ADD SLOAD DUP9 PUSH2 0x3EE9 SWAP2 SWAP1 PUSH2 0x5FAF JUMP JUMPDEST SWAP2 POP DUP4 PUSH1 0x3 ADD SLOAD DUP8 PUSH2 0x3EFB SWAP2 SWAP1 PUSH2 0x5FAF JUMP JUMPDEST SWAP1 POP JUMPDEST PUSH1 0x0 DUP1 DUP12 PUSH1 0x2 SIGNEXTEND DUP12 PUSH1 0x2 SIGNEXTEND SLT ISZERO PUSH2 0x3F22 JUMPI DUP5 PUSH1 0x2 ADD SLOAD SWAP2 POP DUP5 PUSH1 0x3 ADD SLOAD SWAP1 POP PUSH2 0x3F47 JUMP JUMPDEST DUP5 PUSH1 0x2 ADD SLOAD DUP11 PUSH2 0x3F32 SWAP2 SWAP1 PUSH2 0x5FAF JUMP JUMPDEST SWAP2 POP DUP5 PUSH1 0x3 ADD SLOAD DUP10 PUSH2 0x3F44 SWAP2 SWAP1 PUSH2 0x5FAF JUMP JUMPDEST SWAP1 POP JUMPDEST DUP2 DUP5 DUP12 PUSH2 0x3F54 SWAP2 SWAP1 PUSH2 0x5FAF JUMP JUMPDEST PUSH2 0x3F5E SWAP2 SWAP1 PUSH2 0x5FAF JUMP JUMPDEST SWAP8 POP DUP1 DUP4 DUP11 PUSH2 0x3F6D SWAP2 SWAP1 PUSH2 0x5FAF JUMP JUMPDEST PUSH2 0x3F77 SWAP2 SWAP1 PUSH2 0x5FAF JUMP JUMPDEST SWAP7 POP POP POP POP POP POP POP SWAP7 POP SWAP7 SWAP5 POP POP POP POP POP JUMP JUMPDEST PUSH1 0x0 PUSH2 0x3FE9 DUP6 PUSH1 0x1 ADD SLOAD DUP5 PUSH2 0x3F9F SWAP2 SWAP1 PUSH2 0x5FAF JUMP JUMPDEST DUP7 PUSH1 0x0 ADD PUSH1 0x0 SWAP1 SLOAD SWAP1 PUSH2 0x100 EXP SWAP1 DIV PUSH16 0xFFFFFFFFFFFFFFFFFFFFFFFFFFFFFFFF AND PUSH16 0xFFFFFFFFFFFFFFFFFFFFFFFFFFFFFFFF AND PUSH17 0x100000000000000000000000000000000 PUSH2 0x3426 JUMP JUMPDEST SWAP1 POP PUSH1 0x0 PUSH2 0x404A DUP7 PUSH1 0x2 ADD SLOAD DUP5 PUSH2 0x4000 SWAP2 SWAP1 PUSH2 0x5FAF JUMP JUMPDEST DUP8 PUSH1 0x0 ADD PUSH1 0x0 SWAP1 SLOAD SWAP1 PUSH2 0x100 EXP SWAP1 DIV PUSH16 0xFFFFFFFFFFFFFFFFFFFFFFFFFFFFFFFF AND PUSH16 0xFFFFFFFFFFFFFFFFFFFFFFFFFFFFFFFF AND PUSH17 0x100000000000000000000000000000000 PUSH2 0x3426 JUMP JUMPDEST SWAP1 POP PUSH2 0x4076 DUP7 PUSH1 0x0 ADD PUSH1 0x0 SWAP1 SLOAD SWAP1 PUSH2 0x100 EXP SWAP1 DIV PUSH16 0xFFFFFFFFFFFFFFFFFFFFFFFFFFFFFFFF AND DUP7 PUSH2 0x35A5 JUMP JUMPDEST DUP7 PUSH1 0x0 ADD PUSH1 0x0 PUSH2 0x100 EXP DUP2 SLOAD DUP2 PUSH16 0xFFFFFFFFFFFFFFFFFFFFFFFFFFFFFFFF MUL NOT AND SWAP1 DUP4 PUSH16 0xFFFFFFFFFFFFFFFFFFFFFFFFFFFFFFFF AND MUL OR SWAP1 SSTORE POP DUP4 DUP7 PUSH1 0x1 ADD DUP2 SWAP1 SSTORE POP DUP3 DUP7 PUSH1 0x2 ADD DUP2 SWAP1 SSTORE POP PUSH1 0x0 DUP3 PUSH16 0xFFFFFFFFFFFFFFFFFFFFFFFFFFFFFFFF AND GT DUP1 PUSH2 0x40F5 JUMPI POP PUSH1 0x0 DUP2 PUSH16 0xFFFFFFFFFFFFFFFFFFFFFFFFFFFFFFFF AND GT JUMPDEST ISZERO PUSH2 0x41C5 JUMPI DUP2 DUP7 PUSH1 0x3 ADD PUSH1 0x0 DUP3 DUP3 DUP3 SWAP1 SLOAD SWAP1 PUSH2 0x100 EXP SWAP1 DIV PUSH16 0xFFFFFFFFFFFFFFFFFFFFFFFFFFFFFFFF AND PUSH2 0x4129 SWAP2 SWAP1 PUSH2 0x5F34 JUMP JUMPDEST SWAP3 POP PUSH2 0x100 EXP DUP2 SLOAD DUP2 PUSH16 0xFFFFFFFFFFFFFFFFFFFFFFFFFFFFFFFF MUL NOT AND SWAP1 DUP4 PUSH16 0xFFFFFFFFFFFFFFFFFFFFFFFFFFFFFFFF AND MUL OR SWAP1 SSTORE POP DUP1 DUP7 PUSH1 0x3 ADD PUSH1 0x10 DUP3 DUP3 DUP3 SWAP1 SLOAD SWAP1 PUSH2 0x100 EXP SWAP1 DIV PUSH16 0xFFFFFFFFFFFFFFFFFFFFFFFFFFFFFFFF AND PUSH2 0x418E SWAP2 SWAP1 PUSH2 0x5F34 JUMP JUMPDEST SWAP3 POP PUSH2 0x100 EXP DUP2 SLOAD DUP2 PUSH16 0xFFFFFFFFFFFFFFFFFFFFFFFFFFFFFFFF MUL NOT AND SWAP1 DUP4 PUSH16 0xFFFFFFFFFFFFFFFFFFFFFFFFFFFFFFFF AND MUL OR SWAP1 SSTORE POP JUMPDEST POP POP POP POP POP POP JUMP JUMPDEST PUSH1 0x0 DUP1 DUP3 PUSH1 0xF SIGNEXTEND SLT PUSH2 0x41EB JUMPI PUSH2 0x41E6 DUP5 DUP5 DUP5 PUSH1 0x1 PUSH2 0x47B9 JUMP JUMPDEST PUSH2 0x420B JUMP JUMPDEST PUSH2 0x4201 DUP5 DUP5 DUP5 PUSH2 0x41FA SWAP1 PUSH2 0x5EA4 JUMP JUMPDEST PUSH1 0x0 PUSH2 0x47B9 JUMP JUMPDEST PUSH2 0x420A SWAP1 PUSH2 0x5EEC JUMP JUMPDEST JUMPDEST SWAP1 POP SWAP4 SWAP3 POP POP POP JUMP JUMPDEST PUSH1 0x0 DUP1 DUP3 PUSH1 0xF SIGNEXTEND SLT PUSH2 0x4232 JUMPI PUSH2 0x422D DUP5 DUP5 DUP5 PUSH1 0x1 PUSH2 0x46CA JUMP JUMPDEST PUSH2 0x4252 JUMP JUMPDEST PUSH2 0x4248 DUP5 DUP5 DUP5 PUSH2 0x4241 SWAP1 PUSH2 0x5EA4 JUMP JUMPDEST PUSH1 0x0 PUSH2 0x46CA JUMP JUMPDEST PUSH2 0x4251 SWAP1 PUSH2 0x5EEC JUMP JUMPDEST JUMPDEST SWAP1 POP SWAP4 SWAP3 POP POP POP JUMP JUMPDEST PUSH1 0x0 DUP1 DUP6 PUSH4 0xFFFFFFFF AND SUB PUSH2 0x4322 JUMPI PUSH1 0x0 DUP8 DUP5 PUSH2 0xFFFF AND PUSH2 0xFFFF DUP2 LT PUSH2 0x4284 JUMPI PUSH2 0x4283 PUSH2 0x60D1 JUMP JUMPDEST JUMPDEST ADD PUSH1 0x40 MLOAD DUP1 PUSH1 0x60 ADD PUSH1 0x40 MSTORE SWAP1 DUP2 PUSH1 0x0 DUP3 ADD PUSH1 0x0 SWAP1 SLOAD SWAP1 PUSH2 0x100 EXP SWAP1 DIV PUSH4 0xFFFFFFFF AND PUSH4 0xFFFFFFFF AND PUSH4 0xFFFFFFFF AND DUP2 MSTORE PUSH1 0x20 ADD PUSH1 0x0 DUP3 ADD PUSH1 0x4 SWAP1 SLOAD SWAP1 PUSH2 0x100 EXP SWAP1 DIV PUSH1 0x6 SIGNEXTEND PUSH1 0x6 SIGNEXTEND PUSH1 0x6 SIGNEXTEND DUP2 MSTORE PUSH1 0x20 ADD PUSH1 0x0 DUP3 ADD PUSH1 0xB SWAP1 SLOAD SWAP1 PUSH2 0x100 EXP SWAP1 DIV PUSH1 0xFF AND ISZERO ISZERO ISZERO ISZERO DUP2 MSTORE POP POP SWAP1 POP DUP7 PUSH4 0xFFFFFFFF AND DUP2 PUSH1 0x0 ADD MLOAD PUSH4 0xFFFFFFFF AND EQ PUSH2 0x4315 JUMPI PUSH2 0x4312 DUP2 DUP9 DUP8 PUSH2 0x492A JUMP JUMPDEST SWAP1 POP JUMPDEST DUP1 PUSH1 0x20 ADD MLOAD SWAP2 POP POP PUSH2 0x440C JUMP JUMPDEST PUSH1 0x0 DUP6 DUP8 PUSH2 0x4330 SWAP2 SWAP1 PUSH2 0x67A8 JUMP JUMPDEST SWAP1 POP PUSH1 0x0 DUP1 PUSH2 0x4343 DUP11 DUP11 DUP6 DUP11 DUP11 DUP11 PUSH2 0x499A JUMP JUMPDEST SWAP2 POP SWAP2 POP DUP2 PUSH1 0x0 ADD MLOAD PUSH4 0xFFFFFFFF AND DUP4 PUSH4 0xFFFFFFFF AND SUB PUSH2 0x436D JUMPI DUP2 PUSH1 0x20 ADD MLOAD SWAP4 POP POP POP POP PUSH2 0x440C JUMP JUMPDEST DUP1 PUSH1 0x0 ADD MLOAD PUSH4 0xFFFFFFFF AND DUP4 PUSH4 0xFFFFFFFF AND SUB PUSH2 0x4393 JUMPI DUP1 PUSH1 0x20 ADD MLOAD SWAP4 POP POP POP POP PUSH2 0x440C JUMP JUMPDEST PUSH1 0x0 DUP3 PUSH1 0x0 ADD MLOAD DUP3 PUSH1 0x0 ADD MLOAD PUSH2 0x43A9 SWAP2 SWAP1 PUSH2 0x67A8 JUMP JUMPDEST PUSH4 0xFFFFFFFF AND SWAP1 POP PUSH1 0x0 DUP4 PUSH1 0x0 ADD MLOAD DUP6 PUSH2 0x43C3 SWAP2 SWAP1 PUSH2 0x67A8 JUMP JUMPDEST PUSH4 0xFFFFFFFF AND SWAP1 POP DUP1 DUP3 DUP6 PUSH1 0x20 ADD MLOAD DUP6 PUSH1 0x20 ADD MLOAD PUSH2 0x43E1 SWAP2 SWAP1 PUSH2 0x67E0 JUMP JUMPDEST PUSH2 0x43EB SWAP2 SWAP1 PUSH2 0x683F JUMP JUMPDEST PUSH2 0x43F5 SWAP2 SWAP1 PUSH2 0x68A9 JUMP JUMPDEST DUP5 PUSH1 0x20 ADD MLOAD PUSH2 0x4404 SWAP2 SWAP1 PUSH2 0x68E6 JUMP JUMPDEST SWAP6 POP POP POP POP POP POP JUMPDEST SWAP7 SWAP6 POP POP POP POP POP POP JUMP JUMPDEST PUSH1 0x0 DUP1 PUSH1 0x8 DUP4 PUSH1 0x2 SIGNEXTEND SWAP1 SAR SWAP2 POP PUSH2 0x100 DUP4 PUSH2 0x4431 SWAP2 SWAP1 PUSH2 0x62F5 JUMP JUMPDEST SWAP1 POP SWAP2 POP SWAP2 JUMP JUMPDEST PUSH1 0x0 DUP1 DUP3 GT PUSH2 0x4446 JUMPI PUSH1 0x0 DUP1 REVERT JUMPDEST PUSH17 0x100000000000000000000000000000000 DUP3 LT PUSH2 0x4475 JUMPI PUSH1 0x80 DUP3 SWAP1 SHR SWAP2 POP PUSH1 0x80 DUP2 PUSH2 0x4472 SWAP2 SWAP1 PUSH2 0x6945 JUMP JUMPDEST SWAP1 POP JUMPDEST PUSH9 0x10000000000000000 DUP3 LT PUSH2 0x449C JUMPI PUSH1 0x40 DUP3 SWAP1 SHR SWAP2 POP PUSH1 0x40 DUP2 PUSH2 0x4499 SWAP2 SWAP1 PUSH2 0x6945 JUMP JUMPDEST SWAP1 POP JUMPDEST PUSH5 0x100000000 DUP3 LT PUSH2 0x44BF JUMPI PUSH1 0x20 DUP3 SWAP1 SHR SWAP2 POP PUSH1 0x20 DUP2 PUSH2 0x44BC SWAP2 SWAP1 PUSH2 0x6945 JUMP JUMPDEST SWAP1 POP JUMPDEST PUSH3 0x10000 DUP3 LT PUSH2 0x44E0 JUMPI PUSH1 0x10 DUP3 SWAP1 SHR SWAP2 POP PUSH1 0x10 DUP2 PUSH2 0x44DD SWAP2 SWAP1 PUSH2 0x6945 JUMP JUMPDEST SWAP1 POP JUMPDEST PUSH2 0x100 DUP3 LT PUSH2 0x4500 JUMPI PUSH1 0x8 DUP3 SWAP1 SHR SWAP2 POP PUSH1 0x8 DUP2 PUSH2 0x44FD SWAP2 SWAP1 PUSH2 0x6945 JUMP JUMPDEST SWAP1 POP JUMPDEST PUSH1 0x10 DUP3 LT PUSH2 0x451F JUMPI PUSH1 0x4 DUP3 SWAP1 SHR SWAP2 POP PUSH1 0x4 DUP2 PUSH2 0x451C SWAP2 SWAP1 PUSH2 0x6945 JUMP JUMPDEST SWAP1 POP JUMPDEST PUSH1 0x4 DUP3 LT PUSH2 0x453E JUMPI PUSH1 0x2 DUP3 SWAP1 SHR SWAP2 POP PUSH1 0x2 DUP2 PUSH2 0x453B SWAP2 SWAP1 PUSH2 0x6945 JUMP JUMPDEST SWAP1 POP JUMPDEST PUSH1 0x2 DUP3 LT PUSH2 0x4556 JUMPI PUSH1 0x1 DUP2 PUSH2 0x4553 SWAP2 SWAP1 PUSH2 0x6945 JUMP JUMPDEST SWAP1 POP JUMPDEST SWAP2 SWAP1 POP JUMP JUMPDEST PUSH1 0x0 DUP1 DUP3 GT PUSH2 0x4569 JUMPI PUSH1 0x0 DUP1 REVERT JUMPDEST PUSH1 0xFF SWAP1 POP PUSH1 0x0 PUSH16 0xFFFFFFFFFFFFFFFFFFFFFFFFFFFFFFFF DUP1 AND DUP4 AND GT ISZERO PUSH2 0x459E JUMPI PUSH1 0x80 DUP2 PUSH2 0x4597 SWAP2 SWAP1 PUSH2 0x63B8 JUMP JUMPDEST SWAP1 POP PUSH2 0x45A6 JUMP JUMPDEST PUSH1 0x80 DUP3 SWAP1 SHR SWAP2 POP JUMPDEST PUSH1 0x0 PUSH8 0xFFFFFFFFFFFFFFFF DUP1 AND DUP4 AND GT ISZERO PUSH2 0x45CF JUMPI PUSH1 0x40 DUP2 PUSH2 0x45C8 SWAP2 SWAP1 PUSH2 0x63B8 JUMP JUMPDEST SWAP1 POP PUSH2 0x45D7 JUMP JUMPDEST PUSH1 0x40 DUP3 SWAP1 SHR SWAP2 POP JUMPDEST PUSH1 0x0 PUSH4 0xFFFFFFFF DUP1 AND DUP4 AND GT ISZERO PUSH2 0x45FC JUMPI PUSH1 0x20 DUP2 PUSH2 0x45F5 SWAP2 SWAP1 PUSH2 0x63B8 JUMP JUMPDEST SWAP1 POP PUSH2 0x4604 JUMP JUMPDEST PUSH1 0x20 DUP3 SWAP1 SHR SWAP2 POP JUMPDEST PUSH1 0x0 PUSH2 0xFFFF DUP1 AND DUP4 AND GT ISZERO PUSH2 0x4627 JUMPI PUSH1 0x10 DUP2 PUSH2 0x4620 SWAP2 SWAP1 PUSH2 0x63B8 JUMP JUMPDEST SWAP1 POP PUSH2 0x462F JUMP JUMPDEST PUSH1 0x10 DUP3 SWAP1 SHR SWAP2 POP JUMPDEST PUSH1 0x0 PUSH1 0xFF DUP1 AND DUP4 AND GT ISZERO PUSH2 0x4651 JUMPI PUSH1 0x8 DUP2 PUSH2 0x464A SWAP2 SWAP1 PUSH2 0x63B8 JUMP JUMPDEST SWAP1 POP PUSH2 0x4659 JUMP JUMPDEST PUSH1 0x8 DUP3 SWAP1 SHR SWAP2 POP JUMPDEST PUSH1 0x0 PUSH1 0xF DUP4 AND GT ISZERO PUSH2 0x4679 JUMPI PUSH1 0x4 DUP2 PUSH2 0x4672 SWAP2 SWAP1 PUSH2 0x63B8 JUMP JUMPDEST SWAP1 POP PUSH2 0x4681 JUMP JUMPDEST PUSH1 0x4 DUP3 SWAP1 SHR SWAP2 POP JUMPDEST PUSH1 0x0 PUSH1 0x3 DUP4 AND GT ISZERO PUSH2 0x46A1 JUMPI PUSH1 0x2 DUP2 PUSH2 0x469A SWAP2 SWAP1 PUSH2 0x63B8 JUMP JUMPDEST SWAP1 POP PUSH2 0x46A9 JUMP JUMPDEST PUSH1 0x2 DUP3 SWAP1 SHR SWAP2 POP JUMPDEST PUSH1 0x0 PUSH1 0x1 DUP4 AND GT ISZERO PUSH2 0x46C5 JUMPI PUSH1 0x1 DUP2 PUSH2 0x46C2 SWAP2 SWAP1 PUSH2 0x63B8 JUMP JUMPDEST SWAP1 POP JUMPDEST SWAP2 SWAP1 POP JUMP JUMPDEST PUSH1 0x0 DUP4 PUSH20 0xFFFFFFFFFFFFFFFFFFFFFFFFFFFFFFFFFFFFFFFF AND DUP6 PUSH20 0xFFFFFFFFFFFFFFFFFFFFFFFFFFFFFFFFFFFFFFFF AND GT ISZERO PUSH2 0x470B JUMPI DUP4 DUP6 DUP1 SWAP6 POP DUP2 SWAP7 POP POP POP JUMPDEST DUP2 ISZERO PUSH2 0x4763 JUMPI PUSH2 0x475C DUP4 PUSH16 0xFFFFFFFFFFFFFFFFFFFFFFFFFFFFFFFF AND DUP7 DUP7 PUSH2 0x4733 SWAP2 SWAP1 PUSH2 0x697A JUMP JUMPDEST PUSH20 0xFFFFFFFFFFFFFFFFFFFFFFFFFFFFFFFFFFFFFFFF AND PUSH13 0x1000000000000000000000000 PUSH2 0x2A65 JUMP JUMPDEST SWAP1 POP PUSH2 0x47B1 JUMP JUMPDEST PUSH2 0x47AE DUP4 PUSH16 0xFFFFFFFFFFFFFFFFFFFFFFFFFFFFFFFF AND DUP7 DUP7 PUSH2 0x4785 SWAP2 SWAP1 PUSH2 0x697A JUMP JUMPDEST PUSH20 0xFFFFFFFFFFFFFFFFFFFFFFFFFFFFFFFFFFFFFFFF AND PUSH13 0x1000000000000000000000000 PUSH2 0x3426 JUMP JUMPDEST SWAP1 POP JUMPDEST SWAP5 SWAP4 POP POP POP POP JUMP JUMPDEST PUSH1 0x0 DUP4 PUSH20 0xFFFFFFFFFFFFFFFFFFFFFFFFFFFFFFFFFFFFFFFF AND DUP6 PUSH20 0xFFFFFFFFFFFFFFFFFFFFFFFFFFFFFFFFFFFFFFFF AND GT ISZERO PUSH2 0x47FA JUMPI DUP4 DUP6 DUP1 SWAP6 POP DUP2 SWAP7 POP POP POP JUMPDEST PUSH1 0x0 DUP6 PUSH20 0xFFFFFFFFFFFFFFFFFFFFFFFFFFFFFFFFFFFFFFFF AND GT PUSH2 0x481D JUMPI PUSH1 0x0 DUP1 REVERT JUMPDEST PUSH1 0x0 PUSH1 0x60 PUSH1 0xFF AND DUP5 PUSH16 0xFFFFFFFFFFFFFFFFFFFFFFFFFFFFFFFF AND SWAP1 SHL SWAP1 POP PUSH1 0x0 DUP7 DUP7 PUSH2 0x4849 SWAP2 SWAP1 PUSH2 0x697A JUMP JUMPDEST PUSH20 0xFFFFFFFFFFFFFFFFFFFFFFFFFFFFFFFFFFFFFFFF AND SWAP1 POP DUP4 ISZERO PUSH2 0x48AE JUMPI PUSH2 0x48A7 PUSH2 0x488B DUP4 DUP4 DUP10 PUSH20 0xFFFFFFFFFFFFFFFFFFFFFFFFFFFFFFFFFFFFFFFF AND PUSH2 0x2A65 JUMP JUMPDEST DUP9 PUSH20 0xFFFFFFFFFFFFFFFFFFFFFFFFFFFFFFFFFFFFFFFF AND PUSH2 0x4C00 JUMP JUMPDEST SWAP3 POP PUSH2 0x48F3 JUMP JUMPDEST DUP7 PUSH20 0xFFFFFFFFFFFFFFFFFFFFFFFFFFFFFFFFFFFFFFFF AND PUSH2 0x48E6 DUP4 DUP4 DUP10 PUSH20 0xFFFFFFFFFFFFFFFFFFFFFFFFFFFFFFFFFFFFFFFF AND PUSH2 0x3426 JUMP JUMPDEST PUSH2 0x48F0 SWAP2 SWAP1 PUSH2 0x6507 JUMP JUMPDEST SWAP3 POP JUMPDEST POP POP SWAP5 SWAP4 POP POP POP POP JUMP JUMPDEST PUSH1 0x0 DUP2 PUSH2 0x4914 JUMPI PUSH2 0x490F DUP6 DUP6 DUP6 PUSH2 0x4C13 JUMP JUMPDEST PUSH2 0x4920 JUMP JUMPDEST PUSH2 0x491F DUP6 DUP6 DUP6 PUSH2 0x4C69 JUMP JUMPDEST JUMPDEST SWAP1 POP SWAP5 SWAP4 POP POP POP POP JUMP JUMPDEST PUSH2 0x4932 PUSH2 0x50D1 JUMP JUMPDEST PUSH1 0x0 DUP5 PUSH1 0x0 ADD MLOAD DUP5 PUSH2 0x4944 SWAP2 SWAP1 PUSH2 0x67A8 JUMP JUMPDEST PUSH4 0xFFFFFFFF AND SWAP1 POP PUSH1 0x40 MLOAD DUP1 PUSH1 0x60 ADD PUSH1 0x40 MSTORE DUP1 DUP6 PUSH4 0xFFFFFFFF AND DUP2 MSTORE PUSH1 0x20 ADD DUP3 DUP6 PUSH1 0x2 SIGNEXTEND PUSH2 0x4972 SWAP2 SWAP1 PUSH2 0x68A9 JUMP JUMPDEST DUP8 PUSH1 0x20 ADD MLOAD PUSH2 0x4981 SWAP2 SWAP1 PUSH2 0x68E6 JUMP JUMPDEST PUSH1 0x6 SIGNEXTEND DUP2 MSTORE PUSH1 0x20 ADD PUSH1 0x1 ISZERO ISZERO DUP2 MSTORE POP SWAP2 POP POP SWAP4 SWAP3 POP POP POP JUMP JUMPDEST PUSH2 0x49A2 PUSH2 0x50D1 JUMP JUMPDEST PUSH2 0x49AA PUSH2 0x50D1 JUMP JUMPDEST DUP8 DUP5 PUSH2 0xFFFF AND PUSH2 0xFFFF DUP2 LT PUSH2 0x49C2 JUMPI PUSH2 0x49C1 PUSH2 0x60D1 JUMP JUMPDEST JUMPDEST ADD PUSH1 0x40 MLOAD DUP1 PUSH1 0x60 ADD PUSH1 0x40 MSTORE SWAP1 DUP2 PUSH1 0x0 DUP3 ADD PUSH1 0x0 SWAP1 SLOAD SWAP1 PUSH2 0x100 EXP SWAP1 DIV PUSH4 0xFFFFFFFF AND PUSH4 0xFFFFFFFF AND PUSH4 0xFFFFFFFF AND DUP2 MSTORE PUSH1 0x20 ADD PUSH1 0x0 DUP3 ADD PUSH1 0x4 SWAP1 SLOAD SWAP1 PUSH2 0x100 EXP SWAP1 DIV PUSH1 0x6 SIGNEXTEND PUSH1 0x6 SIGNEXTEND PUSH1 0x6 SIGNEXTEND DUP2 MSTORE PUSH1 0x20 ADD PUSH1 0x0 DUP3 ADD PUSH1 0xB SWAP1 SLOAD SWAP1 PUSH2 0x100 EXP SWAP1 DIV PUSH1 0xFF AND ISZERO ISZERO ISZERO ISZERO DUP2 MSTORE POP POP SWAP2 POP PUSH2 0x4A3D DUP8 DUP4 PUSH1 0x0 ADD MLOAD DUP9 PUSH2 0x4D5C JUMP JUMPDEST ISZERO PUSH2 0x4A6F JUMPI DUP6 PUSH4 0xFFFFFFFF AND DUP3 PUSH1 0x0 ADD MLOAD PUSH4 0xFFFFFFFF AND SUB ISZERO PUSH2 0x4BF5 JUMPI DUP2 PUSH2 0x4A66 DUP4 DUP9 DUP9 PUSH2 0x492A JUMP JUMPDEST SWAP2 POP SWAP2 POP PUSH2 0x4BF5 JUMP JUMPDEST DUP8 DUP4 PUSH1 0x1 DUP7 PUSH2 0x4A7E SWAP2 SWAP1 PUSH2 0x6741 JUMP JUMPDEST PUSH2 0x4A88 SWAP2 SWAP1 PUSH2 0x6777 JUMP JUMPDEST PUSH2 0xFFFF AND PUSH2 0xFFFF DUP2 LT PUSH2 0x4A9E JUMPI PUSH2 0x4A9D PUSH2 0x60D1 JUMP JUMPDEST JUMPDEST ADD PUSH1 0x40 MLOAD DUP1 PUSH1 0x60 ADD PUSH1 0x40 MSTORE SWAP1 DUP2 PUSH1 0x0 DUP3 ADD PUSH1 0x0 SWAP1 SLOAD SWAP1 PUSH2 0x100 EXP SWAP1 DIV PUSH4 0xFFFFFFFF AND PUSH4 0xFFFFFFFF AND PUSH4 0xFFFFFFFF AND DUP2 MSTORE PUSH1 0x20 ADD PUSH1 0x0 DUP3 ADD PUSH1 0x4 SWAP1 SLOAD SWAP1 PUSH2 0x100 EXP SWAP1 DIV PUSH1 0x6 SIGNEXTEND PUSH1 0x6 SIGNEXTEND PUSH1 0x6 SIGNEXTEND DUP2 MSTORE PUSH1 0x20 ADD PUSH1 0x0 DUP3 ADD PUSH1 0xB SWAP1 SLOAD SWAP1 PUSH2 0x100 EXP SWAP1 DIV PUSH1 0xFF AND ISZERO ISZERO ISZERO ISZERO DUP2 MSTORE POP POP SWAP2 POP DUP2 PUSH1 0x40 ADD MLOAD PUSH2 0x4B95 JUMPI DUP8 PUSH1 0x0 PUSH2 0xFFFF DUP2 LT PUSH2 0x4B28 JUMPI PUSH2 0x4B27 PUSH2 0x60D1 JUMP JUMPDEST JUMPDEST ADD PUSH1 0x40 MLOAD DUP1 PUSH1 0x60 ADD PUSH1 0x40 MSTORE SWAP1 DUP2 PUSH1 0x0 DUP3 ADD PUSH1 0x0 SWAP1 SLOAD SWAP1 PUSH2 0x100 EXP SWAP1 DIV PUSH4 0xFFFFFFFF AND PUSH4 0xFFFFFFFF AND PUSH4 0xFFFFFFFF AND DUP2 MSTORE PUSH1 0x20 ADD PUSH1 0x0 DUP3 ADD PUSH1 0x4 SWAP1 SLOAD SWAP1 PUSH2 0x100 EXP SWAP1 DIV PUSH1 0x6 SIGNEXTEND PUSH1 0x6 SIGNEXTEND PUSH1 0x6 SIGNEXTEND DUP2 MSTORE PUSH1 0x20 ADD PUSH1 0x0 DUP3 ADD PUSH1 0xB SWAP1 SLOAD SWAP1 PUSH2 0x100 EXP SWAP1 DIV PUSH1 0xFF AND ISZERO ISZERO ISZERO ISZERO DUP2 MSTORE POP POP SWAP2 POP JUMPDEST PUSH2 0x4BA4 DUP8 DUP4 PUSH1 0x0 ADD MLOAD DUP9 PUSH2 0x4D5C JUMP JUMPDEST PUSH2 0x4BE3 JUMPI PUSH1 0x40 MLOAD PUSH32 0x8C379A000000000000000000000000000000000000000000000000000000000 DUP2 MSTORE PUSH1 0x4 ADD PUSH2 0x4BDA SWAP1 PUSH2 0x6A0E JUMP JUMPDEST PUSH1 0x40 MLOAD DUP1 SWAP2 SUB SWAP1 REVERT JUMPDEST PUSH2 0x4BF0 DUP9 DUP9 DUP9 DUP8 DUP8 PUSH2 0x4E36 JUMP JUMPDEST SWAP2 POP SWAP2 POP JUMPDEST SWAP7 POP SWAP7 SWAP5 POP POP POP POP POP JUMP JUMPDEST PUSH1 0x0 DUP1 DUP3 DUP5 MOD GT DUP3 DUP5 DIV ADD SWAP1 POP SWAP3 SWAP2 POP POP JUMP JUMPDEST PUSH1 0x0 PUSH2 0x4C3F DUP3 PUSH13 0x1000000000000000000000000 DUP6 PUSH16 0xFFFFFFFFFFFFFFFFFFFFFFFFFFFFFFFF AND PUSH2 0x3426 JUMP JUMPDEST DUP5 PUSH20 0xFFFFFFFFFFFFFFFFFFFFFFFFFFFFFFFFFFFFFFFF AND PUSH2 0x4C60 SWAP2 SWAP1 PUSH2 0x5CE1 JUMP JUMPDEST SWAP1 POP SWAP4 SWAP3 POP POP POP JUMP JUMPDEST PUSH1 0x0 DUP1 PUSH1 0x60 PUSH1 0xFF AND DUP5 PUSH16 0xFFFFFFFFFFFFFFFFFFFFFFFFFFFFFFFF AND SWAP1 SHL SWAP1 POP PUSH1 0x0 DUP6 PUSH20 0xFFFFFFFFFFFFFFFFFFFFFFFFFFFFFFFFFFFFFFFF AND DUP5 PUSH2 0x4CAC SWAP2 SWAP1 PUSH2 0x64C5 JUMP JUMPDEST SWAP1 POP DUP6 PUSH20 0xFFFFFFFFFFFFFFFFFFFFFFFFFFFFFFFFFFFFFFFF AND DUP5 DUP3 PUSH2 0x4CD1 SWAP2 SWAP1 PUSH2 0x6507 JUMP JUMPDEST SUB PUSH2 0x4D1A JUMPI PUSH1 0x0 DUP2 DUP4 PUSH2 0x4CE4 SWAP2 SWAP1 PUSH2 0x5CE1 JUMP JUMPDEST SWAP1 POP DUP3 DUP2 LT PUSH2 0x4D18 JUMPI PUSH2 0x4D0E DUP4 DUP9 PUSH20 0xFFFFFFFFFFFFFFFFFFFFFFFFFFFFFFFFFFFFFFFF AND DUP4 PUSH2 0x2A65 JUMP JUMPDEST SWAP4 POP POP POP POP PUSH2 0x4D55 JUMP JUMPDEST POP JUMPDEST PUSH2 0x4D50 DUP3 DUP6 DUP9 PUSH20 0xFFFFFFFFFFFFFFFFFFFFFFFFFFFFFFFFFFFFFFFF AND DUP6 PUSH2 0x4D41 SWAP2 SWAP1 PUSH2 0x6507 JUMP JUMPDEST PUSH2 0x4D4B SWAP2 SWAP1 PUSH2 0x5CE1 JUMP JUMPDEST PUSH2 0x4C00 JUMP JUMPDEST SWAP3 POP POP POP JUMPDEST SWAP4 SWAP3 POP POP POP JUMP JUMPDEST PUSH1 0x0 DUP4 PUSH4 0xFFFFFFFF AND DUP4 PUSH4 0xFFFFFFFF AND GT ISZERO DUP1 ISZERO PUSH2 0x4D86 JUMPI POP DUP4 PUSH4 0xFFFFFFFF AND DUP3 PUSH4 0xFFFFFFFF AND GT ISZERO JUMPDEST ISZERO PUSH2 0x4DA2 JUMPI DUP2 PUSH4 0xFFFFFFFF AND DUP4 PUSH4 0xFFFFFFFF AND GT ISZERO SWAP1 POP PUSH2 0x4E2F JUMP JUMPDEST PUSH1 0x0 DUP5 PUSH4 0xFFFFFFFF AND DUP5 PUSH4 0xFFFFFFFF AND GT PUSH2 0x4DD3 JUMPI PUSH5 0x100000000 DUP5 PUSH4 0xFFFFFFFF AND PUSH2 0x4DCE SWAP2 SWAP1 PUSH2 0x6A3F JUMP JUMPDEST PUSH2 0x4DDB JUMP JUMPDEST DUP4 PUSH4 0xFFFFFFFF AND JUMPDEST PUSH5 0xFFFFFFFFFF AND SWAP1 POP PUSH1 0x0 DUP6 PUSH4 0xFFFFFFFF AND DUP5 PUSH4 0xFFFFFFFF AND GT PUSH2 0x4E15 JUMPI PUSH5 0x100000000 DUP5 PUSH4 0xFFFFFFFF AND PUSH2 0x4E10 SWAP2 SWAP1 PUSH2 0x6A3F JUMP JUMPDEST PUSH2 0x4E1D JUMP JUMPDEST DUP4 PUSH4 0xFFFFFFFF AND JUMPDEST PUSH5 0xFFFFFFFFFF AND SWAP1 POP DUP1 DUP3 GT ISZERO SWAP3 POP POP POP JUMPDEST SWAP4 SWAP3 POP POP POP JUMP JUMPDEST PUSH2 0x4E3E PUSH2 0x50D1 JUMP JUMPDEST PUSH2 0x4E46 PUSH2 0x50D1 JUMP JUMPDEST PUSH1 0x0 DUP4 PUSH1 0x1 DUP7 PUSH2 0x4E56 SWAP2 SWAP1 PUSH2 0x6741 JUMP JUMPDEST PUSH2 0x4E60 SWAP2 SWAP1 PUSH2 0x6777 JUMP JUMPDEST PUSH2 0xFFFF AND SWAP1 POP PUSH1 0x0 PUSH1 0x1 DUP6 PUSH2 0xFFFF AND DUP4 PUSH2 0x4E7A SWAP2 SWAP1 PUSH2 0x5CE1 JUMP JUMPDEST PUSH2 0x4E84 SWAP2 SWAP1 PUSH2 0x5FAF JUMP JUMPDEST SWAP1 POP PUSH1 0x0 JUMPDEST PUSH1 0x1 ISZERO PUSH2 0x5056 JUMPI PUSH1 0x2 DUP3 DUP5 PUSH2 0x4E9E SWAP2 SWAP1 PUSH2 0x5CE1 JUMP JUMPDEST PUSH2 0x4EA8 SWAP2 SWAP1 PUSH2 0x6507 JUMP JUMPDEST SWAP1 POP DUP10 DUP7 PUSH2 0xFFFF AND DUP3 PUSH2 0x4EBB SWAP2 SWAP1 PUSH2 0x6538 JUMP JUMPDEST PUSH2 0xFFFF DUP2 LT PUSH2 0x4ECD JUMPI PUSH2 0x4ECC PUSH2 0x60D1 JUMP JUMPDEST JUMPDEST ADD PUSH1 0x40 MLOAD DUP1 PUSH1 0x60 ADD PUSH1 0x40 MSTORE SWAP1 DUP2 PUSH1 0x0 DUP3 ADD PUSH1 0x0 SWAP1 SLOAD SWAP1 PUSH2 0x100 EXP SWAP1 DIV PUSH4 0xFFFFFFFF AND PUSH4 0xFFFFFFFF AND PUSH4 0xFFFFFFFF AND DUP2 MSTORE PUSH1 0x20 ADD PUSH1 0x0 DUP3 ADD PUSH1 0x4 SWAP1 SLOAD SWAP1 PUSH2 0x100 EXP SWAP1 DIV PUSH1 0x6 SIGNEXTEND PUSH1 0x6 SIGNEXTEND PUSH1 0x6 SIGNEXTEND DUP2 MSTORE PUSH1 0x20 ADD PUSH1 0x0 DUP3 ADD PUSH1 0xB SWAP1 SLOAD SWAP1 PUSH2 0x100 EXP SWAP1 DIV PUSH1 0xFF AND ISZERO ISZERO ISZERO ISZERO DUP2 MSTORE POP POP SWAP5 POP DUP5 PUSH1 0x40 ADD MLOAD PUSH2 0x4F56 JUMPI PUSH1 0x1 DUP2 PUSH2 0x4F4F SWAP2 SWAP1 PUSH2 0x5CE1 JUMP JUMPDEST SWAP3 POP PUSH2 0x4E89 JUMP JUMPDEST DUP10 DUP7 PUSH2 0xFFFF AND PUSH1 0x1 DUP4 PUSH2 0x4F69 SWAP2 SWAP1 PUSH2 0x5CE1 JUMP JUMPDEST PUSH2 0x4F73 SWAP2 SWAP1 PUSH2 0x6538 JUMP JUMPDEST PUSH2 0xFFFF DUP2 LT PUSH2 0x4F85 JUMPI PUSH2 0x4F84 PUSH2 0x60D1 JUMP JUMPDEST JUMPDEST ADD PUSH1 0x40 MLOAD DUP1 PUSH1 0x60 ADD PUSH1 0x40 MSTORE SWAP1 DUP2 PUSH1 0x0 DUP3 ADD PUSH1 0x0 SWAP1 SLOAD SWAP1 PUSH2 0x100 EXP SWAP1 DIV PUSH4 0xFFFFFFFF AND PUSH4 0xFFFFFFFF AND PUSH4 0xFFFFFFFF AND DUP2 MSTORE PUSH1 0x20 ADD PUSH1 0x0 DUP3 ADD PUSH1 0x4 SWAP1 SLOAD SWAP1 PUSH2 0x100 EXP SWAP1 DIV PUSH1 0x6 SIGNEXTEND PUSH1 0x6 SIGNEXTEND PUSH1 0x6 SIGNEXTEND DUP2 MSTORE PUSH1 0x20 ADD PUSH1 0x0 DUP3 ADD PUSH1 0xB SWAP1 SLOAD SWAP1 PUSH2 0x100 EXP SWAP1 DIV PUSH1 0xFF AND ISZERO ISZERO ISZERO ISZERO DUP2 MSTORE POP POP SWAP4 POP PUSH1 0x0 PUSH2 0x5002 DUP11 DUP8 PUSH1 0x0 ADD MLOAD DUP12 PUSH2 0x4D5C JUMP JUMPDEST SWAP1 POP DUP1 DUP1 ISZERO PUSH2 0x501C JUMPI POP PUSH2 0x501B DUP11 DUP11 DUP8 PUSH1 0x0 ADD MLOAD PUSH2 0x4D5C JUMP JUMPDEST JUMPDEST ISZERO PUSH2 0x5027 JUMPI POP PUSH2 0x5056 JUMP JUMPDEST DUP1 PUSH2 0x5040 JUMPI PUSH1 0x1 DUP3 PUSH2 0x5039 SWAP2 SWAP1 PUSH2 0x5FAF JUMP JUMPDEST SWAP3 POP PUSH2 0x5050 JUMP JUMPDEST PUSH1 0x1 DUP3 PUSH2 0x504D SWAP2 SWAP1 PUSH2 0x5CE1 JUMP JUMPDEST SWAP4 POP JUMPDEST POP PUSH2 0x4E89 JUMP JUMPDEST POP POP POP SWAP6 POP SWAP6 SWAP4 POP POP POP POP JUMP JUMPDEST PUSH1 0x40 MLOAD DUP1 PUSH1 0xE0 ADD PUSH1 0x40 MSTORE DUP1 PUSH1 0x0 PUSH20 0xFFFFFFFFFFFFFFFFFFFFFFFFFFFFFFFFFFFFFFFF AND DUP2 MSTORE PUSH1 0x20 ADD PUSH1 0x0 PUSH1 0x2 SIGNEXTEND DUP2 MSTORE PUSH1 0x20 ADD PUSH1 0x0 ISZERO ISZERO DUP2 MSTORE PUSH1 0x20 ADD PUSH1 0x0 PUSH20 0xFFFFFFFFFFFFFFFFFFFFFFFFFFFFFFFFFFFFFFFF AND DUP2 MSTORE PUSH1 0x20 ADD PUSH1 0x0 DUP2 MSTORE PUSH1 0x20 ADD PUSH1 0x0 DUP2 MSTORE PUSH1 0x20 ADD PUSH1 0x0 DUP2 MSTORE POP SWAP1 JUMP JUMPDEST PUSH1 0x40 MLOAD DUP1 PUSH1 0x60 ADD PUSH1 0x40 MSTORE DUP1 PUSH1 0x0 PUSH4 0xFFFFFFFF AND DUP2 MSTORE PUSH1 0x20 ADD PUSH1 0x0 PUSH1 0x6 SIGNEXTEND DUP2 MSTORE PUSH1 0x20 ADD PUSH1 0x0 ISZERO ISZERO DUP2 MSTORE POP SWAP1 JUMP JUMPDEST PUSH1 0x0 PUSH20 0xFFFFFFFFFFFFFFFFFFFFFFFFFFFFFFFFFFFFFFFF DUP3 AND SWAP1 POP SWAP2 SWAP1 POP JUMP JUMPDEST PUSH1 0x0 PUSH2 0x5128 DUP3 PUSH2 0x50FD JUMP JUMPDEST SWAP1 POP SWAP2 SWAP1 POP JUMP JUMPDEST PUSH2 0x5138 DUP2 PUSH2 0x511D JUMP JUMPDEST DUP3 MSTORE POP POP JUMP JUMPDEST PUSH1 0x0 PUSH1 0x20 DUP3 ADD SWAP1 POP PUSH2 0x5153 PUSH1 0x0 DUP4 ADD DUP5 PUSH2 0x512F JUMP JUMPDEST SWAP3 SWAP2 POP POP JUMP JUMPDEST PUSH1 0x0 PUSH16 0xFFFFFFFFFFFFFFFFFFFFFFFFFFFFFFFF DUP3 AND SWAP1 POP SWAP2 SWAP1 POP JUMP JUMPDEST PUSH2 0x517E DUP2 PUSH2 0x5159 JUMP JUMPDEST DUP3 MSTORE POP POP JUMP JUMPDEST PUSH1 0x0 PUSH1 0x20 DUP3 ADD SWAP1 POP PUSH2 0x5199 PUSH1 0x0 DUP4 ADD DUP5 PUSH2 0x5175 JUMP JUMPDEST SWAP3 SWAP2 POP POP JUMP JUMPDEST PUSH1 0x0 DUP1 REVERT JUMPDEST PUSH1 0x0 DUP1 REVERT JUMPDEST PUSH1 0x0 DUP2 SWAP1 POP SWAP2 SWAP1 POP JUMP JUMPDEST PUSH2 0x51BC DUP2 PUSH2 0x51A9 JUMP JUMPDEST DUP2 EQ PUSH2 0x51C7 JUMPI PUSH1 0x0 DUP1 REVERT JUMPDEST POP JUMP JUMPDEST PUSH1 0x0 DUP2 CALLDATALOAD SWAP1 POP PUSH2 0x51D9 DUP2 PUSH2 0x51B3 JUMP JUMPDEST SWAP3 SWAP2 POP POP JUMP JUMPDEST PUSH1 0x0 PUSH1 0x20 DUP3 DUP5 SUB SLT ISZERO PUSH2 0x51F5 JUMPI PUSH2 0x51F4 PUSH2 0x519F JUMP JUMPDEST JUMPDEST PUSH1 0x0 PUSH2 0x5203 DUP5 DUP3 DUP6 ADD PUSH2 0x51CA JUMP JUMPDEST SWAP2 POP POP SWAP3 SWAP2 POP POP JUMP JUMPDEST PUSH1 0x0 PUSH4 0xFFFFFFFF DUP3 AND SWAP1 POP SWAP2 SWAP1 POP JUMP JUMPDEST PUSH2 0x5225 DUP2 PUSH2 0x520C JUMP JUMPDEST DUP3 MSTORE POP POP JUMP JUMPDEST PUSH1 0x0 DUP2 PUSH1 0x6 SIGNEXTEND SWAP1 POP SWAP2 SWAP1 POP JUMP JUMPDEST PUSH2 0x5241 DUP2 PUSH2 0x522B JUMP JUMPDEST DUP3 MSTORE POP POP JUMP JUMPDEST PUSH1 0x0 DUP2 ISZERO ISZERO SWAP1 POP SWAP2 SWAP1 POP JUMP JUMPDEST PUSH2 0x525C DUP2 PUSH2 0x5247 JUMP JUMPDEST DUP3 MSTORE POP POP JUMP JUMPDEST PUSH1 0x0 PUSH1 0x60 DUP3 ADD SWAP1 POP PUSH2 0x5277 PUSH1 0x0 DUP4 ADD DUP7 PUSH2 0x521C JUMP JUMPDEST PUSH2 0x5284 PUSH1 0x20 DUP4 ADD DUP6 PUSH2 0x5238 JUMP JUMPDEST PUSH2 0x5291 PUSH1 0x40 DUP4 ADD DUP5 PUSH2 0x5253 JUMP JUMPDEST SWAP5 SWAP4 POP POP POP POP JUMP JUMPDEST PUSH1 0x0 PUSH2 0xFFFF DUP3 AND SWAP1 POP SWAP2 SWAP1 POP JUMP JUMPDEST PUSH2 0x52B0 DUP2 PUSH2 0x5299 JUMP JUMPDEST DUP2 EQ PUSH2 0x52BB JUMPI PUSH1 0x0 DUP1 REVERT JUMPDEST POP JUMP JUMPDEST PUSH1 0x0 DUP2 CALLDATALOAD SWAP1 POP PUSH2 0x52CD DUP2 PUSH2 0x52A7 JUMP JUMPDEST SWAP3 SWAP2 POP POP JUMP JUMPDEST PUSH1 0x0 PUSH1 0x20 DUP3 DUP5 SUB SLT ISZERO PUSH2 0x52E9 JUMPI PUSH2 0x52E8 PUSH2 0x519F JUMP JUMPDEST JUMPDEST PUSH1 0x0 PUSH2 0x52F7 DUP5 DUP3 DUP6 ADD PUSH2 0x52BE JUMP JUMPDEST SWAP2 POP POP SWAP3 SWAP2 POP POP JUMP JUMPDEST PUSH2 0x5309 DUP2 PUSH2 0x50FD JUMP JUMPDEST DUP3 MSTORE POP POP JUMP JUMPDEST PUSH1 0x0 DUP2 PUSH1 0x2 SIGNEXTEND SWAP1 POP SWAP2 SWAP1 POP JUMP JUMPDEST PUSH2 0x5325 DUP2 PUSH2 0x530F JUMP JUMPDEST DUP3 MSTORE POP POP JUMP JUMPDEST PUSH2 0x5334 DUP2 PUSH2 0x5299 JUMP JUMPDEST DUP3 MSTORE POP POP JUMP JUMPDEST PUSH1 0x0 PUSH1 0xA0 DUP3 ADD SWAP1 POP PUSH2 0x534F PUSH1 0x0 DUP4 ADD DUP9 PUSH2 0x5300 JUMP JUMPDEST PUSH2 0x535C PUSH1 0x20 DUP4 ADD DUP8 PUSH2 0x531C JUMP JUMPDEST PUSH2 0x5369 PUSH1 0x40 DUP4 ADD DUP7 PUSH2 0x532B JUMP JUMPDEST PUSH2 0x5376 PUSH1 0x60 DUP4 ADD DUP6 PUSH2 0x532B JUMP JUMPDEST PUSH2 0x5383 PUSH1 0x80 DUP4 ADD DUP5 PUSH2 0x532B JUMP JUMPDEST SWAP7 SWAP6 POP POP POP POP POP POP JUMP JUMPDEST PUSH2 0x5396 DUP2 PUSH2 0x511D JUMP JUMPDEST DUP2 EQ PUSH2 0x53A1 JUMPI PUSH1 0x0 DUP1 REVERT JUMPDEST POP JUMP JUMPDEST PUSH1 0x0 DUP2 CALLDATALOAD SWAP1 POP PUSH2 0x53B3 DUP2 PUSH2 0x538D JUMP JUMPDEST SWAP3 SWAP2 POP POP JUMP JUMPDEST PUSH2 0x53C2 DUP2 PUSH2 0x530F JUMP JUMPDEST DUP2 EQ PUSH2 0x53CD JUMPI PUSH1 0x0 DUP1 REVERT JUMPDEST POP JUMP JUMPDEST PUSH1 0x0 DUP2 CALLDATALOAD SWAP1 POP PUSH2 0x53DF DUP2 PUSH2 0x53B9 JUMP JUMPDEST SWAP3 SWAP2 POP POP JUMP JUMPDEST PUSH2 0x53EE DUP2 PUSH2 0x5159 JUMP JUMPDEST DUP2 EQ PUSH2 0x53F9 JUMPI PUSH1 0x0 DUP1 REVERT JUMPDEST POP JUMP JUMPDEST PUSH1 0x0 DUP2 CALLDATALOAD SWAP1 POP PUSH2 0x540B DUP2 PUSH2 0x53E5 JUMP JUMPDEST SWAP3 SWAP2 POP POP JUMP JUMPDEST PUSH1 0x0 DUP1 REVERT JUMPDEST PUSH1 0x0 DUP1 REVERT JUMPDEST PUSH1 0x0 DUP1 REVERT JUMPDEST PUSH1 0x0 DUP1 DUP4 PUSH1 0x1F DUP5 ADD SLT PUSH2 0x5436 JUMPI PUSH2 0x5435 PUSH2 0x5411 JUMP JUMPDEST JUMPDEST DUP3 CALLDATALOAD SWAP1 POP PUSH8 0xFFFFFFFFFFFFFFFF DUP2 GT ISZERO PUSH2 0x5453 JUMPI PUSH2 0x5452 PUSH2 0x5416 JUMP JUMPDEST JUMPDEST PUSH1 0x20 DUP4 ADD SWAP2 POP DUP4 PUSH1 0x1 DUP3 MUL DUP4 ADD GT ISZERO PUSH2 0x546F JUMPI PUSH2 0x546E PUSH2 0x541B JUMP JUMPDEST JUMPDEST SWAP3 POP SWAP3 SWAP1 POP JUMP JUMPDEST PUSH1 0x0 DUP1 PUSH1 0x0 DUP1 PUSH1 0x0 DUP1 PUSH1 0xA0 DUP8 DUP10 SUB SLT ISZERO PUSH2 0x5493 JUMPI PUSH2 0x5492 PUSH2 0x519F JUMP JUMPDEST JUMPDEST PUSH1 0x0 PUSH2 0x54A1 DUP10 DUP3 DUP11 ADD PUSH2 0x53A4 JUMP JUMPDEST SWAP7 POP POP PUSH1 0x20 PUSH2 0x54B2 DUP10 DUP3 DUP11 ADD PUSH2 0x53D0 JUMP JUMPDEST SWAP6 POP POP PUSH1 0x40 PUSH2 0x54C3 DUP10 DUP3 DUP11 ADD PUSH2 0x53D0 JUMP JUMPDEST SWAP5 POP POP PUSH1 0x60 PUSH2 0x54D4 DUP10 DUP3 DUP11 ADD PUSH2 0x53FC JUMP JUMPDEST SWAP4 POP POP PUSH1 0x80 DUP8 ADD CALLDATALOAD PUSH8 0xFFFFFFFFFFFFFFFF DUP2 GT ISZERO PUSH2 0x54F5 JUMPI PUSH2 0x54F4 PUSH2 0x51A4 JUMP JUMPDEST JUMPDEST PUSH2 0x5501 DUP10 DUP3 DUP11 ADD PUSH2 0x5420 JUMP JUMPDEST SWAP3 POP SWAP3 POP POP SWAP3 SWAP6 POP SWAP3 SWAP6 POP SWAP3 SWAP6 JUMP JUMPDEST PUSH2 0x5519 DUP2 PUSH2 0x51A9 JUMP JUMPDEST DUP3 MSTORE POP POP JUMP JUMPDEST PUSH1 0x0 PUSH1 0x40 DUP3 ADD SWAP1 POP PUSH2 0x5534 PUSH1 0x0 DUP4 ADD DUP6 PUSH2 0x5510 JUMP JUMPDEST PUSH2 0x5541 PUSH1 0x20 DUP4 ADD DUP5 PUSH2 0x5510 JUMP JUMPDEST SWAP4 SWAP3 POP POP POP JUMP JUMPDEST PUSH1 0x0 PUSH1 0x20 DUP3 ADD SWAP1 POP PUSH2 0x555D PUSH1 0x0 DUP4 ADD DUP5 PUSH2 0x5510 JUMP JUMPDEST SWAP3 SWAP2 POP POP JUMP JUMPDEST PUSH1 0x0 DUP1 PUSH1 0x0 DUP1 PUSH1 0x60 DUP6 DUP8 SUB SLT ISZERO PUSH2 0x557D JUMPI PUSH2 0x557C PUSH2 0x519F JUMP JUMPDEST JUMPDEST PUSH1 0x0 PUSH2 0x558B DUP8 DUP3 DUP9 ADD PUSH2 0x51CA JUMP JUMPDEST SWAP5 POP POP PUSH1 0x20 PUSH2 0x559C DUP8 DUP3 DUP9 ADD PUSH2 0x51CA JUMP JUMPDEST SWAP4 POP POP PUSH1 0x40 DUP6 ADD CALLDATALOAD PUSH8 0xFFFFFFFFFFFFFFFF DUP2 GT ISZERO PUSH2 0x55BD JUMPI PUSH2 0x55BC PUSH2 0x51A4 JUMP JUMPDEST JUMPDEST PUSH2 0x55C9 DUP8 DUP3 DUP9 ADD PUSH2 0x5420 JUMP JUMPDEST SWAP3 POP SWAP3 POP POP SWAP3 SWAP6 SWAP2 SWAP5 POP SWAP3 POP JUMP JUMPDEST PUSH1 0x0 DUP1 PUSH1 0x0 DUP1 PUSH1 0x0 PUSH1 0xA0 DUP7 DUP9 SUB SLT ISZERO PUSH2 0x55F3 JUMPI PUSH2 0x55F2 PUSH2 0x519F JUMP JUMPDEST JUMPDEST PUSH1 0x0 PUSH2 0x5601 DUP9 DUP3 DUP10 ADD PUSH2 0x53A4 JUMP JUMPDEST SWAP6 POP POP PUSH1 0x20 PUSH2 0x5612 DUP9 DUP3 DUP10 ADD PUSH2 0x53D0 JUMP JUMPDEST SWAP5 POP POP PUSH1 0x40 PUSH2 0x5623 DUP9 DUP3 DUP10 ADD PUSH2 0x53D0 JUMP JUMPDEST SWAP4 POP POP PUSH1 0x60 PUSH2 0x5634 DUP9 DUP3 DUP10 ADD PUSH2 0x53FC JUMP JUMPDEST SWAP3 POP POP PUSH1 0x80 PUSH2 0x5645 DUP9 DUP3 DUP10 ADD PUSH2 0x53FC JUMP JUMPDEST SWAP2 POP POP SWAP3 SWAP6 POP SWAP3 SWAP6 SWAP1 SWAP4 POP JUMP JUMPDEST PUSH1 0x0 PUSH1 0x40 DUP3 ADD SWAP1 POP PUSH2 0x5667 PUSH1 0x0 DUP4 ADD DUP6 PUSH2 0x5175 JUMP JUMPDEST PUSH2 0x5674 PUSH1 0x20 DUP4 ADD DUP5 PUSH2 0x5175 JUMP JUMPDEST SWAP4 SWAP3 POP POP POP JUMP JUMPDEST PUSH1 0x0 DUP2 SWAP1 POP SWAP2 SWAP1 POP JUMP JUMPDEST PUSH2 0x568E DUP2 PUSH2 0x567B JUMP JUMPDEST DUP2 EQ PUSH2 0x5699 JUMPI PUSH1 0x0 DUP1 REVERT JUMPDEST POP JUMP JUMPDEST PUSH1 0x0 DUP2 CALLDATALOAD SWAP1 POP PUSH2 0x56AB DUP2 PUSH2 0x5685 JUMP JUMPDEST SWAP3 SWAP2 POP POP JUMP JUMPDEST PUSH1 0x0 PUSH1 0x20 DUP3 DUP5 SUB SLT ISZERO PUSH2 0x56C7 JUMPI PUSH2 0x56C6 PUSH2 0x519F JUMP JUMPDEST JUMPDEST PUSH1 0x0 PUSH2 0x56D5 DUP5 DUP3 DUP6 ADD PUSH2 0x569C JUMP JUMPDEST SWAP2 POP POP SWAP3 SWAP2 POP POP JUMP JUMPDEST PUSH1 0x0 PUSH1 0xA0 DUP3 ADD SWAP1 POP PUSH2 0x56F3 PUSH1 0x0 DUP4 ADD DUP9 PUSH2 0x5175 JUMP JUMPDEST PUSH2 0x5700 PUSH1 0x20 DUP4 ADD DUP8 PUSH2 0x5510 JUMP JUMPDEST PUSH2 0x570D PUSH1 0x40 DUP4 ADD DUP7 PUSH2 0x5510 JUMP JUMPDEST PUSH2 0x571A PUSH1 0x60 DUP4 ADD DUP6 PUSH2 0x5175 JUMP JUMPDEST PUSH2 0x5727 PUSH1 0x80 DUP4 ADD DUP5 PUSH2 0x5175 JUMP JUMPDEST SWAP7 SWAP6 POP POP POP POP POP POP JUMP JUMPDEST PUSH1 0x0 DUP2 PUSH1 0x1 SIGNEXTEND SWAP1 POP SWAP2 SWAP1 POP JUMP JUMPDEST PUSH2 0x5747 DUP2 PUSH2 0x5731 JUMP JUMPDEST DUP2 EQ PUSH2 0x5752 JUMPI PUSH1 0x0 DUP1 REVERT JUMPDEST POP JUMP JUMPDEST PUSH1 0x0 DUP2 CALLDATALOAD SWAP1 POP PUSH2 0x5764 DUP2 PUSH2 0x573E JUMP JUMPDEST SWAP3 SWAP2 POP POP JUMP JUMPDEST PUSH1 0x0 PUSH1 0x20 DUP3 DUP5 SUB SLT ISZERO PUSH2 0x5780 JUMPI PUSH2 0x577F PUSH2 0x519F JUMP JUMPDEST JUMPDEST PUSH1 0x0 PUSH2 0x578E DUP5 DUP3 DUP6 ADD PUSH2 0x5755 JUMP JUMPDEST SWAP2 POP POP SWAP3 SWAP2 POP POP JUMP JUMPDEST PUSH1 0x0 DUP1 DUP4 PUSH1 0x1F DUP5 ADD SLT PUSH2 0x57AD JUMPI PUSH2 0x57AC PUSH2 0x5411 JUMP JUMPDEST JUMPDEST DUP3 CALLDATALOAD SWAP1 POP PUSH8 0xFFFFFFFFFFFFFFFF DUP2 GT ISZERO PUSH2 0x57CA JUMPI PUSH2 0x57C9 PUSH2 0x5416 JUMP JUMPDEST JUMPDEST PUSH1 0x20 DUP4 ADD SWAP2 POP DUP4 PUSH1 0x20 DUP3 MUL DUP4 ADD GT ISZERO PUSH2 0x57E6 JUMPI PUSH2 0x57E5 PUSH2 0x541B JUMP JUMPDEST JUMPDEST SWAP3 POP SWAP3 SWAP1 POP JUMP JUMPDEST PUSH1 0x0 DUP1 PUSH1 0x20 DUP4 DUP6 SUB SLT ISZERO PUSH2 0x5804 JUMPI PUSH2 0x5803 PUSH2 0x519F JUMP JUMPDEST JUMPDEST PUSH1 0x0 DUP4 ADD CALLDATALOAD PUSH8 0xFFFFFFFFFFFFFFFF DUP2 GT ISZERO PUSH2 0x5822 JUMPI PUSH2 0x5821 PUSH2 0x51A4 JUMP JUMPDEST JUMPDEST PUSH2 0x582E DUP6 DUP3 DUP7 ADD PUSH2 0x5797 JUMP JUMPDEST SWAP3 POP SWAP3 POP POP SWAP3 POP SWAP3 SWAP1 POP JUMP JUMPDEST PUSH1 0x0 DUP2 MLOAD SWAP1 POP SWAP2 SWAP1 POP JUMP JUMPDEST PUSH1 0x0 DUP3 DUP3 MSTORE PUSH1 0x20 DUP3 ADD SWAP1 POP SWAP3 SWAP2 POP POP JUMP JUMPDEST PUSH1 0x0 DUP2 SWAP1 POP PUSH1 0x20 DUP3 ADD SWAP1 POP SWAP2 SWAP1 POP JUMP JUMPDEST PUSH2 0x586F DUP2 PUSH2 0x522B JUMP JUMPDEST DUP3 MSTORE POP POP JUMP JUMPDEST PUSH1 0x0 PUSH2 0x5881 DUP4 DUP4 PUSH2 0x5866 JUMP JUMPDEST PUSH1 0x20 DUP4 ADD SWAP1 POP SWAP3 SWAP2 POP POP JUMP JUMPDEST PUSH1 0x0 PUSH1 0x20 DUP3 ADD SWAP1 POP SWAP2 SWAP1 POP JUMP JUMPDEST PUSH1 0x0 PUSH2 0x58A5 DUP3 PUSH2 0x583A JUMP JUMPDEST PUSH2 0x58AF DUP2 DUP6 PUSH2 0x5845 JUMP JUMPDEST SWAP4 POP PUSH2 0x58BA DUP4 PUSH2 0x5856 JUMP JUMPDEST DUP1 PUSH1 0x0 JUMPDEST DUP4 DUP2 LT ISZERO PUSH2 0x58EB JUMPI DUP2 MLOAD PUSH2 0x58D2 DUP9 DUP3 PUSH2 0x5875 JUMP JUMPDEST SWAP8 POP PUSH2 0x58DD DUP4 PUSH2 0x588D JUMP JUMPDEST SWAP3 POP POP PUSH1 0x1 DUP2 ADD SWAP1 POP PUSH2 0x58BE JUMP JUMPDEST POP DUP6 SWAP4 POP POP POP POP SWAP3 SWAP2 POP POP JUMP JUMPDEST PUSH1 0x0 PUSH1 0x20 DUP3 ADD SWAP1 POP DUP2 DUP2 SUB PUSH1 0x0 DUP4 ADD MSTORE PUSH2 0x5912 DUP2 DUP5 PUSH2 0x589A JUMP JUMPDEST SWAP1 POP SWAP3 SWAP2 POP POP JUMP JUMPDEST PUSH1 0x0 DUP1 PUSH1 0x0 PUSH1 0x60 DUP5 DUP7 SUB SLT ISZERO PUSH2 0x5933 JUMPI PUSH2 0x5932 PUSH2 0x519F JUMP JUMPDEST JUMPDEST PUSH1 0x0 PUSH2 0x5941 DUP7 DUP3 DUP8 ADD PUSH2 0x53D0 JUMP JUMPDEST SWAP4 POP POP PUSH1 0x20 PUSH2 0x5952 DUP7 DUP3 DUP8 ADD PUSH2 0x53D0 JUMP JUMPDEST SWAP3 POP POP PUSH1 0x40 PUSH2 0x5963 DUP7 DUP3 DUP8 ADD PUSH2 0x53FC JUMP JUMPDEST SWAP2 POP POP SWAP3 POP SWAP3 POP SWAP3 JUMP JUMPDEST PUSH1 0x0 PUSH3 0xFFFFFF DUP3 AND SWAP1 POP SWAP2 SWAP1 POP JUMP JUMPDEST PUSH2 0x5985 DUP2 PUSH2 0x596D JUMP JUMPDEST DUP3 MSTORE POP POP JUMP JUMPDEST PUSH1 0x0 PUSH1 0x20 DUP3 ADD SWAP1 POP PUSH2 0x59A0 PUSH1 0x0 DUP4 ADD DUP5 PUSH2 0x597C JUMP JUMPDEST SWAP3 SWAP2 POP POP JUMP JUMPDEST PUSH2 0x59AF DUP2 PUSH2 0x5247 JUMP JUMPDEST DUP2 EQ PUSH2 0x59BA JUMPI PUSH1 0x0 DUP1 REVERT JUMPDEST POP JUMP JUMPDEST PUSH1 0x0 DUP2 CALLDATALOAD SWAP1 POP PUSH2 0x59CC DUP2 PUSH2 0x59A6 JUMP JUMPDEST SWAP3 SWAP2 POP POP JUMP JUMPDEST PUSH2 0x59DB DUP2 PUSH2 0x50FD JUMP JUMPDEST DUP2 EQ PUSH2 0x59E6 JUMPI PUSH1 0x0 DUP1 REVERT JUMPDEST POP JUMP JUMPDEST PUSH1 0x0 DUP2 CALLDATALOAD SWAP1 POP PUSH2 0x59F8 DUP2 PUSH2 0x59D2 JUMP JUMPDEST SWAP3 SWAP2 POP POP JUMP JUMPDEST PUSH1 0x0 DUP1 PUSH1 0x0 DUP1 PUSH1 0x0 DUP1 PUSH1 0xA0 DUP8 DUP10 SUB SLT ISZERO PUSH2 0x5A1B JUMPI PUSH2 0x5A1A PUSH2 0x519F JUMP JUMPDEST JUMPDEST PUSH1 0x0 PUSH2 0x5A29 DUP10 DUP3 DUP11 ADD PUSH2 0x53A4 JUMP JUMPDEST SWAP7 POP POP PUSH1 0x20 PUSH2 0x5A3A DUP10 DUP3 DUP11 ADD PUSH2 0x59BD JUMP JUMPDEST SWAP6 POP POP PUSH1 0x40 PUSH2 0x5A4B DUP10 DUP3 DUP11 ADD PUSH2 0x51CA JUMP JUMPDEST SWAP5 POP POP PUSH1 0x60 PUSH2 0x5A5C DUP10 DUP3 DUP11 ADD PUSH2 0x59E9 JUMP JUMPDEST SWAP4 POP POP PUSH1 0x80 DUP8 ADD CALLDATALOAD PUSH8 0xFFFFFFFFFFFFFFFF DUP2 GT ISZERO PUSH2 0x5A7D JUMPI PUSH2 0x5A7C PUSH2 0x51A4 JUMP JUMPDEST JUMPDEST PUSH2 0x5A89 DUP10 DUP3 DUP11 ADD PUSH2 0x5420 JUMP JUMPDEST SWAP3 POP SWAP3 POP POP SWAP3 SWAP6 POP SWAP3 SWAP6 POP SWAP3 SWAP6 JUMP JUMPDEST PUSH1 0x0 DUP2 SWAP1 POP SWAP2 SWAP1 POP JUMP JUMPDEST PUSH2 0x5AAB DUP2 PUSH2 0x5A98 JUMP JUMPDEST DUP3 MSTORE POP POP JUMP JUMPDEST PUSH1 0x0 PUSH1 0x40 DUP3 ADD SWAP1 POP PUSH2 0x5AC6 PUSH1 0x0 DUP4 ADD DUP6 PUSH2 0x5AA2 JUMP JUMPDEST PUSH2 0x5AD3 PUSH1 0x20 DUP4 ADD DUP5 PUSH2 0x5AA2 JUMP JUMPDEST SWAP4 SWAP3 POP POP POP JUMP JUMPDEST PUSH1 0x0 PUSH1 0x20 DUP3 DUP5 SUB SLT ISZERO PUSH2 0x5AF0 JUMPI PUSH2 0x5AEF PUSH2 0x519F JUMP JUMPDEST JUMPDEST PUSH1 0x0 PUSH2 0x5AFE DUP5 DUP3 DUP6 ADD PUSH2 0x53D0 JUMP JUMPDEST SWAP2 POP POP SWAP3 SWAP2 POP POP JUMP JUMPDEST PUSH1 0x0 DUP2 PUSH1 0xF SIGNEXTEND SWAP1 POP SWAP2 SWAP1 POP JUMP JUMPDEST PUSH2 0x5B1D DUP2 PUSH2 0x5B07 JUMP JUMPDEST DUP3 MSTORE POP POP JUMP JUMPDEST PUSH1 0x0 PUSH1 0xA0 DUP3 ADD SWAP1 POP PUSH2 0x5B38 PUSH1 0x0 DUP4 ADD DUP9 PUSH2 0x5253 JUMP JUMPDEST PUSH2 0x5B45 PUSH1 0x20 DUP4 ADD DUP8 PUSH2 0x5175 JUMP JUMPDEST PUSH2 0x5B52 PUSH1 0x40 DUP4 ADD DUP7 PUSH2 0x5B14 JUMP JUMPDEST PUSH2 0x5B5F PUSH1 0x60 DUP4 ADD DUP6 PUSH2 0x5510 JUMP JUMPDEST PUSH2 0x5B6C PUSH1 0x80 DUP4 ADD DUP5 PUSH2 0x5510 JUMP JUMPDEST SWAP7 SWAP6 POP POP POP POP POP POP JUMP JUMPDEST PUSH1 0x0 PUSH1 0x20 DUP3 DUP5 SUB SLT ISZERO PUSH2 0x5B8C JUMPI PUSH2 0x5B8B PUSH2 0x519F JUMP JUMPDEST JUMPDEST PUSH1 0x0 PUSH2 0x5B9A DUP5 DUP3 DUP6 ADD PUSH2 0x59E9 JUMP JUMPDEST SWAP2 POP POP SWAP3 SWAP2 POP POP JUMP JUMPDEST PUSH1 0x0 PUSH1 0x40 DUP3 ADD SWAP1 POP PUSH2 0x5BB8 PUSH1 0x0 DUP4 ADD DUP6 PUSH2 0x532B JUMP JUMPDEST PUSH2 0x5BC5 PUSH1 0x20 DUP4 ADD DUP5 PUSH2 0x532B JUMP JUMPDEST SWAP4 SWAP3 POP POP POP JUMP JUMPDEST PUSH32 0x4E487B7100000000000000000000000000000000000000000000000000000000 PUSH1 0x0 MSTORE PUSH1 0x11 PUSH1 0x4 MSTORE PUSH1 0x24 PUSH1 0x0 REVERT JUMPDEST PUSH1 0x0 PUSH2 0x5C06 DUP3 PUSH2 0x530F JUMP JUMPDEST SWAP2 POP PUSH32 0xFFFFFFFFFFFFFFFFFFFFFFFFFFFFFFFFFFFFFFFFFFFFFFFFFFFFFFFFFF800000 DUP3 SUB PUSH2 0x5C38 JUMPI PUSH2 0x5C37 PUSH2 0x5BCC JUMP JUMPDEST JUMPDEST DUP2 PUSH1 0x0 SUB SWAP1 POP SWAP2 SWAP1 POP JUMP JUMPDEST PUSH1 0x0 DUP3 DUP3 MSTORE PUSH1 0x20 DUP3 ADD SWAP1 POP SWAP3 SWAP2 POP POP JUMP JUMPDEST DUP3 DUP2 DUP4 CALLDATACOPY PUSH1 0x0 DUP4 DUP4 ADD MSTORE POP POP POP JUMP JUMPDEST PUSH1 0x0 PUSH1 0x1F NOT PUSH1 0x1F DUP4 ADD AND SWAP1 POP SWAP2 SWAP1 POP JUMP JUMPDEST PUSH1 0x0 PUSH2 0x5C80 DUP4 DUP6 PUSH2 0x5C43 JUMP JUMPDEST SWAP4 POP PUSH2 0x5C8D DUP4 DUP6 DUP5 PUSH2 0x5C54 JUMP JUMPDEST PUSH2 0x5C96 DUP4 PUSH2 0x5C63 JUMP JUMPDEST DUP5 ADD SWAP1 POP SWAP4 SWAP3 POP POP POP JUMP JUMPDEST PUSH1 0x0 PUSH1 0x60 DUP3 ADD SWAP1 POP PUSH2 0x5CB6 PUSH1 0x0 DUP4 ADD DUP8 PUSH2 0x5510 JUMP JUMPDEST PUSH2 0x5CC3 PUSH1 0x20 DUP4 ADD DUP7 PUSH2 0x5510 JUMP JUMPDEST DUP2 DUP2 SUB PUSH1 0x40 DUP4 ADD MSTORE PUSH2 0x5CD6 DUP2 DUP5 DUP7 PUSH2 0x5C74 JUMP JUMPDEST SWAP1 POP SWAP6 SWAP5 POP POP POP POP POP JUMP JUMPDEST PUSH1 0x0 PUSH2 0x5CEC DUP3 PUSH2 0x51A9 JUMP JUMPDEST SWAP2 POP PUSH2 0x5CF7 DUP4 PUSH2 0x51A9 JUMP JUMPDEST SWAP3 POP DUP3 DUP3 ADD SWAP1 POP DUP1 DUP3 GT ISZERO PUSH2 0x5D0F JUMPI PUSH2 0x5D0E PUSH2 0x5BCC JUMP JUMPDEST JUMPDEST SWAP3 SWAP2 POP POP JUMP JUMPDEST PUSH1 0x0 PUSH1 0x80 DUP3 ADD SWAP1 POP PUSH2 0x5D2A PUSH1 0x0 DUP4 ADD DUP8 PUSH2 0x512F JUMP JUMPDEST PUSH2 0x5D37 PUSH1 0x20 DUP4 ADD DUP7 PUSH2 0x5175 JUMP JUMPDEST PUSH2 0x5D44 PUSH1 0x40 DUP4 ADD DUP6 PUSH2 0x5510 JUMP JUMPDEST PUSH2 0x5D51 PUSH1 0x60 DUP4 ADD DUP5 PUSH2 0x5510 JUMP JUMPDEST SWAP6 SWAP5 POP POP POP POP POP JUMP JUMPDEST PUSH1 0x0 DUP2 MLOAD SWAP1 POP PUSH2 0x5D69 DUP2 PUSH2 0x51B3 JUMP JUMPDEST SWAP3 SWAP2 POP POP JUMP JUMPDEST PUSH1 0x0 PUSH1 0x20 DUP3 DUP5 SUB SLT ISZERO PUSH2 0x5D85 JUMPI PUSH2 0x5D84 PUSH2 0x519F JUMP JUMPDEST JUMPDEST PUSH1 0x0 PUSH2 0x5D93 DUP5 DUP3 DUP6 ADD PUSH2 0x5D5A JUMP JUMPDEST SWAP2 POP POP SWAP3 SWAP2 POP POP JUMP JUMPDEST PUSH1 0x0 PUSH1 0x40 DUP3 ADD SWAP1 POP PUSH2 0x5DB1 PUSH1 0x0 DUP4 ADD DUP6 PUSH2 0x512F JUMP JUMPDEST PUSH2 0x5DBE PUSH1 0x20 DUP4 ADD DUP5 PUSH2 0x5510 JUMP JUMPDEST SWAP4 SWAP3 POP POP POP JUMP JUMPDEST PUSH1 0x0 PUSH2 0x5DD0 DUP3 PUSH2 0x5159 JUMP JUMPDEST SWAP2 POP PUSH2 0x5DDB DUP4 PUSH2 0x5159 JUMP JUMPDEST SWAP3 POP DUP3 DUP3 SUB SWAP1 POP PUSH16 0xFFFFFFFFFFFFFFFFFFFFFFFFFFFFFFFF DUP2 GT ISZERO PUSH2 0x5E03 JUMPI PUSH2 0x5E02 PUSH2 0x5BCC JUMP JUMPDEST JUMPDEST SWAP3 SWAP2 POP POP JUMP JUMPDEST PUSH1 0x0 DUP2 SWAP1 POP SWAP2 SWAP1 POP JUMP JUMPDEST PUSH1 0x0 PUSH2 0x5E2E PUSH2 0x5E29 PUSH2 0x5E24 DUP5 PUSH2 0x5159 JUMP JUMPDEST PUSH2 0x5E09 JUMP JUMPDEST PUSH2 0x51A9 JUMP JUMPDEST SWAP1 POP SWAP2 SWAP1 POP JUMP JUMPDEST PUSH2 0x5E3E DUP2 PUSH2 0x5E13 JUMP JUMPDEST DUP3 MSTORE POP POP JUMP JUMPDEST PUSH1 0x0 PUSH1 0x40 DUP3 ADD SWAP1 POP PUSH2 0x5E59 PUSH1 0x0 DUP4 ADD DUP6 PUSH2 0x512F JUMP JUMPDEST PUSH2 0x5E66 PUSH1 0x20 DUP4 ADD DUP5 PUSH2 0x5E35 JUMP JUMPDEST SWAP4 SWAP3 POP POP POP JUMP JUMPDEST PUSH1 0x0 PUSH1 0x60 DUP3 ADD SWAP1 POP PUSH2 0x5E82 PUSH1 0x0 DUP4 ADD DUP7 PUSH2 0x512F JUMP JUMPDEST PUSH2 0x5E8F PUSH1 0x20 DUP4 ADD DUP6 PUSH2 0x5E35 JUMP JUMPDEST PUSH2 0x5E9C PUSH1 0x40 DUP4 ADD DUP5 PUSH2 0x5E35 JUMP JUMPDEST SWAP5 SWAP4 POP POP POP POP JUMP JUMPDEST PUSH1 0x0 PUSH2 0x5EAF DUP3 PUSH2 0x5B07 JUMP JUMPDEST SWAP2 POP PUSH32 0xFFFFFFFFFFFFFFFFFFFFFFFFFFFFFFFF80000000000000000000000000000000 DUP3 SUB PUSH2 0x5EE1 JUMPI PUSH2 0x5EE0 PUSH2 0x5BCC JUMP JUMPDEST JUMPDEST DUP2 PUSH1 0x0 SUB SWAP1 POP SWAP2 SWAP1 POP JUMP JUMPDEST PUSH1 0x0 PUSH2 0x5EF7 DUP3 PUSH2 0x5A98 JUMP JUMPDEST SWAP2 POP PUSH32 0x8000000000000000000000000000000000000000000000000000000000000000 DUP3 SUB PUSH2 0x5F29 JUMPI PUSH2 0x5F28 PUSH2 0x5BCC JUMP JUMPDEST JUMPDEST DUP2 PUSH1 0x0 SUB SWAP1 POP SWAP2 SWAP1 POP JUMP JUMPDEST PUSH1 0x0 PUSH2 0x5F3F DUP3 PUSH2 0x5159 JUMP JUMPDEST SWAP2 POP PUSH2 0x5F4A DUP4 PUSH2 0x5159 JUMP JUMPDEST SWAP3 POP DUP3 DUP3 ADD SWAP1 POP PUSH16 0xFFFFFFFFFFFFFFFFFFFFFFFFFFFFFFFF DUP2 GT ISZERO PUSH2 0x5F72 JUMPI PUSH2 0x5F71 PUSH2 0x5BCC JUMP JUMPDEST JUMPDEST SWAP3 SWAP2 POP POP JUMP JUMPDEST PUSH1 0x0 PUSH1 0x60 DUP3 ADD SWAP1 POP PUSH2 0x5F8D PUSH1 0x0 DUP4 ADD DUP7 PUSH2 0x5175 JUMP JUMPDEST PUSH2 0x5F9A PUSH1 0x20 DUP4 ADD DUP6 PUSH2 0x5510 JUMP JUMPDEST PUSH2 0x5FA7 PUSH1 0x40 DUP4 ADD DUP5 PUSH2 0x5510 JUMP JUMPDEST SWAP5 SWAP4 POP POP POP POP JUMP JUMPDEST PUSH1 0x0 PUSH2 0x5FBA DUP3 PUSH2 0x51A9 JUMP JUMPDEST SWAP2 POP PUSH2 0x5FC5 DUP4 PUSH2 0x51A9 JUMP JUMPDEST SWAP3 POP DUP3 DUP3 SUB SWAP1 POP DUP2 DUP2 GT ISZERO PUSH2 0x5FDD JUMPI PUSH2 0x5FDC PUSH2 0x5BCC JUMP JUMPDEST JUMPDEST SWAP3 SWAP2 POP POP JUMP JUMPDEST PUSH1 0x0 PUSH2 0x5FEE DUP3 PUSH2 0x530F JUMP JUMPDEST SWAP2 POP PUSH2 0x5FF9 DUP4 PUSH2 0x530F JUMP JUMPDEST SWAP3 POP DUP3 DUP3 SUB SWAP1 POP PUSH3 0x7FFFFF DUP2 SGT PUSH32 0xFFFFFFFFFFFFFFFFFFFFFFFFFFFFFFFFFFFFFFFFFFFFFFFFFFFFFFFFFF800000 DUP3 SLT OR ISZERO PUSH2 0x6038 JUMPI PUSH2 0x6037 PUSH2 0x5BCC JUMP JUMPDEST JUMPDEST SWAP3 SWAP2 POP POP JUMP JUMPDEST PUSH1 0x0 PUSH1 0x60 DUP3 ADD SWAP1 POP PUSH2 0x6053 PUSH1 0x0 DUP4 ADD DUP8 PUSH2 0x5AA2 JUMP JUMPDEST PUSH2 0x6060 PUSH1 0x20 DUP4 ADD DUP7 PUSH2 0x5AA2 JUMP JUMPDEST DUP2 DUP2 SUB PUSH1 0x40 DUP4 ADD MSTORE PUSH2 0x6073 DUP2 DUP5 DUP7 PUSH2 0x5C74 JUMP JUMPDEST SWAP1 POP SWAP6 SWAP5 POP POP POP POP POP JUMP JUMPDEST PUSH1 0x0 PUSH1 0xA0 DUP3 ADD SWAP1 POP PUSH2 0x6093 PUSH1 0x0 DUP4 ADD DUP9 PUSH2 0x5AA2 JUMP JUMPDEST PUSH2 0x60A0 PUSH1 0x20 DUP4 ADD DUP8 PUSH2 0x5AA2 JUMP JUMPDEST PUSH2 0x60AD PUSH1 0x40 DUP4 ADD DUP7 PUSH2 0x5300 JUMP JUMPDEST PUSH2 0x60BA PUSH1 0x60 DUP4 ADD DUP6 PUSH2 0x5175 JUMP JUMPDEST PUSH2 0x60C7 PUSH1 0x80 DUP4 ADD DUP5 PUSH2 0x531C JUMP JUMPDEST SWAP7 SWAP6 POP POP POP POP POP POP JUMP JUMPDEST PUSH32 0x4E487B7100000000000000000000000000000000000000000000000000000000 PUSH1 0x0 MSTORE PUSH1 0x32 PUSH1 0x4 MSTORE PUSH1 0x24 PUSH1 0x0 REVERT JUMPDEST PUSH1 0x0 PUSH2 0x610B DUP3 PUSH2 0x5299 JUMP JUMPDEST SWAP2 POP PUSH2 0xFFFF DUP3 SUB PUSH2 0x611F JUMPI PUSH2 0x611E PUSH2 0x5BCC JUMP JUMPDEST JUMPDEST PUSH1 0x1 DUP3 ADD SWAP1 POP SWAP2 SWAP1 POP JUMP JUMPDEST PUSH32 0x4E487B7100000000000000000000000000000000000000000000000000000000 PUSH1 0x0 MSTORE PUSH1 0x12 PUSH1 0x4 MSTORE PUSH1 0x24 PUSH1 0x0 REVERT JUMPDEST PUSH1 0x0 PUSH2 0x6164 DUP3 PUSH2 0x51A9 JUMP JUMPDEST SWAP2 POP PUSH32 0xFFFFFFFFFFFFFFFFFFFFFFFFFFFFFFFFFFFFFFFFFFFFFFFFFFFFFFFFFFFFFFFF DUP3 SUB PUSH2 0x6196 JUMPI PUSH2 0x6195 PUSH2 0x5BCC JUMP JUMPDEST JUMPDEST PUSH1 0x1 DUP3 ADD SWAP1 POP SWAP2 SWAP1 POP JUMP JUMPDEST PUSH1 0x0 DUP2 PUSH1 0x60 SHL SWAP1 POP SWAP2 SWAP1 POP JUMP JUMPDEST PUSH1 0x0 PUSH2 0x61B9 DUP3 PUSH2 0x61A1 JUMP JUMPDEST SWAP1 POP SWAP2 SWAP1 POP JUMP JUMPDEST PUSH1 0x0 PUSH2 0x61CB DUP3 PUSH2 0x61AE JUMP JUMPDEST SWAP1 POP SWAP2 SWAP1 POP JUMP JUMPDEST PUSH2 0x61E3 PUSH2 0x61DE DUP3 PUSH2 0x511D JUMP JUMPDEST PUSH2 0x61C0 JUMP JUMPDEST DUP3 MSTORE POP POP JUMP JUMPDEST PUSH1 0x0 DUP2 PUSH1 0xE8 SHL SWAP1 POP SWAP2 SWAP1 POP JUMP JUMPDEST PUSH1 0x0 PUSH2 0x6201 DUP3 PUSH2 0x61E9 JUMP JUMPDEST SWAP1 POP SWAP2 SWAP1 POP JUMP JUMPDEST PUSH2 0x6219 PUSH2 0x6214 DUP3 PUSH2 0x530F JUMP JUMPDEST PUSH2 0x61F6 JUMP JUMPDEST DUP3 MSTORE POP POP JUMP JUMPDEST PUSH1 0x0 PUSH2 0x622B DUP3 DUP7 PUSH2 0x61D2 JUMP JUMPDEST PUSH1 0x14 DUP3 ADD SWAP2 POP PUSH2 0x623B DUP3 DUP6 PUSH2 0x6208 JUMP JUMPDEST PUSH1 0x3 DUP3 ADD SWAP2 POP PUSH2 0x624B DUP3 DUP5 PUSH2 0x6208 JUMP JUMPDEST PUSH1 0x3 DUP3 ADD SWAP2 POP DUP2 SWAP1 POP SWAP5 SWAP4 POP POP POP POP JUMP JUMPDEST PUSH32 0x4E487B7100000000000000000000000000000000000000000000000000000000 PUSH1 0x0 MSTORE PUSH1 0x41 PUSH1 0x4 MSTORE PUSH1 0x24 PUSH1 0x0 REVERT JUMPDEST PUSH1 0x0 PUSH2 0x6296 DUP3 PUSH2 0x530F JUMP JUMPDEST SWAP2 POP PUSH2 0x62A1 DUP4 PUSH2 0x530F JUMP JUMPDEST SWAP3 POP DUP3 PUSH2 0x62B1 JUMPI PUSH2 0x62B0 PUSH2 0x612A JUMP JUMPDEST JUMPDEST PUSH1 0x1 PUSH1 0x0 SUB DUP4 EQ PUSH32 0xFFFFFFFFFFFFFFFFFFFFFFFFFFFFFFFFFFFFFFFFFFFFFFFFFFFFFFFFFF800000 DUP4 EQ AND ISZERO PUSH2 0x62EA JUMPI PUSH2 0x62E9 PUSH2 0x5BCC JUMP JUMPDEST JUMPDEST DUP3 DUP3 SDIV SWAP1 POP SWAP3 SWAP2 POP POP JUMP JUMPDEST PUSH1 0x0 PUSH2 0x6300 DUP3 PUSH2 0x530F JUMP JUMPDEST SWAP2 POP PUSH2 0x630B DUP4 PUSH2 0x530F JUMP JUMPDEST SWAP3 POP DUP3 PUSH2 0x631B JUMPI PUSH2 0x631A PUSH2 0x612A JUMP JUMPDEST JUMPDEST DUP3 DUP3 SMOD SWAP1 POP SWAP3 SWAP2 POP POP JUMP JUMPDEST PUSH1 0x0 PUSH2 0x6331 DUP3 PUSH2 0x530F JUMP JUMPDEST SWAP2 POP PUSH32 0xFFFFFFFFFFFFFFFFFFFFFFFFFFFFFFFFFFFFFFFFFFFFFFFFFFFFFFFFFF800000 DUP3 SUB PUSH2 0x6363 JUMPI PUSH2 0x6362 PUSH2 0x5BCC JUMP JUMPDEST JUMPDEST PUSH1 0x1 DUP3 SUB SWAP1 POP SWAP2 SWAP1 POP JUMP JUMPDEST PUSH1 0x0 PUSH2 0x6379 DUP3 PUSH2 0x530F JUMP JUMPDEST SWAP2 POP PUSH2 0x6384 DUP4 PUSH2 0x530F JUMP JUMPDEST SWAP3 POP DUP3 DUP3 MUL PUSH2 0x6392 DUP2 PUSH2 0x530F JUMP JUMPDEST SWAP2 POP DUP1 DUP3 EQ PUSH2 0x63A4 JUMPI PUSH2 0x63A3 PUSH2 0x5BCC JUMP JUMPDEST JUMPDEST POP SWAP3 SWAP2 POP POP JUMP JUMPDEST PUSH1 0x0 PUSH1 0xFF DUP3 AND SWAP1 POP SWAP2 SWAP1 POP JUMP JUMPDEST PUSH1 0x0 PUSH2 0x63C3 DUP3 PUSH2 0x63AB JUMP JUMPDEST SWAP2 POP PUSH2 0x63CE DUP4 PUSH2 0x63AB JUMP JUMPDEST SWAP3 POP DUP3 DUP3 SUB SWAP1 POP PUSH1 0xFF DUP2 GT ISZERO PUSH2 0x63E7 JUMPI PUSH2 0x63E6 PUSH2 0x5BCC JUMP JUMPDEST JUMPDEST SWAP3 SWAP2 POP POP JUMP JUMPDEST PUSH1 0x0 PUSH2 0x63F8 DUP3 PUSH2 0x530F JUMP JUMPDEST SWAP2 POP PUSH2 0x6403 DUP4 PUSH2 0x530F JUMP JUMPDEST SWAP3 POP DUP3 DUP3 ADD SWAP1 POP PUSH32 0xFFFFFFFFFFFFFFFFFFFFFFFFFFFFFFFFFFFFFFFFFFFFFFFFFFFFFFFFFF800000 DUP2 SLT PUSH3 0x7FFFFF DUP3 SGT OR ISZERO PUSH2 0x6442 JUMPI PUSH2 0x6441 PUSH2 0x5BCC JUMP JUMPDEST JUMPDEST SWAP3 SWAP2 POP POP JUMP JUMPDEST PUSH1 0x0 DUP3 DUP3 MSTORE PUSH1 0x20 DUP3 ADD SWAP1 POP SWAP3 SWAP2 POP POP JUMP JUMPDEST PUSH32 0x5400000000000000000000000000000000000000000000000000000000000000 PUSH1 0x0 DUP3 ADD MSTORE POP JUMP JUMPDEST PUSH1 0x0 PUSH2 0x648F PUSH1 0x1 DUP4 PUSH2 0x6448 JUMP JUMPDEST SWAP2 POP PUSH2 0x649A DUP3 PUSH2 0x6459 JUMP JUMPDEST PUSH1 0x20 DUP3 ADD SWAP1 POP SWAP2 SWAP1 POP JUMP JUMPDEST PUSH1 0x0 PUSH1 0x20 DUP3 ADD SWAP1 POP DUP2 DUP2 SUB PUSH1 0x0 DUP4 ADD MSTORE PUSH2 0x64BE DUP2 PUSH2 0x6482 JUMP JUMPDEST SWAP1 POP SWAP2 SWAP1 POP JUMP JUMPDEST PUSH1 0x0 PUSH2 0x64D0 DUP3 PUSH2 0x51A9 JUMP JUMPDEST SWAP2 POP PUSH2 0x64DB DUP4 PUSH2 0x51A9 JUMP JUMPDEST SWAP3 POP DUP3 DUP3 MUL PUSH2 0x64E9 DUP2 PUSH2 0x51A9 JUMP JUMPDEST SWAP2 POP DUP3 DUP3 DIV DUP5 EQ DUP4 ISZERO OR PUSH2 0x6500 JUMPI PUSH2 0x64FF PUSH2 0x5BCC JUMP JUMPDEST JUMPDEST POP SWAP3 SWAP2 POP POP JUMP JUMPDEST PUSH1 0x0 PUSH2 0x6512 DUP3 PUSH2 0x51A9 JUMP JUMPDEST SWAP2 POP PUSH2 0x651D DUP4 PUSH2 0x51A9 JUMP JUMPDEST SWAP3 POP DUP3 PUSH2 0x652D JUMPI PUSH2 0x652C PUSH2 0x612A JUMP JUMPDEST JUMPDEST DUP3 DUP3 DIV SWAP1 POP SWAP3 SWAP2 POP POP JUMP JUMPDEST PUSH1 0x0 PUSH2 0x6543 DUP3 PUSH2 0x51A9 JUMP JUMPDEST SWAP2 POP PUSH2 0x654E DUP4 PUSH2 0x51A9 JUMP JUMPDEST SWAP3 POP DUP3 PUSH2 0x655E JUMPI PUSH2 0x655D PUSH2 0x612A JUMP JUMPDEST JUMPDEST DUP3 DUP3 MOD SWAP1 POP SWAP3 SWAP2 POP POP JUMP JUMPDEST PUSH1 0x0 PUSH2 0x6574 DUP3 PUSH2 0x596D JUMP JUMPDEST SWAP2 POP PUSH2 0x657F DUP4 PUSH2 0x596D JUMP JUMPDEST SWAP3 POP DUP3 DUP3 SUB SWAP1 POP PUSH3 0xFFFFFF DUP2 GT ISZERO PUSH2 0x659A JUMPI PUSH2 0x6599 PUSH2 0x5BCC JUMP JUMPDEST JUMPDEST SWAP3 SWAP2 POP POP JUMP JUMPDEST PUSH32 0x5200000000000000000000000000000000000000000000000000000000000000 PUSH1 0x0 DUP3 ADD MSTORE POP JUMP JUMPDEST PUSH1 0x0 PUSH2 0x65D6 PUSH1 0x1 DUP4 PUSH2 0x6448 JUMP JUMPDEST SWAP2 POP PUSH2 0x65E1 DUP3 PUSH2 0x65A0 JUMP JUMPDEST PUSH1 0x20 DUP3 ADD SWAP1 POP SWAP2 SWAP1 POP JUMP JUMPDEST PUSH1 0x0 PUSH1 0x20 DUP3 ADD SWAP1 POP DUP2 DUP2 SUB PUSH1 0x0 DUP4 ADD MSTORE PUSH2 0x6605 DUP2 PUSH2 0x65C9 JUMP JUMPDEST SWAP1 POP SWAP2 SWAP1 POP JUMP JUMPDEST PUSH1 0x0 PUSH2 0x6617 DUP3 PUSH2 0x5A98 JUMP JUMPDEST SWAP2 POP PUSH2 0x6622 DUP4 PUSH2 0x5A98 JUMP JUMPDEST SWAP3 POP DUP3 DUP3 SUB SWAP1 POP DUP2 DUP2 SLT PUSH1 0x0 DUP5 SLT AND DUP3 DUP3 SGT PUSH1 0x0 DUP6 SLT ISZERO AND OR ISZERO PUSH2 0x6649 JUMPI PUSH2 0x6648 PUSH2 0x5BCC JUMP JUMPDEST JUMPDEST SWAP3 SWAP2 POP POP JUMP JUMPDEST PUSH1 0x0 PUSH2 0x665A DUP3 PUSH2 0x5A98 JUMP JUMPDEST SWAP2 POP PUSH2 0x6665 DUP4 PUSH2 0x5A98 JUMP JUMPDEST SWAP3 POP DUP3 DUP3 MUL PUSH2 0x6673 DUP2 PUSH2 0x5A98 JUMP JUMPDEST SWAP2 POP PUSH32 0x8000000000000000000000000000000000000000000000000000000000000000 DUP5 EQ PUSH1 0x0 DUP5 SLT AND ISZERO PUSH2 0x66AB JUMPI PUSH2 0x66AA PUSH2 0x5BCC JUMP JUMPDEST JUMPDEST DUP3 DUP3 SDIV DUP5 EQ DUP4 ISZERO OR PUSH2 0x66C0 JUMPI PUSH2 0x66BF PUSH2 0x5BCC JUMP JUMPDEST JUMPDEST POP SWAP3 SWAP2 POP POP JUMP JUMPDEST PUSH1 0x0 PUSH2 0x66D2 DUP3 PUSH2 0x5A98 JUMP JUMPDEST SWAP2 POP PUSH2 0x66DD DUP4 PUSH2 0x5A98 JUMP JUMPDEST SWAP3 POP DUP3 DUP3 ADD SWAP1 POP DUP3 DUP2 SLT ISZERO PUSH1 0x0 DUP4 SLT AND DUP4 DUP3 SLT PUSH1 0x0 DUP5 SLT ISZERO AND OR ISZERO PUSH2 0x6705 JUMPI PUSH2 0x6704 PUSH2 0x5BCC JUMP JUMPDEST JUMPDEST SWAP3 SWAP2 POP POP JUMP JUMPDEST PUSH1 0x0 PUSH2 0x6716 DUP3 PUSH2 0x5299 JUMP JUMPDEST SWAP2 POP PUSH2 0x6721 DUP4 PUSH2 0x5299 JUMP JUMPDEST SWAP3 POP DUP3 DUP3 SUB SWAP1 POP PUSH2 0xFFFF DUP2 GT ISZERO PUSH2 0x673B JUMPI PUSH2 0x673A PUSH2 0x5BCC JUMP JUMPDEST JUMPDEST SWAP3 SWAP2 POP POP JUMP JUMPDEST PUSH1 0x0 PUSH2 0x674C DUP3 PUSH2 0x5299 JUMP JUMPDEST SWAP2 POP PUSH2 0x6757 DUP4 PUSH2 0x5299 JUMP JUMPDEST SWAP3 POP DUP3 DUP3 ADD SWAP1 POP PUSH2 0xFFFF DUP2 GT ISZERO PUSH2 0x6771 JUMPI PUSH2 0x6770 PUSH2 0x5BCC JUMP JUMPDEST JUMPDEST SWAP3 SWAP2 POP POP JUMP JUMPDEST PUSH1 0x0 PUSH2 0x6782 DUP3 PUSH2 0x5299 JUMP JUMPDEST SWAP2 POP PUSH2 0x678D DUP4 PUSH2 0x5299 JUMP JUMPDEST SWAP3 POP DUP3 PUSH2 0x679D JUMPI PUSH2 0x679C PUSH2 0x612A JUMP JUMPDEST JUMPDEST DUP3 DUP3 MOD SWAP1 POP SWAP3 SWAP2 POP POP JUMP JUMPDEST PUSH1 0x0 PUSH2 0x67B3 DUP3 PUSH2 0x520C JUMP JUMPDEST SWAP2 POP PUSH2 0x67BE DUP4 PUSH2 0x520C JUMP JUMPDEST SWAP3 POP DUP3 DUP3 SUB SWAP1 POP PUSH4 0xFFFFFFFF DUP2 GT ISZERO PUSH2 0x67DA JUMPI PUSH2 0x67D9 PUSH2 0x5BCC JUMP JUMPDEST JUMPDEST SWAP3 SWAP2 POP POP JUMP JUMPDEST PUSH1 0x0 PUSH2 0x67EB DUP3 PUSH2 0x522B JUMP JUMPDEST SWAP2 POP PUSH2 0x67F6 DUP4 PUSH2 0x522B JUMP JUMPDEST SWAP3 POP DUP3 DUP3 SUB SWAP1 POP PUSH7 0x7FFFFFFFFFFFFF DUP2 SGT PUSH32 0xFFFFFFFFFFFFFFFFFFFFFFFFFFFFFFFFFFFFFFFFFFFFFFFFFF80000000000000 DUP3 SLT OR ISZERO PUSH2 0x6839 JUMPI PUSH2 0x6838 PUSH2 0x5BCC JUMP JUMPDEST JUMPDEST SWAP3 SWAP2 POP POP JUMP JUMPDEST PUSH1 0x0 PUSH2 0x684A DUP3 PUSH2 0x522B JUMP JUMPDEST SWAP2 POP PUSH2 0x6855 DUP4 PUSH2 0x522B JUMP JUMPDEST SWAP3 POP DUP3 PUSH2 0x6865 JUMPI PUSH2 0x6864 PUSH2 0x612A JUMP JUMPDEST JUMPDEST PUSH1 0x1 PUSH1 0x0 SUB DUP4 EQ PUSH32 0xFFFFFFFFFFFFFFFFFFFFFFFFFFFFFFFFFFFFFFFFFFFFFFFFFF80000000000000 DUP4 EQ AND ISZERO PUSH2 0x689E JUMPI PUSH2 0x689D PUSH2 0x5BCC JUMP JUMPDEST JUMPDEST DUP3 DUP3 SDIV SWAP1 POP SWAP3 SWAP2 POP POP JUMP JUMPDEST PUSH1 0x0 PUSH2 0x68B4 DUP3 PUSH2 0x522B JUMP JUMPDEST SWAP2 POP PUSH2 0x68BF DUP4 PUSH2 0x522B JUMP JUMPDEST SWAP3 POP DUP3 DUP3 MUL PUSH2 0x68CD DUP2 PUSH2 0x522B JUMP JUMPDEST SWAP2 POP DUP1 DUP3 EQ PUSH2 0x68DF JUMPI PUSH2 0x68DE PUSH2 0x5BCC JUMP JUMPDEST JUMPDEST POP SWAP3 SWAP2 POP POP JUMP JUMPDEST PUSH1 0x0 PUSH2 0x68F1 DUP3 PUSH2 0x522B JUMP JUMPDEST SWAP2 POP PUSH2 0x68FC DUP4 PUSH2 0x522B JUMP JUMPDEST SWAP3 POP DUP3 DUP3 ADD SWAP1 POP PUSH32 0xFFFFFFFFFFFFFFFFFFFFFFFFFFFFFFFFFFFFFFFFFFFFFFFFFF80000000000000 DUP2 SLT PUSH7 0x7FFFFFFFFFFFFF DUP3 SGT OR ISZERO PUSH2 0x693F JUMPI PUSH2 0x693E PUSH2 0x5BCC JUMP JUMPDEST JUMPDEST SWAP3 SWAP2 POP POP JUMP JUMPDEST PUSH1 0x0 PUSH2 0x6950 DUP3 PUSH2 0x63AB JUMP JUMPDEST SWAP2 POP PUSH2 0x695B DUP4 PUSH2 0x63AB JUMP JUMPDEST SWAP3 POP DUP3 DUP3 ADD SWAP1 POP PUSH1 0xFF DUP2 GT ISZERO PUSH2 0x6974 JUMPI PUSH2 0x6973 PUSH2 0x5BCC JUMP JUMPDEST JUMPDEST SWAP3 SWAP2 POP POP JUMP JUMPDEST PUSH1 0x0 PUSH2 0x6985 DUP3 PUSH2 0x50FD JUMP JUMPDEST SWAP2 POP PUSH2 0x6990 DUP4 PUSH2 0x50FD JUMP JUMPDEST SWAP3 POP DUP3 DUP3 SUB SWAP1 POP PUSH20 0xFFFFFFFFFFFFFFFFFFFFFFFFFFFFFFFFFFFFFFFF DUP2 GT ISZERO PUSH2 0x69BC JUMPI PUSH2 0x69BB PUSH2 0x5BCC JUMP JUMPDEST JUMPDEST SWAP3 SWAP2 POP POP JUMP JUMPDEST PUSH32 0x4F4C440000000000000000000000000000000000000000000000000000000000 PUSH1 0x0 DUP3 ADD MSTORE POP JUMP JUMPDEST PUSH1 0x0 PUSH2 0x69F8 PUSH1 0x3 DUP4 PUSH2 0x6448 JUMP JUMPDEST SWAP2 POP PUSH2 0x6A03 DUP3 PUSH2 0x69C2 JUMP JUMPDEST PUSH1 0x20 DUP3 ADD SWAP1 POP SWAP2 SWAP1 POP JUMP JUMPDEST PUSH1 0x0 PUSH1 0x20 DUP3 ADD SWAP1 POP DUP2 DUP2 SUB PUSH1 0x0 DUP4 ADD MSTORE PUSH2 0x6A27 DUP2 PUSH2 0x69EB JUMP JUMPDEST SWAP1 POP SWAP2 SWAP1 POP JUMP JUMPDEST PUSH1 0x0 PUSH5 0xFFFFFFFFFF DUP3 AND SWAP1 POP SWAP2 SWAP1 POP JUMP JUMPDEST PUSH1 0x0 PUSH2 0x6A4A DUP3 PUSH2 0x6A2E JUMP JUMPDEST SWAP2 POP PUSH2 0x6A55 DUP4 PUSH2 0x6A2E JUMP JUMPDEST SWAP3 POP DUP3 DUP3 ADD SWAP1 POP PUSH5 0xFFFFFFFFFF DUP2 GT ISZERO PUSH2 0x6A72 JUMPI PUSH2 0x6A71 PUSH2 0x5BCC JUMP JUMPDEST JUMPDEST SWAP3 SWAP2 POP POP JUMP INVALID LOG2 PUSH5 0x6970667358 0x22 SLT KECCAK256 PUSH17 0x31C2947C08DCB666A9AE6FD6A22E8C7E19 PUSH18 0x876F690EAAFCF6379CCB533B7964736F6C63 NUMBER STOP ADDMOD SLT STOP CALLER COINBASE TIMESTAMP NUMBER PREVRANDAO GASLIMIT CHAINID SELFBALANCE BASEFEE 0x49 0x4A 0x4B 0x4C 0x4D 0x4E 0x4F POP MLOAD MSTORE MSTORE8 SLOAD SSTORE JUMP JUMPI PC MSIZE GAS PUSH2 0x6263 PUSH5 0x6566676869 PUSH11 0x6B6C6D6E6F707172737475 PUSH23 0x7778797A303132333435363738392B2FA2646970667358 0x22 SLT KECCAK256 TIMESTAMP 0xA6 SWAP1 0xBC PUSH8 0x8718BC7BE2351FC 0x5F 0xB4 0xDC PUSH28 0xDC3123D11AFA8357061042FF3E8B664736F6C634300081200330000 "
		},
		"gasEstimates": {
			"creation": {
				"codeDepositCost": "11026600",
				"executionCost": "infinite",
				"totalCost": "infinite"
			},
			"external": {
				"addLiquidity((uint256,uint256,uint256,uint256,uint256))": "infinite",
				"approve(address,uint256)": "31584",
				"balanceOf(address)": "2921",
				"burn(uint256)": "infinite",
				"collect((uint256,uint128,uint128))": "infinite",
				"factory()": "infinite",
				"getApproved(uint256)": "2907",
				"isApprovedForAll(address,address)": "infinite",
				"mint((address,address,address,uint24,int24,int24,uint256,uint256,uint256,uint256))": "infinite",
				"name()": "infinite",
				"ownerOf(uint256)": "2976",
				"positions(uint256)": "infinite",
				"removeLiquidity((uint256,uint128))": "infinite",
				"safeTransferFrom(address,address,uint256)": "infinite",
				"safeTransferFrom(address,address,uint256,bytes)": "infinite",
				"setApprovalForAll(address,bool)": "infinite",
				"supportsInterface(bytes4)": "745",
				"symbol()": "infinite",
				"tokenURI(uint256)": "infinite",
				"totalSupply()": "2452",
				"transferFrom(address,address,uint256)": "infinite",
				"uniswapV3MintCallback(uint256,uint256,bytes)": "infinite"
			},
			"internal": {
				"_addLiquidity(struct UniswapV3NFTManager.AddLiquidityInternalParams memory)": "infinite",
				"getPool(address,address,uint24)": "infinite",
				"poolPositionKey(struct UniswapV3NFTManager.TokenPosition memory)": "infinite",
				"positionKey(struct UniswapV3NFTManager.TokenPosition memory)": "infinite"
			}
		},
		"methodIdentifiers": {
			"addLiquidity((uint256,uint256,uint256,uint256,uint256))": "4caad396",
			"approve(address,uint256)": "095ea7b3",
			"balanceOf(address)": "70a08231",
			"burn(uint256)": "42966c68",
			"collect((uint256,uint128,uint128))": "5f032ef4",
			"factory()": "c45a0155",
			"getApproved(uint256)": "081812fc",
			"isApprovedForAll(address,address)": "e985e9c5",
			"mint((address,address,address,uint24,int24,int24,uint256,uint256,uint256,uint256))": "e7dd4c5a",
			"name()": "06fdde03",
			"ownerOf(uint256)": "6352211e",
			"positions(uint256)": "99fbab88",
			"removeLiquidity((uint256,uint128))": "12ba95ee",
			"safeTransferFrom(address,address,uint256)": "42842e0e",
			"safeTransferFrom(address,address,uint256,bytes)": "b88d4fde",
			"setApprovalForAll(address,bool)": "a22cb465",
			"supportsInterface(bytes4)": "01ffc9a7",
			"symbol()": "95d89b41",
			"tokenURI(uint256)": "c87b56dd",
			"totalSupply()": "18160ddd",
			"transferFrom(address,address,uint256)": "23b872dd",
			"uniswapV3MintCallback(uint256,uint256,bytes)": "d3487997"
		}
	},
	"abi": [
		{
			"inputs": [
				{
					"internalType": "address",
					"name": "factoryAddress",
					"type": "address"
				}
			],
			"stateMutability": "nonpayable",
			"type": "constructor"
		},
		{
			"inputs": [],
			"name": "NotAuthorized",
			"type": "error"
		},
		{
			"inputs": [],
			"name": "NotEnoughLiquidity",
			"type": "error"
		},
		{
			"inputs": [
				{
					"internalType": "uint256",
					"name": "prod1",
					"type": "uint256"
				},
				{
					"internalType": "uint256",
					"name": "denominator",
					"type": "uint256"
				}
			],
			"name": "PRBMath__MulDivOverflow",
			"type": "error"
		},
		{
			"inputs": [],
			"name": "PositionNotCleared",
			"type": "error"
		},
		{
			"inputs": [
				{
					"internalType": "uint256",
					"name": "amount0",
					"type": "uint256"
				},
				{
					"internalType": "uint256",
					"name": "amount1",
					"type": "uint256"
				}
			],
			"name": "SlippageCheckFailed",
			"type": "error"
		},
		{
			"inputs": [],
			"name": "WrongToken",
			"type": "error"
		},
		{
			"anonymous": false,
			"inputs": [
				{
					"indexed": true,
					"internalType": "uint256",
					"name": "tokenId",
					"type": "uint256"
				},
				{
					"indexed": false,
					"internalType": "uint128",
					"name": "liquidity",
					"type": "uint128"
				},
				{
					"indexed": false,
					"internalType": "uint256",
					"name": "amount0",
					"type": "uint256"
				},
				{
					"indexed": false,
					"internalType": "uint256",
					"name": "amount1",
					"type": "uint256"
				}
			],
			"name": "AddLiquidity",
			"type": "event"
		},
		{
			"anonymous": false,
			"inputs": [
				{
					"indexed": true,
					"internalType": "address",
					"name": "owner",
					"type": "address"
				},
				{
					"indexed": true,
					"internalType": "address",
					"name": "spender",
					"type": "address"
				},
				{
					"indexed": true,
					"internalType": "uint256",
					"name": "id",
					"type": "uint256"
				}
			],
			"name": "Approval",
			"type": "event"
		},
		{
			"anonymous": false,
			"inputs": [
				{
					"indexed": true,
					"internalType": "address",
					"name": "owner",
					"type": "address"
				},
				{
					"indexed": true,
					"internalType": "address",
					"name": "operator",
					"type": "address"
				},
				{
					"indexed": false,
					"internalType": "bool",
					"name": "approved",
					"type": "bool"
				}
			],
			"name": "ApprovalForAll",
			"type": "event"
		},
		{
			"anonymous": false,
			"inputs": [
				{
					"indexed": true,
					"internalType": "uint256",
					"name": "tokenId",
					"type": "uint256"
				},
				{
					"indexed": false,
					"internalType": "uint128",
					"name": "liquidity",
					"type": "uint128"
				},
				{
					"indexed": false,
					"internalType": "uint256",
					"name": "amount0",
					"type": "uint256"
				},
				{
					"indexed": false,
					"internalType": "uint256",
					"name": "amount1",
					"type": "uint256"
				}
			],
			"name": "RemoveLiquidity",
			"type": "event"
		},
		{
			"anonymous": false,
			"inputs": [
				{
					"indexed": true,
					"internalType": "address",
					"name": "from",
					"type": "address"
				},
				{
					"indexed": true,
					"internalType": "address",
					"name": "to",
					"type": "address"
				},
				{
					"indexed": true,
					"internalType": "uint256",
					"name": "id",
					"type": "uint256"
				}
			],
			"name": "Transfer",
			"type": "event"
		},
		{
			"inputs": [
				{
					"components": [
						{
							"internalType": "uint256",
							"name": "tokenId",
							"type": "uint256"
						},
						{
							"internalType": "uint256",
							"name": "amount0Desired",
							"type": "uint256"
						},
						{
							"internalType": "uint256",
							"name": "amount1Desired",
							"type": "uint256"
						},
						{
							"internalType": "uint256",
							"name": "amount0Min",
							"type": "uint256"
						},
						{
							"internalType": "uint256",
							"name": "amount1Min",
							"type": "uint256"
						}
					],
					"internalType": "struct UniswapV3NFTManager.AddLiquidityParams",
					"name": "params",
					"type": "tuple"
				}
			],
			"name": "addLiquidity",
			"outputs": [
				{
					"internalType": "uint128",
					"name": "liquidity",
					"type": "uint128"
				},
				{
					"internalType": "uint256",
					"name": "amount0",
					"type": "uint256"
				},
				{
					"internalType": "uint256",
					"name": "amount1",
					"type": "uint256"
				}
			],
			"stateMutability": "nonpayable",
			"type": "function"
		},
		{
			"inputs": [
				{
					"internalType": "address",
					"name": "spender",
					"type": "address"
				},
				{
					"internalType": "uint256",
					"name": "id",
					"type": "uint256"
				}
			],
			"name": "approve",
			"outputs": [],
			"stateMutability": "nonpayable",
			"type": "function"
		},
		{
			"inputs": [
				{
					"internalType": "address",
					"name": "owner",
					"type": "address"
				}
			],
			"name": "balanceOf",
			"outputs": [
				{
					"internalType": "uint256",
					"name": "",
					"type": "uint256"
				}
			],
			"stateMutability": "view",
			"type": "function"
		},
		{
			"inputs": [
				{
					"internalType": "uint256",
					"name": "tokenId",
					"type": "uint256"
				}
			],
			"name": "burn",
			"outputs": [],
			"stateMutability": "nonpayable",
			"type": "function"
		},
		{
			"inputs": [
				{
					"components": [
						{
							"internalType": "uint256",
							"name": "tokenId",
							"type": "uint256"
						},
						{
							"internalType": "uint128",
							"name": "amount0",
							"type": "uint128"
						},
						{
							"internalType": "uint128",
							"name": "amount1",
							"type": "uint128"
						}
					],
					"internalType": "struct UniswapV3NFTManager.CollectParams",
					"name": "params",
					"type": "tuple"
				}
			],
			"name": "collect",
			"outputs": [
				{
					"internalType": "uint128",
					"name": "amount0",
					"type": "uint128"
				},
				{
					"internalType": "uint128",
					"name": "amount1",
					"type": "uint128"
				}
			],
			"stateMutability": "nonpayable",
			"type": "function"
		},
		{
			"inputs": [],
			"name": "factory",
			"outputs": [
				{
					"internalType": "address",
					"name": "",
					"type": "address"
				}
			],
			"stateMutability": "view",
			"type": "function"
		},
		{
			"inputs": [
				{
					"internalType": "uint256",
					"name": "",
					"type": "uint256"
				}
			],
			"name": "getApproved",
			"outputs": [
				{
					"internalType": "address",
					"name": "",
					"type": "address"
				}
			],
			"stateMutability": "view",
			"type": "function"
		},
		{
			"inputs": [
				{
					"internalType": "address",
					"name": "",
					"type": "address"
				},
				{
					"internalType": "address",
					"name": "",
					"type": "address"
				}
			],
			"name": "isApprovedForAll",
			"outputs": [
				{
					"internalType": "bool",
					"name": "",
					"type": "bool"
				}
			],
			"stateMutability": "view",
			"type": "function"
		},
		{
			"inputs": [
				{
					"components": [
						{
							"internalType": "address",
							"name": "recipient",
							"type": "address"
						},
						{
							"internalType": "address",
							"name": "tokenA",
							"type": "address"
						},
						{
							"internalType": "address",
							"name": "tokenB",
							"type": "address"
						},
						{
							"internalType": "uint24",
							"name": "fee",
							"type": "uint24"
						},
						{
							"internalType": "int24",
							"name": "lowerTick",
							"type": "int24"
						},
						{
							"internalType": "int24",
							"name": "upperTick",
							"type": "int24"
						},
						{
							"internalType": "uint256",
							"name": "amount0Desired",
							"type": "uint256"
						},
						{
							"internalType": "uint256",
							"name": "amount1Desired",
							"type": "uint256"
						},
						{
							"internalType": "uint256",
							"name": "amount0Min",
							"type": "uint256"
						},
						{
							"internalType": "uint256",
							"name": "amount1Min",
							"type": "uint256"
						}
					],
					"internalType": "struct UniswapV3NFTManager.MintParams",
					"name": "params",
					"type": "tuple"
				}
			],
			"name": "mint",
			"outputs": [
				{
					"internalType": "uint256",
					"name": "tokenId",
					"type": "uint256"
				}
			],
			"stateMutability": "nonpayable",
			"type": "function"
		},
		{
			"inputs": [],
			"name": "name",
			"outputs": [
				{
					"internalType": "string",
					"name": "",
					"type": "string"
				}
			],
			"stateMutability": "view",
			"type": "function"
		},
		{
			"inputs": [
				{
					"internalType": "uint256",
					"name": "id",
					"type": "uint256"
				}
			],
			"name": "ownerOf",
			"outputs": [
				{
					"internalType": "address",
					"name": "owner",
					"type": "address"
				}
			],
			"stateMutability": "view",
			"type": "function"
		},
		{
			"inputs": [
				{
					"internalType": "uint256",
					"name": "",
					"type": "uint256"
				}
			],
			"name": "positions",
			"outputs": [
				{
					"internalType": "address",
					"name": "pool",
					"type": "address"
				},
				{
					"internalType": "int24",
					"name": "lowerTick",
					"type": "int24"
				},
				{
					"internalType": "int24",
					"name": "upperTick",
					"type": "int24"
				}
			],
			"stateMutability": "view",
			"type": "function"
		},
		{
			"inputs": [
				{
					"components": [
						{
							"internalType": "uint256",
							"name": "tokenId",
							"type": "uint256"
						},
						{
							"internalType": "uint128",
							"name": "liquidity",
							"type": "uint128"
						}
					],
					"internalType": "struct UniswapV3NFTManager.RemoveLiquidityParams",
					"name": "params",
					"type": "tuple"
				}
			],
			"name": "removeLiquidity",
			"outputs": [
				{
					"internalType": "uint256",
					"name": "amount0",
					"type": "uint256"
				},
				{
					"internalType": "uint256",
					"name": "amount1",
					"type": "uint256"
				}
			],
			"stateMutability": "nonpayable",
			"type": "function"
		},
		{
			"inputs": [
				{
					"internalType": "address",
					"name": "from",
					"type": "address"
				},
				{
					"internalType": "address",
					"name": "to",
					"type": "address"
				},
				{
					"internalType": "uint256",
					"name": "id",
					"type": "uint256"
				}
			],
			"name": "safeTransferFrom",
			"outputs": [],
			"stateMutability": "nonpayable",
			"type": "function"
		},
		{
			"inputs": [
				{
					"internalType": "address",
					"name": "from",
					"type": "address"
				},
				{
					"internalType": "address",
					"name": "to",
					"type": "address"
				},
				{
					"internalType": "uint256",
					"name": "id",
					"type": "uint256"
				},
				{
					"internalType": "bytes",
					"name": "data",
					"type": "bytes"
				}
			],
			"name": "safeTransferFrom",
			"outputs": [],
			"stateMutability": "nonpayable",
			"type": "function"
		},
		{
			"inputs": [
				{
					"internalType": "address",
					"name": "operator",
					"type": "address"
				},
				{
					"internalType": "bool",
					"name": "approved",
					"type": "bool"
				}
			],
			"name": "setApprovalForAll",
			"outputs": [],
			"stateMutability": "nonpayable",
			"type": "function"
		},
		{
			"inputs": [
				{
					"internalType": "bytes4",
					"name": "interfaceId",
					"type": "bytes4"
				}
			],
			"name": "supportsInterface",
			"outputs": [
				{
					"internalType": "bool",
					"name": "",
					"type": "bool"
				}
			],
			"stateMutability": "view",
			"type": "function"
		},
		{
			"inputs": [],
			"name": "symbol",
			"outputs": [
				{
					"internalType": "string",
					"name": "",
					"type": "string"
				}
			],
			"stateMutability": "view",
			"type": "function"
		},
		{
			"inputs": [
				{
					"internalType": "uint256",
					"name": "tokenId",
					"type": "uint256"
				}
			],
			"name": "tokenURI",
			"outputs": [
				{
					"internalType": "string",
					"name": "",
					"type": "string"
				}
			],
			"stateMutability": "view",
			"type": "function"
		},
		{
			"inputs": [],
			"name": "totalSupply",
			"outputs": [
				{
					"internalType": "uint256",
					"name": "",
					"type": "uint256"
				}
			],
			"stateMutability": "view",
			"type": "function"
		},
		{
			"inputs": [
				{
					"internalType": "address",
					"name": "from",
					"type": "address"
				},
				{
					"internalType": "address",
					"name": "to",
					"type": "address"
				},
				{
					"internalType": "uint256",
					"name": "id",
					"type": "uint256"
				}
			],
			"name": "transferFrom",
			"outputs": [],
			"stateMutability": "nonpayable",
			"type": "function"
		},
		{
			"inputs": [
				{
					"internalType": "uint256",
					"name": "amount0",
					"type": "uint256"
				},
				{
					"internalType": "uint256",
					"name": "amount1",
					"type": "uint256"
				},
				{
					"internalType": "bytes",
					"name": "data",
					"type": "bytes"
				}
			],
			"name": "uniswapV3MintCallback",
			"outputs": [],
			"stateMutability": "nonpayable",
			"type": "function"
		}
	]
}